:10000000F5C0000024C1000022C1000020C1000092
:100010001EC100001CC100001AC1000018C1000070
:1000200016C1000014C1000012C1000010C1000080
:100030000EC100000CC100000AC1000008C1000090
:1000400006C1000004C1000002C1000000C10000A0
:10005000FEC00000FCC00000FAC000000C947D321D
:10006000F6C000000C94E4380C941439F0C0000081
:10007000EEC00000ECC00000EAC00000E8C00000D4
:10008000E6C00000E4C00000E2C00000E0C00000E4
:100090000C948B390C94BB39DAC00000D8C0000036
:1000A000D6C00000D4C00000D2C00000D0C0000004
:1000B000CEC00000CCC00000CAC00000C8C0000014
:1000C000C6C00000C4C00000C2C000000C94323A98
:1000D0000C94623ABCC000000C94D93A0C94093BD1
:1000E000B6C00000001D3A2774694E53E8F5D2CF20
:1000F0009C81A6BBCDD0F7EAB9A4839E25381F0208
:10010000514C6B76879ABDA0F3EEC9D46F725548F7
:100110001B06213C4A57706D3E230419A2BF9885E7
:10012000D6CBECF1130E2934677A5D40FBE6C1DCD7
:100130008F92B5A8DEC3E4F9AAB7908D362B0C11C7
:10014000425F78659489AEB3E0FDDAC77C61465BB7
:100150000815322F5944637E2D30170AB1AC8B96A7
:10016000C5D8FFE2263B1C01524F6875CED3F4E997
:10017000BAA7809DEBF6D1CC9F82A5B8031E392487
:10018000776A4D50A1BC9B86D5C8EFF24954736E77
:100190003D20071A6C71564B1805223F8499BEA367
:1001A000F0EDCAD735280F12415C7B66DDC0E7FA57
:1001B000A9B4938EF8E5C2DF8C91B6AB100D2A3747
:1001C00064795E43B2AF8895C6DBFCE15A47607D37
:1001D0002E3314097F6245580B16312C978AADB027
:1001E000E3FED9C47F39263ACD3A763B11241FBEAF
:1001F000CFEFD1E2DEBFCDBF00E00CBF13E0A0E047
:10020000B2E0E4ECFAE700E00BBF02C007900D9209
:10021000AA35B107D9F726E0AAE5B3E001C01D92DF
:10022000AF3EB207E1F710E0C6EFD0E000E006C055
:1002300021970109802FFE010E94FC3BC23FD1079C
:1002400080E00807A9F70E9438300C94603DD8CEB2
:100250008F929F92AF92BF92CF92DF92EF92FF92D6
:100260000F931F93CF93DF93CDB7DEB781E090E07C
:100270000E9499188AE593E0FC0186899789A08DF0
:10028000B18DAC01BD0180E090E00E946E188AE55E
:1002900093E0FC0186A197A1A0A5B1A520E030E0E4
:1002A00040E85FEBBC01CD010E9460318823E1F1A1
:1002B0008AE593E0FC0186A197A1A0A5B1A52AE556
:1002C00033E0F90126893789408D518DBC01CD017C
:1002D0000E94FB30DC01CB016C017D018AE593E0DB
:1002E000FC0186899789A08DB18D20E030E040E047
:1002F00054E3BC01CD010E941A32DC01CB0111E0B4
:100300009C01AD01C701B6010E94163218160CF00F
:1003100010E081E08127882339F08AE593E029EC19
:1003200032E0FC01318320838AE593E0FC0182A561
:10033000882339F08AE593E029EC32E0FC0131832F
:1003400020832AE533E0F901828D938DA48DB58D4C
:100350000196A11DB11DF901828F938FA48FB58FD6
:10036000F901828D938DA48DB58D892B8A2B8B2BD2
:1003700079F42AE533E0F901868D978DA0A1B1A12A
:100380000196A11DB11DF901868F978FA0A3B1A37E
:100390008AE593E0FC01828D938DA48DB58DBC011F
:1003A000CD010E9464317B018C018AE593E0FC0160
:1003B00082A193A1A4A1B5A19C01AD01C801B7017F
:1003C0000E941A32DC01CB016C017D018AE593E0C9
:1003D000FC01868D978DA0A1B1A1BC01CD010E9429
:1003E00064314B015C018AE593E0FC0182A193A199
:1003F000A4A1B5A19C01AD01C501B4010E941A32AE
:10040000DC01CB0120E030E040E85FE4BC01CD013D
:100410000E941A32DC01CB010AE513E09C01AD0118
:10042000C701B6010E94FC30DC01CB01F801868BCC
:10043000978BA08FB18F0000DF91CF911F910F910B
:10044000FF90EF90DF90CF90BF90AF909F908F90F4
:100450000895CF93DF93CDB7DEB78AE593E04BE203
:1004600050E060E070E00E94503D2AE533E080E01B
:1004700090E0A0E2B1E4F90186A397A3A0A7B1A7F9
:100480002AE533E08DEC9CECACE4BEE3F90182A3F9
:1004900093A3A4A3B5A32AE533E087E39CEAACE0E9
:1004A000BAEFF90184839583A683B7832AE533E005
:1004B00088EF99E2AFE9B4E0F90180879187A287DC
:1004C000B3872AE533E081E896EDA7E2B6E3F901C8
:1004D00084879587A687B7872AE533E081E39EE97D
:1004E000AEE3BBECF901808B918BA28BB38B8AE5D9
:1004F00093E025E833E0FC013383228381E993E034
:10050000909386038093850389E293E0909392030E
:100510008093910389E293E09093940380939303F3
:100520002AE533E08AE593E0FC01828193812C5E29
:100530003F4FFC01358324832AE533E08AE593E0CD
:10054000FC01828193812C5F3F4FFC013383228326
:100550002AE533E08AE593E0FC01828193812A5EFB
:100560003F4FFC013783268344E150E060E070E0B8
:1005700085E993E00E94503D8AE593E025E933E068
:10058000FC01358B248B8EE090E090939603809352
:10059000950386E092E0909398038093970382E21C
:1005A00092E090939A03809399030000DF91CF919A
:1005B0000895CF93DF93CDB7DEB70000DF91CF91E1
:1005C0000895CF93DF93CDB7DEB7E6970FB6F894D3
:1005D000DEBF0FBECDBF9CAB8BAB7EAB6DAB8DA931
:1005E0009EA99C838B831E821D8281E090E0988768
:1005F0008F8382E090E09A87898783E090E09C87F0
:100600008B8780E190E09E878D878BA99CA9FC0158
:1006100084819581FC0180819181988B8F878F8562
:100620009889FC01808591859A8B898B8F85988923
:10063000FC01828193819C8B8B8B8B819C81FC0143
:1006400080819181A281B3818F8F98A3A9A3BAA33E
:100650008B819C8104969C838B831A821982D7C0DC
:100660004D855E852B813C81CE018396B9010E9428
:10067000473D8D859E852B813C81820F931F9C83F6
:100680008B8389899A89FC01228133818D819E81A6
:10069000880F991F880F991FAE014F5F5F4F840F1E
:1006A000951F8296FC0180819181A281B381880F80
:1006B000991F880F991F880F991F820F931FFC01A4
:1006C000808191819E8B8D8B89899A89FC01228101
:1006D00033818D819E81880F991F880F991FAE01EC
:1006E0004F5F5F4F840F951F8296FC01808191813F
:1006F000A281B381880F991F880F991F880F991FB6
:10070000820F931FFC0184819581988F8F8B8B853D
:100710009C85880F991F880F991F9E012F5F3F4F5F
:10072000820F931F8296FC0180819181A281B38107
:10073000880F991F2B893C89820F931FFC014081F0
:1007400051818F89988D892B19F082E090E002C049
:1007500081E090E0849F9001859F300D949F300D43
:1007600011243A8F298F89859A85880F991F880FC0
:10077000991F9E012F5F3F4F820F931F8296FC01AE
:1007800080819181A281B381AC01298D3A8D429FF4
:10079000C001439F900D529F900D11249C8F8B8F11
:1007A0008F819885880F991F880F991F9E012F5F51
:1007B0003F4F820F931F8296FC0180819181A2811D
:1007C000B381AC01298D3A8D429FC001439F900DAA
:1007D000529F900D11242D893E89820F931F9E8F69
:1007E0008D8F4B8D5C8D2B813C818D8D9E8DB901C4
:1007F0000E94473D8B8D9C8D2B813C81820F931FE6
:100800009C838B8389819A8101969A8389838981CC
:100810009A819C01990F440B550B8F8D98A1A9A12A
:10082000BAA1281739074A075B070CF419CF000053
:10083000E6960FB6F894DEBF0FBECDBFDF91CF9125
:100840000895CF93DF93CDB7DEB76E970FB6F894C8
:10085000DEBF0FBECDBF9A8F898F7C8F6B8F5E8F6F
:100860004D8F898D9A8DFC0184819581FC01808159
:1008700091819A83898389819A81FC0186819781FC
:100880009C838B8389819A81FC01828193819E83E1
:100890008D8318861F8281E090E09A87898782E0A5
:1008A00090E09C878B8783E090E09E878D878B818B
:1008B0009C81FC01228133818F819885880F991F4B
:1008C000880F991F4B8D5C8D840F951FFC018081D3
:1008D0009181A281B381880F991F880F991F880F7A
:1008E000991F820F931FFC0180819181988B8F87C4
:1008F0008B819C81FC01228133818F819885880FB7
:10090000991F880F991F4B8D5C8D840F951FFC01DB
:1009100080819181A281B381880F991F880F991FCF
:10092000880F991F820F931FFC01848195819A8BF8
:10093000898B8D859E85880F991F880F991F2B8D18
:100940003C8D820F931FFC0180819181A281B38134
:10095000880F991F2D813E81820F931FFC014081DA
:10096000518189899A89892B19F082E090E002C02F
:1009700081E090E0849F9001859F300D949F300D21
:1009800011243C8B2B8B8B859C85880F991F880F9E
:10099000991F2B8D3C8D820F931FFC0180819181CB
:1009A000A281B381AC012B893C89429FC001439F46
:1009B000900D529F900D11249E8B8D8B89859A8569
:1009C000880F991F880F991F2B8D3C8D820F931FC5
:1009D000FC0180819181A281B381AC012B893C898A
:1009E000429FC001439F900D529F900D1124988FFC
:1009F0008F8B8F89988D2F853889280F391F8D8D82
:100A00009E8DFC01318320838D8D9E8D2D893E89A5
:100A1000FC013383228300006E960FB6F894DEBF8C
:100A20000FBECDBFDF91CF9108950F931F93CF934A
:100A3000DF93CDB7DEB7E1970FB6F894DEBF0FBEF8
:100A4000CDBF9BA78AA77DA76CA75FA74EA739AB91
:100A500028AB88A999A9FC01808191819C838B8313
:100A60001D828B819C81FC0180819181A281B38157
:100A70008A8B9B8BAC8BBD8B8B819C8104969C83DA
:100A80008B838AA59BA5FC01208131818A899B8962
:100A9000AC89BD89880F991F820F931FFC012081AB
:100AA00031818EA59FA5FC01318320838B819C81A0
:100AB000FC0180819181A281B3818E879F87A88B61
:100AC000B98B8B819C8104969C838B838CA59DA57F
:100AD00062E070E00E94043C9C018EA59FA5FC0191
:100AE000338322838EA59FA5FC0182819381892B6C
:100AF00019F481E08D83F6C01A821982E2C08B81DD
:100B00009C81FC0180819181A281B3818E8B9F8B1E
:100B1000A88FB98F8B819C8104969C838B838EA533
:100B20009FA5FC01228133818E899F89A88DB98D73
:100B3000880F991F8901080F191F68E070E081E094
:100B400090E00E94043CF801918380838EA59FA5CC
:100B5000FC01228133818E899F89A88DB98D880FF0
:100B6000991F820F931FFC0180819181892B19F4B9
:100B700081E08D83B7C08EA59FA5FC0122813381C2
:100B80008E899F89A88DB98D880F991F820F931F19
:100B9000FC01808191819B878A878A859B852B8137
:100BA0003C8144E050E0B9010E94473D8B819C812B
:100BB00004969C838B838A859B85FC01808191812F
:100BC000A281B381181619061A061B06E4F48A8559
:100BD0009B85FC0180819181A281B38164E070E0FA
:100BE0000E94043C9C018A859B85FC0135832483FB
:100BF0008A859B85FC0184819581892B21F481E084
:100C00008D8300006FC01E821F821886198643C024
:100C10008A859B85FC01248135818E819F81880F87
:100C2000991F880F991F820F931F9D878C878B8137
:100C30009C8120E1FC01DE015A9601900D922A95DB
:100C4000E1F78B819C8140969C838B834C855D85ED
:100C50009E01265E3F4F8AA59BA5B901F2DD8A85DC
:100C60009B85FC01268137818C859D85FC018281D5
:100C70009381280F391F8A859B85FC013783268342
:100C80008E819F81A885B9850196A11DB11D8E8396
:100C90009F83A887B9878A859B85FC018081918184
:100CA000A281B3812E813F81488559852817390754
:100CB0004A075B070CF4ACCF89819A8101969A832D
:100CC000898389819A819C01990F440B550B8E85EC
:100CD0009F85A889B989281739074A075B070CF44B
:100CE0000ECF000088A999A92B813C81FC0131839A
:100CF00020838D81E1960FB6F894DEBF0FBECDBF85
:100D0000DF91CF911F910F910895CF93DF9300D082
:100D100000D01F92CDB7DEB79B838A834C835D835F
:100D20006E837F8319828C819D81AE81BF81BB23BD
:100D30001CF481E0898349C08A819B8121E030E0F5
:100D4000FC01318320838C819D81AE81BF81181687
:100D500019061A061B06A4F48C819D810E941E3C74
:100D60009C018A819B81FC01358324838A819B813C
:100D7000FC0184819581892B41F481E0898325C020
:100D80008A819B81FC01158214822C813D818A819C
:100D90009B81FC01338322838A819B81FC01248116
:100DA00035818A819B81FC01378326838A819B81DF
:100DB000FC01248135818A819B81FC013187208758
:100DC0008A819B81FC0113861286898127960FB642
:100DD000F894DEBF0FBECDBFDF91CF910895CF93C2
:100DE000DF9300D000D000D01F92CDB7DEB76F8365
:100DF000788789879A872F81388544E4429FC0018C
:100E0000439F900D112486559C4F9A838983898135
:100E10009A8142969C838B838B819C814C969E8386
:100E20008D838D819E81FC0184819581892B61F068
:100E30008D819E81FC01848195810E94BA3C8D81C7
:100E40009E81FC01158214828B819C81FC0184A10E
:100E500095A1892B61F08B819C81FC0184A195A1D6
:100E60000E94BA3C8B819C81FC0115A214A28B814B
:100E70009C81FC01118210828B819C81FC01148277
:100E80001582168217828B819C81FC011086118647
:100E9000128613868B819C81FC011486158616862A
:100EA00017868B819C8121E030E0FC01318B208B07
:100EB0008B819C81FC01138A128A8B819C81FC01AD
:100EC000148A158A168A178A8B819C81FC01118EDF
:100ED000108E8B819C81FC01138E128E8B819C81E4
:100EE000FC01148E158E168E178E8B819C81FC0151
:100EF00011A210A28B819C81FC0113A212A28B81F2
:100F00009C81FC0115A214A28B819C81FC0117A27B
:100F100016A28B819C81FC0110A611A612A613A615
:100F20008B819C81FC0114A615A616A617A68B81A1
:100F30009C81FC0111AA10AA00002A960FB6F89411
:100F4000DEBF0FBECDBFDF91CF910895CF93DF936A
:100F500000D000D0CDB7DEB76B837C838D839E83BA
:100F60002B813C8144E4429FC001439F900D11249A
:100F700086559C4F9A8389838B819C81825C9D4F8F
:100F8000FC018081882371F089819A8144E450E0DA
:100F900060E070E00E94503D8B819C81825C9D4F9F
:100FA000FC01108289819A81FC01148215821682CB
:100FB000178289819A81FC011186108689819A8124
:100FC000FC011386128689819A81FC01118A108A9C
:100FD00089819A81FC01178616868B819C81AD815F
:100FE000BE81BC01CD01FBDE000026960FB6F89451
:100FF000DEBF0FBECDBFDF91CF910895CF93DF93BA
:10100000CDB7DEB72E970FB6F894DEBF0FBECDBFBB
:1010100069877A878B879C875E874D8729853A8584
:1010200044E4429FC001439F900D112486559C4F7C
:101030009E838D838D819E81FC0184819581A68113
:10104000B781892B8A2B8B2B09F4C4C01A82198291
:1010500054C08D819E81FC012085318589819A81D2
:10106000880F991F880F991F820F931FFC0182819F
:10107000938198878F831C821B822FC08B819C81D8
:10108000880F991F2F813885820F931FFC01808163
:101090009181892BE9F08B819C81880F991F2F8189
:1010A0003885820F931FFC0180819181FC0184812E
:1010B00095810E94BA3C8B819C81880F991F2F815A
:1010C0003885820F931FFC01808191810E94BA3C78
:1010D0008B819C8101969C838B832B813C818D85A8
:1010E0009E852817390754F28F8198850E94BA3C53
:1010F00089819A8101969A83898389819A819C0149
:10110000990F440B550B8D819E81FC018481958143
:10111000A681B781281739074A075B070CF499CFD6
:101120008D819E81FC01808591850E94BA3C8D81D4
:101130009E81FC0182859385892B79F11A8219821F
:101140001EC08D819E81FC014285538529813A8193
:10115000C901880F991F880F991F880F991F821B3B
:10116000930B880F991F840F951FFC018481958133
:101170000E94BA3C89819A8101969A838983298148
:101180003A818D859E8528173907DCF28D819E81F5
:10119000FC01828593850E94BA3C8D819E81FC0171
:1011A000808991890E94BA3C8D819E81FC0186854F
:1011B00097850E94BA3C89859A85AB85BC85BC0120
:1011C000CD010DDE89859A85AB85BC85BC01CD013D
:1011D000BDDE01C000002E960FB6F894DEBF0FBE34
:1011E000CDBFDF91CF910895CF93DF9300D000D092
:1011F000CDB7DEB76B837C838D839E832B813C814F
:1012000044E4429FC001439F900D112486559C4F9A
:101210009A83898389819A81FC01828993898430A8
:101220009105A0F0069798F489819A8125E030E035
:10123000FC01338B228B29813A818FEF9FEFDC01F8
:10124000F901828F938FA48FB58F01C00000000039
:1012500026960FB6F894DEBF0FBECDBFDF91CF91BB
:1012600008950F931F93CF93DF93CDB7DEB76797A2
:101270000FB6F894DEBF0FBECDBF9F878E87798BE8
:10128000688B5B8B4A8B0C8B1D8B2E8B3F8B1D824F
:101290008A899B89998788872C893D8944E4429F64
:1012A000C001439F900D112486559C4F9F838E83D0
:1012B0002E813F818C899D89AE89BF89F901808308
:1012C0009183A283B383288939898C899D89AE89CA
:1012D000BF89A901BC01CD0191DE288539858E81A8
:1012E0009F81049644E050E0B9010E94473D888503
:1012F00099850496998788878E819F81FC018481D6
:101300009581A681B78164E070E00E94043C9C0155
:101310008E819F81DC0119963C932E9318978E81C4
:101320009F81FC0180859185892B19F481E08D8353
:10133000D7C01C821B8221C08E819F81DC01189640
:101340002D913C918B819C81880F991F880F991F4B
:10135000A901480F591F9E01285F3F4F688979896D
:101360008E859F8562DB8D838D81882309F0B3C0D4
:101370008B819C8101969C838B838B819C819C01BA
:10138000990F440B550B8E819F81FC0184819581BF
:10139000A681B781281739074A075B076CF288894D
:1013A00099896EE070E00E94043C9C018E819F81CF
:1013B000DC011B963C932E931A971A8219821C8289
:1013C0001B8248C088859985FC0180819181A2811A
:1013D000B3818A879B87AC87BD878885998504966A
:1013E000998788872A853B854C855D858E819F817D
:1013F000DC011A96ED91FC916B817C81CB01880F09
:10140000991F880F991F880F991F861B970B880FAC
:10141000991F8E0F9F1FBA01A90177DC8D838D81E3
:10142000882309F05AC08A859B85AC85BD8521E05B
:10143000892B8A2B8B2B09F420E0822F90E02981C5
:101440003A81820F931F9A8389838B819C810196B5
:101450009C838B832B813C81888999892817390744
:101460000CF4B0CF8E819F81FC0115861486898192
:101470009A81880F991F880F991F880F991F0E94C2
:101480001E3C9C018E819F81DC0151963C932E93E2
:1014900050978E819F81FC0180899189892B19F455
:1014A00081E08D831DC089819A81880F991F0E94D8
:1014B0001E3C9C018E819F81DC011F963C932E93E4
:1014C0001E978E819F81FC0186859785892B39F433
:1014D00081E08D8305C0000003C0000001C0000052
:1014E0008D81882351F0288939898C899D89AE891D
:1014F000BF89A901BC01CD0181DD8D8167960FB641
:10150000F894DEBF0FBECDBFDF91CF911F910F9139
:101510000895CF93DF93CDB7DEB7AD970FB6F894AC
:10152000DEBF0FBECDBF9FA38EA379A768A72AA752
:101530003BA74CA75DA7198288A599A59B838A83A1
:101540002AA53BA544E4429FC001439F900D11246E
:10155000429686559C4F9F838E838A819B81FC0196
:1015600080819181A281B3818E879F87A88BB98B5F
:101570008A819B8104969B838A838E859F85A88917
:10158000B9899C018E819F81FC01338322838E81E6
:101590009F8104962A813B8144E050E0B9010E947A
:1015A000473D8A819B8104969B838A838E819F819C
:1015B00008962A813B8144E050E0B9010E94473DF2
:1015C0008A819B8104969B838A838E819F810C965E
:1015D0002A813B8144E050E0B9010E94473D8A8165
:1015E0009B8104969B838A838E819F814C962A815E
:1015F0003B8144E050E0B9010E94473D8A819B81D4
:1016000004969B838A838E819F81FC01848D958DB6
:10161000A68DB78D998788878885998518161906AC
:101620000CF087C08E819F814C969B878A87888526
:101630009985880F991F880F991F0E941E3C9C0155
:101640008A859B85FC01358324838A859B85FC01E3
:1016500084819581892B19F481E08983EAC01D82F8
:101660001C823DC08A859B85FC01248135818C814B
:101670009D81880F991F880F991F820F931F9D8747
:101680008C878A819B8120E1FC01DE0156960190C6
:101690000D922A95E1F78A819B8140969B838A83EC
:1016A0004C855D859E012A5E3F4F8EA19FA1B901A9
:1016B000C8D88A859B85FC01268137818C859D85CC
:1016C000FC0182819381280F391F8A859B85FC014B
:1016D000378326838C819D8101969D838C838C81A9
:1016E0009D819C01990F440B550B8A859B85FC01BC
:1016F00080819181A281B381281739074A075B074E
:101700000CF4B0CF8A859B85FC01868197810E946D
:101710001E3C9C018E819F81FC0135A324A38E81F8
:101720009F81FC0184A195A1892B19F481E0898313
:1017300080C08A819B81FC0180819181A281B381DB
:101740008A8B9B8BAC8BBD8B8A819B8104969B8300
:101750008A838A899B89AC89BD89892B8A2B8B2BAB
:1017600041F08A899B89AC89BD890297A105B105A1
:1017700019F481E090E002C080E090E02E813F818A
:10178000F901918B808B8A899B89AC89BD890197EE
:10179000A105B10541F08A899B89AC89BD89029771
:1017A000A105B10519F481E090E002C080E090E06D
:1017B0002E813F81F901938B828B8E819F8144968C
:1017C0002A813B8144E050E0B9010E94473D8A8173
:1017D0009B8104969B838A838E819F81FC018485F3
:1017E0009585A685B785BB23ECF48E819F81FC018E
:1017F00084859585A685B785B095A09590958195AA
:101800009F4FAF4FBF4F2E813F81F90180A791A716
:10181000A2A7B3A78E819F81FC0114861586168628
:10182000178607C08E819F81FC0110A611A612A603
:1018300013A68981882339F08AA59BA5ACA5BDA5EF
:10184000BC01CD01CCDA8981AD960FB6F894DEBF2C
:101850000FBECDBFDF91CF910895CF93DF93CDB76A
:10186000DEB72C970FB6F894DEBF0FBECDBF6F83E7
:10187000788789879A875C874B872F81388544E4EE
:10188000429FC001439F900D112486559C4F9C831D
:101890008B831092A9038B819C81FC0115A614A651
:1018A0001A82198243C08B819C81FC014285538539
:1018B00029813A81C901880F991F880F991F880FC4
:1018C000991F821B930B880F991F840F951F9E836E
:1018D0008D838D819E81FC0182819381181619066A
:1018E00004F58D819E81FC01248135818D819E814D
:1018F000FC01378326838D819E81FC012481358103
:101900008D819E81FC01318720878D819E81FC0124
:10191000138612868D819E8121E030E0FC013183A7
:10192000208389819A8101969A83898329813A81CA
:101930008B859C85281739070CF4B5CF8B819C814A
:10194000FC0113A612A68B819C81FC0111AE10AE86
:101950008B819C81CE96FC011082118212821382AF
:101960008B819C8122E030E0FC01338B228B0000D4
:101970002C960FB6F894DEBF0FBECDBFDF91CF918E
:101980000895CF93DF9300D000D01F921F92CDB760
:10199000DEB76B837C838D839E8358874F832B8137
:1019A0003C8144E4429FC001439F900D1124865521
:1019B0009C4F9A83898389819A81FC01138A128AB8
:1019C0002F8138858B819C81AD81BE81A901BC01AD
:1019D000CD0114DB000028960FB6F894DEBF0FBED1
:1019E000CDBFDF91CF910895CF93DF9300D000D08A
:1019F000CDB7DEB76B837C838D839E832B813C8147
:101A000044E4429FC001439F900D112486559C4F92
:101A10009A83898389819A81FC018289938985309F
:101A2000910518F4019720F420C0059799F01DC086
:101A300029813A818FEF9FEFDC01F901828F938F2B
:101A4000A48FB58F89819A8125E030E0FC01338B2A
:101A5000228B0BC029813A818FEF9FEFDC01F901C6
:101A6000828F938FA48FB58F0000000026960FB64B
:101A7000F894DEBF0FBECDBFDF91CF910895CF9315
:101A8000DF9300D000D000D01F92CDB7DEB79E8389
:101A90008D834F83588769877A872F81388544E4FF
:101AA000429FC001439F900D112486559C4F9A83FD
:101AB000898389819A81FC01428553852D813E81EC
:101AC000C901880F991F880F991F880F991F821BC2
:101AD000930B880F991F840F951F9C838B8381E044
:101AE0008093A9038B819C81FC01228533858B81A6
:101AF0009C81FC01318720878B819C81FC012085A2
:101B000031858B819C81FC018681978141E028177A
:101B1000390709F040E0242F30E08B819C81FC01E3
:101B20003183208300002A960FB6F894DEBF0FBEE3
:101B3000CDBFDF91CF910895CF93DF93CDB7DEB7BF
:101B40002D970FB6F894DEBF0FBECDBF9F838E8357
:101B5000798768875B874A873D872C8719828E81C2
:101B60009F81FC01848195812E813F81F901228131
:101B70003381820F931F9B838A838A859B85FC0117
:101B8000208131818E819F81FC0180859185821722
:101B9000930740F08E819F81FC0180819181892B88
:101BA00009F4AFC08A819B812A853B85F901208198
:101BB0003181AC01421B530B9A018E819F81FC0144
:101BC00080859185AC018E819F81FC018481958106
:101BD000BA01681B790BCB01820F931F9D838C8305
:101BE0002C813D8188859985281739071CF481E06F
:101BF0008983CBC08A859B85FC01208131818885C2
:101C00009985820F931F2A813B818217930750F594
:101C10008C859D8528853985FC01318320838A85C3
:101C20009B85FC01208131818C859D85FC0133835E
:101C300022838C859D85FC01158214828C859D856F
:101C4000FC01178216828A859B85FC0120813181E7
:101C500088859985280F391F8A859B85FC013183EA
:101C6000208393C08A819B812A853B85F90120814D
:101C70003181AC01421B530B9A018C859D85FC017F
:101C8000318320838A859B85FC01208131818C856D
:101C90009D85FC01338322838C859D85FC01808199
:101CA000918128853985281B390B8C859D85FC0100
:101CB000358324838C859D85FC018481958118164C
:101CC000190634F48E819F81FC018481958102C0C4
:101CD00080E090E02C853D85F901978386838E8195
:101CE0009F81FC01848195812C853D85F9012481AA
:101CF0003581280F391F8A859B85FC01318320831C
:101D000044C08E819F81FC01808591859C018A85DC
:101D10009B85FC0180819181A901481B590BCA0157
:101D20009D838C832C813D8188859985281739076F
:101D30001CF481E0898329C08C859D85288539859F
:101D4000FC01318320838A859B85FC0120813181C0
:101D50008C859D85FC01338322838C859D85FC01C8
:101D6000158214828C859D85FC01178216828A85D6
:101D70009B85FC012081318188859985280F391F39
:101D80008A859B85FC013183208389812D960FB63E
:101D9000F894DEBF0FBECDBFDF91CF910895CF93F2
:101DA000DF93CDB7DEB76A970FB6F894DEBF0FBEEC
:101DB000CDBF6F8B788F898F9A8F2F89388D44E4B0
:101DC000429FC001439F900D112486559C4F9887D8
:101DD0008F838F81988542969A87898789859A858E
:101DE000FC0184A195A19C878B878B859C859C8316
:101DF0008B831A82198241C189859A85FC0120A1B1
:101E000031A189819A81880F991F880F991F820FAC
:101E1000931F9E878D878D859E85FC01828193818E
:101E20009695879596958795988B8F8789859A85BE
:101E3000FC0186A197A1892B09F4FEC089859A85AA
:101E4000FC0184899589A689B789898B9A8BAB8B8C
:101E5000BC8B8D859E85FC01808191819E8B8D8BB5
:101E60001E821D82E1C089859A85FC018089918945
:101E7000892B09F466C08D819E81880F991F880F78
:101E8000991F2D893E89820F931FFC0180819181CA
:101E9000A281B3819C01AD0169897A898B899C8972
:101EA0000E9460311816CCF08D819E81880F991F99
:101EB000880F991F2B813C81820F931FFC01808129
:101EC0009181A281B3819C01AD0169897A898B8955
:101ED0009C890E941632181694F18D819E81880F7C
:101EE000991F880F991F2D893E89820F931FFC012E
:101EF00080819181A281B3819C01AD0169897A8938
:101F00008B899C890E9460318823DCF48D819E81BD
:101F1000880F991F880F991F2B813C81820F931F77
:101F2000FC0180819181A281B3819C01AD0169890D
:101F30007A898B899C890E946031882311F481E021
:101F4000B7C089859A85FC0182899389892B09F418
:101F500066C08D819E81880F991F880F991F2D89DA
:101F60003E89820F931FFC0180819181A281B38100
:101F70009C01AD0169897A898B899C890E941632FE
:101F80001816CCF48D819E81880F991F880F991F98
:101F90002B813C81820F931FFC0180819181A28162
:101FA000B3819C01AD0169897A898B899C890E94E2
:101FB0006031181694F58D819E81880F991F880FC6
:101FC000991F2D893E89820F931FFC018081918189
:101FD000A281B3819C01AD0169897A898B899C8931
:101FE0000E9460318823D9F48D819E81880F991FCA
:101FF000880F991F2B813C81820F931FFC018081E8
:102000009181A281B3819C01AD0169897A898B8913
:102010009C890E946031882314F481E049C08D813D
:102020009E8101969E838D832D813E818F85988927
:10203000281739070CF417CF8D859E85FC01828106
:102040009381AC018D859E85FC01208131818B813E
:102050009C81B9010E94473D8F859889880F991FFF
:10206000880F991F2B813C81820F931F9C838B8348
:1020700089819A8101969A83898389819A819C01B9
:10208000990F440B550B89859A85FC01848D958D9C
:10209000A68DB78D281739074A075B070CF4ACCE1D
:1020A00089859A8521E030E0FC0137A326A380E0F2
:1020B0006A960FB6F894DEBF0FBECDBFDF91CF9109
:1020C00008950F931F93CF93DF93CDB7DEB7C2561A
:1020D000D1090FB6F894DEBF0FBECDBFFE01E75A9F
:1020E000FF4F91838083CE01855A9F4FFC0140832F
:1020F000518362837383CE01815A9F4FFC01008319
:10210000118322833383CE01815A9F4FFC012081AA
:10211000318144E4429FC001439F900D11248655B4
:102120009C4F9E838D831A8219828D819E81429657
:1021300098878F838D819E81FC0142855385CE01D6
:10214000875A9F4FFC0120813181C901880F991F57
:10215000880F991F880F991F821B930B880F991F57
:10216000840F951F9A8789878F819885FC018081CC
:102170009181029709F05CC08F819885FC01848D64
:10218000958DA68DB78D892B8A2B8B2B41F48F8152
:10219000988524E030E0FC013183208349C08F81A1
:1021A0009885FC01828193819E01275A3F4FF90156
:1021B0002081318128173907D9F5CE01815A9F4FE7
:1021C000FC0180819181A281B381BC01CD01E7DD59
:1021D000882371F18F819885FC0184859585A6857A
:1021E000B785892B8A2B8B2BA9F48F81988524E0C6
:1021F00030E0FC01318320838F819885FC0184A528
:1022000095A5A6A5B7A59C018F819885FC01318F66
:10221000208F0EC08F81988523E030E0FC01318350
:1022200020838F81988521E030E0FC01318F208F61
:102230008F819885FC0180819181029779F48F814B
:102240009885FC0180A591A5A2A5B3A5181619062D
:102250001A061B061CF481E090E002C080E090E0CA
:102260009C878B878F819885FC0180819181049761
:1022700029F08B859C85892B09F47DC389859A85F6
:10228000FC0182819381892B09F475C389859A8524
:10229000FC0126813781CE018F5B9F4FFC0131838A
:1022A00020831E861D8681E090E0988B8F8782E0D8
:1022B00090E09A8B898B83E090E09C8B8B8B84E001
:1022C00090E09E8B8D8BCE018D5B9F4F24E1FC01B6
:1022D000322F11923A95E9F79E012D5B3F4F8D8980
:1022E0009E89880F991F880F991F280F391FCE01CB
:1022F000815A9F4FFC0180819181A281B381F901B4
:1023000080839183A283B3838B859C85892B09F479
:1023100085C08F819885FC0124A535A546A557A5C4
:102320008F819885FC0180A591A5A2A5B3A528174A
:1023300039074A075B0709F071C089859A85FC0156
:102340008481958129853A85F90122813381820F23
:10235000931F988F8F8B89859A85FC018085918545
:1023600004969A8F898F298D3A8DCE01895A9F4F75
:1023700044E050E0B9010E94473DCE01895A9F4F89
:10238000FC018081918108969C01CE01895A9F4F62
:10239000FC013183208389859A85FC0180859185A4
:1023A0009E01295A3F4FF90120813181280F391FA1
:1023B00089859A85FC013187208789859A85FC016A
:1023C000808591859C018F89988DA901481B590BA7
:1023D000CA019C8F8B8F8B8D9C8D992374F089857E
:1023E0009A85FC01248135818B8D9C8D280F391FA6
:1023F00089859A85FC01318720878F819885FC012A
:1024000084A595A5A6A5B7A50197A109B1092F8116
:102410003885F90184A795A7A6A7B7A784E190E01E
:102420009E8F8D8F9E01275C3F4FAE014F5B5F4FAC
:102430006D8D7E8D89859A857FDB882F90E09A83CC
:10244000898389819A81892B09F097C28D8D9E8D10
:1024500008979E8F8D8F9E012D5B3F4F8F859889AA
:10246000880F991F880F991F820F931FFC012081ED
:102470003181428153818D8D9E8D092E000CAA0BD6
:10248000BB0B820F931FA41FB51FAE014D5B5F4FA7
:102490002F853889220F331F220F331F240F351F3A
:1024A000F90180839183A283B3839E012F5C3F4F08
:1024B000AE014F5B5F4F89859A8564E070E03CDB3D
:1024C000882F90E09A83898389819A81892B09F0EA
:1024D00056C29E012D5B3F4F8F859889880F991FAB
:1024E000880F991F820F931FFC0180819181A28127
:1024F000B3810496A11DB11DAE014D5B5F4F2F85C9
:102500003889220F331F220F331F240F351FF90183
:1025100080839183A283B38389A99AA9AC018BA9F3
:102520009CA99E01255A3F4FB9010E94473D8FA9A2
:1025300098AD892BA1F089A99AA99C01CE01855A51
:102540009F4F820F931F98A38F8F8DA99EA9AC01D7
:102550008FA998AD2F8D38A1B9010E94473D1DA6C6
:102560001EA61FA618AA64C18D819E81FC0120852C
:1025700031858DA59EA5AFA5B8A9880F991F880F95
:10258000991F820F931F9CA38BA38BA19CA1FC017D
:1025900080819181FC018081882309F43EC18BA157
:1025A0009CA1FC0180819181FC018081833009F430
:1025B00034C18BA19CA1FC0122813381CE01875AB9
:1025C0009F4FFC0180819181880F991F820F931F7B
:1025D000FC01808191819EA38DA38DA19EA1892B59
:1025E00009F41BC19E012D5B3F4F89899A89880F91
:1025F000991F880F991F820F931FFC018081918181
:10260000A281B3810196A11DB11DAE014D5B5F4F4B
:1026100029893A89220F331F220F331F240F351FB8
:10262000F90180839183A283B38384E090E09E8F3D
:102630008D8F9E012F5C3F4FAE014F5B5F4F6D8DC5
:102640007E8D89859A8578DA882F90E09A838983B0
:1026500089819A81892B09F094C19E012D5B3F4F9E
:102660008F859889880F991F880F991F820F931F54
:10267000FC0120813181428153818D8D9E8D092EF7
:10268000000CAA0BBB0B820F931FA41FB51FAE013A
:102690004D5B5F4F2F853889220F331F220F331F69
:1026A000240F351FF90180839183A283B38389A905
:1026B0009AA9AC018BA99CA99E01235D3F4FB9014A
:1026C0000E94473D8FA998AD892B99F089A99AA9B5
:1026D0009C01CE018D96820F931F98A78FA38DA981
:1026E0009EA9AC018FA998AD2FA138A5B9010E9470
:1026F000473D1C821B827EC08DA19EA1FC012481CE
:1027000035818B819C81880F991F880F991F820FBB
:10271000931F9AA789A789A59AA5FC016281738155
:102720009E012F5C3F4FAE014F5B5F4F89859A85BD
:1027300003DA882F90E09A83898389819A81892B93
:1027400009F021C19E012D5B3F4F8F859889880F2D
:10275000991F880F991F820F931FFC0120813181DF
:102760004281538189A59AA5FC0182819381092E1A
:10277000000CAA0BBB0B820F931FA41FB51FAE0149
:102780004D5B5F4F2F853889220F331F220F331F78
:10279000240F351FF90180839183A283B38389A914
:1027A0009AA9AC0189A59AA5FC01208131818BA948
:1027B0009CA9B9010E94473D8FA998AD892BA9F02A
:1027C00089A59AA5FC018081918129A93AA9820F46
:1027D000931F9CA78BA78DA99EA9AC018FA998AD2B
:1027E0002BA53CA5B9010E94473D8B819C81019698
:1027F0009C838B838B819C819C01990F440B550B8F
:102800008DA19EA1FC0180819181A281B3812817B5
:1028100039074A075B070CF46FCF8DA59EA5AFA5BE
:10282000B8A90196A11DB11D8DA79EA7AFA7B8ABF2
:102830008D819E81FC0124813581468157818DA542
:102840009EA5AFA5B8A982179307A407B5070CF4F6
:102850008BCE9E012D5B3F4F89899A89880F991FE6
:10286000880F991F820F931FFC0180819181A281A3
:10287000B381892B8A2B8B2B09F487C09E012D5B9A
:102880003F4F8D859E85880F991F880F991F280FB0
:10289000391F8AE190E0A0E0B0E0F90180839183E4
:1028A000A283B383CE01875A9F4FFC01808191811F
:1028B000092E000CAA0BBB0BAE014D5B5F4F2B89A1
:1028C0003C89220F331F220F331F240F351FF901BC
:1028D00080839183A283B38389AD9AADAC018BAD24
:1028E0009CAD9E012D5B3F4FB9010E94473DCE013B
:1028F000CF96FC0180819181892BB9F089AD9AAD89
:102900009C01CE018D5B9F4F820F931F9AA389A3D9
:102910008DAD9EADAC01CE01CF96FC018081918141
:1029200029A13AA1B9010E94473DCE018F5B9F4F7B
:10293000FC012081318189859A85FC0137832683BA
:1029400089859A85FC01118210828B859C85892B53
:10295000E9F08F819885FC0184A595A5A6A5B7A56A
:102960000196A11DB11D2F813885F90184A795A776
:10297000A6A7B7A70BC0000009C0000007C0000051
:1029800005C0000003C0000001C000008B859C85CD
:10299000892B91F489819A81892B71F08F81988597
:1029A00021E030E0FC01338F228F8F81988525E074
:1029B00030E0FC01318320830000CE59DF4F0FB699
:1029C000F894DEBF0FBECDBFDF91CF911F910F9165
:1029D0000895CF93DF9300D000D000D01F92CDB7E1
:1029E000DEB76D837E838F8398875A8749872D81D1
:1029F0003E8144E4429FC001439F900D11248655BF
:102A00009C4F9A83898389819A8142969C838B8388
:102A10008B819C81FC0180819181892B09F47DC08F
:102A20008B819C81FC0180819181019749F58B818B
:102A30009C81FC01808D918DAC014F5F5F4F2B819C
:102A40003C81F901518F408F9C01990F440B550B2C
:102A50008B819C81FC0180859185A285B385281797
:102A600039074A075B0709F05AC029853A858D81E5
:102A70009E81AF81B885A901BC01CD010E942D0CBA
:102A80008B819C81FC0180819181039709F048C072
:102A90008B819C81FC01808D918DAC014F5F5F4FDC
:102AA0002B813C81F901518F408F9C01990F440B80
:102AB000550B8B819C81FC0184859585A685B78506
:102AC000281739074A075B075CF18B819C81FC0161
:102AD00084A595A5A6A5B7A59C018B819C81FC0129
:102AE000318F208F8B819C8124E030E0FC01318389
:102AF00020838B819C81FC0180A591A5A2A5B3A513
:102B0000181619061A061B065CF48B819C8121E0BD
:102B100030E0FC0131AB20AB03C0000001C000007D
:102B20002A960FB6F894DEBF0FBECDBFDF91CF91CE
:102B30000895CF93DF9300D000D01F921F92CDB79E
:102B4000DEB76D837E838F8398872D813E8144E439
:102B5000429FC001439F900D112486559C4F9A833C
:102B6000898389819A8142969C838B838B819C8106
:102B7000FC0180819181892B89F18B819C81FC01F1
:102B800080819181049759F58B819C81FC01808D16
:102B9000918D9C012F5F3F4F8B819C81FC01318F78
:102BA000208F8B819C81FC01808D918D9C01990FE0
:102BB000440B550B8B819C81FC0184819581A681FE
:102BC000B781281739074A075B0749F48B819C8135
:102BD00025E030E0FC013183208301C0000028960D
:102BE0000FB6F894DEBF0FBECDBFDF91CF91089531
:102BF000CF93DF93CDB7DEB768970FB6F894DEBFFB
:102C00000FBECDBF9A8B898B4B8B5C8B6D8B7E8B74
:102C1000388F2F8B2B893C8944E4429FC001439F0E
:102C2000900D112486559C4F9C838B838B819C81B6
:102C30000C969E838D838D819E81FC011182108272
:102C40001A821982C4C08B819C81FC014285538504
:102C500029813A81C901880F991F880F991F880F10
:102C6000991F821B930B880F991F840F951F9887BC
:102C70008F838F819885FC0180819181892B09F058
:102C8000A1C08F819885FC01808591859A8789876D
:102C90008F819885FC01828193819C878B878F81AE
:102CA0009885FC01868197819E878D878D819E8185
:102CB000FC01248135818D819E81FC01808191817F
:102CC000880F991F880F991F880F991F820F931FD4
:102CD000988B8F878D819E81FC01228133818D812C
:102CE0009E81FC0180819181880F991F820F931F23
:102CF00029813A81FC01318320838D819E81FC01F1
:102D0000808191819C012F5F3F4F8D819E81FC01CD
:102D1000318320838F85988929853A85FC01338307
:102D200022838F8198852D853E85FC0133872287FC
:102D30002D853E8589859A8582179307B0F42D8568
:102D40003E8589859A85281B390B8F859889FC01DA
:102D5000318320838F859889FC01158214828F85A9
:102D60009889FC01178216822DC08F819885FC01FD
:102D7000248135818B859C85820F931F9C018985D9
:102D80009A85281B390B8F859889FC013183208314
:102D90008D859E852F813885F90124813581AC018F
:102DA000421B530B9A018F859889FC01358324833C
:102DB0008F819885FC01248135818F859889FC015C
:102DC0003783268389819A8101969A838983298111
:102DD0003A818F89988D281739070CF434CF8D816B
:102DE0009E81FC012081318189899A89FC0131838E
:102DF00020838D819E81FC012481358189899A8976
:102E0000FC01338322838D819E81FC0122813381E9
:102E100089899A89FC0135832483000068960FB65E
:102E2000F894DEBF0FBECDBFDF91CF910895CF9351
:102E3000DF9300D000D000D01F92CDB7DEB79E83C5
:102E40008D834F83588769877A872F81388544E43B
:102E5000429FC001439F900D112486559C4F9A8339
:102E6000898389819A810C969C838B838B819C8139
:102E7000FC01118210828B819C81FC0120813181B7
:102E80008D819E81FC01318320838D819E81FC0197
:102E90001382128200002A960FB6F894DEBF0FBE8E
:102EA000CDBFDF91CF910895CF93DF93CDB7DEB73C
:102EB0002E970FB6F894DEBF0FBECDBF98878F83D5
:102EC00049875A876B877C873E872D8789859A85B6
:102ED000AB85BC8544E4489F9001499F300D112487
:102EE000C90186559C4F9A83898389819A8142962C
:102EF0009C838B838B819C81FC01808191819E834B
:102F00008D838D819E81049729F08D819E81059707
:102F100009F05CC089859A85AB85BC852F81388591
:102F2000AC01BD01C90183DF89859A85AB85BC856C
:102F30002D853E85EF81F885AC01BD01CF0158DEBE
:102F40008F819885FC0180819181892B09F049C08E
:102F50008D819E81059709F044C01092A9038B8151
:102F60009C81FC0180859185A285B3858F3F9F4F11
:102F7000AF4FBF4FA9F4CE010996AC0164E070E0F9
:102F800080E290E00E947B2089859A85AB85BC8594
:102F90002D853E85A901BC01CD010E94C10C21C037
:102FA000CE010996AC0164E070E08FE190E00E94F0
:102FB0007B208B819C81FC01118E108E8B819C81EA
:102FC00021E030E0FC01318320830BC089859A85A4
:102FD000AB85BC852F813885AC01BD01C90127DFD8
:102FE00001C0000000002E960FB6F894DEBF0FBEA1
:102FF000CDBFDF91CF910895CF93DF9300D000D064
:10300000CDB7DEB79A8389837C836B835E834D83E0
:103010000E94D226882319F116C028ED38EB45E02E
:1030200050E060E070E0CB010E94EE2B4D815E81AC
:103030002B813C8189819A81B9010E941F2C8B814F
:103040009C810E94922B8091320490913304892BB1
:1030500031F48D819E81FC0180818823F1F2809181
:10306000400290914102049731F083E090E0909308
:10307000410280934002000026960FB6F894DEBF0E
:103080000FBECDBFDF91CF910895CF93DF9300D0D6
:1030900000D0CDB7DEB79A8389837C836B835E8350
:1030A0004D838091400290914102049769F04D81D7
:1030B0005E812B813C8189819A81B9010E941F2CFC
:1030C0008B819C810E94922B000026960FB6F8946B
:1030D000DEBF0FBECDBFDF91CF910895CF93DF93B9
:1030E00000D000D0CDB7DEB79A8389834B835C8351
:1030F0006D837E838B819C81AD81BE8129813A81E4
:10310000AC01BD01C9010E94422E000026960FB6F7
:10311000F894DEBF0FBECDBFDF91CF910895CF935E
:10312000DF93CDB7DEB70E94202E0000DF91CF9154
:103130000895CF93DF931F921F92CDB7DEB79A8386
:10314000898389819A810E94F72D00000F900F904A
:10315000DF91CF910895CF93DF931F921F92CDB748
:10316000DEB79A8389830E94BA2B00000F900F90DC
:10317000DF91CF910895CF93DF931F921F92CDB728
:10318000DEB79A83898389819A810E94A52D0000E8
:103190000F900F90DF91CF910895CF93DF931F92FF
:1031A0001F92CDB7DEB79A838983809142029091B6
:1031B0004302A0914402B091450220E030E0A90111
:1031C000BC01CD010E94163288239CF480914202FA
:1031D00090914302A0914402B091450220E030E07A
:1031E00040E85FEBBC01CD010E946031882309F00B
:1031F0000FC08091420290914302A0914402B0918D
:10320000450229813A81F90180839183A283B383A6
:1032100000000F900F90DF91CF910895CF93DF932F
:103220001F921F92CDB7DEB79A83898389819A81D5
:10323000B4DF00000F900F90DF91CF910895CF93EE
:10324000DF9300D01F92CDB7DEB79A8389837C834A
:103250006B8360E070E080E090E00E948E260000CA
:103260000F900F900F900F90DF91CF910895CF9313
:10327000DF93CDB7DEB70000DF91CF910895EF92D5
:10328000FF920F931F93CF93DF93CDB7DEB7629773
:103290000FB6F894DEBF0FBECDBF9C878B877E87AD
:1032A0006D872F87388B498B5A8B1A8219828D85AF
:1032B0009E859C838B838FEF9FEF9E838D8346C07B
:1032C0008D819E81CC01A0E0B0E02F8538894989AD
:1032D0005A8982179307A407B50718F08F85988934
:1032E00002C08D819E8198878F839E01275F3F4F0B
:1032F0004F8158856B817C818B859C850E94AD2E8A
:103300009A83898389819A81019619F489819A81A6
:1033100028C089859A85CC01A0E0B0E02F85388946
:1033200049895A8979018A01E81AF90A0A0B1B0BA3
:10333000D801C7018F87988BA98BBA8B89859A850D
:103340002B813C81820F931F9C838B838F8598896F
:10335000A989BA89892B8A2B8B2B09F0B1CF898156
:103360009A8162960FB6F894DEBF0FBECDBFDF9193
:10337000CF911F910F91FF90EF900895CF93DF931E
:10338000CDB7DEB740E855E260E070E080E090E065
:1033900026D00000DF91CF910895CF93DF9300D026
:1033A00000D0CDB7DEB79A8389834B835C836D836E
:1033B0007E838B819C81AD81BE81E981FA8126E08B
:1033C000AC01BD01CF010E941635000026960FB654
:1033D000F894DEBF0FBECDBFDF91CF910895CF939C
:1033E000DF9300D000D0CDB7DEB79A8389834B83BB
:1033F0005C836D837E8389819A8181309105B1F0F0
:10340000823091051CF4892B39F02EC08230910551
:10341000B9F00397F9F028C08B819C81AD81BE8102
:10342000AC01BD0185E794E0B8DF1EC08B819C81B3
:10343000AD81BE81AC01BD0182E195E0AEDF14C07B
:103440008B819C81AD81BE81AC01BD018FEA95E08D
:10345000A4DF0AC08B819C81AD81BE81AC01BD011E
:103460008CE496E09ADF0000000026960FB6F894F0
:10347000DEBF0FBECDBFDF91CF910895CF93DF9315
:10348000CDB7DEB70000DF91CF910895EF92FF92A4
:103490000F931F93CF93DF9300D01F921F92CDB74E
:1034A000DEB719820E94EE32DC01CB018093380432
:1034B00090933904A0933A04B0933B0420913804CC
:1034C0003091390440913A0450913B048091340486
:1034D00090913504A0913604B091370479018A01A6
:1034E000E81AF90A0A0B1B0BD801C70180349D406A
:1034F000A340B10508F43EC080913804909139048E
:10350000A0913A04B0913B04809334049093350425
:10351000A0933604B09337040E9414300E94EE3218
:10352000DC01CB018A839B83AC83BD83809134040F
:1035300090913504A0913604B09137042A813B81E3
:103540004C815D8179018A01E81AF90A0A0B1B0B8B
:10355000D801C70180349D40A340B10538F081E017
:1035600090E090936A048093690404C010926A0406
:103570001092690481E0898389810F900F900F90E8
:103580000F900F90DF91CF911F910F91FF90EF90CF
:103590000895CF93DF93CDB7DEB72D970FB6F8948C
:1035A000DEBF0FBECDBF998788877B876A875D871F
:1035B0004C871D821C8281E090E09A83898381E0A0
:1035C0008B835DC089819A819C012F5F3F4F3A8335
:1035D0002983880F991F2C853D85820F931FFC013D
:1035E000808191819F838E838E819F81892B09F4B5
:1035F00046C08E819F816DED72E00E94573D892B00
:1036000081F481E08B8389819A8181509048880F71
:10361000991F2C853D85820F931FFC01118210821A
:103620002EC08E819F8160EE72E00E94573D892BF3
:1036300031F529813A818A859B8528173907F9F068
:1036400089819A8101969A83898389819A8182509E
:103650009048880F991F2C853D85820F931FFC0190
:103660001182108289819A8181509048880F991F18
:103670002C853D85820F931FFC01118210822981C8
:103680003A818A859B85281739070CF49BCF88855A
:1036900099852B81FC0120832C853D858A859B851E
:1036A000B9010E947D2E9C0188859985FC01328399
:1036B00021838C819D812D960FB6F894DEBF0FBEBD
:1036C000CDBFDF91CF910895CF93DF93CDB7DEB714
:1036D0008CE394E0DF91CF910895CF93DF9300D0F6
:1036E000CDB7DEB79B838A83198289810F900F90B3
:1036F0000F90DF91CF910895CF93DF93CDB7DEB7D1
:103700002D970FB6F894DEBF0FBECDBF9D838C837F
:103710007F836E83598748873B872A8719828A85EA
:103720009B85FC01118210828E819F81092E000CE5
:10373000AA0BBB0B2C813D81F9010180F281E02DA8
:10374000FD87EC87688579859C01AD018C859D8519
:1037500096DD9B838A838A819B81019619F481E09F
:10376000898307C08A859B852E813F81FC01318337
:10377000208389812D960FB6F894DEBF0FBECDBF92
:10378000DF91CF910895CF93DF93CDB7DEB72D971B
:103790000FB6F894DEBF0FBECDBF9F838E837987AF
:1037A00068875B874A873D872C87198248855985BA
:1037B0008E819F81FC01818192819E012C5F3F4F10
:1037C0006C857D850E94E02E9B838A838A819B8104
:1037D000019619F481E0898308C08C819D819C0148
:1037E0008A859B85FC013183208389812D960FB6C4
:1037F000F894DEBF0FBECDBFDF91CF910895CF9378
:10380000DF931F921F92CDB7DEB79A838983898198
:103810009A81FC0180810F900F90DF91CF910895E4
:10382000CF93DF931F921F92CDB7DEB79A83898320
:1038300000000F900F90DF91CF9108950F931F9389
:10384000CF93DF9300D000D000D01F92CDB7DEB76A
:103850009A8389834B835C836D837E830F83188770
:1038600029873A8700002A960FB6F894DEBF0FBE6C
:10387000CDBFDF91CF911F910F910895CF93DF932B
:1038800000D01F921F92CDB7DEB79B838A837D83C2
:103890006C8319828C819D8121E0FC0120838981C8
:1038A0000F900F900F900F900F90DF91CF91089590
:1038B000CF93DF931F921F92CDB7DEB79A83898390
:1038C00000000F900F90DF91CF910895CF93DF9379
:1038D0001F921F92CDB7DEB79A8389831092680436
:1038E00000000F900F90DF91CF910895CF93DF9359
:1038F0001F921F92CDB7DEB79A83898389819A81FF
:10390000FC01818192810E94682F00000F900F902E
:10391000DF91CF910895CF93DF931F921F92CDB780
:10392000DEB79A8389838091500490915104298154
:103930003A818217930734F5809152049091530491
:10394000892B51F080915204909153040E94BA3C0B
:10395000109251041092500489819A810E941E3C59
:103960009093530480935204809152049091530495
:10397000892B11F481E007C089819A8190935104C9
:103980008093500480E00F900F90DF91CF910895C5
:10399000CF93DF9300D000D000D01F921F92CDB7FD
:1039A000DEB7998788877B876A871F821E821A8283
:1039B000198288E090E09D838C831B8227C08981D7
:1039C0009A8128853985F901E80FF91F2C813D81FD
:1039D00089819A81B901681B790B80914E0490917D
:1039E0004F04AE014A5F5F4F9F01CDDE8B838B8119
:1039F0008823A1F48E819F8129813A81820F931FB0
:103A00009A83898389819A81892B51F029813A810E
:103A10008C819D812817390794F203C0000001C0F2
:103A200000008E819F8121E0181619060CF020E01D
:103A30008A859B85FC0120838B812B960FB6F89499
:103A4000DEBF0FBECDBFDF91CF910895CF93DF933F
:103A5000CDB7DEB761970FB6F894DEBF0FBECDBF0E
:103A60009F878E87798B688B1D861C861A821982A8
:103A700088E090E0998788871B821C821D821E82C5
:103A80001F828885998502969B878A8792C0898143
:103A90009A819C012A5A3B4F80914E0490914F0489
:103AA000AE01445F5F4F61E070E06DDE8B838B8120
:103AB000882309F087C08C859D8529813A81820FF2
:103AC000931F9A83898389819A81892B09F47CC009
:103AD0008C819D81AE81BF810196A11DB11D8C831A
:103AE0009D83AE83BF838C819D81AE81BF818039F0
:103AF0009F45A140B1055CF080913F049091400446
:103B0000BC018DEE90E081D21D861C865EC02981AD
:103B10003A818A859B852817390709F04AC049E010
:103B200050E060E070E086E594E00E947C2F8823FE
:103B3000B1F1888599858A5A9B4FFC018081282F95
:103B400030E080913F04909140042817390721F517
:103B500080913F0490914004BC018EEE90E055D2DC
:103B6000288539858E859F85A90166E574E00E94C8
:103B7000473D80913F04909140040196909340040A
:103B800080933F0480913F04909140049927909343
:103B9000400480933F040DC01D861C860AC080919E
:103BA0003F0490914004BC018FEE90E02ED21D8620
:103BB0001C8629813A818A859B85281739070CF450
:103BC00066CF03C0000001C000008C859D8521E008
:103BD000181619060CF020E088899989FC012083C9
:103BE0008B8161960FB6F894DEBF0FBECDBFDF911B
:103BF000CF910895CF93DF9300D01F92CDB7DEB75A
:103C00009C838B831A8219822DC089819A81092E07
:103C1000000CAA0BBB0BBC01CD010E94F4088091E3
:103C2000A903882369F089819A81092E000CAA0BC7
:103C3000BB0B2B813C81A901BC01CD010E94DF2679
:103C400089819A81092E000CAA0BBB0B2B813C8128
:103C5000A901BC01CD010E94FE0789819A810196CC
:103C60009A83898389819A8102977CF210924B040E
:103C700010924C041092400410923F0480914E0424
:103C800090914F0423DE00000F900F900F900F9043
:103C9000DF91CF910895CF93DF9300D01F92CDB7DE
:103CA000DEB79C838B8310924B0410924C041092CD
:103CB000400410923F041A82198212C089819A81AD
:103CC000092E000CAA0BBB0B2B813C81A901BC0166
:103CD000CD010E94C10C89819A8101969A838983C2
:103CE00089819A81029754F380914E0490914F04F8
:103CF000DFDD00000F900F900F900F90DF91CF91BC
:103D00000895CF93DF93CDB7DEB76C970FB6F894D5
:103D1000DEBF0FBECDBF9C8F8B8F1A8219821B8294
:103D20008B8D9C8DFC0184819581FC01808191812A
:103D30009F838E838E819F81FC01828193819987ED
:103D400088878E819F81FC01808191819B878A87F2
:103D500080E190E0A0E0B0E08A8B9B8BAC8BBD8BC8
:103D600088E090E0A0E0B0E08E8B9F8BA88FB98FA9
:103D700080914E0490914F049E01205F3F4FAE0111
:103D80004E5E5F4F68E070E0B7DC8B838B818823E9
:103D900009F02CC188899989089709F027C18E817B
:103DA0009F81FC018081918108969D878C878C85FD
:103DB0009D85880F991F880F991F9F878E878E85F5
:103DC0009F850E941E3C9A83898389819A81892BD1
:103DD00019F481E08B830BC180E190E0A0E0B0E0BA
:103DE0008A8B9B8BAC8BBD8B8E859F85092E000C9F
:103DF000AA0BBB0B8E8B9F8BA88FB98F80914E0423
:103E000090914F049E01205F3F4FAE014E5E5F4F89
:103E100068E070E071DC8B838B81882309F0E6C059
:103E200088899989089709F0E1C08B8D9C8DFC01E8
:103E300082819381FC0180819181A281B38129815A
:103E40003A81F90180839183A283B3838B8D9C8D0A
:103E5000FC018281938129813A812C5F3F4FFC01D3
:103E600084819581A681B781F90180839183A283A2
:103E7000B3838B8D9C8DFC018281938129813A8152
:103E8000285F3F4FFC0180859185A285B385F901AC
:103E900080839183A283B3838B8D9C8DFC0182816F
:103EA000938129813A81245F3F4FFC018485958568
:103EB000A685B785F90180839183A283B383898125
:103EC0009A814096FC0110821182128213828981AC
:103ED0009A819C012C5E3F4F84E090E0A0E0B0E02E
:103EE000F90180839183A283B383809140029091F2
:103EF000410229813A81285E3F4FCC01A0E0B0E029
:103F0000F90180839183A283B38389819A819C0183
:103F1000245E3F4F8A859B85092E000CAA0BBB0BA4
:103F2000F90180839183A283B3831D821C8224C004
:103F30008C819D81880F991F28853985820F931F59
:103F4000FC01808191812C813D81285F3F4F220FB0
:103F5000331F220F331F49815A81240F351FCC0193
:103F6000A0E0B0E0F90180839183A283B3838C81C8
:103F70009D8101969D838C832C813D818A859B85C3
:103F800028173907ACF280914E0490914F049E019E
:103F9000205F3F4F49815A816E857F85ADDB8B83E2
:103FA0008B81882319F5888999892E853F85281763
:103FB0003907E1F42E853F8589819A81A90160E066
:103FC00070E00E94AC2F8A8F80914E0490914F0434
:103FD0009E01205F3F4FAE01465E5F4F61E070E0A3
:103FE0008BDB8B8381E080934C0401C000008981CE
:103FF0009A810E94BA3C8B816C960FB6F894DEBF12
:104000000FBECDBFDF91CF910895CF93DF93CDB792
:10401000DEB72F970FB6F894DEBF0FBECDBF9D87DA
:104020008C877F876E8719828C859D85CC01A0E067
:10403000B0E08C839D83AE83BF838E859F85092EE0
:10404000000CAA0BBB0B88879987AA87BB87809136
:104050004E0490914F049E012E5F3F4FAE014C5F86
:104060005F4F68E070E048DB89838981882321F411
:104070008A819B81089719F081E0898301C0000043
:1040800089812F960FB6F894DEBF0FBECDBFDF91AA
:10409000CF910895CF93DF9300D000D01F92CDB77A
:1040A000DEB79D838C837F836E83198280914E045B
:1040B00090914F049E012E5F3F4F4C815D816E8138
:1040C0007F811ADB89838981882339F48A819B81E6
:1040D0002E813F812817390719F081E0898301C0BB
:1040E0000000898127960FB6F894DEBF0FBECDBFC2
:1040F000DF91CF910895CF93DF9300D000D01F922E
:104100001F92CDB7DEB79C838B837E836D835887E8
:104110004F8319828F819885892B51F02D813E81A3
:104120008F819885A90160E070E00E94AC2F8A839E
:104130002D813E818B819C81B90167DF89838981D3
:104140008823A9F48F819885892B99F02D813E8150
:104150008F819885B9019EDF89838981882359F4ED
:10416000CE01029661E070E095DF898305C0000012
:1041700003C0000001C00000898128960FB6F894A2
:10418000DEBF0FBECDBFDF91CF910895CF93DF93F8
:10419000CDB7DEB761970FB6F894DEBF0FBECDBFC7
:1041A000998B888B19861A82198288899989992313
:1041B0000CF4079695958795959587959595879590
:1041C0009B878A878889998987709078992324F4B6
:1041D0000197886F9F6F01969D878C871D821E8235
:1041E0001F8218861C821B8292C01D821E821F8223
:1041F00018861A82198286C089819A819C012F5B58
:104200003B4F80914E0490914F04AE01425F5F4F4F
:1042100061E070E0B8DA89878985882309F012C1E6
:104220008E859F8529813A81820F931F9A83898386
:104230008D819E81AF81B8850196A11DB11D8D83B1
:104240009E83AF83B8878D819E81AF81B885803989
:104250009F45A140B10574F080913F0490914004C6
:10426000BC018DEE90E0D1DE1D821E821F82188679
:104270001A82198289819A810A9709F043C049E01C
:1042800050E060E070E081E494E00E947C2F88239D
:1042900059F180914904282F30E080913F0490919A
:1042A00040042817390771F580913F04909140042C
:1042B000BC018EEE90E0A9DE80913F049091400415
:1042C00001969093400480933F0480913F04909125
:1042D000400499279093400480933F048B819C81F4
:1042E00001969C838B830EC080913F049091400483
:1042F000BC018FEE90E089DE1D821E821F8218862F
:104300001A82198289819A810A970CF475CF2B81C0
:104310003C818A859B85281739070CF466CF1A8261
:1043200019821D821E821F8218868C859D85892B8D
:1043300009F48AC081C089819A819C012F5B3B4F1F
:1043400080914E0490914F04AE01425F5F4F61E057
:1043500070E019DA89878985882309F077C08E850E
:104360009F8529813A81820F931F9A8389838D814A
:104370009E81AF81B8850196A11DB11D8D839E835D
:10438000AF83B8878D819E81AF81B88580399F4585
:10439000A140B10574F080913F0490914004BC01AC
:1043A0008DEE90E032DE1D821E821F8218861A82F8
:1043B000198289819A810A9709F03EC049E050E04C
:1043C00060E070E081E494E00E947C2F882331F16A
:1043D00080914904282F30E080913F04909140045F
:1043E0002817390749F580913F0490914004BC019A
:1043F0008EEE90E00ADE80913F0490914004019699
:104400009093400480933F0480913F049091400436
:1044100099279093400480933F040EC080913F04FD
:1044200090914004BC018FEE90E0EFDD1D821E8272
:104430001F8218861A82198289819A810A970CF440
:104440007ACF02C0000003C0000001C000000000DD
:1044500061960FB6F894DEBF0FBECDBFDF91CF914E
:104460000895CF93DF93CDB7DEB761970FB6F89479
:10447000DEBF0FBECDBF998B888B19821B821A823B
:104480008889998999230CF4079695958795959530
:104490008795959587959B878A878889998987705D
:1044A0009078992324F40197886F9F6F01969D87D8
:1044B0008C871E821F8218861986888999890296A0
:1044C0002ADA89838981882321F0888999895EDEA7
:1044D00071C11D821C82B9C01B821A821E821F827A
:1044E00018861986ADC020915204309153048C81F6
:1044F0009D81880F991F880F991F880F991FAC0104
:104500008A819B81840F951F280F391F80914E044B
:1045100090914F04AE01425F5F4F61E070E033D98C
:1045200089838981882309F040C18E859F852A81EE
:104530003B81820F931F9B838A838E819F81A885F5
:10454000B9850196A11DB11D8E839F83A887B98768
:104550008E819F81A885B98580399F45A140B1058D
:1045600074F080913F0490914004BC018DEE90E086
:104570004CDD1E821F82188619861B821A828A8150
:104580009B810A9709F05CC08C819D81880F991FDF
:10459000880F991F880F991F9C0180915204909158
:1045A000530449E050E0B9010E947C2F8823D1F1E7
:1045B00020915204309153048C819D81880F991F62
:1045C000880F991F880F991F0896820F931FFC016F
:1045D0008081282F30E080913F049091400428177B
:1045E000390771F580913F0490914004BC018EEE33
:1045F00090E00BDD80913F049091400401969093F0
:10460000400480933F0480913F0490914004992797
:104610009093400480933F048C819D8101969D83FB
:104620008C830EC080913F0490914004BC018FEEBA
:1046300090E0EBDC1E821F82188619861B821A828C
:104640008A819B810A970CF44ECF2C813D818A850B
:104650009B85281739070CF43FCF1B821A821E82D4
:104660001F82188619868C859D85892B09F49FC029
:1046700096C08A819B819C012F5B3B4F80914E04A9
:1046800090914F04AE01425F5F4F61E070E07BD8D4
:1046900089838981882309F08CC08E859F852A8132
:1046A0003B81820F931F9B838A838E819F81A88584
:1046B000B9850196A11DB11D8E839F83A887B987F7
:1046C0008E819F81A885B98580399F45A140B1051C
:1046D00074F080913F0490914004BC018DEE90E015
:1046E00094DC1E821F82188619861B821A828A8198
:1046F0009B810A9709F053C049E050E060E070E008
:1047000081E494E00E947C2F8823D9F180914904B0
:10471000282F30E080913F049091400428173907FA
:1047200009F03DC080913F0490914004BC018EEEA1
:1047300090E06BDC4C855D85809152049091530430
:104740002C813D81220F331F220F331F220F331F75
:10475000820F931F61E474E00E94473D80913F0403
:104760009091400401969093400480933F0480917F
:104770003F049091400499279093400480933F0414
:104780000EC080913F0490914004BC018FEE90E0F8
:104790003CDC1E821F82188619861B821A828A813F
:1047A0009B810A970CF465CF02C0000003C0000093
:1047B00001C000008981882329F4809152049091DE
:1047C000530402C080E090E061960FB6F894DEBF1B
:1047D0000FBECDBFDF91CF910895CF93DF93CDB7BB
:1047E000DEB761970FB6F894DEBF0FBECDBF9B87D3
:1047F0008A877D876C872E873F87488B598B1982E4
:104800008C859D85CC01A0E0B0E08A839B83AC833E
:10481000BD838E859F85A889B9898E839F83A8874C
:10482000B9879E012E5F3F4F8A859B85A90168E06D
:1048300070E061DC8983898161960FB6F894DEBFF0
:104840000FBECDBFDF91CF910895CF93DF9300D0FE
:1048500000D000D01F921F92CDB7DEB7998788870E
:104860007B876A8719828A859B85FBDD9B838A8388
:104870008A819B81892B99F481E090E0A0E0B0E0EF
:104880008C839D83AE83BF83CE010496AC0164E02C
:1048900070E082E190E02FDC81E0898315C02A81FD
:1048A0003B8188859985B9010E94E1021C821D82A5
:1048B0001E821F82CE010496AC0164E070E082E1AA
:1048C00090E019DC8983000089812B960FB6F8945B
:1048D000DEBF0FBECDBFDF91CF910895CF93DF93A1
:1048E000CDB7DEB7A2970FB6F894DEBF0FBECDBF2F
:1048F0009AA389A31D8289A19AA1FC018481958133
:10490000FC01808191819F838E838E819F81FC0138
:1049100080859185998788878FEF88A38885998579
:10492000892B09F4F7C088859985FC0180819181E4
:104930009B878A878E819F81FC01828193819D87DD
:104940008C871C821B821A8219824FC088859985A8
:10495000FC012281338189819A81880F991F880FF8
:10496000991F880F991F820F931FFC0182819381E9
:10497000998F888F888D998D880F991F2C853D85FB
:10498000820F931FFC01808191819B8F8A8F888584
:104990009985FC012281338189819A81880F991F31
:1049A000880F991F880F991F820F931FFC01868122
:1049B00097819D8F8C8F4A8D5B8D2C8D3D8D429F75
:1049C000C001439F900D529F900D11249F8F8E8F99
:1049D0002B813C818E8D9F8D820F931F9C838B83B7
:1049E00089819A8101969A83898329813A818A856E
:1049F0009B85281739070CF4A9CF8B819C81BC01BA
:104A000083E190E002DB8D838D81882309F089C0EA
:104A10001A82198270C088859985FC0122813381B0
:104A200089819A81880F991F880F991F880F991F74
:104A3000820F931FFC01808191819F878E878885DB
:104A40009985FC012281338189819A81880F991F80
:104A5000880F991F880F991F820F931FFC01828175
:104A60009381998B888B88899989880F991F2C85C8
:104A70003D85820F931FFC01808191819B8B8A8BE6
:104A800088859985FC012281338189819A81880FEB
:104A9000991F880F991F880F991F820F931FFC0180
:104AA000868197819D8B8C8B4A895B892C893D8976
:104AB000429FC001439F900D529F900D11249F8BE8
:104AC0008E8B2E893F898E859F85B901E3DA8D8390
:104AD0002E893F8988A1682F8E859F8540E050E010
:104AE0000E94C92F88A38D818823E9F489819A8146
:104AF00001969A83898329813A818A859B85281723
:104B000039070CF488CFCE01809661E070E0C2DAFC
:104B10008D830AC060E070E083E190E076DA8D83F7
:104B200003C0000001C000008D81A2960FB6F8946A
:104B3000DEBF0FBECDBFDF91CF9108950F931F93BE
:104B4000CF93DF93CDB7DEB761970FB6F894DEBF92
:104B50000FBECDBF998788877B876A875D874C8723
:104B60003F872E87198B088B19828C859D8579DC70
:104B70009B838A838A819B81892B51F488859985BF
:104B80002FEF3FEFA90161E070E027DE81E058C020
:104B90008A819B81FC0180819181A281B3818C8378
:104BA0009D83AE83BF83888599858B319105A9F05C
:104BB0004C9709F026C08C819D81AE81BF812A81EE
:104BC0003B81B9016C5F7F4FEA85FB859C01AD019C
:104BD000CF010E94890A898314C08C819D81AE8196
:104BE000BF812A813B81A9014C5F5F4F6E857F8524
:104BF000EA85FB858C019D01CF010E9431098983E3
:104C000000008981882371F08C819D81AE81BF81F4
:104C1000E885F9859C01AD0161E070E0CF01DDDD43
:104C200089810EC08C819D81AE81BF81E885F98527
:104C30009C01AD0160E070E0CF01CFDD8983898107
:104C400061960FB6F894DEBF0FBECDBFDF91CF9156
:104C50001F910F910895CF93DF93CDB7DEB72D97B6
:104C60000FB6F894DEBF0FBECDBF998788877B87CC
:104C70006A875D874C8719828A859B85F2DB9B83D7
:104C80008A838A819B81892B51F4888599852FEFAE
:104C90003FEFA90161E070E0A0DD81E036C08A81CC
:104CA0009B81FC0180819181A281B3818C839D8352
:104CB000AE83BF83888599858D31910561F04E97CC
:104CC00009F015C08C819D81AE81BF81BC01CD01F1
:104CD0000E94F40C0CC08C819D81AE81BF812C851B
:104CE0003D85A901BC01CD010E942D0C00008C81E5
:104CF0009D81AE81BF81E885F9859C01AD0160E0B1
:104D000070E0CF016ADD898389812D960FB6F89412
:104D1000DEBF0FBECDBFDF91CF910895CF93DF935C
:104D200000D000D0CDB7DEB79C838B837E836D83AC
:104D30001A8219820E94641B90934F0480934E0440
:104D400080914E0490914F04892B29F48CEE92E0CF
:104D50009A8389830EC080914E0490914F044D81B7
:104D60005E812B813C81B9010E94C91A9A83898393
:104D7000000089819A81892B51F080914E04909195
:104D80004F040E94101C10924F0410924E0489810F
:104D90009A8126960FB6F894DEBF0FBECDBFDF9185
:104DA000CF910895CF93DF93CDB7DEB780914E04B6
:104DB00090914F040E94FF1BDF91CF910895CF93F4
:104DC000DF93CDB7DEB76F970FB6F894DEBF0FBE97
:104DD000CDBF6A8F7B8F8C8F9D8F5F8F4E8F1B8295
:104DE00088E0888780914B04882309F489C42E8D3C
:104DF0003F8D8A8D9B8DAC8DBD8DFE017396AC0170
:104E0000BD01CF010E94541774C41A8219825CC478
:104E10002D893E8989819A81880F991F880F991F52
:104E2000880F991F820F931F9A87898789859A8592
:104E3000FC01808191819093610480936004898555
:104E40009A85FC0184819581909363048093620428
:104E500089859A85FC018281938190936504809372
:104E6000640489859A85FC01868197819093670403
:104E70008093660420916004309161048091620403
:104E800090916304820F931F092E000CAA0BBB0B99
:104E90008B879C87AD87BE871C821D821E821F82E6
:104EA000ECC31F86188A198A1A8A198E8C819D81F3
:104EB000AE81BF819C01AD012C5F3F4F4F4F5F4FD3
:104EC0008091600490916104092E000CAA0BBB0B29
:104ED000281739074A075B0750F420916404309182
:104EE00065048C819D810496820F931F0FC02091D1
:104EF0006604309167048C819D81409160045091DB
:104F00006104841B950B0496820F931FFC01808122
:104F1000882F90E0A0E0B0E02F85388949895A8930
:104F2000822B932BA42BB52B8F87988BA98BBA8BB5
:104F30008C819D81AE81BF819C01AD012B5F3F4F74
:104F40004F4F5F4F8091600490916104092E000CD7
:104F5000AA0BBB0B281739074A075B0750F42091AF
:104F60006404309165048C819D810596820F931FA6
:104F70000FC020916604309167048C819D8140911F
:104F8000600450916104841B950B0596820F931F5A
:104F9000FC018081882F90E0A0E0B0E0BA2FA92F1B
:104FA000982F88272F85388949895A89822B932BF6
:104FB000A42BB52B8F87988BA98BBA8B8C819D8165
:104FC000AE81BF819C01AD012A5F3F4F4F4F5F4FC4
:104FD0008091600490916104092E000CAA0BBB0B18
:104FE000281739074A075B0750F420916404309171
:104FF00065048C819D810696820F931F0FC02091BE
:105000006604309167048C819D81409160045091C9
:105010006104841B950B0696820F931FFC0180810F
:10502000882F90E0A0E0B0E0DC01992788272F8549
:10503000388949895A89822B932BA42BB52B8F87CA
:10504000988BA98BBA8B8C819D81AE81BF819C018D
:10505000AD01295F3F4F4F4F5F4F809160049091AA
:105060006104092E000CAA0BBB0B281739074A074D
:105070005B0750F420916404309165048C819D811C
:105080000796820F931F0FC020916604309167042A
:105090008C819D814091600450916104841B950B2B
:1050A0000796820F931FFC018081882F90E0A0E07B
:1050B000B0E0B82FAA27992788272F8538894989F2
:1050C0005A89822B932BA42BB52B8F87988BA98B76
:1050D000BA8B8885282F880F330B440B550B8C8196
:1050E0009D81AE81BF81280F391F4A1F5B1F8091B0
:1050F000600490916104092E000CAA0BBB0B82176F
:105100009307A407B50708F4B9C18885682F880FED
:10511000770B8091600490916104092E000CAA0B1A
:10512000BB0B2C813D814E815F81281739074A07CF
:105130005B0748F420916404309165048C819D8163
:10514000820F931F0EC020916604309167048C81FA
:105150009D814091600450916104841B950B820FE6
:10516000931F0E944A208B838885282F880F330B3A
:10517000440B550B8C819D81AE81BF81280F391F57
:105180004A1F5B1F8F859889A989BA89280F391F03
:105190004A1F5B1F8091600490916104092E000CEE
:1051A000AA0BBB0B82179307A407B50708F489C0A5
:1051B0006F8578898885282F880F330B440B550B12
:1051C0008C819D81AE81BF81280F391F4A1F5B1FD3
:1051D0008091600490916104092E000CAA0BBB0B16
:1051E000281739074A075B0778F420916404309147
:1051F00065044C815D818885082E000C990B840F15
:10520000951F820F931F14C020916604309167048C
:105210004C815D818885082E000C990B840F951FA9
:105220004091600450916104841B950B820F931F81
:105230000E944A208B836F8578898885282F880F64
:10524000330B440B550B8C819D81AE81BF81280FA0
:10525000391F4A1F5B1F8091600490916104092EE1
:10526000000CAA0BBB0B281739074A075B0778F419
:1052700020916404309165044C815D818885082EFD
:10528000000C990B840F951F820F931F14C020915F
:105290006604309167044C815D818885082E000C7E
:1052A000990B840F951F4091600450916104841BF9
:1052B000950B820F931FAB0160E070E04DD6898F94
:1052C000BBC180916004909161049C018C819D819F
:1052D000281B390B8885082E000C990BA901481B47
:1052E000590BCA01BC018885282F880F330B440B4A
:1052F000550B8C819D81AE81BF81280F391F4A1FBC
:105300005B1F8091600490916104092E000CAA0B30
:10531000BB0B281739074A075B0778F42091640410
:10532000309165044C815D818885082E000C990BB5
:10533000840F951F820F931F14C020916604309133
:1053400067044C815D818885082E000C990B840FC1
:10535000951F4091600450916104841B950B820F4E
:10536000931F0E944A208B832C813D818885082EC3
:10537000000C990B280F391F8F859889820F931F76
:105380002091600430916104821B930B9C018091F9
:10539000660490916704B9010E944A208B83809132
:1053A0006004909161049C018C819D81281B390BC4
:1053B0008885082E000C990BB901681B790B88852C
:1053C000282F880F330B440B550B8C819D81AE81A8
:1053D000BF81280F391F4A1F5B1F80916004909185
:1053E0006104092E000CAA0BBB0B281739074A07CA
:1053F0005B0778F420916404309165044C815D81F1
:105400008885082E000C990B840F951F820F931F1F
:1054100014C020916604309167044C815D818885B9
:10542000082E000C990B840F951F40916004509139
:105430006104841B950B820F931FAB0160E070E049
:105440008BD5898F2F8538898885482F880F550BF4
:105450008C819D816091600470916104861B970B23
:10546000840F951F280F391F698D809166049091D4
:10547000670440E050E08DD5898FDEC080916004E4
:1054800090916104092E000CAA0BBB0B2C813D816D
:105490004E815F81281739074A075B0708F053C020
:1054A00080916004909161049C018C819D81F9013F
:1054B000E81BF90BCF01BC0180916004909161045D
:1054C000092E000CAA0BBB0B2C813D814E815F8104
:1054D000281739074A075B0748F420916404309184
:1054E00065048C819D81820F931F0EC020916604FC
:1054F000309167048C819D814091600450916104DA
:10550000841B950B820F931F0E944A208B838885F2
:10551000282F880F330B8F859889280F391F8C818E
:105520009D814091600450916104841B950B820F12
:10553000931F9C018091660490916704B9010E94B9
:105540004A208B8334C08885282F880F330B8F85A2
:105550009889820F931FBC0180916004909161042F
:10556000092E000CAA0BBB0B2C813D814E815F8163
:10557000281739074A075B0748F4209164043091E3
:1055800065048C819D81820F931F0EC0209166045B
:10559000309167048C819D81409160045091610439
:1055A000841B950B820F931F0E944A208B836F856B
:1055B00078898885282F880F330B440B550B8C81F5
:1055C0009D81AE81BF81280F391F4A1F5B1F8091CB
:1055D000600490916104092E000CAA0BBB0B2817E4
:1055E00039074A075B0778F4209164043091650419
:1055F0004C815D818885082E000C990B840F951FC6
:10560000820F931F14C020916604309167044C816F
:105610005D818885082E000C990B840F951F4091A1
:10562000600450916104841B950B820F931FAB01A2
:1056300060E070E091D4898FCE01499661E070E01E
:105640000E944A208B838885282F880F330B440BB8
:10565000550B8F859889A989BA89820F931FA41F3A
:10566000B51F2C813D814E815F81820F931FA41F46
:10567000B51F8C839D83AE83BF832C813D814E817A
:105680005F818B859C85AD85BE85281739074A07C4
:105690005B0708F406CC2F89388D89819A81880FA1
:1056A000991F820F931FFC01208131818A8D9B8D70
:1056B000AC8DBD8DAC01BD01C9010E943F0D89813A
:1056C0009A8101969A8389838B899C8929813A8161
:1056D000281739070CF49CCB2E8D3F8D8A8D9B8D1E
:1056E000AC8DBD8DFE017396AC01BD01CF010E9452
:1056F00054178B899C89181619060CF486CB01C0A7
:1057000000008B81882321F08E8D9F8D0E944B1E7F
:1057100000006F960FB6F894DEBF0FBECDBFDF91CD
:10572000CF910895CF93DF9300D01F92CDB7DEB70E
:105730009C838B831A82198211C089819A81092ED8
:10574000000CAA0BBB0B2B813C81A901BC01CD0134
:1057500036DB89819A8101969A83898389819A812E
:1057600002975CF300000F900F900F900F90DF9165
:10577000CF910895CF93DF9300D0CDB7DEB71B82D2
:105780008B81882309F580914E0490914F040E94EB
:105790006D1B8B838B818823C9F41A8219820FC0F9
:1057A00089819A81092E000CAA0BBB0BBC01CD018B
:1057B0000E94A60789819A8101969A8389838981AB
:1057C0009A8102976CF303C0000001C000008B8136
:1057D0000F900F900F90DF91CF9108950F931F932B
:1057E000CF93DF9300D000D01F921F92CDB7DEB7CA
:1057F00069837A838B839C832D833E834F83588771
:10580000E0914E04F0914F042D813E814F815885E7
:1058100089819A81AB81BC8189019A01AC01BD016A
:10582000CF010E941E1C000028960FB6F894DEBF20
:105830000FBECDBFDF91CF911F910F9108950F93B0
:105840001F93CF93DF93CDB7DEB765970FB6F8946C
:10585000DEBF0FBECDBF998B888B7B8B6A8B5D8B38
:105860004C8B19821A8280914B04882369F48091B1
:105870004E0490914F046BE474E00E943E1C8983B7
:105880008981882309F0FDC080914B04882309F4A5
:10589000FAC080914C04882351F09E01255F3F4F50
:1058A000CE010396B9010E94261D898309C09E017D
:1058B000255F3F4FCE010396B9010E94C81C898322
:1058C0008981882319F081E08A83E6C08B8588234B
:1058D00009F4DBC080914C04882321F41B821C82D4
:1058E0001D821E828B819C81AD81BE81803191059C
:1058F000A105B10508F0CBC0FC018827ED57F34D99
:105900008F4F0C94FC3BDC2C072D182D472DE22CDF
:10591000012DBA2CCB2CAC2C332D1D2D2D2D472D2C
:10592000472D472D932C88899989FC018681978181
:10593000FC0180819181A281B3818C879D87AE8794
:10594000BF87CE010C96AC0164E070E085E190E089
:105950000E947B208983A0C08F819885A985BA8504
:105960009C018A899B89AC01B9018DE190E073D9D2
:10597000898392C08F819885A985BA85AC012A89CF
:105980003B898889998904E514E0BC018BE190E0AA
:10599000D5D8898381C08F819885A985BA85AC01C6
:1059A0008889998905E514E02FEF3FEFBC018CE170
:1059B00090E0C4D8898370C0888999890E94811E2B
:1059C00089836AC08F819885A985BA85892B8A2B9E
:1059D0008B2B21F481E080934D045EC08F819885EC
:1059E000A985BA859C0188899989B9010E942524D5
:1059F00089838981882309F04CC081E080934D041C
:105A00004BC0888999890E946E24898345C040E0F3
:105A100050E060E070E081E190E00E947B208983AB
:105A200089818823C1F58A899B890E94FA1D34C027
:105A30008A899B890E944B1E2FC081E090E0909341
:105A400033048093320440E050E060E070E086E18F
:105A500090E00E947B2089831FC08C899D8921E072
:105A6000FC01208319C08F819885A985BA859C0186
:105A70008A899B89AC01B9018EE190E0ECD88983D9
:105A80000BC0000009C0000007C0000005C00000F6
:105A900003C0000001C000008981882339F08A8199
:105AA000882321F08A899B890E944B1E00006596FD
:105AB0000FB6F894DEBF0FBECDBFDF91CF911F911F
:105AC0000F910895CF93DF9300D000D0CDB7DEB70C
:105AD00069837A838B839C835E834D8389819A81DA
