:10000000F5C0000024C1000022C1000020C1000092
:100010001EC100001CC100001AC1000018C1000070
:1000200016C1000014C1000012C1000010C1000080
:100030000EC100000CC100000AC1000008C1000090
:1000400006C1000004C1000002C1000000C10000A0
:10005000FEC00000FCC00000FAC000000C94AF3EDF
:10006000F6C000000C9416450C944645F0C0000004
:10007000EEC00000ECC00000EAC00000E8C00000D4
:10008000E6C00000E4C00000E2C00000E0C00000E4
:100090000C94BD450C94ED45DAC00000D8C00000BA
:1000A000D6C00000D4C00000D2C00000D0C0000004
:1000B000CEC00000CCC00000CAC00000C8C0000014
:1000C000C6C00000C4C00000C2C000000C9464465A
:1000D0000C949446BCC000000C940B470C943B4716
:1000E000B6C00000001D3A2774694E53E8F5D2CF20
:1000F0009C81A6BBCDD0F7EAB9A4839E25381F0208
:10010000514C6B76879ABDA0F3EEC9D46F725548F7
:100110001B06213C4A57706D3E230419A2BF9885E7
:10012000D6CBECF1130E2934677A5D40FBE6C1DCD7
:100130008F92B5A8DEC3E4F9AAB7908D362B0C11C7
:10014000425F78659489AEB3E0FDDAC77C61465BB7
:100150000815322F5944637E2D30170AB1AC8B96A7
:10016000C5D8FFE2263B1C01524F6875CED3F4E997
:10017000BAA7809DEBF6D1CC9F82A5B8031E392487
:10018000776A4D50A1BC9B86D5C8EFF24954736E77
:100190003D20071A6C71564B1805223F8499BEA367
:1001A000F0EDCAD735280F12415C7B66DDC0E7FA57
:1001B000A9B4938EF8E5C2DF8C91B6AB100D2A3747
:1001C00064795E43B2AF8895C6DBFCE15A47607D37
:1001D0002E3314097F6245580B16312C978AADB027
:1001E000E3FED9C4B1455846FF46A84711241FBEB7
:1001F000CFEFD1E2DEBFCDBF00E00CBF13E0A0E047
:10020000B2E0E8E2F3E900E00BBF02C007900D9214
:10021000AA39B107D9F727E0AAE9B3E001C01D92D6
:10022000A53DB207E1F710E0C6EFD0E000E006C060
:1002300021970109802FFE010E942E48C23FD1075D
:1002400080E00807A9F70E94DD3B0C949249D8CEC4
:100250008F929F92AF92BF92CF92DF92EF92FF92D6
:100260000F931F93CF93DF93CDB7DEB76F970FB682
:10027000F894DEBF0FBECDBF40E650E060E070E016
:100280008BE297E00E94824919821A821B821C82AB
:1002900010922B0710922C0710922D0710922E0708
:1002A0001D821E821F82188610924B0710924C07E7
:1002B00010924D0710924E0710926B0710926C0728
:1002C00010926D0710926E0780E090E0A0E8BFE307
:1002D00089879A87AB87BC8710922F0710923007C7
:1002E000109231071092320710924F071092500768
:1002F000109251071092520780E090E0A0E8BFE30F
:1003000080936F0790937007A0937107B093720763
:10031000188A1F86DCC089819A81AB81BC818E8B53
:100320009F8BA88FB98F80915A0290915B02A09108
:100330005C02B0915D0220E030E040E85FE3BC0188
:10034000CD010E94053D882369F501E020E030E001
:10035000A90169817A818B819C810E94053D882356
:1003600009F400E011E020E030E0A9016D817E8118
:100370008F8198850E94053D882309F410E0802F25
:100380008127882F90E0092E000CAA0BBB0BBC0123
:10039000CD010E943C3DDC01CB0189839A83AB8374
:1003A000BC8308C08D819E81AF81B88589839A8383
:1003B000AB83BC8380915E0290915F02A09160024A
:1003C000B091610220E030E040E85FE3BC01CD0184
:1003D0000E94053D882369F501E020E030E0A90195
:1003E0006E897F89888D998D0E94053D882309F447
:1003F00000E011E020E030E0A90169857A858B8575
:100400009C850E94053D882309F410E0802F8127F8
:10041000882F90E0092E000CAA0BBB0BBC01CD016C
:100420000E943C3DDC01CB018D839E83AF83B88766
:1004300008C089859A85AB85BC858D839E83AF83F3
:10044000B8878E899F89A88DB98D89879A87AB8750
:10045000BC878F8598890296880F991F880F991FEE
:100460009C01255D384F89819A81AB81BC81F9015E
:1004700080839183A283B3838F8598890A96880F9E
:10048000991F880F991F9C01255D384F8D819E8192
:10049000AF81B885F90180839183A283B3838F856F
:1004A00098894296880F991F880F991F9C01255D96
:1004B000384F8E899F89A88DB98DF90180839183EA
:1004C000A283B3838F8598890196988B8F878F85B8
:1004D000988906970CF41FCF80E090E0A0E8BFE376
:1004E00089839A83AB83BC83188A1F8613C08F8548
:1004F00098894896880F991F880F991F855D984F96
:10050000FC0110821182128213828F8598890196D4
:10051000988B8F878F85988905974CF384E090E0BE
:10052000988B8F873AC069817A818B819C810E94E8
:10053000093DDC01CB018C01015011098F8598899F
:10054000092E000CAA0BBB0BBC01CD010E943C3D47
:10055000DC01CB019801285E3F4F220F331F220F91
:10056000331F255D384FF90180839183A283B383C4
:1005700020E030E040E85FE369817A818B819C81F3
:100580000E94A13CDC01CB0189839A83AB83BC83AD
:100590008F8598890197988B8F878F859889992364
:1005A00014F6188A1F8630C08F8598890496880FA4
:1005B000991F880F991F8A5A9D4FFC018081918154
:1005C000A281B38120E030E040E85FEBBC01CD01C7
:1005D0000E94053D882399F48F8598894896880F55
:1005E000991F880F991F9C01255D384F80E090E08E
:1005F000A0E8BFEBF90180839183A283B3838F8549
:1006000098890196988B8F878F859889059764F2D2
:1006100080917A0290917B02A0917C02B0917D0240
:1006200020E030E040E85FEBBC01CD010E94053DD9
:10063000882389F580E090E0A0E8BFEB80939F07D6
:100640009093A007A093A107B093A20780E090E049
:10065000A0E8BFEB8093A3079093A407A093A507FE
:10066000B093A60780E090E0A0E8BFEB8093A707D7
:100670009093A807A093A907B093AA0780E090E001
:10068000A0E8BFEB8093AB079093AC07A093AD07B6
:10069000B093AE0778C080918B0790918C07A091A2
:1006A0008D07B0918E0720917A0230917B024091A4
:1006B0007C0250917D02BC01CD010E944C3EDC01C8
:1006C000CB0180939F079093A007A093A107B093BD
:1006D000A20780918F0790919007A0919107B09108
:1006E000920720917A0230917B0240917C025091D6
:1006F0007D02BC01CD010E944C3EDC01CB01809308
:10070000A3079093A407A093A507B093A607809191
:10071000930790919407A0919507B0919607209127
:100720007A0230917B0240917C0250917D02BC01A3
:10073000CD010E944C3EDC01CB018093A707909332
:10074000A807A093A907B093AA0780919707909153
:100750009807A0919907B0919A0720917A02309159
:100760007B0240917C0250917D02BC01CD010E9430
:100770004C3EDC01CB018093AB079093AC07A09378
:10078000AD07B093AE0780919F079091A007A0910D
:10079000A107B091A20720E030E040E85FEBBC0188
:1007A000CD010E94053D882391F0809166029091D1
:1007B0006702A0916802B091690220E030E040E851
:1007C0005FEBBC01CD010E94053D882349F480E028
:1007D00090E0A0E8BFEB8D839E83AF83B88788C08D
:1007E00080919F079091A007A091A107B091A207C7
:1007F000209166023091670240916802509169022F
:10080000BC01CD010E94A13CDC01CB0189839A830C
:10081000AB83BC8389819A81AB81BC81BC01CD0152
:100820000E94F70D882351F489819A81AB81BC81A4
:10083000BC01CD010E94BF0D882369F08091C307E0
:100840009091C407A091C507B091C6078D839E8380
:10085000AF83B8874DC020E030E0A90169817A817B
:100860008B819C810E94053D882329F41D821E8274
:100870001F8218863DC089819A81AB81BC8120E0AE
:1008800030E040EE50E4BC01CD010E947E3DDC0131
:10089000CB018D839E83AF83B88720E030E0A90130
:1008A0006D817E818F8198850E94053D882329F482
:1008B0001D821E821F8218861BC020E030E0A90125
:1008C00069817A818B819C810E94053D882384F413
:1008D00020E030E040EE50E46D817E818F8198858C
:1008E0000E94A13CDC01CB018D839E83AF83B8873E
:1008F00020E030E040E85FEB6D817E818F8198855C
:100900000E94053D882369F480E090E0A0E8BFEBF9
:1009100080938B0790938C07A0938D07B0938E07DD
:100920000CC08D819E81AF81B88580938B07909399
:100930008C07A0938D07B0938E078091A3079091A9
:10094000A407A091A507B091A60720E030E040E8F9
:100950005FEBBC01CD010E94053D882391F08091A1
:100960006A0290916B02A0916C02B0916D0220E03E
:1009700030E040E85FEBBC01CD010E94053D8823DB
:1009800049F480E090E0A0E8BFEB8D839E83AF83C5
:10099000B88788C08091A3079091A407A091A5076C
:1009A000B091A60720916A0230916B0240916C02CF
:1009B00050916D02BC01CD010E94A13CDC01CB0134
:1009C00089839A83AB83BC8389819A81AB81BC8103
:1009D000BC01CD010E94F70D882351F489819A81D1
:1009E000AB81BC81BC01CD010E94BF0D882369F0A1
:1009F0008091C3079091C407A091C507B091C60725
:100A00008D839E83AF83B8874DC020E030E0A9017D
:100A100069817A818B819C810E94053D882329F41C
:100A20001D821E821F8218863DC089819A81AB81FA
:100A3000BC8120E030E040EE50E4BC01CD010E94DA
:100A40007E3DDC01CB018D839E83AF83B88720E0A0
:100A500030E0A9016D817E818F8198850E94053DDE
:100A6000882329F41D821E821F8218861BC020E065
:100A700030E0A90169817A818B819C810E94053DCA
:100A8000882384F420E030E040EE50E46D817E81E4
:100A90008F8198850E94A13CDC01CB018D839E83D0
:100AA000AF83B88720E030E040E85FEB6D817E8166
:100AB0008F8198850E94053D882369F480E090E04D
:100AC000A0E8BFEB80938F0790939007A0939107C6
:100AD000B09392070CC08D819E81AF81B8858093C1
:100AE0008F0790939007A0939107B09392078091FE
:100AF000A7079091A807A091A907B091AA0720E0A5
:100B000030E040E85FEBBC01CD010E94053D882349
:100B100091F080916E0290916F02A0917002B0915D
:100B2000710220E030E040E85FEBBC01CD010E94A3
:100B3000053D882349F480E090E0A0E8BFEB8D8379
:100B40009E83AF83B88787C08091A7079091A8073D
:100B5000A091A907B091AA0720916E0230916F026F
:100B60004091700250917102BC01CD010E94A13CE4
:100B7000DC01CB0189839A83AB83BC8389819A8111
:100B8000AB81BC81BC01CD010E94F70D882349F4E3
:100B900089819A81AB81BC81BC01CD01F0D78823CA
:100BA00069F08091C3079091C407A091C507B091E7
:100BB000C6078D839E83AF83B8874DC020E030E0A9
:100BC000A90169817A818B819C810E94053D8823DE
:100BD00029F41D821E821F8218863DC089819A8158
:100BE000AB81BC8120E030E040EE50E4BC01CD019F
:100BF0000E947E3DDC01CB018D839E83AF83B8874D
:100C000020E030E0A9016D817E818F8198850E946E
:100C1000053D882329F41D821E821F8218861BC071
:100C200020E030E0A90169817A818B819C810E945A
:100C3000053D882384F420E030E040EE50E46D81EF
:100C40007E818F8198850E94A13CDC01CB018D8340
:100C50009E83AF83B88720E030E040E85FEB6D8192
:100C60007E818F8198850E94053D882369F480E00C
:100C700090E0A0E8BFEB8093930790939407A09334
:100C80009507B09396070CC08D819E81AF81B88582
:100C90008093930790939407A0939507B09396073A
:100CA0008091AB079091AC07A091AD07B091AE07D2
:100CB00020E030E040E85FEBBC01CD010E94053D43
:100CC000882391F08091720290917302A091740236
:100CD000B091750220E030E040E85FEBBC01CD014F
:100CE0000E94053D882349F480E090E0A0E8BFEB36
:100CF0008D839E83AF83B88786C08091AB07909128
:100D0000AC07A091AD07B091AE072091720230916F
:100D100073024091740250917502BC01CD010E9492
:100D2000A13CDC01CB0189839A83AB83BC8389819D
:100D30009A81AB81BC81BC01CD0159D7882349F48C
:100D400089819A81AB81BC81BC01CD0118D78823F0
:100D500069F08091C3079091C407A091C507B09135
:100D6000C6078D839E83AF83B8874DC020E030E0F7
:100D7000A90169817A818B819C810E94053D88232C
:100D800029F41D821E821F8218863DC089819A81A6
:100D9000AB81BC8120E030E040EE50E4BC01CD01ED
:100DA0000E947E3DDC01CB018D839E83AF83B8879B
:100DB00020E030E0A9016D817E818F8198850E94BD
:100DC000053D882329F41D821E821F8218861BC0C0
:100DD00020E030E0A90169817A818B819C810E94A9
:100DE000053D882384F420E030E040EE50E46D813E
:100DF0007E818F8198850E94A13CDC01CB018D838F
:100E00009E83AF83B88720E030E040E85FEB6D81E0
:100E10007E818F8198850E94053D882369F480E05A
:100E200090E0A0E8BFEB8093970790939807A0937A
:100E30009907B0939A070CC08D819E81AF81B885C8
:100E40008093970790939807A0939907B0939A0778
:100E50008091760290917702A0917802B091790208
:100E600080939B0790939C07A0939D07B0939E0748
:100E700080918B0790918C07A0918D07B0918E0780
:100E80008093B3079093B407A093B507B093B607C8
:100E9000188A1F8687C28091B3079091B407A091EA
:100EA000B507B091B60789879A87AB87BC878F85CE
:100EB000988901964896880F991F880F991F855D1C
:100EC000984FFC0180819181A281B3818E8B9F8B91
:100ED000A88FB98F20E030E040E85FEB6E897F8912
:100EE000888D998D0E94053D882309F456C2809112
:100EF000B3079091B407A091B507B091B60720E071
:100F000030E040E85FEBBC01CD010E94053D882345
:100F100069F48E899F89A88DB98D8093B3079093CA
:100F2000B407A093B507B093B60737C28091B30753
:100F30009091B407A091B507B091B6079C01AD019F
:100F40006E897F89888D998D0E94053D882369F47B
:100F500080E090E0A0E8BFEB8093B3079093B407E4
:100F6000A093B507B093B60718C21092B3071092BA
:100F7000B4071092B5071092B60720E030E040E8C1
:100F80005FEB69857A858B859C850E94053D88236A
:100F900069F419821A821B821C821D821E821F82A2
:100FA000188619861A861B861C8666C020E030E0EB
:100FB00040E050E469857A858B859C850E94A13C40
:100FC000DC01CB01BC01CD010E94093DDC01CB015C
:100FD0000197880F991F880F991F855D984FFC0115
:100FE00080819181A281B38189839A83AB83BC8301
:100FF00020E030E040E050E469857A858B859C856F
:101000000E94A13CDC01CB01BC01CD010E94093D45
:10101000DC01CB010796880F991F880F991F855D0A
:10102000984FFC0180819181A281B3818D839E8341
:10103000AF83B88720E030E040E050E469857A85EE
:101040008B859C850E94A13CDC01CB01BC01CD01BC
:101050000E94093DDC01CB010F96880F991F880F74
:10106000991F855D984FFC0180819181A281B38198
:1010700089879A87AB87BC8720E030E040E050E466
:101080006E897F89888D998D0E94A13CDC01CB01FE
:10109000BC01CD010E94093DDC01CB010197880F05
:1010A000991F880F991F855D984FFC018081918160
:1010B000A281B38101E020E030E0A901BC01CD01B3
:1010C0000E94053D882309F400E011E020E030E0B3
:1010D000A90169817A818B819C810E94053D8823C9
:1010E00009F410E0802F81278A8F20E030E040E073
:1010F00050E46E897F89888D998D0E94A13CDC0126
:10110000CB01BC01CD010E94093DDC01CB0107965A
:10111000880F991F880F991F855D984FFC0180816A
:101120009181A281B38101E020E030E0A901BC01FE
:10113000CD010E94053D882309F400E011E020E084
:1011400030E0A9016D817E818F8198850E94053DE7
:10115000882309F410E0802F81278B8F20E030E076
:1011600040E050E46E897F89888D998D0E94A13C72
:10117000DC01CB01BC01CD010E94093DDC01CB01AA
:101180000F96880F991F880F991F855D984FFC0156
:1011900080819181A281B38101E020E030E0A9014A
:1011A000BC01CD010E94053D882309F400E011E057
:1011B00020E030E0A90169857A858B859C850E94B5
:1011C000053D882309F410E0802F81278C8F1E862F
:1011D0001D861B8ADAC08A8D882F90E0092E000CAC
:1011E000AA0BBB0BBC01CD010E943C3D7B018C01D5
:1011F0008D859E85880F991F880F991F855D984F53
:10120000FC0180819181A281B381DD24D3949C0172
:10121000AD01C801B7010E94053D882309F0D12C1A
:101220008D2D8D8F8D859E850896880F991F880F2F
:10123000991F855D984FFC01C080D180E280F380CA
:101240008B8D882F90E0092E000CAA0BBB0BBC01E4
:10125000CD010E943C3DDC01CB0111E09C01AD01C0
:10126000C701B6010E94053D882309F010E0812FD7
:101270008E8F8D859E854096880F991F880F991FA8
:10128000855D984FFC01C080D180E280F3808C8D19
:10129000882F90E0092E000CAA0BBB0BBC01CD01DE
:1012A0000E943C3DDC01CB0111E09C01AD01C70176
:1012B000B6010E94053D882309F010E0812F8F8F31
:1012C00081E08D8B1A8A198A1C8A14C09E01235EC4
:1012D0003F4F89899A89820F931FFC01808188235F
:1012E00021F41D8A81E08C8B05C089899A89019639
:1012F0009A8B898B8C89882321F489899A89039711
:101300002CF38D898823E1F18D859E85892B69F4E5
:1013100080E090E0A0E8BFEB8093B3079093B40720
:10132000A093B507B093B60728C08D859E85092E7A
:10133000000CAA0BBB0BBC01CD010E943C3DDC01A3
:10134000CB0120E030E040E85FE3BC01CD010E942A
:10135000A13CDC01CB0120E030E040E050E4BC01E6
:10136000CD010E94A03CDC01CB018093B307909398
:10137000B407A093B507B093B60781E08B8B05C087
:101380008D859E8501969E878D878B89882329F47C
:101390008D859E8508970CF41ECF8F8598890196C0
:1013A000988B8F878F85988904970CF474CD81E092
:1013B00090E00E943D248AE993E0FC0186899789A8
:1013C000A08DB18DAC01BD0180E090E00E9412249F
:1013D0008AE993E0FC0186A197A1A0A5B1A520E030
:1013E00030E040E85FEBBC01CD010E94053D882361
:1013F000E1F18AE993E0FC0186A197A1A0A5B1A53E
:101400002AE933E0F90126893789408D518DBC01E5
:10141000CD010E94A03CDC01CB016C017D018AE979
:1014200093E0FC0186899789A08DB18D20E030E0A2
:1014300040E054E3BC01CD010E944C3EDC01CB01F5
:1014400011E09C01AD01C701B6010E94483E18168B
:101450000CF010E081E08127882339F08AE993E0DD
:1014600029E033E0FC01318320838AE993E0FC0129
:1014700082A5882339F08AE993E029E033E0FC0172
:10148000318320832AE933E0F901828D938DA48D85
:10149000B58D0196A11DB11DF901828F938FA48F87
:1014A000B58FF901828D938DA48DB58D892B8A2BF3
:1014B0008B2B79F42AE933E0F901868D978DA0A171
:1014C000B1A10196A11DB11DF901868F978FA0A32F
:1014D000B1A38AE993E0FC01828D938DA48DB58D33
:1014E000BC01CD010E943A3D7B018C018AE993E069
:1014F000FC0182A193A1A4A1B5A19C01AD01C801E9
:10150000B7010E944C3EDC01CB016C017D018AE9F0
:1015100093E0FC01868D978DA0A1B1A1BC01CD0106
:101520000E943A3D4B015C018AE993E0FC0182A1F3
:1015300093A1A4A1B5A19C01AD01C501B4010E9474
:101540004C3EDC01CB0120E030E040E85FE4BC0130
:10155000CD010E944C3EDC01CB010AE913E09C0165
:10156000AD01C701B6010E94A13CDC01CB01F8012D
:10157000868B978BA08FB18F00006F960FB6F89473
:10158000DEBF0FBECDBFDF91CF911F910F91FF90B6
:10159000EF90DF90CF90BF90AF909F908F90089585
:1015A000CF93DF93CDB7DEB784E090E098D28AE99D
:1015B00093E04BE250E060E070E00E9482492AE94B
:1015C00033E080E090E0A0E8BFEBF90186A397A3A9
:1015D000A0A7B1A72AE933E08DEC9CECACE4BEE314
:1015E000F90182A393A3A4A3B5A32AE933E087E278
:1015F00093E6A9E6B9E0F90184839583A683B783CE
:101600002AE933E089E99AE7A1E0BEECF901808795
:101610009187A287B3872AE933E082E39DEEA9EBA5
:10162000BFE3F90184879587A687B7872AE933E066
:1016300087E996EDA6EEBCE0F901808B918BA28B39
:10164000B38B8AE993E025EC33E0FC0133832283FA
:1016500081ED93E09093C6038093C50389E693E000
:101660009093D2038093D10389E693E09093D403BF
:101670008093D30389E693E09093D6038093D503B8
:101680002AE933E08AE993E0FC01828193812C5EB0
:101690003F4FFC01358324832AE933E08AE993E054
:1016A000FC01828193812C5F3F4FFC0133832283B5
:1016B0002AE933E08AE993E0FC01828193812A5E82
:1016C0003F4FFC01378326834CE850E060E070E038
:1016D0008BE297E00E94824944E150E060E070E0D4
:1016E00087ED93E00E9482498AE993E027ED33E099
:1016F000FC01358B248B8EE090E09093D80380938F
:10170000D70386E092E09093DA038093D90382E2D4
:1017100092E09093DC038093DB0386E492E0909365
:10172000DE038093DD0382E592E09093E0038093F3
:10173000DF030000DF91CF910895CF93DF93CDB702
:10174000DEB70000DF91CF910895CF93DF93CDB73F
:10175000DEB76A970FB6F894DEBF0FBECDBF80E24A
:1017600090E09E838D8319821A821B821C828D8158
:101770009E81809741F458D0DC01CB0189839A8304
:10178000AB83BC8342C081E090E09A878987CE0119
:101790000996FC01908181E0913009F480E0882F66
:1017A00090E098878F838F819885009719F0019733
:1017B000B9F02BC080E090E0A0EFBFE78F87988B57
:1017C000A98BBA8B1B861C861D861E868B859C85E5
:1017D000AD85BE8589839A83AB83BC83000015C029
:1017E00080E090E0A0EFBFE78B8B9C8BAD8BBE8B36
:1017F0001F8A188E198E1A8E8B899C89AD89BE8995
:1018000089839A83AB83BC83000089819A81AB81F1
:10181000BC81BC01CD016A960FB6F894DEBF0FBE45
:10182000CDBFDF91CF910895CF93DF9300D01F926A
:10183000CDB7DEB780E090E0A0E8BFE789839A8368
:10184000AB83BC8389819A81AB81BC81BC01CD0112
:101850000F900F900F900F90DF91CF910895CF933D
:10186000DF93CDB7DEB76A970FB6F894DEBF0FBE31
:10187000CDBF80E290E09E838D8319821A821B8205
:101880001C828D819E81809741F458D0DC01CB0170
:1018900089839A83AB83BC8342C081E090E09A87BE
:1018A0008987CE010996FC01908181E0913009F48D
:1018B00080E0882F90E098878F838F8198850097AC
:1018C00019F00197B9F02BC080E090E0A0EFBFEFD6
:1018D0008F87988BA98BBA8B1B861C861D861E86CC
:1018E0008B859C85AD85BE8589839A83AB83BC83BC
:1018F000000015C080E090E0A0EFBFEF8B8B9C8BC9
:10190000AD8BBE8B1F8A188E198E1A8E8B899C897F
:10191000AD89BE8989839A83AB83BC8300008981AA
:101920009A81AB81BC81BC01CD016A960FB6F89457
:10193000DEBF0FBECDBFDF91CF910895CF93DF9370
:1019400000D01F92CDB7DEB780E090E0A0E8BFEFF7
:1019500089839A83AB83BC8389819A81AB81BC8163
:10196000BC01CD010F900F900F900F90DF91CF91A0
:101970000895CF93DF93CDB7DEB76A970FB6F8948B
:10198000DEBF0FBECDBF80E290E09E838D831982C3
:101990001A821B821C828D819E81809741F45BD0CC
:1019A000DC01CB0189839A83AB83BC8345C081E092
:1019B00090E09A878987CE010996FC01908181E0A9
:1019C000913009F480E0882F90E098878F838F8191
:1019D0009885009719F00197B9F02EC080E090E04B
:1019E000A8EFBFEF8F87988BA98BBA8B1B861C86BD
:1019F0001D861E868B859C85AD85BE8589839A83D1
:101A0000AB83BC83000018C08FEF9FEFAFEFBFE741
:101A10008B8B9C8BAD8BBE8B8FEF9FEFDC018F8B05
:101A2000988FA98FBA8F8B899C89AD89BE8989834C
:101A30009A83AB83BC83000089819A81AB81BC818E
:101A4000BC01CD016A960FB6F894DEBF0FBECDBFC4
:101A5000DF91CF910895CF93DF9300D000D01F92F4
:101A60001F92CDB7DEB71B821C821D821E8281E0D1
:101A700090E098878F83CE010796FC01908181E0EA
:101A8000913009F480E0882F90E09A8389838981DE
:101A90009A81009719F0019751F012C080E090E010
:101AA000A0ECBFEF8B839C83AD83BE8309C08FEF17
:101AB0009FEFAFEFBFE78B839C83AD83BE830000B6
:101AC0008B819C81AD81BE81BC01CD0128960FB672
:101AD000F894DEBF0FBECDBFDF91CF910895CF93B5
:101AE000DF931F921F92CDB7DEB79A83898341DFC0
:101AF000DC01CB018093C3079093C407A093C50773
:101B0000B093C607A8DFDC01CB018093B7079093A1
:101B1000B807A093B907B093BA0717DEDC01CB0171
:101B20008093BF079093C007A093C107B093C207EB
:101B30007BDEDC01CB018093BB079093BC07A093B5
:101B4000BD07B093BE078BDEDC01CB018093C707D6
:101B50009093C807A093C907B093CA07EFDEDC01D2
:101B6000CB018093CB079093CC07A093CD07B09384
:101B7000CE0700000F900F90DF91CF910895CF9383
:101B8000DF9300D01F92CDB7DEB769837A838B8352
:101B90009C838091BF079091C007A091C107B0912D
:101BA000C2079C01AD0169817A818B819C810E9471
:101BB000053D882391F08091C7079091C807A091B7
:101BC000C907B091CA079C01AD0169817A818B81F7
:101BD0009C810E94053D882311F481E001C080E0D2
:101BE0000F900F900F900F90DF91CF910895CF93AA
:101BF000DF93CDB7DEB72F970FB6F894DEBF0FBED9
:101C0000CDBF6C877D878E879F87198280E290E0A9
:101C10009B838A838A819B81809749F48C859D85EB
:101C2000AE85BF85BC01CD0138D089832CC08C85A1
:101C30009D85AE85BF858C839D83AE83BF8388855C
:101C40009985AA85BB8588279927A07FBF770097AC
:101C5000A04FBF47A9F488859985AA85BB85AF7039
:101C6000BB27892B8A2B8B2B41F48C819D81AE81E4
:101C7000BF81892B8A2B8B2B19F081E090E002C069
:101C800080E090E0898389812F960FB6F894DEBFBB
:101C90000FBECDBFDF91CF910895CF93DF9300D0DA
:101CA00000D01F921F92CDB7DEB76D837E838F83E6
:101CB00098878D819E81AF81B88589839A83AB8314
:101CC000BC8389819A81AB81BC8188279927A078C0
:101CD000BF770097A048BF4769F489819A81AB819B
:101CE000BC81AF77BB27892B8A2B8B2B19F081E026
:101CF00090E002C080E090E028960FB6F894DEBF36
:101D00000FBECDBFDF91CF910895CF93DF93CDB7B5
:101D1000DEB7E6970FB6F894DEBF0FBECDBF9CAB23
:101D20008BAB7EAB6DAB8DA99EA99C838B831E82F2
:101D30001D8281E090E098878F8382E090E09A870F
:101D4000898783E090E09C878B8780E190E09E8785
:101D50008D878BA99CA9FC0184819581FC018081E0
:101D60009181988B8F878F859889FC0180859185DB
:101D70009A8B898B8F859889FC01828193819C8BBA
:101D80008B8B8B819C81FC0180819181A281B381AD
:101D90008F8F98A3A9A3BAA38B819C8104969C835F
:101DA0008B831A821982D7C04D855E852B813C8139
:101DB000CE018396B9010E9479498D859E852B813C
:101DC0003C81820F931F9C838B8389899A89FC01B4
:101DD000228133818D819E81880F991F880F991FE1
:101DE000AE014F5F5F4F840F951F8296FC0180818B
:101DF0009181A281B381880F991F880F991F880F45
:101E0000991F820F931FFC01808191819E8B8D8B86
:101E100089899A89FC01228133818D819E81880F75
:101E2000991F880F991FAE014F5F5F4F840F951F59
:101E30008296FC0180819181A281B381880F991FD4
:101E4000880F991F880F991F820F931FFC018481AF
:101E50009581988F8F8B8B859C85880F991F880F14
:101E6000991F9E012F5F3F4F820F931F8296FC01A7
:101E700080819181A281B381880F991F2B893C8930
:101E8000820F931FFC01408151818F89988D892B8E
:101E900019F082E090E002C081E090E0849F900120
:101EA000859F300D949F300D11243A8F298F89859D
:101EB0009A85880F991F880F991F9E012F5F3F4FAA
:101EC000820F931F8296FC0180819181A281B38150
:101ED000AC01298D3A8D429FC001439F900D529FC6
:101EE000900D11249C8F8B8F8F819885880F991F5F
:101EF000880F991F9E012F5F3F4F820F931F82967D
:101F0000FC0180819181A281B381AC01298D3A8D40
:101F1000429FC001439F900D529F900D11242D8927
:101F20003E89820F931F9E8F8D8F4B8D5C8D2B81F1
:101F30003C818D8D9E8DB9010E9479498B8D9C8D40
:101F40002B813C81820F931F9C838B8389819A8193
:101F500001969A83898389819A819C01990F440B08
:101F6000550B8F8D98A1A9A1BAA1281739074A0747
:101F70005B070CF419CF0000E6960FB6F894DEBFAD
:101F80000FBECDBFDF91CF910895CF93DF93CDB733
:101F9000DEB76E970FB6F894DEBF0FBECDBF9A8F37
:101FA000898F7C8F6B8F5E8F4D8F898D9A8DFC0111
:101FB00084819581FC01808191819A8389838981C3
:101FC0009A81FC01868197819C838B8389819A8188
:101FD000FC01828193819E838D8318861F8281E01C
:101FE00090E09A87898782E090E09C878B8783E0E6
:101FF00090E09E878D878B819C81FC0122813381BB
:102000008F819885880F991F880F991F4B8D5C8D44
:10201000840F951FFC0180819181A281B381880F7B
:10202000991F880F991F880F991F820F931FFC011A
:1020300080819181988B8F878B819C81FC0122818B
:1020400033818F819885880F991F880F991F4B8D39
:102050005C8D840F951FFC0180819181A281B381E9
:10206000880F991F880F991F880F991F820F931F40
:10207000FC01848195819A8B898B8D859E85880F43
:10208000991F880F991F2B8D3C8D820F931FFC0188
:1020900080819181A281B381880F991F2D813E811A
:1020A000820F931FFC014081518189899A89892B74
:1020B00019F082E090E002C081E090E0849F9001FE
:1020C000859F300D949F300D11243C8B2B8B8B857D
:1020D0009C85880F991F880F991F2B8D3C8D820F2F
:1020E000931FFC0180819181A281B381AC012B8976
:1020F0003C89429FC001439F900D529F900D112437
:102100009E8B8D8B89859A85880F991F880F991FC3
:102110002B8D3C8D820F931FFC0180819181A281C8
:10212000B381AC012B893C89429FC001439F900D34
:10213000529F900D1124988F8F8B8F89988D2F85AA
:102140003889280F391F8D8D9E8DFC0131832083A6
:102150008D8D9E8D2D893E89FC0133832283000065
:102160006E960FB6F894DEBF0FBECDBFDF91CF9154
:1021700008950F931F93CF93DF93CDB7DEB7E19709
:102180000FB6F894DEBF0FBECDBF9BA78AA77DA771
:102190006CA75FA74EA739AB28AB88A999A9FC010A
:1021A000808191819C838B831D828B819C81FC012A
:1021B00080819181A281B3818A8B9B8BAC8BBD8BFB
:1021C0008B819C8104969C838B838AA59BA5FC01B3
:1021D000208131818A899B89AC89BD89880F991FAB
:1021E000820F931FFC01208131818EA59FA5FC01E8
:1021F000318320838B819C81FC0180819181A2812C
:10220000B3818E879F87A88BB98B8B819C81049625
:102210009C838B838CA59DA562E070E00E9436486C
:102220009C018EA59FA5FC01338322838EA59FA5CB
:10223000FC0182819381892B19F481E08D83F6C0A2
:102240001A821982E2C08B819C81FC01808191817C
:10225000A281B3818E8B9F8BA88FB98F8B819C813C
:1022600004969C838B838EA59FA5FC0122813381DC
:102270008E899F89A88DB98D880F991F8901080FB4
:10228000191F68E070E081E090E00E943648F80194
:10229000918380838EA59FA5FC01228133818E8945
:1022A0009F89A88DB98D880F991F820F931FFC01FC
:1022B00080819181892B19F481E08D83B7C08EA52F
:1022C0009FA5FC01228133818E899F89A88DB98DBC
:1022D000880F991F820F931FFC01808191819B873A
:1022E0008A878A859B852B813C8144E050E0B90137
:1022F0000E9479498B819C8104969C838B838A857B
:102300009B85FC0180819181A281B38118161906F9
:102310001A061B06E4F48A859B85FC018081918165
:10232000A281B38164E070E00E9436489C018A85F6
:102330009B85FC01358324838A859B85FC018481F0
:102340009581892B21F481E08D8300006FC01E826E
:102350001F821886198643C08A859B85FC012481CB
:1023600035818E819F81880F991F880F991F820F59
:10237000931F9D878C878B819C8120E1FC01DE016E
:102380005A9601900D922A95E1F78B819C81409697
:102390009C838B834C855D859E01265E3F4F8AA57D
:1023A0009BA5B901F2DD8A859B85FC0126813781D9
:1023B0008C859D85FC0182819381280F391F8A8538
:1023C0009B85FC01378326838E819F81A885B985F3
:1023D0000196A11DB11D8E839F83A887B9878A8529
:1023E0009B85FC0180819181A281B3812E813F81F7
:1023F00048855985281739074A075B070CF4ACCF85
:1024000089819A8101969A83898389819A819C0125
:10241000990F440B550B8E859F85A889B98928177C
:1024200039074A075B070CF40ECF000088A999A969
:102430002B813C81FC01318320838D81E1960FB695
:10244000F894DEBF0FBECDBFDF91CF911F910F91EA
:102450000895CF93DF9300D000D01F92CDB7DEB7A1
:102460009B838A834C835D836E837F8319828C81F7
:102470009D81AE81BF81BB231CF481E0898349C06B
:102480008A819B8121E030E0FC01318320838C81B3
:102490009D81AE81BF81181619061A061B06A4F489
:1024A0008C819D810E9450489C018A819B81FC0106
:1024B000358324838A819B81FC0184819581892BCA
:1024C00041F481E0898325C08A819B81FC011582CA
:1024D00014822C813D818A819B81FC01338322837C
:1024E0008A819B81FC01248135818A819B81FC0149
:1024F000378326838A819B81FC01248135818A81EF
:102500009B81FC01318720878A819B81FC01138696
:102510001286898127960FB6F894DEBF0FBECDBF15
:10252000DF91CF910895CF93DF9300D000D000D0FA
:102530001F92CDB7DEB76F83788789879A872F81FF
:10254000388544E4429FC001439F900D112484517B
:102550009C4F9A83898389819A8142969C838B833D
:102560008B819C814C969E838D838D819E81FC0105
:1025700084819581892B61F08D819E81FC0184810C
:1025800095810E94EC488D819E81FC011582148208
:102590008B819C81FC0184A195A1892B61F08B81A9
:1025A0009C81FC0184A195A10E94EC488B819C81B7
:1025B000FC0115A214A28B819C81FC011182108266
:1025C0008B819C81FC0114821582168217828B817B
:1025D0009C81FC0110861186128613868B819C815A
:1025E000FC0114861586168617868B819C8121E056
:1025F00030E0FC01318B208B8B819C81FC01138AA4
:10260000128A8B819C81FC01148A158A168A178A8A
:102610008B819C81FC01118E108E8B819C81FC0131
:10262000138E128E8B819C81FC01148E158E168E5A
:10263000178E8B819C81FC0111A210A28B819C8141
:10264000FC0113A212A28B819C81FC0115A214A291
:102650008B819C81FC0117A216A28B819C81FC01BD
:1026600010A611A612A613A68B819C81FC0114A6AC
:1026700015A616A617A68B819C81FC0111AA10AA8B
:1026800000002A960FB6F894DEBF0FBECDBFDF91D3
:10269000CF910895CF93DF9300D000D0CDB7DEB7B0
:1026A0006B837C838D839E832B813C8144E4429F9A
:1026B000C001439F900D112484519C4F9A838983BC
:1026C0008B819C8182589D4FFC018081882371F011
:1026D00089819A8144E450E060E070E00E94824980
:1026E0008B819C8182589D4FFC01108289819A8147
:1026F000FC01148215821682178289819A81FC015D
:102700001186108689819A81FC011386128689813F
:102710009A81FC01118A108A89819A81FC011786AD
:1027200016868B819C81AD81BE81BC01CD01FBDE13
:10273000000026960FB6F894DEBF0FBECDBFDF9126
:10274000CF910895CF93DF93CDB7DEB72E970FB615
:10275000F894DEBF0FBECDBF69877A878B879C87D1
:102760005E874D8729853A8544E4429FC001439F97
:10277000900D112484519C4F9E838D838D819E8169
:10278000FC0184819581A681B781892B8A2B8B2BB3
:1027900009F4C4C01A82198254C08D819E81FC0143
:1027A0002085318589819A81880F991F880F991F0B
:1027B000820F931FFC018281938198878F831C82F3
:1027C0001B822FC08B819C81880F991F2F81388598
:1027D000820F931FFC0180819181892BE9F08B810D
:1027E0009C81880F991F2F813885820F931FFC01D0
:1027F00080819181FC01848195810E94EC488B81CC
:102800009C81880F991F2F813885820F931FFC01AF
:10281000808191810E94EC488B819C8101969C83F0
:102820008B832B813C818D859E852817390754F237
:102830008F8198850E94EC4889819A8101969A83BC
:10284000898389819A819C01990F440B550B8D8155
:102850009E81FC0184819581A681B7812817390763
:102860004A075B070CF499CF8D819E81FC0180851E
:1028700091850E94EC488D819E81FC018285938523
:10288000892B79F11A8219821EC08D819E81FC01EB
:102890004285538529813A81C901880F991F880F84
:1028A000991F880F991F821B930B880F991F840F04
:1028B000951FFC01848195810E94EC4889819A8151
:1028C00001969A83898329813A818D859E8528176F
:1028D0003907DCF28D819E81FC01828593850E94FF
:1028E000EC488D819E81FC01808991890E94EC4891
:1028F0008D819E81FC01868597850E94EC488985A3
:102900009A85AB85BC85BC01CD010DDE89859A8594
:10291000AB85BC85BC01CD01BDDE01C000002E969B
:102920000FB6F894DEBF0FBECDBFDF91CF910895F3
:10293000CF93DF9300D000D0CDB7DEB76B837C831D
:102940008D839E832B813C8144E4429FC001439F41
:10295000900D112484519C4F9A83898389819A8197
:10296000FC018289938984309105A0F0069798F440
:1029700089819A8125E030E0FC01338B228B29810B
:102980003A818FEF9FEFDC01F901828F938FA48F43
:10299000B58F01C00000000026960FB6F894DEBF88
:1029A0000FBECDBFDF91CF9108950F931F93CF93AB
:1029B000DF93CDB7DEB767970FB6F894DEBF0FBED3
:1029C000CDBF9F878E87798B688B5B8B4A8B0C8BF7
:1029D0001D8B2E8B3F8B1D828A899B8999878887C7
:1029E0002C893D8944E4429FC001439F900D1124EE
:1029F00084519C4F9F838E832E813F818C899D893A
:102A0000AE89BF89F90180839183A283B38328892A
:102A100039898C899D89AE89BF89A901BC01CD0105
:102A200091DE288539858E819F81049644E050E0AF
:102A3000B9010E9479498885998504969987888784
:102A40008E819F81FC0184819581A681B78164E09C
:102A500070E00E9436489C018E819F81DC011996AE
:102A60003C932E9318978E819F81FC0180859185E0
:102A7000892B19F481E08D83D7C01C821B8221C071
:102A80008E819F81DC0118962D913C918B819C81D8
:102A9000880F991F880F991FA901480F591F9E0180
:102AA000285F3F4F688979898E859F8562DB8D839A
:102AB0008D81882309F0B3C08B819C8101969C8312
:102AC0008B838B819C819C01990F440B550B8E81CC
:102AD0009F81FC0184819581A681B78128173907E0
:102AE0004A075B076CF2888999896EE070E00E9462
:102AF00036489C018E819F81DC011B963C932E936E
:102B00001A971A8219821C821B8248C0888599856F
:102B1000FC0180819181A281B3818A879B87AC87E8
:102B2000BD87888599850496998788872A853B85FE
:102B30004C855D858E819F81DC011A96ED91FC911B
:102B40006B817C81CB01880F991F880F991F880F9B
:102B5000991F861B970B880F991F8E0F9F1FBA0115
:102B6000A90177DC8D838D81882309F05AC08A857D
:102B70009B85AC85BD8521E0892B8A2B8B2B09F4A5
:102B800020E0822F90E029813A81820F931F9A835F
:102B900089838B819C8101969C838B832B813C81D3
:102BA00088899989281739070CF4B0CF8E819F81C5
:102BB000FC011586148689819A81880F991F880FD8
:102BC000991F880F991F0E9450489C018E819F81F8
:102BD000DC0151963C932E9350978E819F81FC018E
:102BE00080899189892B19F481E08D831DC08981A9
:102BF0009A81880F991F0E9450489C018E819F8165
:102C0000DC011F963C932E931E978E819F81FC01C1
:102C100086859785892B39F481E08D8305C0000076
:102C200003C0000001C000008D81882351F0288975
:102C300039898C899D89AE89BF89A901BC01CD01E3
:102C400081DD8D8167960FB6F894DEBF0FBECDBFD4
:102C5000DF91CF911F910F910895CF93DF93CDB75F
:102C6000DEB7AD970FB6F894DEBF0FBECDBF9FA302
:102C70008EA379A768A72AA73BA74CA75DA71982AF
:102C800088A599A59B838A832AA53BA544E4429FF6
:102C9000C001439F900D1124429684519C4F9F8305
:102CA0008E838A819B81FC0180819181A281B38185
:102CB0008E879F87A88BB98B8A819B8104969B8383
:102CC0008A838E859F85A889B9899C018E819F8181
:102CD000FC01338322838E819F8104962A813B816C
:102CE00044E050E0B9010E9479498A819B810496B1
:102CF0009B838A838E819F8108962A813B8144E051
:102D000050E0B9010E9479498A819B8104969B8396
:102D10008A838E819F810C962A813B8144E050E01A
:102D2000B9010E9479498A819B8104969B838A8399
:102D30008E819F814C962A813B8144E050E0B9010D
:102D40000E9479498A819B8104969B838A838E8124
:102D50009F81FC01848D958DA68DB78D998788877D
:102D600088859985181619060CF087C08E819F8179
:102D70004C969B878A8788859985880F991F880F2D
:102D8000991F0E9450489C018A859B85FC013583D0
:102D900024838A859B85FC0184819581892B19F484
:102DA00081E08983EAC01D821C823DC08A859B85A3
:102DB000FC01248135818C819D81880F991F880FAA
:102DC000991F820F931F9D878C878A819B8120E1A9
:102DD000FC01DE01569601900D922A95E1F78A8159
:102DE0009B8140969B838A834C855D859E012A5EEC
:102DF0003F4F8EA19FA1B901C8D88A859B85FC0150
:102E0000268137818C859D85FC0182819381280FE5
:102E1000391F8A859B85FC01378326838C819D81A0
:102E200001969D838C838C819D819C01990F440B1D
:102E3000550B8A859B85FC0180819181A281B3819C
:102E4000281739074A075B070CF4B0CF8A859B85A2
:102E5000FC01868197810E9450489C018E819F8150
:102E6000FC0135A324A38E819F81FC0184A195A13F
:102E7000892B19F481E0898380C08A819B81FC01C0
:102E800080819181A281B3818A8B9B8BAC8BBD8B1E
:102E90008A819B8104969B838A838A899B89AC89DA
:102EA000BD89892B8A2B8B2B41F08A899B89AC8920
:102EB000BD890297A105B10519F481E090E002C037
:102EC00080E090E02E813F81F901918B808B8A898F
:102ED0009B89AC89BD890197A105B10541F08A891B
:102EE0009B89AC89BD890297A105B10519F481E0E0
:102EF00090E002C080E090E02E813F81F901938B49
:102F0000828B8E819F8144962A813B8144E050E0F0
:102F1000B9010E9479498A819B8104969B838A83A7
:102F20008E819F81FC0184859585A685B785BB230D
:102F3000ECF48E819F81FC0184859585A685B785FB
:102F4000B095A095909581959F4FAF4FBF4F2E8123
:102F50003F81F90180A791A7A2A7B3A78E819F8186
:102F6000FC01148615861686178607C08E819F8100
:102F7000FC0110A611A612A613A68981882339F098
:102F80008AA59BA5ACA5BDA5BC01CD01CCDA8981E4
:102F9000AD960FB6F894DEBF0FBECDBFDF91CF91D7
:102FA0000895CF93DF93CDB7DEB72C970FB6F89483
:102FB000DEBF0FBECDBF6F83788789879A875C8716
:102FC0004B872F81388544E4429FC001439F900D79
:102FD000112484519C4F9C838B831092EB038B8133
:102FE0009C81FC0115A614A61A82198243C08B810C
:102FF0009C81FC014285538529813A81C901880F52
:10300000991F880F991F880F991F821B930B880F98
:10301000991F840F951F9E838D838D819E81FC0156
:10302000828193811816190604F58D819E81FC0119
:10303000248135818D819E81FC01378326838D819A
:103040009E81FC01248135818D819E81FC01318727
:1030500020878D819E81FC01138612868D819E8141
:1030600021E030E0FC013183208389819A8101963F
:103070009A83898329813A818B859C852817390712
:103080000CF4B5CF8B819C81FC0113A612A68B8119
:103090009C81FC0111AE10AE8B819C81CE96FC010F
:1030A00010821182128213828B819C8122E030E097
:1030B000FC01338B228B00002C960FB6F894DEBFF8
:1030C0000FBECDBFDF91CF910895CF93DF9300D096
:1030D00000D01F921F92CDB7DEB76B837C838D83A8
:1030E0009E8358874F832B813C8144E4429FC001DB
:1030F000439F900D112484519C4F9A838983898129
:103100009A81FC01138A128A2F8138858B819C81D8
:10311000AD81BE81A901BC01CD0114DB0000289660
:103120000FB6F894DEBF0FBECDBFDF91CF910895EB
:10313000CF93DF9300D000D0CDB7DEB76B837C8315
:103140008D839E832B813C8144E4429FC001439F39
:10315000900D112484519C4F9A83898389819A818F
:10316000FC01828993898530910518F4019720F438
:1031700020C0059799F01DC029813A818FEF9FEFFC
:10318000DC01F901828F938FA48FB58F89819A8199
:1031900025E030E0FC01338B228B0BC029813A8182
:1031A0008FEF9FEFDC01F901828F938FA48FB58F92
:1031B0000000000026960FB6F894DEBF0FBECDBF0C
:1031C000DF91CF910895CF93DF9300D000D000D04E
:1031D0001F92CDB7DEB79E838D834F835887698753
:1031E0007A872F81388544E4429FC001439F900D28
:1031F000112484519C4F9A83898389819A81FC018F
:10320000428553852D813E81C901880F991F880F02
:10321000991F880F991F821B930B880F991F840F8A
:10322000951F9C838B8381E08093EB038B819C8132
:10323000FC01228533858B819C81FC0131872087AD
:103240008B819C81FC01208531858B819C81FC01D7
:103250008681978141E02817390709F040E0242F43
:1032600030E08B819C81FC013183208300002A9611
:103270000FB6F894DEBF0FBECDBFDF91CF9108959A
:10328000CF93DF93CDB7DEB72D970FB6F894DEBF9F
:103290000FBECDBF9F838E83798768875B874A8700
:1032A0003D872C8719828E819F81FC0184819581C5
:1032B0002E813F81F90122813381820F931F9B83ED
:1032C0008A838A859B85FC01208131818E819F8143
:1032D000FC01808591858217930740F08E819F8144
:1032E000FC0180819181892B09F4AFC08A819B8187
:1032F0002A853B85F90120813181AC01421B530BAA
:103300009A018E819F81FC0180859185AC018E811F
:103310009F81FC0184819581BA01681B790BCB01E7
:10332000820F931F9D838C832C813D818885998595
:10333000281739071CF481E08983CBC08A859B85D7
:10334000FC012081318188859985820F931F2A8114
:103350003B818217930750F58C859D85288539859B
:10336000FC01318320838A859B85FC01208131818A
:103370008C859D85FC01338322838C859D85FC0192
:10338000158214828C859D85FC01178216828A85A0
:103390009B85FC012081318188859985280F391F03
:1033A0008A859B85FC013183208393C08A819B8120
:1033B0002A853B85F90120813181AC01421B530BE9
:1033C0009A018C859D85FC01318320838A859B85AC
:1033D000FC01208131818C859D85FC013383228312
:1033E0008C859D85FC018081918128853985281BEC
:1033F000390B8C859D85FC01358324838C859D85C7
:10340000FC01848195811816190634F48E819F8100
:10341000FC018481958102C080E090E02C853D858F
:10342000F901978386838E819F81FC018481958138
:103430002C853D85F90124813581280F391F8A8526
:103440009B85FC013183208344C08E819F81FC01D8
:10345000808591859C018A859B85FC018081918175
:10346000A901481B590BCA019D838C832C813D8186
:1034700088859985281739071CF481E0898329C03C
:103480008C859D8528853985FC01318320838A853B
:103490009B85FC01208131818C859D85FC013383D6
:1034A00022838C859D85FC01158214828C859D85E7
:1034B000FC01178216828A859B85FC01208131815F
:1034C00088859985280F391F8A859B85FC01318362
:1034D000208389812D960FB6F894DEBF0FBECDBF35
:1034E000DF91CF910895CF93DF93CDB7DEB76A9781
:1034F0000FB6F894DEBF0FBECDBF6F8B788F898F6C
:103500009A8F2F89388D44E4429FC001439F900DCC
:10351000112484519C4F98878F838F819885429680
:103520009A87898789859A85FC0184A195A19C87C2
:103530008B878B859C859C838B831A82198241C1E2
:1035400089859A85FC0120A131A189819A81880F02
:10355000991F880F991F820F931F9E878D878D85D6
:103560009E85FC0182819381969587959695879596
:10357000988B8F8789859A85FC0186A197A1892BD5
:1035800009F4FEC089859A85FC0184899589A689FC
:10359000B789898B9A8BAB8BBC8B8D859E85FC0103
:1035A000808191819E8B8D8B1E821D82E1C08985D9
:1035B0009A85FC0180899189892B09F466C08D81E7
:1035C0009E81880F991F880F991F2D893E89820F30
:1035D000931FFC0180819181A281B3819C01AD0187
:1035E00069897A898B899C890E94053D1816CCF0DF
:1035F0008D819E81880F991F880F991F2B813C8197
:10360000820F931FFC0180819181A281B3819C0173
:10361000AD0169897A898B899C890E94483E181678
:1036200094F18D819E81880F991F880F991F2D8994
:103630003E89820F931FFC0180819181A281B38119
:103640009C01AD0169897A898B899C890E94053D1D
:103650008823DCF48D819E81880F991F880F991F24
:103660002B813C81820F931FFC0180819181A2817B
:10367000B3819C01AD0169897A898B899C890E94FB
:10368000053D882311F481E0B7C089859A85FC0146
:1036900082899389892B09F466C08D819E81880F68
:1036A000991F880F991F2D893E89820F931FFC0156
:1036B00080819181A281B3819C01AD0169897A8960
:1036C0008B899C890E94483E1816CCF48D819E817E
:1036D000880F991F880F991F2B813C81820F931FA0
:1036E000FC0180819181A281B3819C01AD01698936
:1036F0007A898B899C890E94053D181694F58D81E5
:103700009E81880F991F880F991F2D893E89820FEE
:10371000931FFC0180819181A281B3819C01AD0145
:1037200069897A898B899C890E94053D8823D9F40F
:103730008D819E81880F991F880F991F2B813C8155
:10374000820F931FFC0180819181A281B3819C0132
:10375000AD0169897A898B899C890E94053D8823FE
:1037600014F481E049C08D819E8101969E838D83F2
:103770002D813E818F859889281739070CF417CF42
:103780008D859E85FC0182819381AC018D859E850E
:10379000FC01208131818B819C81B9010E94794992
:1037A0008F859889880F991F880F991F2B813C81DD
:1037B000820F931F9C838B8389819A8101969A83C0
:1037C000898389819A819C01990F440B550B8985C6
:1037D0009A85FC01848D958DA68DB78D28173907A4
:1037E0004A075B070CF4ACCE89859A8521E030E06E
:1037F000FC0137A326A380E06A960FB6F894DEBFDB
:103800000FBECDBFDF91CF9108950F931F93CF933C
:10381000DF93CDB7DEB7C256D1090FB6F894DEBF3D
:103820000FBECDBFFE01E75AFF4F91838083CE01CB
:10383000855A9F4FFC014083518362837383CE017D
:10384000815A9F4FFC010083118322833383CE0171
:10385000815A9F4FFC012081318144E4429FC00185
:10386000439F900D112484519C4F9E838D831A8217
:1038700019828D819E81429698878F838D819E814A
:10388000FC0142855385CE01875A9F4FFC01208160
:103890003181C901880F991F880F991F880F991FBF
:1038A000821B930B880F991F840F951F9A87898716
:1038B0008F819885FC0180819181029709F05CC01D
:1038C0008F819885FC01848D958DA68DB78D892B70
:1038D0008A2B8B2B41F48F81988524E030E0FC010A
:1038E0003183208349C08F819885FC018281938137
:1038F0009E01275A3F4FF90120813181281739074E
:10390000D9F5CE01815A9F4FFC0180819181A2811E
:10391000B381BC01CD01E7DD882371F18F819885EA
:10392000FC0184859585A685B785892B8A2B8B2BF1
:10393000A9F48F81988524E030E0FC013183208355
:103940008F819885FC0184A595A5A6A5B7A59C01A6
:103950008F819885FC01318F208F0EC08F819885D3
:1039600023E030E0FC01318320838F81988521E0C2
:1039700030E0FC01318F208F8F819885FC018081A0
:103980009181029779F48F819885FC0180A591A59A
:10399000A2A5B3A5181619061A061B061CF481E089
:1039A00090E002C080E090E09C878B878F819885B3
:1039B000FC0180819181049729F08B859C85892B5E
:1039C00009F47DC389859A85FC0182819381892BC5
:1039D00009F475C389859A85FC0126813781CE015A
:1039E0008F5B9F4FFC01318320831E861D8681E003
:1039F00090E0988B8F8782E090E09A8B898B83E0B0
:103A000090E09C8B8B8B84E090E09E8B8D8BCE0125
:103A10008D5B9F4F24E1FC01322F11923A95E9F71B
:103A20009E012D5B3F4F8D899E89880F991F880FBE
:103A3000991F280F391FCE01815A9F4FFC018081A9
:103A40009181A281B381F90180839183A283B383A1
:103A50008B859C85892B09F485C08F819885FC0115
:103A600024A535A546A557A58F819885FC0180A57D
:103A700091A5A2A5B3A5281739074A075B0709F046
:103A800071C089859A85FC018481958129853A8553
:103A9000F90122813381820F931F988F8F8B898543
:103AA0009A85FC018085918504969A8F898F298D4E
:103AB0003A8DCE01895A9F4F44E050E0B9010E94EF
:103AC0007949CE01895A9F4FFC01808191810896E6
:103AD0009C01CE01895A9F4FFC0131832083898547
:103AE0009A85FC01808591859E01295A3F4FF901F5
:103AF00020813181280F391F89859A85FC01318702
:103B0000208789859A85FC01808591859C018F8914
:103B1000988DA901481B590BCA019C8F8B8F8B8DE7
:103B20009C8D992374F089859A85FC0124813581C7
:103B30008B8D9C8D280F391F89859A85FC013187D3
:103B400020878F819885FC0184A595A5A6A5B7A59A
:103B50000197A109B1092F813885F90184A795A79B
:103B6000A6A7B7A784E190E09E8F8D8F9E01275C6A
:103B70003F4FAE014F5B5F4F6D8D7E8D89859A857E
:103B80007FDB882F90E09A83898389819A81892BB2
:103B900009F097C28D8D9E8D08979E8F8D8F9E0107
:103BA0002D5B3F4F8F859889880F991F880F991F2C
:103BB000820F931FFC0120813181428153818D8DC1
:103BC0009E8D092E000CAA0BBB0B820F931FA41F06
:103BD000B51FAE014D5B5F4F2F853889220F331F14
:103BE000220F331F240F351FF90180839183A28395
:103BF000B3839E012F5C3F4FAE014F5B5F4F8985C2
:103C00009A8564E070E03CDB882F90E09A8389839A
:103C100089819A81892B09F056C29E012D5B3F4F05
:103C20008F859889880F991F880F991F820F931F7E
:103C3000FC0180819181A281B3810496A11DB11DF7
:103C4000AE014D5B5F4F2F853889220F331F220F46
:103C5000331F240F351FF90180839183A283B3831F
:103C600089A99AA9AC018BA99CA99E01255A3F4F0D
:103C7000B9010E9479498FA998AD892BA1F089A932
:103C80009AA99C01CE01855A9F4F820F931F98A33A
:103C90008F8F8DA99EA9AC018FA998AD2F8D38A1CA
:103CA000B9010E9479491DA61EA61FA618AA64C1C3
:103CB0008D819E81FC01208531858DA59EA5AFA5B6
:103CC000B8A9880F991F880F991F820F931F9CA373
:103CD0008BA38BA19CA1FC0180819181FC0180813F
:103CE000882309F43EC18BA19CA1FC0180819181B4
:103CF000FC018081833009F434C18BA19CA1FC01BB
:103D000022813381CE01875A9F4FFC0180819181AE
:103D1000880F991F820F931FFC01808191819EA3C0
:103D20008DA38DA19EA1892B09F41BC19E012D5B42
:103D30003F4F89899A89880F991F880F991F820F91
:103D4000931FFC0180819181A281B3810196A11D05
:103D5000B11DAE014D5B5F4F29893A89220F331F98
:103D6000220F331F240F351FF90180839183A28313
:103D7000B38384E090E09E8F8D8F9E012F5C3F4F38
:103D8000AE014F5B5F4F6D8D7E8D89859A8578DAA8
:103D9000882F90E09A83898389819A81892B09F001
:103DA00094C19E012D5B3F4F8F859889880F991F85
:103DB000880F991F820F931FFC012081318142815E
:103DC00053818D8D9E8D092E000CAA0BBB0B820F8B
:103DD000931FA41FB51FAE014D5B5F4F2F85388920
:103DE000220F331F220F331F240F351FF901808349
:103DF0009183A283B38389A99AA9AC018BA99CA9B9
:103E00009E01235D3F4FB9010E9479498FA998AD6A
:103E1000892B99F089A99AA99C01CE018D96820FD0
:103E2000931F98A78FA38DA99EA9AC018FA998ADC8
:103E30002FA138A5B9010E9479491C821B827EC03E
:103E40008DA19EA1FC01248135818B819C81880FED
:103E5000991F880F991F820F931F9AA789A789A579
:103E60009AA5FC01628173819E012F5C3F4FAE01D8
:103E70004F5B5F4F89859A8503DA882F90E09A839C
:103E8000898389819A81892B09F021C19E012D5B4B
:103E90003F4F8F859889880F991F880F991F820F30
:103EA000931FFC01208131814281538189A59AA50C
:103EB000FC0182819381092E000CAA0BBB0B820F9F
:103EC000931FA41FB51FAE014D5B5F4F2F8538892F
:103ED000220F331F220F331F240F351FF901808358
:103EE0009183A283B38389A99AA9AC0189A59AA5D4
:103EF000FC01208131818BA99CA9B9010E947949DB
:103F00008FA998AD892BA9F089A59AA5FC0180817C
:103F1000918129A93AA9820F931F9CA78BA78DA9EC
:103F20009EA9AC018FA998AD2BA53CA5B9010E9413
:103F300079498B819C8101969C838B838B819C81A9
:103F40009C01990F440B550B8DA19EA1FC01808112
:103F50009181A281B381281739074A075B070CF4C6
:103F60006FCF8DA59EA5AFA5B8A90196A11DB11DC6
:103F70008DA79EA7AFA7B8AB8D819E81FC01248140
:103F80003581468157818DA59EA5AFA5B8A9821719
:103F90009307A407B5070CF48BCE9E012D5B3F4F12
:103FA00089899A89880F991F880F991F820F931FFB
:103FB000FC0180819181A281B381892B8A2B8B2B7B
:103FC00009F487C09E012D5B3F4F8D859E85880F2C
:103FD000991F880F991F280F391F8AE190E0A0E0F0
:103FE000B0E0F90180839183A283B383CE01875A25
:103FF0009F4FFC0180819181092E000CAA0BBB0B05
:10400000AE014D5B5F4F2B893C89220F331F220F7E
:10401000331F240F351FF90180839183A283B3835B
:1040200089AD9AADAC018BAD9CAD9E012D5B3F4F30
:10403000B9010E947949CE01CF96FC01808191811E
:10404000892BB9F089AD9AAD9C01CE018D5B9F4F54
:10405000820F931F9AA389A38DAD9EADAC01CE01B3
:10406000CF96FC018081918129A13AA1B9010E94DA
:104070007949CE018F5B9F4FFC0120813181898579
:104080009A85FC013783268389859A85FC011182F4
:1040900010828B859C85892BE9F08F819885FC01A6
:1040A00084A595A5A6A5B7A50196A11DB11D2F8133
:1040B0003885F90184A795A7A6A7B7A70BC000006C
:1040C00009C0000007C0000005C0000003C00000D8
:1040D00001C000008B859C85892B91F489819A8190
:1040E000892B71F08F81988521E030E0FC01338FBE
:1040F000228F8F81988525E030E0FC013183208379
:104100000000CE59DF4F0FB6F894DEBF0FBECDBF13
:10411000DF91CF911F910F910895CF93DF9300D03E
:1041200000D000D01F92CDB7DEB76D837E838F8322
:1041300098875A8749872D813E8144E4429FC00178
:10414000439F900D112484519C4F9A8389838981C8
:104150009A8142969C838B838B819C81FC01808118
:104160009181892B09F47DC08B819C81FC01808128
:104170009181019749F58B819C81FC01808D918D06
:10418000AC014F5F5F4F2B813C81F901518F408F14
:104190009C01990F440B550B8B819C81FC01808500
:1041A0009185A285B385281739074A075B0709F06F
:1041B0005AC029853A858D819E81AF81B885A90134
:1041C000BC01CD010E94D1178B819C81FC018081B3
:1041D0009181039709F048C08B819C81FC01808DFF
:1041E000918DAC014F5F5F4F2B813C81F901518F65
:1041F000408F9C01990F440B550B8B819C81FC01D6
:1042000084859585A685B785281739074A075B07F2
:104210005CF18B819C81FC0184A595A5A6A5B7A521
:104220009C018B819C81FC01318F208F8B819C8133
:1042300024E030E0FC01318320838B819C81FC01F0
:1042400080A591A5A2A5B3A5181619061A061B06E6
:104250005CF48B819C8121E030E0FC0131AB20AB30
:1042600003C0000001C000002A960FB6F894DEBF1C
:104270000FBECDBFDF91CF910895CF93DF9300D0D4
:1042800000D01F921F92CDB7DEB76D837E838F83E0
:1042900098872D813E8144E4429FC001439F900D49
:1042A000112484519C4F9A83898389819A814296F3
:1042B0009C838B838B819C81FC0180819181892BE4
:1042C00089F18B819C81FC0180819181049759F552
:1042D0008B819C81FC01808D918D9C012F5F3F4FD4
:1042E0008B819C81FC01318F208F8B819C81FC0113
:1042F000808D918D9C01990F440B550B8B819C8176
:10430000FC0184819581A681B781281739074A0766
:104310005B0749F48B819C8125E030E0FC0131830F
:10432000208301C0000028960FB6F894DEBF0FBEB0
:10433000CDBFDF91CF910895CF93DF93CDB7DEB797
:1043400068970FB6F894DEBF0FBECDBF9A8B898BEE
:104350004B8B5C8B6D8B7E8B388F2F8B2B893C89A5
:1043600044E4429FC001439F900D112484519C4F0F
:104370009C838B838B819C810C969E838D838D8106
:104380009E81FC01118210821A821982C4C08B8125
:104390009C81FC014285538529813A81C901880F9E
:1043A000991F880F991F880F991F821B930B880FE5
:1043B000991F840F951F98878F838F819885FC01A3
:1043C00080819181892B09F0A1C08F819885FC01A2
:1043D000808591859A8789878F819885FC01828164
:1043E00093819C878B878F819885FC01868197813B
:1043F0009E878D878D819E81FC01248135818D81F1
:104400009E81FC0180819181880F991F880F991FDF
:10441000880F991F820F931F988B8F878D819E81A4
:10442000FC01228133818D819E81FC0180819181FB
:10443000880F991F820F931F29813A81FC013183D4
:1044400020838D819E81FC01808191819C012F5F61
:104450003F4F8D819E81FC01318320838F85988918
:1044600029853A85FC01338322838F8198852D85A8
:104470003E85FC01338722872D853E8589859A8577
:1044800082179307B0F42D853E8589859A85281B70
:10449000390B8F859889FC01318320838F8598891A
:1044A000FC01158214828F859889FC01178216827F
:1044B0002DC08F819885FC01248135818B859C8559
:1044C000820F931F9C0189859A85281B390B8F8544
:1044D0009889FC01318320838D859E852F813885C5
:1044E000F90124813581AC01421B530B9A018F8560
:1044F0009889FC01358324838F819885FC01248170
:1045000035818F859889FC013783268389819A813B
:1045100001969A83898329813A818F89988D2817FA
:1045200039070CF434CF8D819E81FC0120813181CB
:1045300089899A89FC01318320838D819E81FC01C8
:104540002481358189899A89FC01338322838D8175
:104550009E81FC012281338189899A89FC013583FE
:104560002483000068960FB6F894DEBF0FBECDBF5F
:10457000DF91CF910895CF93DF9300D000D000D08A
:104580001F92CDB7DEB79E838D834F83588769878F
:104590007A872F81388544E4429FC001439F900D64
:1045A000112484519C4F9A83898389819A810C9626
:1045B0009C838B838B819C81FC01118210828B8177
:1045C0009C81FC01208131818D819E81FC013183A0
:1045D00020838D819E81FC011382128200002A9625
:1045E0000FB6F894DEBF0FBECDBFDF91CF91089517
:1045F000CF93DF93CDB7DEB72E970FB6F894DEBF1B
:104600000FBECDBF98878F8349875A876B877C877A
:104610003E872D8789859A85AB85BC8544E4489F74
:104620009001499F300D1124C90184519C4F9A83F8
:10463000898389819A8142969C838B838B819C811B
:10464000FC01808191819E838D838D819E81049761
:1046500029F08D819E81059709F05CC089859A8536
:10466000AB85BC852F813885AC01BD01C90183DFD5
:1046700089859A85AB85BC852D853E85EF81F8853A
:10468000AC01BD01CF0158DE8F819885FC0180818E
:104690009181892B09F049C08D819E81059709F090
:1046A00044C01092EB038B819C81FC018085918535
:1046B000A285B3858F3F9F4FAF4FBF4FA9F4CE0167
:1046C0000996AC0164E070E080E290E00E941F2C4B
:1046D00089859A85AB85BC852D853E85A901BC0160
:1046E000CD010E94651821C0CE010996AC0164E09D
:1046F00070E08FE190E00E941F2C8B819C81FC0177
:10470000118E108E8B819C8121E030E0FC01318381
:1047100020830BC089859A85AB85BC852F81388520
:10472000AC01BD01C90127DF01C0000000002E96C9
:104730000FB6F894DEBF0FBECDBFDF91CF910895C5
:10474000CF93DF9300D000D0CDB7DEB79A838983B3
:104750007C836B835E834D830E947632882319F1BC
:1047600016C028ED38EB45E050E060E070E0CB018A
:104770000E9492374D815E812B813C8189819A8193
:10478000B9010E94C3378B819C810E94363780918A
:10479000740490917504892B31F48D819E81FC0104
:1047A00080818823F1F280918002909181020497A8
:1047B00031F083E090E090938102809380020000CA
:1047C00026960FB6F894DEBF0FBECDBFDF91CF9116
:1047D0000895CF93DF9300D000D0CDB7DEB79A8392
:1047E00089837C836B835E834D838091800290916B
:1047F0008102049769F04D815E812B813C81898122
:104800009A81B9010E94C3378B819C810E943637FF
:10481000000026960FB6F894DEBF0FBECDBFDF9125
:10482000CF910895CF93DF9300D000D0CDB7DEB7FE
:104830009A8389834B835C836D837E838B819C8188
:10484000AD81BE8129813A81AC01BD01C9010E94BF
:10485000E639000026960FB6F894DEBF0FBECDBF36
:10486000DF91CF910895CF93DF93CDB7DEB70E944C
:10487000C4390000DF91CF910895CF93DF931F9249
:104880001F92CDB7DEB79A83898389819A810E946E
:104890009B3900000F900F90DF91CF910895CF9337
:1048A000DF931F921F92CDB7DEB79A8389830E9450
:1048B0005E3700000F900F90DF91CF910895CF9356
:1048C000DF931F921F92CDB7DEB79A8389838981C8
:1048D0009A810E94493900000F900F90DF91CF918B
:1048E0000895CF93DF931F921F92CDB7DEB79A83BF
:1048F00089838091820290918302A0918402B09179
:10490000850220E030E0A901BC01CD010E94483EB3
:1049100088239CF48091820290918302A09184026A
:10492000B091850220E030E040E85FEBBC01CD01B2
:104930000E94053D882309F00FC08091820290916A
:104940008302A0918402B091850229813A81F90104
:1049500080839183A283B38300000F900F90DF9137
:10496000CF910895CF93DF931F921F92CDB7DEB7FB
:104970009A83898389819A81B4DF00000F900F9018
:10498000DF91CF910895CF93DF9300D01F92CDB7E1
:10499000DEB79A8389837C836B8360E070E080E07C
:1049A00090E00E94323200000F900F900F900F9015
:1049B000DF91CF910895CF93DF93CDB7DEB700009D
:1049C000DF91CF910895EF92FF920F931F93CF93B2
:1049D000DF93CDB7DEB762970FB6F894DEBF0FBE98
:1049E000CDBF9C878B877E876D872F87388B498BC0
:1049F0005A8B1A8219828D859E859C838B838FEFBB
:104A00009FEF9E838D8346C08D819E81CC01A0E067
:104A1000B0E02F85388949895A8982179307A407FE
:104A2000B50718F08F85988902C08D819E8198877F
:104A30008F839E01275F3F4F4F8158856B817C811B
:104A40008B859C850E94523A9A83898389819A81B9
:104A5000019619F489819A8128C089859A85CC01AB
:104A6000A0E0B0E02F85388949895A8979018A0107
:104A7000E81AF90A0A0B1B0BD801C7018F87988B1C
:104A8000A98BBA8B89859A852B813C81820F931FD4
:104A90009C838B838F859889A989BA89892B8A2BD6
:104AA0008B2B09F0B1CF89819A8162960FB6F89469
:104AB000DEBF0FBECDBFDF91CF911F910F91FF9051
:104AC000EF900895CF93DF93CDB7DEB740E855E27E
:104AD00060E070E080E090E026D00000DF91CF91B0
:104AE0000895CF93DF9300D000D0CDB7DEB79A837F
:104AF00089834B835C836D837E838B819C81AD81B5
:104B0000BE81E981FA8126E0AC01BD01CF010E949E
:104B10004841000026960FB6F894DEBF0FBECDBF09
:104B2000DF91CF910895CF93DF9300D000D0CDB720
:104B3000DEB79A8389834B835C836D837E8389810F
:104B40009A8181309105B1F0823091051CF4892B56
:104B500039F02EC082309105B9F00397F9F028C0E2
:104B60008B819C81AD81BE81AC01BD0187EB94E05E
:104B7000B8DF1EC08B819C81AD81BE81AC01BD01BF
:104B800084E595E0AEDF14C08B819C81AD81BE8150
:104B9000AC01BD0181EF95E0A4DF0AC08B819C814F
:104BA000AD81BE81AC01BD018EE896E09ADF0000C8
:104BB000000026960FB6F894DEBF0FBECDBFDF9182
:104BC000CF910895CF93DF93CDB7DEB70000DF918B
:104BD000CF910895EF92FF920F931F93CF93DF939E
:104BE00000D01F921F92CDB7DEB719820E94203FDE
:104BF000DC01CB0180937A0490937B04A0937C0426
:104C0000B0937D0420917A0430917B0440917C0420
:104C100050917D048091760490917704A09178045E
:104C2000B091790479018A01E81AF90A0A0B1B0B81
:104C3000D801C70180349D40A340B10508F43EC0AF
:104C400080917A0490917B04A0917C04B0917D04C2
:104C50008093760490937704A0937804B0937904BA
:104C60000E94B93B0E94203FDC01CB018A839B83D9
:104C7000AC83BD838091760490917704A0917804F1
:104C8000B09179042A813B814C815D8179018A014F
:104C9000E81AF90A0A0B1B0BD801C70180349D40A2
:104CA000A340B10538F081E090E09093AC0480938C
:104CB000AB0404C01092AC041092AB0481E0898371
:104CC00089810F900F900F900F900F90DF91CF91EF
:104CD0001F910F91FF90EF900895CF93DF93CDB781
:104CE000DEB72D970FB6F894DEBF0FBECDBF998704
:104CF00088877B876A875D874C871D821C8281E05D
:104D000090E09A83898381E08B835DC089819A8159
:104D10009C012F5F3F4F3A832983880F991F2C8571
:104D20003D85820F931FFC01808191819F838E833B
:104D30008E819F81892B09F446C08E819F816DE110
:104D400073E00E948949892B81F481E08B838981FA
:104D50009A8181509048880F991F2C853D85820F3C
:104D6000931FFC01118210822EC08E819F8160E210
:104D700073E00E948949892B31F529813A818A851E
:104D80009B8528173907F9F089819A8101969A83C2
:104D9000898389819A8182509048880F991F2C8538
:104DA0003D85820F931FFC011182108289819A81B7
:104DB00081509048880F991F2C853D85820F931F45
:104DC000FC011182108229813A818A859B852817EE
:104DD00039070CF49BCF888599852B81FC012083B2
:104DE0002C853D858A859B85B9010E94213A9C01CD
:104DF00088859985FC01328321838C819D812D9644
:104E00000FB6F894DEBF0FBECDBFDF91CF910895EE
:104E1000CF93DF93CDB7DEB78EE794E0DF91CF91EC
:104E20000895CF93DF9300D0CDB7DEB79B838A83FD
:104E3000198289810F900F900F90DF91CF91089583
:104E4000CF93DF93CDB7DEB72D970FB6F894DEBFC3
:104E50000FBECDBF9D838C837F836E835987488728
:104E60003B872A8719828A859B85FC0111821082E3
:104E70008E819F81092E000CAA0BBB0B2C813D81DA
:104E8000F9010180F281E02DFD87EC876885798545
:104E90009C01AD018C859D8596DD9B838A838A81EB
:104EA0009B81019619F481E0898307C08A859B85DF
:104EB0002E813F81FC013183208389812D960FB69D
:104EC000F894DEBF0FBECDBFDF91CF910895CF9391
:104ED000DF93CDB7DEB72D970FB6F894DEBF0FBEC8
:104EE000CDBF9F838E83798768875B874A873D879D
:104EF0002C871982488559858E819F81FC0181818B
:104F000092819E012C5F3F4F6C857D850E94853A82
:104F10009B838A838A819B81019619F481E089832E
:104F200008C08C819D819C018A859B85FC01318311
:104F3000208389812D960FB6F894DEBF0FBECDBFBA
:104F4000DF91CF910895CF93DF931F921F92CDB73A
:104F5000DEB79A83898389819A81FC0180810F90D1
:104F60000F90DF91CF910895CF93DF931F921F92FF
:104F7000CDB7DEB79A83898300000F900F90DF9141
:104F8000CF9108950F931F93CF93DF9300D000D05C
:104F900000D01F92CDB7DEB79A8389834B835C83A1
:104FA0006D837E830F83188729873A8700002A96AE
:104FB0000FB6F894DEBF0FBECDBFDF91CF911F912A
:104FC0000F910895CF93DF9300D01F921F92CDB71A
:104FD000DEB79B838A837D836C8319828C819D815C
:104FE00021E0FC01208389810F900F900F900F909A
:104FF0000F90DF91CF910895CF93DF931F921F926F
:10500000CDB7DEB79A83898300000F900F90DF91B0
:10501000CF910895CF93DF931F921F92CDB7DEB744
:105020009A8389831092AA0400000F900F90DF9159
:10503000CF910895CF93DF931F921F92CDB7DEB724
:105040009A83898389819A81FC01818192810E945E
:105050000D3B00000F900F90DF91CF910895CF93FB
:10506000DF931F921F92CDB7DEB79A838983809119
:1050700092049091930429813A818217930734F521
:105080008091940490919504892B51F0809194041F
:10509000909195040E94EC4810929304109292040F
:1050A00089819A810E94504890939504809394043A
:1050B0008091940490919504892B11F481E007C0AC
:1050C00089819A81909393048093920480E00F9059
:1050D0000F90DF91CF910895CF93DF9300D000D050
:1050E00000D01F921F92CDB7DEB7998788877B8744
:1050F0006A871F821E821A82198288E090E09D834F
:105100008C831B8227C089819A8128853985F90182
:10511000E80FF91F2C813D8189819A81B901681BB3
:10512000790B8091900490919104AE014A5F5F4F9A
:105130009F01CDDE8B838B818823A1F48E819F819B
:1051400029813A81820F931F9A83898389819A8169
:10515000892B51F029813A818C819D81281739074B
:1051600094F203C0000001C000008E819F8121E005
:10517000181619060CF020E08A859B85FC01208317
:105180008B812B960FB6F894DEBF0FBECDBFDF919B
:10519000CF910895CF93DF93CDB7DEB761970FB668
:1051A000F894DEBF0FBECDBF9F878E87798B688B4B
:1051B0001D861C861A82198288E090E0998788876C
:1051C0001B821C821D821E821F8288859985029601
:1051D0009B878A8792C089819A819C0128563B4F80
:1051E0008091900490919104AE01445F5F4F61E023
:1051F00070E06DDE8B838B81882309F087C08C85FE
:105200009D8529813A81820F931F9A8389838981A1
:105210009A81892B09F47CC08C819D81AE81BF81EC
:105220000196A11DB11D8C839D83AE83BF838C81AC
:105230009D81AE81BF8180399F45A140B1055CF061
:105240008091810490918204BC018DEE90E081D226
:105250001D861C865EC029813A818A859B85281718
:10526000390709F04AC049E050E060E070E088E9A1
:1052700094E00E94213B8823B1F188859985885666
:105280009B4FFC018081282F30E080918104909118
:1052900082042817390721F58091810490918204B6
:1052A000BC018EEE90E055D2288539858E859F858C
:1052B000A90168E974E00E94794980918104909184
:1052C00082040196909382048093810480918104EA
:1052D00090918204992790938204809381040DC059
:1052E0001D861C860AC08091810490918204BC01B5
:1052F0008FEE90E02ED21D861C8629813A818A8508
:105300009B85281739070CF466CF03C0000001C045
:1053100000008C859D8521E0181619060CF020E010
:1053200088899989FC0120838B8161960FB6F89456
:10533000DEBF0FBECDBFDF91CF910895CF93DF9336
:1053400000D01F92CDB7DEB79C838B831A8219825F
:105350002DC089819A81092E000CAA0BBB0BBC01C0
:10536000CD010E9498148091EB03882369F0898114
:105370009A81092E000CAA0BBB0B2B813C81A90141
:10538000BC01CD010E94833289819A81092E000CD3
:10539000AA0BBB0B2B813C81A901BC01CD010E9452
:1053A000A21389819A8101969A83898389819A813E
:1053B00002977CF210928D0410928E041092820457
:1053C00010928104809190049091910423DE00005A
:1053D0000F900F900F900F90DF91CF910895CF9382
:1053E000DF9300D01F92CDB7DEB79C838B831092E2
:1053F0008D0410928E0410928204109281041A82FD
:10540000198212C089819A81092E000CAA0BBB0B4C
:105410002B813C81A901BC01CD010E9465188981C5
:105420009A8101969A83898389819A81029754F39C
:105430008091900490919104DFDD00000F900F9017
:105440000F900F90DF91CF910895CF93DF93CDB759
:10545000DEB76C970FB6F894DEBF0FBECDBF9C8F42
:105460008B8F1A8219821B828B8D9C8DFC0184810B
:105470009581FC01808191819F838E838E819F81A4
:10548000FC0182819381998788878E819F81FC01AD
:10549000808191819B878A8780E190E0A0E0B0E0E5
:1054A0008A8B9B8BAC8BBD8B88E090E0A0E0B0E05A
:1054B0008E8B9F8BA88FB98F8091900490919104CF
:1054C0009E01205F3F4FAE014E5E5F4F68E070E08F
:1054D000B7DC8B838B81882309F02CC1888999895B
:1054E000089709F027C18E819F81FC0180819181FD
:1054F00008969D878C878C859D85880F991F880FBE
:10550000991F9F878E878E859F850E9450489A831A
:10551000898389819A81892B19F481E08B830BC15E
:1055200080E190E0A0E0B0E08A8B9B8BAC8BBD8BE0
:105530008E859F85092E000CAA0BBB0B8E8B9F8B33
:10554000A88FB98F80919004909191049E01205F63
:105550003F4FAE014E5E5F4F68E070E071DC8B83C1
:105560008B81882309F0E6C088899989089709F01A
:10557000E1C08B8D9C8DFC0182819381FC01808137
:105580009181A281B38129813A81F901808391833C
:10559000A283B3838B8D9C8DFC01828193812981B1
:1055A0003A812C5F3F4FFC0184819581A681B781B0
:1055B000F90180839183A283B3838B8D9C8DFC0141
:1055C0008281938129813A81285F3F4FFC01808548
:1055D0009185A285B385F90180839183A283B383EA
:1055E0008B8D9C8DFC018281938129813A81245F7E
:1055F0003F4FFC0184859585A685B785F901808399
:105600009183A283B38389819A814096FC011082A1
:1056100011821282138289819A819C012C5E3F4FF4
:1056200084E090E0A0E0B0E0F90180839183A28360
:10563000B383809180029091810229813A81285E12
:105640003F4FCC01A0E0B0E0F90180839183A283B9
:10565000B38389819A819C01245E3F4F8A859B8513
:10566000092E000CAA0BBB0BF90180839183A28346
:10567000B3831D821C8224C08C819D81880F991F59
:1056800028853985820F931FFC01808191812C81AF
:105690003D81285F3F4F220F331F220F331F498167
:1056A0005A81240F351FCC01A0E0B0E0F9018083BE
:1056B0009183A283B3838C819D8101969D838C838A
:1056C0002C813D818A859B8528173907ACF2809112
:1056D0009004909191049E01205F3F4F49815A812F
:1056E0006E857F85ADDB8B838B81882319F5888957
:1056F00099892E853F8528173907E1F42E853F8546
:1057000089819A81A90160E070E00E94513B8A8FF3
:1057100080919004909191049E01205F3F4FAE01D3
:10572000465E5F4F61E070E08BDB8B8381E08093AE
:105730008E0401C0000089819A810E94EC488B810F
:105740006C960FB6F894DEBF0FBECDBFDF91CF9140
:105750000895CF93DF93CDB7DEB72F970FB6F894A8
:10576000DEBF0FBECDBF9D878C877F876E87198276
:105770008C859D85CC01A0E0B0E08C839D83AE83B9
:10578000BF838E859F85092E000CAA0BBB0B8887D3
:105790009987AA87BB8780919004909191049E017C
:1057A0002E5F3F4FAE014C5F5F4F68E070E048DB1B
:1057B00089838981882321F48A819B81089719F044
:1057C00081E0898301C0000089812F960FB6F8948B
:1057D000DEBF0FBECDBFDF91CF910895CF93DF9392
:1057E00000D000D01F92CDB7DEB79D838C837F831E
:1057F0006E83198280919004909191049E012E5F96
:105800003F4F4C815D816E817F811ADB8983898165
:10581000882339F48A819B812E813F81281739079B
:1058200019F081E0898301C00000898127960FB6B5
:10583000F894DEBF0FBECDBFDF91CF910895CF9317
:10584000DF9300D000D01F921F92CDB7DEB79C83AC
:105850008B837E836D8358874F8319828F819885D0
:10586000892B51F02D813E818F819885A90160E0BF
:1058700070E00E94513B8A832D813E818B819C8107
:10588000B90167DF898389818823A9F48F8198858D
:10589000892B99F02D813E818F819885B9019EDFFA
:1058A00089838981882359F4CE01029661E070E0F2
:1058B00095DF898305C0000003C0000001C000001F
:1058C000898128960FB6F894DEBF0FBECDBFDF9159
:1058D000CF910895CF93DF93CDB7DEB761970FB621
:1058E000F894DEBF0FBECDBF998B888B19861A82C4
:1058F00019828889998999230CF40796959587953B
:1059000095958795959587959B878A8788899989A5
:1059100087709078992324F40197886F9F6F019680
:105920009D878C871D821E821F8218861C821B8287
:1059300092C01D821E821F8218861A82198286C01A
:1059400089819A819C012D573B4F809190049091C1
:105950009104AE01425F5F4F61E070E0B8DA898781
:105960008985882309F012C18E859F8529813A8116
:10597000820F931F9A8389838D819E81AF81B88521
:105980000196A11DB11D8D839E83AF83B8878D8144
:105990009E81AF81B88580399F45A140B10574F0E3
:1059A0008091810490918204BC018DEE90E0D1DE63
:1059B0001D821E821F8218861A82198289819A810D
:1059C0000A9709F043C049E050E060E070E083E8E6
:1059D00094E00E94213B882359F180918B04282F69
:1059E00030E080918104909182042817390771F585
:1059F0008091810490918204BC018EEE90E0A9DE3A
:105A00008091810490918204019690938204809306
:105A1000810480918104909182049927909382045B
:105A2000809381048B819C8101969C838B830EC023
:105A30008091810490918204BC018FEE90E089DE18
:105A40001D821E821F8218861A82198289819A817C
:105A50000A970CF475CF2B813C818A859B8528178A
:105A600039070CF466CF1A8219821D821E821F82AA
:105A700018868C859D85892B09F48AC081C089810F
:105A80009A819C012D573B4F8091900490919104F5
:105A9000AE01425F5F4F61E070E019DA8987898566
:105AA000882309F077C08E859F8529813A81820FEE
:105AB000931F9A8389838D819E81AF81B8850196DA
:105AC000A11DB11D8D839E83AF83B8878D819E817B
:105AD000AF81B88580399F45A140B10574F08091B0
