:10000000F5C0000024C1000022C1000020C1000092
:100010001EC100001CC100001AC1000018C1000070
:1000200016C1000014C1000012C1000010C1000080
:100030000EC100000CC100000AC1000008C1000090
:1000400006C1000004C1000002C1000000C10000A0
:10005000FEC00000FCC00000FAC000000C94BB25EC
:10006000F6C000000C94EC270C942228F0C000008D
:10007000EEC00000ECC00000EAC00000E8C00000D4
:10008000E6C00000E4C00000E2C00000E0C00000E4
:100090000C9478280C94AE28DAC00000D8C0000078
:1000A000D6C00000D4C00000D2C00000D0C0000004
:1000B000CEC00000CCC00000CAC00000C8C0000014
:1000C000C6C00000C4C000000C9400170C940429A2
:1000D0000C943A29BCC000000C9490290C94C629B9
:1000E000B6C00000001D3A2774694E53E8F5D2CF20
:1000F0009C81A6BBCDD0F7EAB9A4839E25381F0208
:10010000514C6B76879ABDA0F3EEC9D46F725548F7
:100110001B06213C4A57706D3E230419A2BF9885E7
:10012000D6CBECF1130E2934677A5D40FBE6C1DCD7
:100130008F92B5A8DEC3E4F9AAB7908D362B0C11C7
:10014000425F78659489AEB3E0FDDAC77C61465BB7
:100150000815322F5944637E2D30170AB1AC8B96A7
:10016000C5D8FFE2263B1C01524F6875CED3F4E997
:10017000BAA7809DEBF6D1CC9F82A5B8031E392487
:10018000776A4D50A1BC9B86D5C8EFF24954736E77
:100190003D20071A6C71564B1805223F8499BEA367
:1001A000F0EDCAD735280F12415C7B66DDC0E7FA57
:1001B000A9B4938EF8E5C2DF8C91B6AB100D2A3747
:1001C00064795E43B2AF8895C6DBFCE15A47607D37
:1001D0002E3314097F6245580B16312C978AADB027
:1001E000E3FED9C44B28D7286329EF2911241FBE69
:1001F000CFEFD1E2DEBFCDBF00E00CBF13E0A0E047
:10020000B2E0EAEEF7E500E00BBF02C007900D9206
:10021000A238B107D9F72BE1A2E8B3E001C01D92E3
:10022000AD3AB207E1F710E0C6EFD0E000E006C05B
:1002300021970109802FFE010E947F2AC23FD1072A
:1002400080E00807A9F70E9423230C94F32BD8CE53
:100250008F929F92AF92BF92CF92DF92EF92FF92D6
:100260004B015C010E94B909882399F0C0909B1B47
:10027000D0909C1BE0909D1BF0909E1BC701B60187
:10028000FF90EF90DF90CF90BF90AF909F908F90B6
:100290000895C501B4010E9474098111E7CF20E0DF
:1002A00030E0A901C501B4010E941124882329F17D
:1002B00020E030E040EE50E4C501B4010E948A2401
:1002C0006B017C0120E030E0A9010E941124882309
:1002D000A1F020E030E0A901C501B4010E94112481
:1002E00087FFCCCF20E030E040EE50E4C701B601FC
:1002F0000E94AD236B017C01C1CFC12CD12C7601B2
:10030000BDCF4F925F926F927F928F929F92AF92EA
:10031000BF92CF92DF92EF92FF920F931F93CF93F2
:10032000DF93CDB7DEB766970FB6F894DEBF0FBE8A
:10033000CDBF6B017C0189014D83598320E030E002
:1003400040E85FEB0E941124882309F42BC120E0D0
:1003500030E040E85FEBB8018D8199810E94112463
:10036000882309F439C198014D815981B601C7012B
:100370000E941124882309F433C120E030E040E0DA
:1003800050E4B8018D8199810E94AD230E9415240B
:100390009B012150304C220F331F220F331F3A8311
:1003A000298320E030E040E050E4B601C7010E941C
:1003B000AD230E9415246150704C8B01000F111F5A
:1003C000000F111FF801E156F54EEE24E39420E0F2
:1003D00030E0A90160817181828193810E941124A2
:1003E000811101C0E12CFF24F39420E030E0A90149
:1003F000E981FA81E156F54E6081718182819381B4
:100400000E941124811101C0F12CFE24EE24E394FA
:1004100020E030E0A901F801E154F54E60817181DE
:10042000828193810E941124811101C0E12CDD247D
:10043000D39420E030E0A901E981FA81E154F54E3E
:1004400060817181828193810E941124811101C098
:10045000D12CED24F801E152F54E11E020E030E01E
:10046000A90160817181828193810E94112481118F
:1004700001C010E049815A814152554E5A83498347
:1004800001E020E030E0A901A981BA816D917D9160
:100490008D919C910E941124811101C000E0812F57
:1004A00080270FE91AE11E8A1D8A2E2D30E050E0C8
:1004B00040E029873A874B875C87282F30E050E05F
:1004C00040E02D873E874F87588B8F2D90E0B0E01E
:1004D000A0E0898B9A8BAB8BBC8BD8014D905D9043
:1004E0006D907D908D015C962D913D914D915C912B
:1004F0005F9729833A834B835C8369857A858B85F3
:100500009C850E9448244B015C01D801DC962D910A
:100510003D914D915C91DF972D833E834F835887AA
:100520006D857E858F8598890E9448246B017C01AA
:1005300069897A898B899C890E944824A301920148
:100540000E941124811153C0A501940169817A810F
:100550008B819C810E941124811149C0A7019601C1
:100560006D817E818F8198850E94112481113FC009
:10057000ED89FE89309709F449C0BF01FF0F880B50
:10058000990B0E94482420E030E040E85FE30E949D
:10059000AD2320E030E040E050E40E94AC238B012A
:1005A0008D839983B8018D81998166960FB6F894F1
:1005B000DEBF0FBECDBFDF91CF911F910F91FF9096
:1005C000EF90DF90CF90BF90AF909F908F907F90F3
:1005D0006F905F904F9008958601ED82F982E2CF8F
:1005E00000E010E0F0E8FD832FEB2983DBCF4D899D
:1005F0005E894F5F5F4F5E8B4D8B4830510509F030
:100600006CCF00E010E01D821982CCCF00E010E03A
:1006100050E85D838FEB8983C5CF2F923F924F9235
:100620005F926F927F928F929F92AF92BF92CF9282
:10063000DF92EF92FF920F931F93CF93DF9300D03F
:1006400000D000D01F92CDB7DEB7EFE9FAE180E627
:10065000DF011D928A95E9F780E090E0A0E8BFE312
:100660008093E31A9093E41AA093E51AB093E61AE4
:100670008091620290916302A0916402B091650240
:1006800089839A83AB83BC838091660290916702D1
:10069000A0916802B09169028D839E83AF83B88771
:1006A000B7EAAB2EBAE1BB2E612C712C812C912CB8
:1006B00000E010E01A861986212C312C80E8482EA3
:1006C0009FE3592E20E030E040E85FE369817A81C2
:1006D0008B819C810E94112463017401811122C0CD
:1006E000FF24F39420E030E0A901B8018A859985C0
:1006F0000E941124811101C0F12CEE24E39420E02A
:1007000030E0A901B301C4010E941124811101C08C
:10071000E12CFE246F2D70E090E080E00E944824E0
:100720006B017C0120E030E040E85FE36D817E8179
:100730008F8198850E94112431014201811122C0CC
:100740009924939420E030E0A901B8018A85998525
:100750000E941124811101C0912C8824839420E0EF
:1007600030E0A901B101C2010E941124811101C030
:10077000812C9824692D70E090E080E00E9448244C
:100780003B014C01D501CD92DD92ED92FD925D01D0
:10079000C301D401F501848F958FA68FB78FC8014F
:1007A000AA85B98584AF95AFA6AFB7AF18012D0163
:1007B000FFEBAF16FAE1BF0609F02CC480936F1B64
:1007C0009093701BA093711BB093721BC092731B0C
:1007D000D092741BE092751BF092761BC301D4017A
:1007E0008093771B9093781BA093791BB0937A1B0F
:1007F000C801D20180936B1B90936C1BA0936D1B5F
:10080000B0936E1BEFEBF8E140E050E060E87FE36F
:1008100041935193619371932AE1EF39F207C1F744
:1008200080E090E0A0E8BFEB8093CF189093D018C1
:10083000A093D118B093D2188093CB189093CC1872
:10084000A093CD18B093CE188093C7189093C81872
:10085000A093C918B093CA188093C3189093C41872
:10086000A093C518B093C6181092831B1092841BD6
:100870001092851B1092861B4093871B5093881BF8
:100880006093891B70938A1B80E090E0ACEFB2E428
:1008900080938B1B90938C1BA0938D1BB0938E1B0E
:1008A000E7E0F7E080E090E0A0E8BFEB8193919370
:1008B000A193B19334E1EF3CF307C1F70EE512E0E9
:1008C000F7E03F2E412C512CACEF6A2EA2E47A2E99
:1008D0001A821982D801DC96CD90DD90ED90FC90C3
:1008E000DF9720E030E040E85FEBC701B6010E94EF
:1008F0001124811193C32091831B3091841B40915B
:10090000851B5091861B60918B1B70918C1B809175
:100910008D1B90918E1B0E94AC230E9415247B019D
:10092000B1E0EB1AF1086091871B7091881B8091F0
:10093000891B90918A1B0E9415243E9CF0013F9CCC
:10094000F00D11246E0F7F1F660F771F660F771F44
:10095000FB01ED5FF84F80E090E0A0E8BFEB808303
:100960009183A283B38320E030E040E85FE36091AD
:100970008B1B70918C1B80918D1B90918E1B0E9404
:10098000AC2360938B1B70938C1B80938D1B909377
:100990008E1B29813A81245031093A8329832032E0
:1009A0003E4F09F097CF20E030E040E85FE36091F0
:1009B000831B7091841B8091851B9091861B0E94E4
:1009C000AD236093831B7093841B8093851B90934E
:1009D000861B20E030E040E85FE36091871B709168
:1009E000881B8091891B90918A1B0E94AD23609384
:1009F000871B7093881B8093891B90938A1B40925E
:100A00008B1B50928C1B60928D1B70928E1B04501E
:100A1000110992E00234190709F05ACF4FECC42EA5
:100A200044E1D42EE7E0F7E0760100E010E020E8B2
:100A30003FEBD7010D931D932D933D937D01408195
:100A40005181628173815D01B4E0AB1AB108D501B7
:100A50004D935D936D937C9313977C96B4E1EF3C3B
:100A6000FB0739F7F12CE12C07EC16E1F701E9540B
:100A7000FB4E5F011A830983E981FA815291429109
:100A800032912291FA83E983D5016D917D918D9107
:100A90009C9137DCE981FA8160837183828393833F
:100AA000FCE1AF1AB10829813A812F5C344121F76A
:100AB00094E0E90EF11CA8E1EA16F104A9F6EFEFC3
:100AC000FAE180E090E0A0E8BFEB81939193A193DD
:100AD000B1933BE1E732F307C1F78BEA98E1E7EC2A
:100AE000F6E140E050E060E87FEB41935193619381
:100AF00071938E179F07C9F783EE94E1EFEFFAE148
:100B0000D6014D915D916D917D916D014083518331
:100B10006283738338968A179B0791F780E090E091
:100B2000A0ECB0E480937B1B90937C1BA0937D1B77
:100B3000B0937E1B10927F1B1092801B1092811B22
:100B40001092821B3FEA232E38E1332EC090FF1A09
:100B5000D090001BE090011BF090021B20E030E0E1
:100B600040E85FEBC701B6010E9411248111AEC2BB
:100B700080E090E0A0E8BFEBF80180839183A2833E
:100B8000B3839EE5E92E92E0F92E23E4C22E2BE1F9
:100B9000D22EEFEFFAE1FA83E983D8018D909D9090
:100BA000AD90BC9020E030E040E85FEBC501B401BF
:100BB0000E941124882379F0F701408851886288C7
:100BC000738820E030E040E85FEBC301B2010E948F
:100BD000112481118FC280E090E0A0E8BFEBE98191
:100BE000FA8184839583A683B783E981FA8124817E
:100BF000358146815781608171818281938181DB5A
:100C0000D6016D937D938D939D936D01E981FA815A
:100C10003896FA83E983F4E0EF0EF11C29813A81DA
:100C200027523B4109F0B9CFEFEFFAE180E090E0C5
:100C3000A0E8BFEB81939193A193B19329813A816D
:100C40002E173F07B9F78091471B9091481BA09141
:100C5000491BB0914A1B8093FF1A9093001BA093ED
:100C6000011BB093021B80914B1B90914C1BA091D8
:100C70004D1BB0914E1B8093071B9093081BA093B4
:100C8000091BB0930A1B80914F1B9091501BA091A0
:100C9000511BB091521B80930F1B9093101BA0937C
:100CA000111BB093121B8091531B9091541BA09168
:100CB000551BB091561B8093171B9093181BA09344
:100CC000191BB0931A1B80907F1B9090801BA090E3
:100CD000811BB090821BC0907B1BD0907C1BE0904E
:100CE0007D1BF0907E1B20E030E042EF52E4C50116
:100CF000B4010E94112487FF19C0C701B6010E94E8
:100D000015246150704C660F771F660F771FFB012B
:100D1000E153FB4E80819181A281B38180931F1B9F
:100D20009093201BA093211BB093221B20E030E066
:100D300040E85FE3C501B4010E94AD2360937F1BCF
:100D40007093801B8093811B9093821B20E030E086
:100D500040E85FE3C701B6010E94AD2360937B1BAF
:100D600070937C1B80937D1B90937E1B0C5F1F4FA9
:100D70002016310609F0EACE80E090E0A0E8BFEB53
:100D80008093571B9093581BA093591BB0935A1BE9
:100D900089E790E027E53BE14091431B5091441BDC
:100DA0006091451B7091461B40935B1B50935C1BED
:100DB00060935D1B70935E1B4091471B5091481BD5
:100DC0006091491B70914A1B40935F1B5093601BBD
:100DD0006093611B7093621B40914B1B50914C1BA5
:100DE00060914D1B70914E1B4093631B5093641B8D
:100DF0006093651B7093661B40914F1B5091501B75
:100E00006091511B7091521B4093671B5093681B5C
:100E10006093691B70936A1BE3E4FBE14489558985
:100E20006689778941935193619371932E173F0798
:100E3000A9F7019709F0B0CF8FE39BE19A838983EB
:100E400003E21BE1A981BA815C962D913D914D9100
:100E50005C915F97FD01E855F64060817181828168
:100E600093814FDAE981FA8160837183828393836E
:100E70003497FA83E9830E171F0721F781E090E08A
:100E80000E948A164091BE035091BF036091C00337
:100E90007091C10390E080E00E9486168090CE039E
:100EA0009090CF03A090D003B090D10320E030E029
:100EB00040E85FEBC501B4010E941124882331F1A1
:100EC000C090BE03D090BF03E090C003F090C10378
:100ED000A7019601C501B4010E94AC234B015C013E
:100EE00020E030E040E054E3C701B6010E945825FD
:100EF0009B01AC01C501B4010E945425181634F0C1
:100F000082EA92E09093A9038093A8038091D20390
:100F1000882331F082EA92E09093A9038093A8039A
:100F2000C090C203D090C303E090C403F090C50307
:100F3000FFEFCF1ADF0AEF0AFF0AC092C203D09276
:100F4000C303E092C403F092C503C114D104E104C9
:100F5000F10499F48091C6039091C703A091C8034E
:100F6000B091C9030196A11DB11D8093C603909352
:100F7000C703A093C803B093C9038090CA0390909D
:100F8000CB03A090CC03B090CD036091C6037091C9
:100F9000C7038091C8039091C9030E944624A5010C
:100FA00094010E94582520E030E040E85FE40E9470
:100FB00058252B013C01C701B6010E944624A5011A
:100FC00094010E9458259B01AC01C301B2010E940B
:100FD000AD236093BE037093BF038093C0039093CF
:100FE000C1032A960FB6F894DEBF0FBECDBFDF91C6
:100FF000CF911F910F91FF90EF90DF90CF90BF9016
:10100000AF909F908F907F906F905F904F903F90A8
:101010002F9008958601EA86F98654CBE981FA81FA
:10102000E556F54E80809180A280B38020E030E0CC
:1010300040E85FEBC501B4010E941124882309F444
:101040005ACCA5019401C701B6010E94AD2300D975
:101050004B015C0120E030E0A9010E94112487FDD2
:101060004ACC2091831B3091841B4091851B509169
:10107000861B60918B1B70918C1B80918D1B9091B6
:101080008E1B0E94AC230E9415247B01E1E0EE1A26
:10109000F1086091871B7091881B8091891B90914A
:1010A0008A1B0E9415243E9CF0013F9CF00D1124E8
:1010B0006E0F7F1F660F771F660F771FFB01ED5FB7
:1010C000F84F80829182A282B3824DCC20916E0231
:1010D00030916F024091700250917102C701B601C8
:1010E0000E94AC23B5D8D8016D937D938D939C93CA
:1010F000139747CDA3019201C501B4010E94AD230E
:10110000A7D8A981BA8114966D937D938D939C93F2
:1011100017976BCDCF93DF9384E090E0AED0E8EAF1
:10112000F3E08BE2DF011D928A95E9F780E090E021
:10113000A0E8BFEB86A397A3A0A7B1A78DEC9CEC7A
:10114000ACE4BEE382A393A3A4A3B5A38BEE92E782
:10115000A2E4BAE084839583A683B7838DE095E506
:10116000AFEEB4EA80879187A287B3878AE19DE7D3
:10117000A9ECB3EA84879587A687B78780EE9BE4BE
:10118000A0E4BDE2808B918BA28BB38BACE9B3E082
:10119000B383A283C6E9D3E01196DC93CE9386EBAA
:1011A00092E0998388839B838A839D838C838CEBD5
:1011B00093E015969C938E9314978CEA93E0139684
:1011C0009C938E9312978EEB93E017969C938E933D
:1011D0001697A7E0B7E088E894E1ED019C01199229
:1011E00021503040E1F7ACE8B3E08AE0ED0119921C
:1011F0008A95E9F7A2E8B3E0B58BA48B8EE090E086
:1012000011969C938E9382E492E013969C938E9316
:10121000129786E292E015969C938E93149782E142
:1012200092E017969C938E93169786E092E019961B
:101230009C938E931897DF91CF910895089560E065
:1012400070E080E89FE7089560E070E080E89FE745
:10125000089560E070E080E89FEF089560E070E03E
:1012600080E89FEF089560E070E080EC9FEF0895C4
:1012700060E070E080EC9FEF0895F5DF60939B1BCA
:1012800070939C1B80939D1B90939E1BF1DF60933A
:101290008F1B7093901B8093911B9093921BCFDFB9
:1012A0006093971B7093981B8093991B90939A1B44
:1012B000CBDF6093931B7093941B8093951B90934B
:1012C000961BC7DF60939F1B7093A01B8093A11B8D
:1012D0009093A21BC3DF6093A31B7093A41B809306
:1012E000A51B9093A61B0895CF92DF92EF92FF92D9
:1012F000CF936B017C01AC019B016091971B7091B6
:10130000981B8091991B90919A1B0E941124C1E017
:10131000882371F0A701960160919F1B7091A01B1B
:101320008091A11B9091A21B0E9411248111C0E009
:101330008C2FCF91FF90EF90DF90CF9008950F9377
:101340001F938B019C010027112720783F770115FF
:10135000110520483F4749F4AB01BC016F7777275F
:1013600081E0452B462B472B09F480E01F910F911C
:101370000895E5CFEF92FF920F931F93CF93DF93E2
:10138000EA01F901DC011496ED90FC901597129694
:101390004D915C9113974E0D5F1D288139811896F0
:1013A0000D911C9119970217130730F00D911C91A4
:1013B0001197012B09F441C08A01021B130BDC01B8
:1013C00018968D919C918E199F09800F911F8617F9
:1013D0009707DCF1C901860F971F8417950778F4EA
:1013E000718360833383228315821482178216826D
:1013F00088819981680F791F7983688316C011836A
:10140000008333832283601B710B7583648390E0B8
:1014100080E01616170614F49E2D8F2D9683878371
:10142000D701A60FB71FB983A88380E0DF91CF91C2
:101430001F910F91FF90EF90089518968D919C91B8
:10144000821B930B861797075CF681E0EFCFCF9254
:10145000DF92EF92FF92CF93DF936B0184E4869F3C
:10146000E001879FD00D1124CD52DC4F8AA99BA9A2
:10147000009721F00E94512B1BAA1AAA84E48C9D8C
:10148000F0018D9DF00D1124ED52FC4F86A997A916
:10149000009711F00E94512B84E48C9DF0018D9DEA
:1014A000F00D1124ED52FC4F138A128A168A178A06
:1014B000108E118E128E138E148E158E168E178E20
:1014C00010A211A281E090E093A382A315A214A21E
:1014D00016A217A210A611A613A612A615A614A648
:1014E00016A617A610AA11AA13AA12AA15AA14AA18
:1014F00017AA16AA11AE10AE12AE13AE14AE15AEE8
:10150000DF01DE961D921D921D921C921397EE5BD9
:10151000FF4F11821082DF91CF91FF90EF90DF900B
:10152000CF900895CF93DF93FB01DC016D917C9107
:10153000DB011696CD91DC918081918123E0880FAB
:10154000991F2A95E1F7AA81BB81A80FB91F8D9138
:101550009C91119724853585220F331FEB016A81F9
:101560007B81EB01C20FD31F0990D881C02D149647
:101570002D913C9161E070E0232B11F062E070E06E
:10158000C69F9001C79F300DD69F300D1124A085B6
:10159000B1852A9FB0012B9F700D3A9F700D1124C9
:1015A000A481B5812A9FF0012B9FF00D3A9FF00D89
:1015B00011248E0F9F1FFA019183808373836283AE
:1015C000DF91CF9108952F923F924F925F926F9249
:1015D0007F928F929F92AF92BF92CF92DF92EF92C3
:1015E000FF920F931F93CF93DF9300D000D0CDB71E
:1015F000DEB7DC011496ED91FC910190F081E02DB5
:10160000808591859A838983A281B381BC83AB83D2
:10161000FB0181909190A190B190C12CD12C7601C9
:10162000C814D904EA04FB04CCF026960FB6F8944B
:10163000DEBF0FBECDBFDF91CF911F910F91FF9005
:10164000EF90DF90CF90BF90AF909F908F907F9062
:101650006F905F904F903F902F90089544805580F9
:10166000668077804085518562857385CF0140967D
:101670009E838D83A081B1819D0183E0220F331F62
:101680008A95E1F7A981BA8112968D919C91D90131
:10169000A80FB91F2D903C9011970484F585E02D7B
:1016A000EE0FFF1F8B819C81E80FF91F0190F081E5
:1016B000E02D14968D919C91892B41F581E090E06D
:1016C000E89F9001E99F300DF89F300D1124249F71
:1016D0008001259F100D349F100D1124249DC00101
:1016E000259D900D349D900D1124A8016D817E8162
:1016F000820D931D0E94DA2BED81FE81E00FF11F18
:101700009FEFC91AD90AE90AF90A8ACF82E090E064
:10171000D7CFCF93DF93DB01A256BD4F2C9122236D
:1017200069F024E4269FF001279FF00D1124ED526B
:10173000FC4FEF0119922A95E9F71C9224E4269FA9
:10174000F001279FF00D1124ED52FC4F14821582F9
:10175000168217821186108613861286118A108AC5
:1017600017861686DF91CF9172CE2F923F924F92BD
:101770005F926F927F928F929F92AF92BF92CF9221
:10178000DF92EF92FF920F931F93CF93DF9300D0DE
:1017900000D01F921F92CDB7DEB724E4269FF00140
:1017A000279FF00D1124ED52FC4F048115812681F5
:1017B0003781012B022B032B09F4B7C02A016B01DF
:1017C0007C0110E000E0812C912C54013F019F012D
:1017D000285F3F4F3C832B83CF0104969E838D83EC
:1017E000AB81BC818D919C91ED81FE8140815181C5
:1017F0006281738184169506A606B706E4F10E94FD
:10180000512BD3011A968D919C91892B09F07EC0A2
:1018100084E48C9DD0018D9DB00D1124AD52BC4F40
:10182000BC83AB8350968D919C910E94512BEB8190
:10183000FC81868597850E94512BC701B60107DE82
:10184000C701B60128960FB6F894DEBF0FBECDBF14
:10185000DF91CF911F910F91FF90EF90DF90CF908C
:10186000BF90AF909F908F907F906F905F904F90C0
:101870003F902F904ECFFC01E00FF11F9281998392
:10188000A381AA839F83A887312C212C241435049B
:1018900064F089819A810E94512BEFEF8E1A9E0A83
:1018A000AE0ABE0A0C5F1F4F9BCFAF81B885ED918A
:1018B000FD91B887AF83309759F0848195810E945C
:1018C000512BEF81F8853297808191810E94512BB5
:1018D000BFEF2B1A3B0ADACF800F911FFC018481E6
:1018E00095810E94512B2B813C812F5F3F4F3C8380
:1018F0002B83025F1F4FF501808191812B813C81F9
:10190000241535054CF30E94512B82CF10E000E0E6
:101910001C821B8224E42C9DC0012D9D900D11245E
:10192000DC01A352BC4F5D01E6CF28960FB6F894B8
:10193000DEBF0FBECDBFDF91CF911F910F91FF9002
:10194000EF90DF90CF90BF90AF909F908F907F905F
:101950006F905F904F903F902F90089524E4269FC2
:10196000F001279FF00D1124ED52FC4F82899389DD
:101970000497029758F485E090E0938B828B8FEF69
:101980009FEFDC01828F938FA48FB58F08952F92E4
:101990003F924F925F926F927F928F929F92AF92FF
:1019A000BF92CF92DF92EF92FF920F931F93CF934C
:1019B000DF93CDB7DEB7AA970FB6F894DEBF0FBEA0
:1019C000CDBF9AA389A37E8B6D8B1A01098B1A8BCD
:1019D0002B8B3C8B84E429893A89829F6001839F09
:1019E000D00C112486010D521C4F89899A89AB892C
:1019F000BC89F80180839183A283B383AB01BC01CE
:101A0000CD01B3DED601A952BC4F84E0F1010190B3
:101A10000D928A95E1F7F4E02F0E311C64E070E03E
:101A2000D80114968D919C910E949B2AF801918770
:101A30008087892B09F0F5C04D895E8969897A898B
:101A40008B899C8992DE81E0AA960FB6F894DEBF5E
:101A50000FBECDBFDF91CF911F910F91FF90EF90FF
:101A6000DF90CF90BF90AF909F908F907F906F90BE
:101A70005F904F903F902F900895A9A5BAA58D91A2
:101A80009C91E98DFA8DE80FF91FF88FEF8BD1014A
:101A90008D919C91880F991FA9A1BAA1ED91FC91FC
:101AA000E80FF91F80819181EF89F88D9183808300
:101AB000D10114962D913D914D915C9117972BA3D7
:101AC0003CA34DA35EA362E070E08D899E890E94D5
:101AD0009B2AEF89F88D93838283892B09F4ACCFFD
:101AE000F8E02F0E311C412C512C32012BA13CA1CE
:101AF0004DA15EA142165306640675069CF02B8D1F
:101B00003C8D4D8D5E8D2F5F3F4F4F4F5F4F2B8F25
:101B10003C8F4D8F5E8F498D5A8D4C5F5F4F5A8F32
:101B2000498F90C0610124E0C20ED11CD101ED901B
:101B3000FC90EE0CFF1CEF89F88D82819381E80EFA
:101B4000F91E68E070E081E090E00E949B2A8C0121
:101B5000D7018D939C93892B09F46ECF84E0F60115
:101B6000D80101900D928A95E1F7B8E02B0E311C57
:101B7000F80180819181A281B381181619061A0695
:101B80001B06DCF464E070E00E949B2AD8011596E5
:101B90009C938E931497892B09F44ECFD12CC12C92
:101BA000812C912C5401F80180819181A281B38113
:101BB00088169906AA06BB0634F0FFEF4F1A5F0A93
:101BC0006F0A7F0A93CFF801E480F580EC0CFD1CCE
:101BD00080E1F101DE01119601900D928A95E1F705
:101BE000F0E12F0E311CA701BE016F5F7F4FA9A14D
:101BF000BAA114968D919C9195DCF801868197810C
:101C0000D70112962D913C91820F931F9783868363
:101C1000BFEF8B1A9B0AAB0ABB0AE4E0CE0ED11CC5
:101C2000C2CF1A8E198E1B8E1C8E1D8E1E8E18A36F
:101C30000F8FA8014C5F5F4F58A74FA3C8010896AC
:101C40009AA789A7EFA1F8A580819181A281B3818C
:101C50002B8D3C8D4D8D5E8D281739074A075B070C
:101C60000CF40BCF6EE070E08D899E890E949B2A58
:101C7000AF8DB8A11B969C938E931A97B12CA12C73
:101C8000D12CC12CF12CE12C24E4E989FA892E9F76
:101C9000C0012F9F900D11249C0123523C4F388F7F
:101CA0002F8B88248394912C4D895E89C416D50688
:101CB00054F184E4A989BA898A9F80018B9F100D11
:101CC00011240D521C4FF80115861486C70133E00C
:101CD000880F991F3A95E1F70E94B52AD8015196CD
:101CE0009C938E935097892B09F4A6CEC701880F39
:101CF000991F0E94B52AF80197878687892B09F4D6
:101D00009BCE80E0A1CED1014D905D906D907D90F5
:101D10001D0177FC91CEEF89F88D008111810A0DAC
:101D20001B1DD80111969C928E924114510461049E
:101D3000710429F1C2010E94B52AF80195838483B8
:101D4000892B09F479CEF8015382428284819581EE
:101D500097838683918780871386128681E090E03F
:101D600045284628472811F490E080E0E80EF91E47
:101D7000FFEFCF1ADF0A2EE0A20EB11C95CF159609
:101D80001C921E921497DFCF2F923F924F925F9238
:101D90006F927F928F929F92AF92BF92CF92DF927B
:101DA000EF92FF920F931F93CF93DF93CDB7DEB7E0
:101DB0006A970FB6F894DEBF0FBECDBF9E8B8D8B9A
:101DC00049015A0184E4829F7001839FF00C112421
:101DD00097012D523C4F6901FB0180819181F901EE
:101DE000958B848BD701A751BC4FFB01349684E0BF
:101DF00001900D928A95E1F7D701A351BC4FFB01E9
:101E0000389684E001900D928A95E1F7D701AF50A2
:101E1000BC4FFB013C9684E001900D928A95E1F75E
:101E2000D701AF5FBB4FFB01709684E001900D922C
:101E30008A95E1F78B010C5E1F4FF90186A597A5E6
:101E4000A0A9B1A918161906DCF5880F991F880FEB
:101E5000991F0E94B52AF60193AB82AB892B09F436
:101E6000D3C0312C212C412C512C32019601225D02
:101E70003F4F388F2F8BC601C2969A8F898FF49669
:101E8000FC8BEB8BB301A2012FEF421A520A620ABC
:101E9000720AEF89F88D80819181A281B381481700
:101EA00059076A077B070CF47BC0F60184A995A942
:101EB0000E94B52AF60197AB86AB892B09F4A4C022
:101EC000F80180819181A281B38124E4289DF001F1
:101ED000299DF00D1124ED52FC4FAC01BD014D7F49
:101EE00021E030E0452B462B472B11F030E020E07D
:101EF00033A322A324E4289DF001299DF00D112491
:101F0000ED52FC4F0197A109B10921E030E00297A1
:101F1000A105B10510F030E020E035A324A3D701DE
:101F2000A750BC4FF801349684E001900D928A9539
:101F3000E1F784E4889DF001899DF00D1124ED52B4
:101F4000FC4F868D978DA0A1B1A1B7FF58C0B09569
:101F5000A095909581959F4FAF4FBF4F82AF93AFA4
:101F6000A4AFB5AF168E178E10A211A280E06A96AC
:101F70000FB6F894DEBF0FBECDBFDF91CF911F919A
:101F80000F91FF90EF90DF90CF90BF90AF909F9018
:101F90008F907F906F905F904F903F902F9008951B
:101FA000E98DFA8D808191819C01220D331D3A8B40
:101FB000298B80E1F801DE01119601900D928A953E
:101FC000E1F7005F1F4F49895A89BE016F5F7F4F5C
:101FD000ED89FE8984819581A5DAEB89FC89808170
:101FE0009181E989FA8922813381820F931FEB89DC
:101FF000FC8991838083F4E02F0E311C43CF12AE15
:1020000013AE14AE15AEB2CFC501B40120DA81E033
:10201000AECFCF92DF92EF92FF92CF93DF931092E9
:102020005B0424E4269FF001279FF00D1124ED525C
:10203000FC4F15A614A630E020E0D12CC12CDF0106
:102040001A96C1E0D0E0C416D506F4F024E4269F29
:10205000F001279FF00D1124ED52FC4F13A612A69C
:1020600011AE10AEDF01DE961D921D921D921C92E4
:10207000139782E090E0938B828BDF91CF91FF905A
:10208000EF90DF90CF900895ED91FC911197E20FC2
:10209000F31FE280F3801E141F0454F4E480F580E3
:1020A000F782E682F186E08613861286D183C083AA
:1020B000EFEFCE1ADE0A225F3F4FC5CF24E4269F02
:1020C000F001279FF00D1124ED52FC4F138A128A64
:1020D0004CCB24E4269FF001279FF00D1124ED52F4
:1020E000FC4F8289938981309105C8F08530910534
:1020F00018F0059769F008958FEF9FEFDC01828F4C
:10210000938FA48FB58F85E090E0938B828B089599
:102110008FEF9FEFDC01828F938FA48FB58F08958F
:1021200024E4249FD001259FB00D1124AD52BC4F53
:102130002EE0AC01249FC001259F900D11241A961A
:10214000ED91FC91E80FF91F81E080935B0482859B
:10215000938591878087408551852681378181E0ED
:1021600090E04217530711F090E080E09183808364
:1021700008952F923F924F925F926F927F928F922B
:102180009F92AF92BF92CF92DF92EF92FF920F9306
:102190001F93CF93DF93CDB7DEB7C055D1090FB6EC
:1021A000F894DEBF0FBECDBF9EAF8DAF4BA75CA72F
:1021B0006DA77EA76801790184E4809FF001819F6B
:1021C000F00D1124ED52FC4F2285338523963FAF4D
:1021D0002EAF239782899389029761F486A597A5EC
:1021E000A0A9B1A9892B8A2B8B2BC9F584E090E09B
:1021F000938B828B84E48C9DF0018D9DF00D1124D6
:10220000ED52FC4F828993898230910509F037C2E3
:1022100082AD93ADA4ADB5AD22242394312C181614
:1022200019061A061B060CF42FC2C05BDF4F0FB64F
:10223000F894DEBF0FBECDBFDF91CF911F910F91FC
:10224000FF90EF90DF90CF90BF90AF909F908F90D6
:102250007F906F905F904F903F902F90089584896A
:1022600095894DAD5EAD8417950721F606A917A98E
:1022700018AE1FAA1BAA1CAA1DAA1EAA1F01CF01C5
:102280008E9627969FAF8EAF2797DF01D29629961D
:10229000BFAFAEAF2997F8962B96FFAFEEAF2B9757
:1022A00091012A5D3F4F2D963FAF2EAF2D97A10193
:1022B0004E5D5F4F2F965FAF4EAF2F970A97619697
:1022C0009FAF8EAF61972796EEADFFAD27978081C8
:1022D0009181A281B3812BA93CA94DA95EA92817A0
:1022E00039074A075B0744F081E090E0D101D996B5
:1022F0009C938E93D8977ECF2996AEADBFAD29978C
:10230000ED91FC912FA938ADE20FF31F428153816B
:102310005AAF49AF50815FAF818121968FAF21972E
:102320002B96AEADBFAD2B978D919C91892B21F152
:102330002D96EEADFFAD2D9780809180A280B38069
:102340001AAB09AB5FA72196FFAD2197F8AB29AD7A
:102350003AAD369527953695279525963FAF2EAF02
:1023600025971CAE1BAE2596AEADBFAD2597EBAD48
:10237000FCADEA17FB070CF149AD5AAD6FAD2196E4
:102380007FAD2197C8010E94DA2B89AD9AAD8C7F71
:10239000080F191F2BA93CA94DA95EA92F5F3F4F1C
:1023A0004F4F5F4F2BAB3CAB4DAB5EAB4FA958AD26
:1023B0004C5F5F4F58AF4FAB86CF2F96AEADBFADE2
:1023C0002F978D919C91892B71F1EFA5F8A94080F1
:1023D000518062807380A3019201C501B4010E9403
:1023E0001124181664F0A9A9BAA92D913D914D9117
:1023F0005C91C501B4010E9454251816BCF1A301DB
:102400009201C501B4010E94112487FF0CC0E9A903
:10241000FAA92081318142815381C501B4010E9412
:102420001124882319F16196AEADBFAD61978D91EE
:102430009C91892B09F445C0EFA5F8A940805180F3
:1024400062807380A3019201C501B4010E945425EA
:1024500018161CF5A9A9BAA92D913D914D915C9131
:10246000C501B4010E94112418165CF184E48C9D0E
:10247000F0018D9DF00D1124ED52FC4F868D978D4E
:10248000A0A1B1A1892B8A2B8B2B69F183E090E06D
:10249000938B828B81E090E02CC0A3019201C50157
:1024A000B4010E94112481110CC0E9A9FAA920816C
:1024B000318142815381C501B4010E94112487FDFD
:1024C000D5CF2BAD3CAD2F5F3F4F3CAF2BAF49A9D4
:1024D0005AA94C5F5F4F5AAB49AB8FA598A9049698
:1024E00098AB8FA740CF84E090E0938B828B86AD32
:1024F00097AD93A782A77ECEEBADFCAD8081918195
:10250000F401EE0FFF1FEE0FFF1FE80FF91FA08170
:10251000B1818C9181110AC0FFEF8F1A9F0AAF0A17
:10252000BF0A8DA29EA2AFA2B8A68FC18330A1F32D
:102530000280F381E02D2FA938ADE20FF31F8081D7
:1025400091819AAB89AB892B39F34F5F5F4F6F4F06
:102550007F4F49875A876B877C879E01235E3F4F59
:10256000AE01475D5F4F64E070E0C8010E94BA09A8
:102570008111D0C18D819E81AF81B8850496A11D46
:10258000B11D8D839E83AF83B8874D8D5E8DBE0157
:102590006B5D7F4F8F8D98A10E94DA2B8BA19CA140
:1025A000009761F06D8D7E8DA5E2B0E0AC0FBD1F90
:1025B0006A0F7B1F49A15AA10E94DA2B1CAA1BAAF1
:1025C000412C512C3201E9A9FAA980819181A28183
:1025D000B381481659066A067B060CF09DCFE9A91F
:1025E000FAA9848195812BA93CA9280F391F38AB02
:1025F0002FA7D90112966D917C919E01235E3F4FCA
:10260000AE01475D5F4FC8010E94BA09811182C1C6
:10261000EFA5F8A982819381092E000CAA0BBB0BB0
:102620004D815E816F817885840F951FA61FB71F2E
:102630008D839E83AF83B887608171814D8D5E8D60
:102640008F8D98A10E94DA2B8BA19CA1009761F03D
:10265000AFA5B8A96D917C912D8D3E8D620F731F32
:1026600049A15AA10E94DA2BBFEF4B1A5B0A6B0AF1
:102670007B0AEBA9FCA93496FCABEBABA4CF312CC5
:10268000212C049709F0D1CD8EE0EDADFEAD8E9FEB
:1026900080018F9F100D112423962EAD3FAD2397FF
:1026A000020F131FD80112964D915C91139741159B
:1026B000510509F4BACD16968D919C919AA789A7D8
:1026C00080E1FE013196DF011D928A95E9F7C98A02
:1026D000DA8AEB8AFC8A2114310409F458C084E4B4
:1026E0008C9DF0018D9DF00D1124ED52FC4FDF010A
:1026F000DE968D909D90AD90BC9082AD93ADA4ADD3
:10270000B5AD88169906AA06BB0609F040C0F801C7
:10271000848195810084F185E02D349624E0DE01EA
:10272000559601900D922A95E1F72D893E89285FF3
:102730003F4F3E8B2D8BD80118966D917C91199748
:10274000260F371F19963C932E93189718962D91A4
:102750003C911997480F591F241B350B37FD06C0B4
:10276000820F931F19969C938E93189784E48C9DE7
:10277000F0018D9DF00D1124EF5EFB4FB1E08B1A3F
:102780009108A108B10880829182A282B3829E0141
:102790002B5E3F4FAE01475D5F4F64E170E0C801C3
:1027A0000E94BA098111B6C08CE090E0A0E0B0E0D0
:1027B0008D839E83AF83B8879E01235E3F4FAE011A
:1027C000475D5F4F64E070E0C8010E94BA09811163
:1027D000A1C080E190E0A0E0B0E08D839E83AF8354
:1027E000B8874D8D5E8DBE01655D7F4F8F8D98A141
:1027F0000E94DA2B8BA19CA1009761F06D8D7E8DDC
:10280000EBE2F0E0EC0FFD1F6E0F7F1F49A15AA114
:102810000E94DA2B1DA21EA21FA218A62DAD3EAD4E
:10282000220F331F38AF2FAB24E42C9DC0012D9D08
:10283000900D11248D529C4FAC014C5F5F4F5AAFED
:1028400049AFDC011896BCAFABAF8DA09EA0AFA086
:10285000B8A449855A856B857C85E9ADFAAD808140
:102860009181A281B38188169906AA06BB060CF451
:1028700043CE452B462B472B09F4D7CC8AE190E079
:10288000A0E0B0E089839A83AB83BC832DAD3EADDD
:10289000C901330FAA0BBB0B8D879E87AF87B88BFF
:1028A0004D895E89BE016F5F7F4F8F89988D0E9431
:1028B000DA2B8B8D9C8D009761F06D897E8941E0CC
:1028C00050E04C0F5D1F640F751F498D5A8D0E949B
:1028D000DA2B89A59AA5D80117969C938E93169703
:1028E00011961C921E92232809F49FCC84E48C9D9F
:1028F000F0018D9DF00D1124EF5EFB4F80819181E1
:10290000A281B3810196A11DB11D80839183A28311
:10291000B3838BCC232809F088CC84E48C9DF00110
:102920008D9DF00D1124ED52FC4F81E090E095A7B4
:1029300084A785E090E0938B828B77CCCF92DF9257
:10294000EF92FF920F931F9324E4269FF001279F9D
:10295000F00D1124ED52FC4F2289338921153105E8
:1029600009F452C06B017C0121303105B1F482A51C
:1029700093A59C012F5F3F4F33A722A7092E000C80
:10298000AA0BBB0B028D138D248D358D80179107FB
:10299000A207B307C9F5C7013CDB84E48C9DF001B5
:1029A0008D9DF00D1124ED52FC4F82899389039780
:1029B00059F582A593A59C012F5F3F4F33A722A70E
:1029C000092E000CAA0BBB0B468D578D60A171A17F
:1029D00084179507A607B707BCF086AD97AD93A7F8
:1029E00082A784E090E0938B828B82AD93ADA4ADFF
:1029F000B5AD181619061A061B0634F4EE5BFF4F28
:102A000081E090E0918380831F910F91FF90EF9080
:102A1000DF90CF90089524E4269FF001279FF00DCA
:102A20001124ED52FC4F828993890497B1F482A559
:102A300093A5019693A782A7092E000CAA0BBB0BA6
:102A400046895789608D718D84179507A607B7074A
:102A500021F485E090E0938B828B08952F923F9232
:102A60004F925F926F927F928F929F92AF92BF929E
:102A7000CF92DF92EF92FF920F931F93CF93DF934A
:102A8000CDB7DEB72E970FB6F894DEBF0FBECDBF21
:102A9000DC0149835A836B837C83290184E4849F0E
:102AA000F001859FF00D1124ED52FC4F22883388F0
:102AB000C1010497029708F0D5C011961C921E928E
:102AC00013961C921E92129715861486912C812CB7
:102AD00090E080E08F019F01205F3F4F38872F8378
:102AE0003F013CE0630E711CBF01625F7F4F7A873C
:102AF00069873A96FC87EB87EF81F88520813181E1
:102B0000F30140815181E985FA85A080B180841567
:102B100095050CF445C011965C934E9313963C9327
:102B20002E9312971596BC92AE921497452BF9F4FA
:102B3000F5E02F163104D9F410925B04F801828D70
:102B4000938DA48DB58DAE014F5F5F4F64E070E053
:102B50008F3F9F4FAF4FBF4F09F079C080E290E0A9
:102B6000F6D469817A818B819C81A201A7DA2E96A5
:102B70000FB6F894DEBF0FBECDBFDF91CF911F918E
:102B80000F91FF90EF90DF90CF90BF90AF909F900C
:102B90008F907F906F905F904F903F902F9008950F
:102BA000EB85FC8560817181FB01E80DF91DFE87D5
:102BB000ED8760817181672B89F5E084F184628102
:102BC00073817E836D83668177816A01E3E0CC0C3B
:102BD000DD1CEA95E1F72C0D3D1D440F551F4A0DF4
:102BE0005B1DFA0191838083F301408151814F5F26
:102BF0005F4F51834083F901F382E282ED85FE85C8
:102C000073876287E616F70670F46E197F09F9017B
:102C10007183608315821482178216820196FEE00A
:102C20008F0E911C69CFED85FE85C480D5804D81C6
:102C30005E814C0D5D1D4E195F09F9015183408382
:102C40006C197D0975836483D782C682E7CF8FE1D3
:102C500090E07DD4F80113A612A681E090E0938B5A
:102C6000828B85CF1586148611961C921E92139620
:102C70001C921E9212977BCFEF92FF920F931F939D
:102C8000CF93DF937C018B01EA013DD581111BC0FD
:102C90008091A0029091A1020497F9F4DF91CF9165
:102CA0001F910F91FF90EF90089528ED38EB45E0CC
:102CB00050E060E070E0CB01DCD7AE01B801C701A5
:102CC000E6D7C801AFD780915C0490915D04892B51
:102CD000F9F68881882349F3DBCF83E090E0909375
:102CE000A1028093A002DACFCF93DF932091A002BC
:102CF0003091A1022430310531F0EB01C8D7CE016B
:102D0000DF91CF918FC7DF91CF9108950C94452229
:102D10000C943A220C94282295C70C94CC21089547
:102D200070E060E090E080E0C9C40895AF92BF9287
:102D3000CF92DF92EF92FF920F931F93CF93DF9387
:102D40001F921F92CDB7DEB75C018B0169017A013A
:102D500090E080E0C114D104E104F10469F40F9023
:102D60000F90DF91CF911F910F91FF90EF90DF9027
:102D7000CF90BF90AF9008959C2D8D2DC114D1049C
:102D800021E0E206F10410F09FEF8FEF9E012F5F2C
:102D90003F4F492F582FB801C5010E94CE228F3FC7
:102DA0009807E9F229813A81C21AD30AE108F108A9
:102DB000020F131FCFCF40E855E260E070E090E0D3
:102DC00080E000C08130910579F01CF4892B39F046
:102DD00008958230910561F0039771F0089526E01F
:102DE00083E994E00C948C2726E080E395E0FACF09
:102DF00026E08DEC95E0F6CF26E08AE696E0F2CF6D
:102E00001F920F920FB60F9211240BB60F922F93B1
:102E10003F934F935F936F937F938F939F93AF9362
:102E2000BF93EF93FF938BEC93EF909325018093E7
:102E300024010E940723FF91EF91BF91AF919F91D1
:102E40008F917F916F915F914F913F912F910F9053
:102E50000BBE0F900FBE0F901F9018958BEC93EF49
:102E60009093250180932401A3E7B0E08C918E7F9D
:102E70008C93E0E2F1E080818C7F8083E1E2F1E0FD
:102E80008081877E808380818560808380818D7F43
:102E900080838C9181608C93089581E008958F9256
:102EA0009F92AF92BF92CF92DF92EF92FF920F93D9
:102EB0001F93CF93DF935C017B018A01C1E0D0E0D7
:102EC000CE15DF05CCF081E0F5018083B801C701A4
:102ED0000E946F22F5019283818390E080E0DF9170
:102EE000CF911F910F91FF90EF90DF90CF90BF9007
:102EF000AF909F908F9008956E018FEFC81AD80AF7
:102F0000FE01EE0FFF1FE00FF11F80809180811402
:102F1000910469F065E273E0C4010E94EA2B892BF9
:102F200041F4CC0FDD1FC00FD11F19821882E601BA
:102F3000C7CF68E273E0C4010E94EA2B892BB9F77E
:102F4000EC14FD04A1F36E01E2E0CE0ED11CCC0F17
:102F5000DD1FC00FD11F198218821B821A82E7CF92
:102F60008EE594E0089580E008950F931F93CF932A
:102F7000DF938B01BA01E901198218829801012EB1
:102F8000000C440B550BFC0181819281CFDE019630
:102F900041F01983088380E0DF91CF911F910F9159
:102FA000089581E0F9CF0F931F93CF93DF931F9282
:102FB0001F92CDB7DEB7FB018A01B9019E012F5FD9
:102FC0003F4FAF01FC01818192810E9483220196D3
:102FD00069F089819A81F8019183808380E00F9064
:102FE0000F90DF91CF911F910F91089581E0F7CF5E
:102FF000FC01808108950895089581E0FB0180839C
:1030000080E008950895109286040895FC0181815E
:1030100092810C946722CF93DF9300D000D000D030
:103020001F92CDB7DEB7B0E0A0E089839A83AB836F
:10303000BC83CB01770FAA0BBB0B8D839E83AF8321
:10304000B8879E01275F3F4FAE014F5F5F4F68E03B
:1030500070E0809175049091760487DF811110C033
:1030600081E029853A852830310509F480E02A96E7
:103070000FB6F894DEBF0FBECDBFDF91CF9108959C
:1030800081E0F5CF0F931F93CF93DF931F921F9291
:10309000CDB7DEB78B019E012F5F3F4FAC01809112
:1030A00075049091760461DF81110EC081E0298161
:1030B0003A812017310709F480E00F900F90DF91DB
:1030C000CF911F910F91089581E0F7CFCF93DF93B8
:1030D000EC011092790410927804109285041092F9
:1030E0008404AC0160E070E0CB010E945E10AE0190
:1030F00061E070E080E090E00E945E1080917504D5
:1031000090917604DF91CF917DCF4F925F926F9235
:103110007F928F929F92AF92BF92CF92DF92EF9267
:10312000FF920F931F93CF93DF931F921F92CDB700
:10313000DEB78C017C0197FF03C087E0E80EF11C2D
:1031400023E0F594E7942A95E1F7C80168E070E080
:103150000E944A2A6C010E5F1F4F80917304909168
:10316000740480179107D4F48091710490917204D3
:10317000009731F00E94512B109274041092730446
:10318000C8010E94B52A9093720480937104892B20
:1031900009F482C0109374040093730410E000E0FB
:1031A00047C1412C512C3201B12CA12C950126583C
:1031B0003B4FAE014F5F5F4F61E070E0809175045F
:1031C00090917604F0DE811149C0EFEF4E1A5E0A4D
:1031D0006E0A7E0AF0E94F16FFE55F06F1E06F0622
:1031E000710444F060918404709185048DEE90E048
:1031F00012DFD7CF89819A81A80EB91E8AE0A8165E
:10320000B10409F043C049E050E070E060E08AE7B3
:1032100094E00E94F92260918404709185048823CF
:1032200091F18091820490E08617970781F4BC01A8
:103230008EEE90E0F0DE80918404909185040196FA
:10324000992790938504809384040F5F1F4F0E1578
:103250001F050CF4A6CFCD2809F07CC090E080E0DB
:103260000F900F90DF91CF911F910F91FF90EF90F2
:10327000DF90CF90BF90AF909F908F907F906F9096
:103280005F904F9008958FEE90E0B2CFEAE0AE16D7
:10329000B1040CF48BCFDBCF10E000E0D8CF0A30C4
:1032A000110531F549E050E070E060E08AE794E014
:1032B0000E94F92260918404709185048823A9F00A
:1032C0008091820490E08617970741F6BC018EEE4C
:1032D00090E0A1DE80918404909185040196992765
:1032E0009093850480938404B9CF8FEE90E02BC037
:1032F0000A3011050CF0B2CF980126583B4FAE01B1
:103300004F5F5F4F61E070E08091750490917604AB
:103310004ADE8111A3CF89819A81080F191FFFEF1F
:10332000CF1ADF0AEF0AFF0A80E9C8168FE5D80630
:1033300081E0E806F1040CF4B2CF6091840470914E
:1033400085048DEE90E067DE10E000E0C12CD12C0A
:103350007601D2CFC12CD12C760110E000E0CCCF89
:10336000412C512C3201B12CA12C480193E0880C46
:10337000991C9A95E1F72091710430917204C5016E
:10338000880D991D280F391FAE014F5F5F4F61E017
:1033900070E0809175049091760405DE81115ECF16
:1033A000EFEF4E1A5E0A6E0A7E0A609184047091F5
:1033B00085048DEE90E0F0E94F16FFE55F06F1E041
:1033C0006F0671040CF043C089819A81A80EB91E62
:1033D0008AE0A816B10409F041C049E050E0B40108
:1033E00080917104909172040E94F922609184048A
:1033F00070918504882349F1809171049091720441
:10340000880E991EF401808590E08617970781F455
:10341000BC018EEE90E0FFDD8091840490918504E4
:103420000196992790938504809384040F5F1F4F22
:103430000E151F050CF494CFC114D10409F081C0FE
:1034400080917104909172040BCF8FEE90E0E3DDD8
:10345000412C512C3201B12CA12C8DCFFAE0AF16AA
:10346000B1040CF488CFE4CF8FEE90E0D4DDF12CE2
:10347000E12C812C912C5401970126583B4FAE0131
:103480004F5F5F4F61E070E080917504909176042A
:103490008ADD8111E3CE8FEF881A980AA80AB80A4C
:1034A00060918404709185048DEE90E0E0E98E16C1
:1034B000EFE59E06E1E0AE06B104C4F689819A818B
:1034C000E80EF91EFAE0EF16F104A9F549E050E024
:1034D00070E060E08AE794E00E94F9226091840441
:1034E00070918504882309F4BFCF8091820490E015
:1034F0008617970709F0A4CFBC018EEE90E08BDD14
:1035000083E0000F111F8A95E1F78091710490917B
:103510007204A6016AE774E0800F911F0E94DA2B03
:103520008091840490918504019699279093850455
:103530008093840485CF8AE0E816F1040CF49CCFD4
:103540007FCF812C912C5401F12CE12C95CFCF927F
:10355000DF92EF92FF920F931F93CF93DF931F920F
:10356000CDB7DEB76C017B018A01452B39F0AB0189
:1035700070E060E0C8010E94F5228983B701C601AE
:103580004ADD81110DC00115110551F0B701C801C7
:1035900079DD811105C061E070E0CE01019672DD38
:1035A0000F90DF91CF911F910F91FF90EF90DF90DF
:1035B000CF900895CF92DF92EF92FF92CF93DF9357
:1035C00000D000D01F921F92CDB7DEB76B01F12C57
:1035D000E12CC982DA82EB82FC822D833E834F8309
:1035E0005887AE014F5F5F4F68E070E0B0DF28960C
:1035F0000FB6F894DEBF0FBECDBFDF91CF91FF9025
:10360000EF90DF90CF9008958F929F92AF92BF92EC
:10361000CF92DF92EF92FF920F931F93CF93DF939E
:103620007C01EB01CA01690170DD0097B1F42FEF55
:103630003FEFA90161E070E0C701BCDFC1E08C2F62
:10364000DF91CF911F910F91FF90EF90DF90CF907E
:10365000BF90AF909F908F900895FC0181909190C2
:10366000A190B190BF01FCE1EF16F10479F4A5013E
:103670009401CE010E94C40EC82FA5019401882395
:1036800069F061E070E0C70195DFD9CF9501840151
:10369000AB01B601CE010E94C70CEECF70E060E036
:1036A000C701DF91CF911F910F91FF90EF90DF90B5
:1036B000CF90BF90AF909F908F907CCF0F931F9330
:1036C000CF93DF93EC018B014BDC909376048093D6
:1036D00075040097A9F0A801BE01E1DBEC01892B7C
:1036E00049F0809175049091760485DC10927604FF
:1036F00010927504CE01DF91CF911F910F91089523
:10370000C4E3D3E0EECF809175049091760470CC41
:103710002F923F924F925F926F927F928F929F92E1
:10372000AF92BF92CF92DF92EF92FF920F931F93CF
:10373000CF93DF93CDB7DEB769970FB6F894DEBFAE
:103740000FBECDBF209179042223F1F05B8B4A8B11
:103750006E877F87888B998B9A01AB01BC01CE0164
:1037600001967C017BD910E048E0242E312CE88EB4
:10377000F98E89819A81181619060CF450C211230A
:1037800019F08A899B89A2DC69960FB6F894DEBF8E
:103790000FBECDBFDF91CF911F910F91FF90EF90A2
:1037A000DF90CF90BF90AF909F908F907F906F9061
:1037B0005F904F903F902F900895EB81FC818C8516
:1037C0009D8533E0880F991F3A95E1F7E80FF91FBF
:1037D000808191819093700480936F04248135815E
:1037E0004281538150936E0440936D04468157810A
:1037F00050936C0440936B04820F931F9C01990FAC
:10380000440B550B2C8B3D8B4E8B5F8B812C912C5D
:1038100054018C899D89AE89BF8988169906AA06AC
:10382000BB0638F18C859D85880F991FED81FE813F
:10383000E80FF91F4E855F856889798980819181BC
:103840000E949010AC85BD851196BD87AC8789819B
:103850009A81EC85FD85E817F9070CF4AECF2A892B
:103860003B894E855F8568897989888D998DF6D8E1
:1038700080CF1F8260916F0470917004CB01072E7E
:10388000000CAA0BBB0B84017501640134E0C30E6C
:10389000D11CE11CF11CC816D906EA06FB0608F08B
:1038A000B3C020916D0430916E04A4014C5F5F4F52
:1038B000240F351FF901C080D12CF12CE12C2401FB
:1038C0003501F5E04F0E511C611C711C481659065C
:1038D0006A067B0608F0A3C020916D0430916E0447
:1038E000F8013596E20FF31F2081D22A2401350119
:1038F00026E0420E511C611C711C481659066A06CE
:103900007B0608F097C020916D0430916E04F80199
:103910003696E20FF31F2081E22A2401350137E0B9
:10392000430E511C611C711C481659066A067B0621
:1039300008F08BC020916D0430916E04F801379629
:10394000E20FF31F208126013701722A75016401FD
:1039500048E0C40ED11CE11CF11C8C159D05AE0580
:10396000BF0508F41DC188169906AA06BB0608F013
:1039700077C080916D0490916E04800F911F68E074
:1039800070E080DBE0916F04F09170049F010F2ED6
:10399000000C440B550BD301C2018C0D9D1DAE1DB7
:1039A000BF1D281739074A075B0708F478C0C216FD
:1039B000D306E406F50608F05DC080916D04909191
:1039C0006E049801285F3F4F820F931FB2015ADBAC
:1039D00080916F0490917004AC01092E000C660B6D
:1039E000770BC416D506E606F70608F04DC0085F4B
:1039F0001F4F80916D0490916E04800F911FA20162
:103A000070E060E0F2D5A7C044E050E0461B570BE1
:103A1000480D591D20916B0430916C0449CFE5E0AD
:103A2000F0E0E61BF70BE00FF11F20916B043091E3
:103A30006C0458CFE6E0F0E0E61BF70BE00FF11F57
:103A400020916B0430916C0464CFE7E0F0E0E61B5A
:103A5000F70BE00FF11F20916B0430916C0470CFD5
:103A60009801261B370B80916B0490916C04820F98
:103A7000931F85CF91012E1B3F0B200F311F80918B
:103A80006B0490916C04A0CFD101A81BB90BCD01A0
:103A9000080F191F80916B0490916C04AECFBF0189
:103AA00068507109601B710BC216D306E406F50657
:103AB00008F062C080916D0490916E049801285FB7
:103AC0003F4F820F931FDEDA80916F049091700454
:103AD000B101681B790B600F711F640D751D80911A
:103AE0006B0490916C04CEDA80916F049091700415
:103AF000AC0148505109FA01E01BF10BAC01092E51
:103B0000000C660B770BC416D506E606F70608F020
:103B10003DC080916D0490916E049801285F3F4FE5
:103B2000820F931FAF0170E060E05FD58F8320911B
:103B30006F0430917004F101E21BF30B9F01200F21
:103B4000311F240D351D50E040E0682F80916B043B
:103B500090916C0436D58F8361E070E0CE010796BA
:103B600091DA182F38E0430E511C611C711C840C33
:103B7000951CA61CB71C4DCE91012E1B3F0B200F90
:103B8000311F80916B0490916C049BCF9101281B95
:103B9000390B200F311F80916B0490916C04C0CFC2
:103BA00088169906AA06BB0668F5601B710B809102
:103BB0006D0490916E04800F911F64DA80916F0400
:103BC00090917004B101681B790B600F711F640D37
:103BD000751D80916B0490916C0454DA80916F0490
:103BE00090917004AC01092E000C660B770BC41683
:103BF000D506E606F70608F4FACE9101281B390B24
:103C0000C90146CFC801861B970B20916B043091E8
:103C10006C04B201685F7F4F820F931FDECF1D8659
:103C20001C8615CECF93DF93EC01AC0160E070E011
:103C3000CB016EDDAE0161E070E080E090E0DF91ED
:103C4000CF9166CDCF9380917504909176048BD9F6
:103C5000C82F81110BC060E070E0CB010E94890B7E
:103C600061E070E080E090E00E94890B8C2FCF91A2
:103C700008950F931F9389019A01AB01BC018091B4
:103C8000750490917604B8D91F910F9108954F92C1
:103C90005F926F927F928F929F92AF92BF92CF92DC
:103CA000DF92EF92FF920F931F93CF93DF93CDB7E5
:103CB000DEB763970FB6F894DEBF0FBECDBF6C01C1
:103CC0008B015A0180917904882309F43DC08091C9
:103CD0007904882309F442C0809178041A821982F9
:103CE000882309F4C0C0F0E94F2EFFE55F2E66245B
:103CF0006394712CF12CE12C97012F593B4FAE01AD
:103D00004F5F5F4F61E070E08091750490917604A1
:103D10004AD9982E811169C089819A81E80EF91ECD
:103D2000E114F10409F461C081E0481A5108610806
:103D3000710859F560918404709185048DEE90E0CE
:103D40006AD91A82198251C069E774E080917504BA
:103D50009091760452D9882309F4B9CF63960FB6AF
:103D6000F894DEBF0FBECDBFDF91CF911F910F91B1
:103D7000FF90EF90DF90CF90BF90AF909F908F908B
:103D80007F906F905F904F900895AAE0EA16F1043B
:103D900009F063C049E050E070E060E081E694E043
:103DA00028D46091840470918504882309F452C05A
:103DB0008091690490E08617970719F6BC018EEE92
:103DC00090E029D988E0E1E6F4E0DE01199601905F
:103DD0000D928A95E1F78091840490918504019673
:103DE0009927909385048093840481E029813A8106
:103DF000121613060CF080E09110CAC2882309F451
:103E0000ADCF80917804811104C019861A861B8673
:103E10001C8689859A85AB85BC8580319105A10575
:103E2000B10508F09BCFFC018827E65EF04E8F4F6E
:103E30000C947F2A9A1F5921C821AE1E9E20D120A2
:103E40008A1F921F6E1FAD219C21A921AE1EAE1E9E
:103E5000AE1E591F8FEE90E073CFBAE0EB16F1045F
:103E60000CF44ACFC2CFF12CE12CE8E06E2E712C7D
:103E700029E030E02C0F3D1F2E0D3F1DAE014F5F9E
:103E80005F4FB3016E197F0980917504909176049C
:103E90008AD8982E29813A81811109C0E20EF31E39
:103EA000E114F10421F0E8E0EE16F1040CF381E0F6
:103EB0009FCFD6011696ED91FC9180819181A281D0
:103EC000B38189839A83AB83BC83AE014F5F5F4F1D
:103ED00064E070E085E190E03ADB40CF8D859E851F
:103EE00014D92FEF3FEFA90161E070E0009771F066
:103EF000FC01C080D180E280F380A801C701B60137
:103F00000E940910A701960170E060E08DE190E049
:103F100051DB24CF4D855E859801B6018BE190E0A1
:103F200073DB1CCF4D855E852FEF3FEFB6018CE133
:103F300090E0F6CFD6011496ED91FC9100811181AD
:103F4000F80182809380A080B18070E1472E512CCF
:103F5000612C712C49825A826B827C8288E090E0CD
:103F6000A0E0B0E08D839E83AF83B8879E012F5E73
:103F70003F4FAE014F5F5F4F68E070E08091750486
:103F8000909176040E94B5178823D9F010E000E0E4
:103F9000C80163960FB6F894DEBF0FBECDBFDF91A8
:103FA000CF911F910F91FF90EF90DF90CF90BF9036
:103FB000AF909F908F907F906F905F904F900C94F8
:103FC000512B89899A89089709F7D801ED90FC90BF
:103FD000B8E0EB0EF11CEE0CFF1CEE0CFF1CC70151
:103FE0000E94B52A8C01892B89F249825A826B8200
:103FF0007C82C7010F2C000CAA0BBB0B8D839E8308
:10400000AF83B8879E012F5E3F4FAE014F5F5F4F7A
:1040100068E070E080917504909176040E94B51775
:104020008111B6CF89899A89089709F0B1CFD60155
:104030001296ED91FC914081518162817381D8018A
:104040004D935D936D937C93139744815581668165
:10405000778114964D935D936D937C93179740856C
:1040600051856285738518964D935D936D937C930E
:104070001B9784859585A685B785F80184879587E4
:10408000A687B787108A118A128A138A84E090E083
:10409000A0E0B0E0848B958BA68BB78B8091A002BB
:1040A0009091A102B0E0A0E0808F918FA28FB38F9A
:1040B000C5010B2C000CAA0BBB0B848F958FA68F10
:1040C000B78FF401D801909690E080E08A159B05A7
:1040D0005CF19E012F5E3F4FA801B70180917504EE
:1040E000909176040E94B517811152CF89899A89DF
:1040F000E816F90609F04CCFA70170E060E0C801AE
:1041000074D28B8B9E012F5E3F4FAE014D5E5F4F91
:1041100061E070E080917504909176040E94B5177B
:1041200081E08093780434CF4191519170E060E058
:104130004D935D936D937D930196C8CF8D859E853C
:10414000AF85B8890097A105B10521F481E080937E
:10415000770404CE0E948518009781F481E090E0F6
:10416000A0E0B0E089839A83AB83BC83AE014F5F4C
:104170005F4F64E070E082E190E0AECEBC01C6012A
:104180000E94E30A19821A821B821C82AE014F5FD1
:104190005F4F64E070E082E190E0D9D98823B1F20A
:1041A000DDCDD6011496ED91FC910190F081E02DCA
:1041B000E084F1848FEF8983E114F10409F472C083
:1041C000D7016D907C90C280D38070E060E090E079
:1041D00080E08615970594F083E190E00E940B182B
:1041E00010E000E08111BACD061517055CF161E021
:1041F00070E0CE0101960E944218B0CD9C0143E0D0
:10420000220F331F4A95E1F7F701A281B381A20F74
:10421000B31F1296ED91FC911397EE0FFF1FEC0D5B
:10422000FD1D0190F081E02D16964D915C91E49F6B
:104230009001E59F300DF49F300D1124620F731F24
:104240000196C7CFD7011296ED91FC91C80123E0EA
:10425000880F991F2A95E1F7E80FF91FA080B18018
:10426000A281B381AA0FBB1FAC0DBD1D2D913C9146
:1042700086819781289F4001299F900C389F900C40
:104280001124B401C5010E944218582E940150E037
:1042900040E06981C50195D1898351105FCD0F5FE1
:1042A0001F4FA2CF70E060E083E190E00E940B1806
:1042B00055CD50E040E070E060E081E190E047D90A
:1042C00081114CCD60E070E0CB010E94AE0C80917A
:1042D0005B04882329F0A80160E070E0CB0118DAC4
:1042E000A80160E070E0CB010E94B50B61E070E0D6
:1042F00080E090E00E94AE0C80915B04882331F056
:10430000A80161E070E080E090E002DAA80161E0DD
:1043100070E080E090E00E94B50B1092790410925A
:104320007804109285041092840480917504909111
:1043300076040E94031812CD81E090E090935D0412
:1043400080935C0450E040E070E060E086E190E043
:10435000C3CD81E0F501808301CD8D859E850E94CE
:1043600085182FEF3FEFA90161E070E0009769F039
:10437000DC01CD90DD90ED90FC90C701B6010E946C
:104380006910A701960170E060E08EE190E0C0CD79
:10439000C8010E946618E2CCCF92DF92EF92FF92A2
:1043A000CF93DF93EC01C12CD12C7601C701B6016C
:1043B0000E94AE0CAE01C701B601AAD9AE01C70179
:1043C000B6010E94B50B8091710490917204009720
:1043D00031F00E94512B1092720410927104CA9411
:1043E000CD28CE28CF2879F580917804F12C882328
:1043F00051F050E040E070E060E084E190E0A7D848
:10440000F82E1092780480917904882341F010925C
:10441000790481E090E09093A1028093A0028091C2
:104420007504909176040E9406188091750490910D
:1044300076040E94FB178F2DDF91CF91FF90EF90B4
:10444000DF90CF900895C12CD12C7601C394AECFCC
:10445000CF93DF93EC01AC0160E070E0CB010E94F0
:104460009E14AE0161E070E080E090E0DF91CF91BA
:104470000C949E1460E070E0CB010E940B1561E08B
:1044800070E080E090E00C940B15CF92DF92EF92F9
:10449000FF920F931F93CF93DF93EC016A017B018F
:1044A00000E010E098010E94B91001E010E020E067
:1044B00030E0B701A601CE010E94B910DF91CF9183
:1044C0001F910F91FF90EF90DF90CF90089568EECD
:1044D00073E080E090E0BED390E080E0089526E0B5
:1044E00040E050E16EE070E083E994E015D583E9A7
:1044F00094E048D4892B21F083E994E05DD4F7CF90
:1045000090E080E00895CF92DF92EF92FF920F93B8
:104510001F93CF93DF936B017A01E901198218820F
:1045200083E994E02FD4892B71F18601CC24C394C4
:1045300085E6D82E80918604811111C083E994E02C
:104540003BD485369105B1F7C0928604F801D1922B
:104550008F0188819981019699838883EBCF888127
:1045600099818E159F0578F483E994E025D48F3FD7
:104570009807A9F3F80181938F01888199810196A9
:1045800099838883ECCF90E080E0DF91CF911F91F9
:104590000F91FF90EF90DF90CF9008950F931F93AE
:1045A000CF93DF93EA01890183E994E045D7F801CD
:1045B000D183C08390E080E0DF91CF911F910F9174
:1045C0000895DC01A40FB51F420F531F9D01281B46
:1045D000390B2417350710F0862F0895ED91E62743
:1045E000F0E0EC51FF4F6491F1CF9A01AB016FEF16
:1045F000E8CFCF93FC01E60FF71FE40FF51FC08152
:10460000F4DF91E0C81390E0892FCF910895809155
:10461000870491E0980F90938704882349F021E064
:1046200030E03093890420938804809387040895B0
:1046300078940E940D03F8948091870481508093B0
:1046400087040C948816FF920F931F93CF93DF93E8
:104650001F92CDB7DEB71092A81B1092A71B30D3C4
:104660000E94DB160091B7021091B802F801118286
:10467000108270E060E090E080E00E9490160E945E
:104680008A08F8947894C80186960E948F1681E073
:1046900090E00E948C161982AE014F5F5F4F61E07F
:1046A00070E0F801828193810E943C168981882301
:1046B00019F081E0F80182A70E949516F8940E94F3
:1046C0002E17F80180819181892B19F481E092A540
:1046D000911180E08093A71B78947894FF24F39441
:1046E0008091A71B811110C00E941E0981E090E0FB
:1046F0000E948D16F89490E080E00F90DF91CF91AA
:104700001F910F91FF9008951982AE014F5F5F4F87
:1047100061E070E0F801828193810E9474168981C2
:10472000882311F0F801F2A6F80180819181892B8C
:1047300089F481E092A5911101C080E08093A81BCB
:104740009091A81B81E0911180E08093A71B0E94AB
:104750004D17C6CF81E0F2CF5058BB27AA270ED005
:1047600069C15AD130F05FD120F031F49F3F11F48C
:104770001EF44FC10EF4E095E7FB37C1E92F6BD172
:1047800080F3BA17620773078407950718F071F46E
:104790009EF583C10EF4E0950B2EBA2FA02D0B01D0
:1047A000B90190010C01CA01A0011124FF27591B76
:1047B00099F0593F50F4503E68F11A16F040A22F7C
:1047C000232F342F4427585FF3CF469537952795ED
:1047D000A795F0405395C9F77EF41F16BA0B620BEC
:1047E000730B840BBAF09150A1F0FF0FBB1F661F33
:1047F000771F881FC2F70EC0BA0F621F731F841F76
:1048000048F4879577956795B795F7959E3F08F09B
:10481000B3CF9395880F08F09927EE0F979587955A
:104820000895BFD008F481E0089504D06894B111D0
:1048300035C1089518D188F09F5790F0B92F992766
:10484000B751A0F0D1F0660F771F881F991F1AF09B
:10485000BA95C9F712C0B13081F01FD1B1E0089507
:104860001CC1672F782F8827B85F39F0B93FCCF388
:10487000869577956795B395D9F73EF49095809591
:10488000709561957F4F8F4F9F4F0895E89409C0B1
:1048900097FB3EF490958095709561957F4F8F4F73
:1048A0009F4F9923A9F0F92F96E9BB279395F69589
:1048B000879577956795B795F111F8CFFAF4BB0F07
:1048C00011F460FF1BC06F5F7F4F8F4F9F4F16C06B
:1048D000882311F096E911C0772321F09EE8872FF5
:1048E000762F05C0662371F096E8862F70E060E0B1
:1048F0002AF09A95660F771F881FDAF7880F96952A
:10490000879597F9089588D018F011F08CD038F475
:1049100080C0C4C0E92F9FD0B0F35523C9F3E7FB93
:104920006217730784079507A8F199F3E92FFF270A
:1049300088232AF03197660F771F881FDAF7952FA3
:104940005527442332F091505040220F331F441F0B
:10495000D2F7BB27E91BF50B621B730B840BB10964
:10496000C1F222F4620F731F841FB11D31972AF028
:10497000660F771F881FBB1FEFCF915050405AF032
:1049800041F0882332F0660F771F881F9150504006
:10499000C1F7939530C08695779567959F5FD9F756
:1049A000F8CF990F0008550FAA0BE0E8FEEF161696
:1049B0001706E807F907C0F012161306E407F50713
:1049C00098F0621B730B840B950B39F40A2661F087
:1049D000232B242B252B21F408950A2609F4A1402A
:1049E000A6958FEF811D811D089597F99F6780E837
:1049F00070E060E008959F3F31F0915020F487957A
:104A000077956795B795880F911D9695879597F936
:104A100008959FEF80EC089500240A941616170657
:104A200018060906089500240A941216130614069F
:104A300005060895092E0394000C11F4882352F002
:104A4000BB0F40F4BF2B11F460FF04C06F5F7F4FBA
:104A50008F4F9F4F089557FD9058440F551F59F0A1
:104A60005F3F71F04795880F97FB991F61F09F3F5B
:104A700079F087950895121613061406551FF2CF84
:104A80004695F1DF08C0161617061806991FF1CFD4
:104A900086957105610508940895E894BB276627FB
:104AA0007727CB0197F908957CDF08F48FEF0895FD
:104AB0000BD0C0CFB1DF28F0B6DF18F0952309F096
:104AC00094CFA7CF1124EACFC6DFA0F3959FD1F3EF
:104AD000950F50E0551F629FF001729FBB27F00DAC
:104AE000B11D639FAA27F00DB11DAA1F649F662701
:104AF000B00DA11D661F829F2227B00DA11D621F50
:104B0000739FB00DA11D621F839FA00D611D221F09
:104B1000749F3327A00D611D231F849F600D211DED
:104B2000822F762F6A2F11249F5750408AF0E1F090
:104B300088234AF0EE0FFF1FBB1F661F771F881FD9
:104B400091505040A9F79E3F510570F04ECFA6CF2F
:104B50005F3FECF3983EDCF3869577956795B795C4
:104B6000F795E7959F5FC1F7FE2B880F911D9695EE
:104B7000879597F908951F920F920FB60F921124FF
:104B80002F933F938F939F93AF93BF9380918B0409
:104B900090918C04A0918D04B0918E0430918A0480
:104BA00023E0230F2D3758F50196A11DB11D209349
:104BB0008A0480938B0490938C04A0938D04B0930B
:104BC0008E0480918F0490919004A0919104B091F3
:104BD00092040196A11DB11D80938F0490939004BF
:104BE000A0939104B0939204BF91AF919F918F9144
:104BF0003F912F910F900FBE0F901F90189526E8B0
:104C0000230F0296A11DB11DD2CF3FB7F89480911A
:104C10008F0490919004A0919104B091920426B5D4
:104C2000A89B05C02F3F19F00196A11DB11D3FBFE4
:104C3000BA2FA92F982F8827BC01CD01620F711DB3
:104C4000811D911D42E0660F771F881F991F4A95AD
:104C5000D1F708958F929F92AF92BF92CF92DF9239
:104C6000EF92FF926B017C01D0DF4B015C01C1141C
:104C7000D104E104F104D9F00CD4C7DF6819790933
:104C80008A099B09683E73408105910580F321E004
:104C9000C21AD108E108F10888EE880E83E0981E58
:104CA000A11CB11CC114D104E104F10431F7FF903F
:104CB000EF90DF90CF90BF90AF909F908F9008952E
:104CC000789484B5826084BD84B5816084BD85B5E7
:104CD000826085BD85B5816085BDEEE6F0E08081AE
:104CE00081608083E1E8F0E01082808182608083CF
:104CF000808181608083E0E8F0E080818160808352
:104D0000E1EBF0E0808184608083E0EBF0E0808183
:104D100081608083E1E9F0E080818260808380812E
:104D200081608083E0E9F0E0808181608083E1EA56
:104D3000F0E0808182608083808181608083E0EA0E
:104D4000F0E0808181608083E1E2F1E08081826037
:104D50008083808181608083E0E2F1E080818160F6
:104D60008083EAE7F0E080818460808380818260D4
:104D700080838081816080838081806880831092BD
:104D8000C1000895FC01918D228D892F90E0805CF7
:104D90009F4F821B91098F7399270895FC01918D74
:104DA000828D981731F0828DE80FF11D858D90E08E
:104DB00008958FEF9FEF0895FC01918D828D9817D4
:104DC00061F0A28DAE0FBF2FB11D5D968C91928DBB
:104DD0009F5F9F73928F90E008958FEF9FEF0895EC
:104DE000FC01538D448D252F30E0842F90E0821BF1
:104DF000930B541710F0CF96089501970895FC0176
:104E0000A48DA80FB92FB11DA35ABF4F2C91848D2B
:104E100090E001968F739927848FA689B7892C9388
:104E2000A089B1898C91837080648C93938D848DDB
:104E3000981306C00288F389E02D80818F7D8083DE
:104E40000895CF93DF93EC01888D8823B1F0AA8970
:104E5000BB89E889F9898C9185FD03C0808186FD35
:104E60000CC00FB607FCF7CF8C9185FFF2CF808185
:104E700085FFEDCFCE01C3DFEACFDF91CF9108955B
:104E8000EF92FF920F931F93CF93DF93EC0181E09A
:104E9000888F9B8D8C8D98131AC0E889F989808141
:104EA00085FF15C09FB7F894EE89FF896083E88974
:104EB000F98980818370806480839FBF81E090E066
:104EC000DF91CF911F910F91FF90EF900895F62EF3
:104ED0000B8D10E00F5F1F4F0F731127E02E8C8D8D
:104EE0008E110BC00FB607FCFACFE889F9898081D3
:104EF00085FFF5CFCE0183DFF2CFEB8DEC0FFD2FD9
:104F0000F11DE35AFF4FF0829FB7F8940B8FEA89A7
:104F1000FB8980818062D0CFCF92DF92EF92FF92A7
:104F20001F93CF93DF93EC016A017B01122FE88975
:104F3000F98982E08083C11481EED806E104F1048E
:104F400099F060E079E08DE390E0A7019601B5D299
:104F500021503109410951095695479537952795B3
:104F6000211580E1380790F0E889F989108260E81E
:104F700074E88EE190E0A70196019FD2215031099B
:104F8000410951095695479537952795EC85FD853B
:104F90003083EE85FF852083188EEC89FD89108390
:104FA000EA89FB89808180618083EA89FB8980812D
:104FB00088608083EA89FB89808180688083EA89B0
:104FC000FB8980818F7D8083DF91CF911F91FF903E
:104FD000EF90DF90CF9008951F920F920FB60F922F
:104FE00011240BB60F922F938F939F93EF93FF9300
:104FF000E091A304F091A4048081E091A904F091D0
:10500000AA0482FD1DC090818091AC048F5F8F73D4
:105010002091AD04821741F0E091AC04F0E0ED5630
:10502000FB4F958F8093AC04FF91EF919F918F91EF
:105030002F910F900BBE0F900FBE0F901F901895E1
:105040008081F2CF1F920F920FB60F9211240BB6F0
:105050000F922F933F934F935F936F937F938F9311
:105060009F93AF93BF93EF93FF9383E994E0C7DEE1
:10507000FF91EF91BF91AF919F918F917F916F9130
:105080005F914F913F912F910F900BBE0F900FBEEC
:105090000F901F901895E3E9F4E01382128288EED6
:1050A00093E0A0E0B0E084839583A683B78383E791
:1050B00093E09183808385EC90E09587848784ECEE
:1050C00090E09787868780EC90E0918B808B81ECD5
:1050D00090E0938B828B82EC90E0958B848B86ECB6
:1050E00090E0978B868B118E128E138E148E0895FE
:1050F0001F920F920FB60F9211240BB60F922F939F
:105100008F939F93EF93FF93E0914005F0914105BA
:105110008081E0914605F091470582FD1DC0908198
:10512000809149058F5F8F7320914A05821741F066
:10513000E0914905F0E0E05DFA4F958F80934905D5
:10514000FF91EF919F918F912F910F900BBE0F9038
:105150000FBE0F901F9018958081F2CF1F920F9273
:105160000FB60F9211240BB60F922F933F934F93CC
:105170005F936F937F938F939F93AF93BF93EF93BF
:10518000FF9380E395E03BDEFF91EF91BF91AF91FC
:105190009F918F917F916F915F914F913F912F914F
:1051A0000F900BBE0F900FBE0F901F901895E0E36D
:1051B000F5E01382128288EE93E0A0E0B0E08483F1
:1051C0009583A683B78383E793E0918380838DECF7
:1051D00090E0958784878CEC90E09787868788ECB1
:1051E00090E0918B808B89EC90E0938B828B8AECA2
:1051F00090E0958B848B8EEC90E0978B868B118E54
:10520000128E138E148E08951F920F920FB60F9266
:1052100011240BB60F922F938F939F93EF93FF93CD
:10522000E091DD05F091DE058081E091E305F091EC
:10523000E40582FD1DC090818091E6058F5F8F732C
:105240002091E705821741F0E091E605F0E0E35395
:10525000FA4F958F8093E605FF91EF919F918F9183
:105260002F910F900BBE0F900FBE0F901F901895AF
:105270008081F2CF1F920F920FB60F9211240BB6BE
:105280000F922F933F934F935F936F937F938F93DF
:105290009F93AF93BF93EF93FF938DEC95E0AFDDBA
:1052A000FF91EF91BF91AF919F918F917F916F91FE
:1052B0005F914F913F912F910F900BBE0F900FBEBA
:1052C0000F901F901895EDECF5E01382128288EE96
:1052D00093E0A0E0B0E084839583A683B78383E75F
:1052E00093E09183808385ED90E09587848784EDBA
:1052F00090E09787868780ED90E0918B808B81EDA1
:1053000090E0938B828B82ED90E0958B848B86ED81
:1053100090E0978B868B118E128E138E148E0895CB
:105320001F920F920FB60F9211240BB60F922F936C
:105330008F939F93EF93FF93E0917A06F0917B0612
:105340008081E0918006F091810682FD1DC09081F0
:10535000809183068F5F8F7320918406821741F0BE
:10536000E0918306F0E0E659F94F958F809383062C
:10537000FF91EF919F918F912F910F900BBE0F9006
:105380000FBE0F901F9018958081F2CF1F920F9241
:105390000FB60F9211240BB60F922F933F934F939A
:1053A0005F936F937F938F939F93AF93BF93EF938D
:1053B000FF938AE696E023DDFF91EF91BF91AF91D5
:1053C0009F918F917F916F915F914F913F912F911D
:1053D0000F900BBE0F900FBE0F901F901895EAE62E
:1053E000F6E01382128288EE93E0A0E0B0E08483BE
:1053F0009583A683B78383E793E09183808385E3D6
:1054000091E09587848784E391E09787868780E39E
:1054100091E0918B808B81E391E0938B828B82E38F
:1054200091E0958B848B86E391E0978B868B118E30
:10543000128E138E148E0895AF92BF92CF92DF9288
:10544000EF92FF920F931F93CF93DF936C017B0139
:105450008B01040F151FEB015E01AE18BF08C017CA
:10546000D10759F06991D601ED91FC910190F0813D
:10547000E02DC6011995892B79F7C501DF91CF91F0
:105480001F910F91FF90EF90DF90CF90BF90AF9062
:105490000895089597FB072E16F4009406D077FD23
:1054A00008D035D007FC05D03EF4909581959F4FEC
:1054B0000895709561957F4F0895A1E21A2EAA1B59
:1054C000BB1BFD010DC0AA1FBB1FEE1FFF1FA217B4
:1054D000B307E407F50720F0A21BB30BE40BF50BB1
:1054E000661F771F881F991F1A9469F7609570953A
:1054F000809590959B01AC01BD01CF010895EE0F01
:10550000FF1F881F8BBF0790F691E02D1994AA1BEF
:10551000BB1B51E107C0AA1FBB1FA617B70710F09E
:10552000A61BB70B881F991F5A95A9F780959095D0
:10553000BC01CD0108950F931F93CF93DF93869FF6
:105540008001879F100D969F100D1124C8010DD06A
:10555000EC01009721F0A80170E060E034D1CE01A9
:10556000DF91CF911F910F9108950F931F93CF93C8
:10557000DF938230910510F482E090E0E091AB1B64
:10558000F091AC1B30E020E0B0E0A0E0309799F45F
:105590002115310509F44AC0281B390B2430310587
:1055A000D8F58A819B816115710589F1FB0193838F
:1055B0008283FE0111C0408151810281138148170D
:1055C0005907E0F04817590799F4109761F01296BF
:1055D0000C93129713961C933296CF01DF91CF91C3
:1055E0001F910F9108950093AB1B1093AC1BF4CF48
:1055F0002115310551F04217530738F0A901DB019D
:105600009A01BD01DF01F801C1CFEF01F9CF9093FD
:10561000AC1B8093AB1BCDCFFE01E20FF31F819338
:1056200091932250310939832883D7CF2091A91B28
:105630003091AA1B232B41F42091020230910302E6
:105640003093AA1B2093A91B2091000230910102E4
:105650002115310541F42DB73EB740910402509118
:105660000502241B350BE091A91BF091AA1BE21740
:10567000F307A0F42E1B3F0B2817390778F0AC0175
:105680004E5F5F4F2417350748F04E0F5F1F509352
:10569000AA1B4093A91B819391939FCFF0E0E0E078
:1056A0009CCFCF93DF930097E9F0FC0132971382F0
:1056B0001282A091AB1BB091AC1BED0130E020E059
:1056C0001097A1F420813181820F931F2091A91B93
:1056D0003091AA1B2817390709F061C0F093AA1B63
:1056E000E093A91BDF91CF910895EA01CE17DF0760
:1056F000E8F54A815B819E0141155105B1F7E90149
:10570000FB83EA8349915991C40FD51FEC17FD071C
:1057100061F4808191810296840F951FE90199833C
:105720008883828193819B838A83F0E0E0E01296F4
:105730008D919C9113970097B9F52D913C911197FC
:10574000CD010296820F931F2091A91B3091AA1BB5
:105750002817390739F6309751F51092AC1B109283
:10576000AB1BB093AA1BA093A91BBCCFD383C2834E
:1057700040815181840F951FC817D90761F44E5F8E
:105780005F4F88819981480F591F518340838A81D7
:105790009B81938382832115310509F0B0CFF0936B
:1057A000AC1BE093AB1B9ECFFD01DC01C0CF13828D
:1057B0001282D7CFFB01DC0102C001900D92415053
:1057C0005040D8F70895DC0101C06D93415050401E
:1057D000E0F70895FB01DC018D9101908019011023
:0A57E000D9F3990B0895F894FFCF58
:1057EA000000AD1B800001000A025E0200000000FA
:1057FA001000020016029F1A000000001800271B62
:10580A00000000000700B902C002CA02C902D2029F
:10581A00D102DB02DA02E302ED02F802FE02080319
:10582A001103040004000100010002000200040048
:10583A000400010004000200020004000800000045
:10584A00803F000000000000803F0000803F000011
:10585A00000000004040000000000000803F0000FF
:10586A004040000000000000C0400000A0400000CE
:10587A004040000080BF0000803F0000A0400101BE
:10588A00010053696D756C6174696F6E2066696E8B
:10589A0069736865640001A8037265616C5F5400EE
:1058AA007265616C33325F540075696E74385F5487
:1058BA000075696E7431365F540075696E743332DF
:1058CA005F5400626F6F6C65616E5F540066636E51
:1058DA005F63616C6C5F5400696E745F5400706F33
:1058EA00696E7465725F5400616374696F6E5F54A8
:1058FA000074696D65725F75696E7433325F7061C9
:10590A0069725F54002D77002D69676E6F72652D7D
:10591A0061726700436F756C64206E6F74206372E6
:10592A00656174652065787465726E616C206D6F4F
:10593A006465207573657220646174612E20204F3E
:10594A007574206F66206D656D6F72792E0A00007E
:10595A0000000040271C2AF0262127C226DC26CE7A
:02596A00260015
:00000001FF
