:1000000075C00000A4C00000A2C00000A0C0000095
:100010009EC000009CC000009AC0000098C0000074
:1000200096C0000094C0000092C0000090C0000084
:100030008EC000008CC000008AC0000088C0000094
:1000400086C0000084C0000082C0000080C00000A4
:100050007EC000007CC000007AC000000C942F1409
:1000600076C000000C94601A0C94901A70C00000C6
:100070006EC000006CC000006AC0000068C00000D4
:1000800066C0000064C0000062C0000060C00000E4
:100090000C94071B0C94371B5AC0000058C000007A
:1000A00056C0000054C0000052C0000050C0000004
:1000B0004EC000004CC000004AC0000048C0000014
:1000C00046C0000044C0000042C000000C94AE1BBB
:1000D0000C94DE1B3CC000000C94551C0C94851C39
:1000E00036C00000FB1AA21B491CF21C11241FBEC3
:1000F000CFEFD1E2DEBFCDBF00E00CBF12E0A0E049
:10010000B2E0E6E8F6E400E00BBF02C007900D9213
:10011000AC36B107D9F725E0ACE6B2E001C01D92DC
:10012000AA34B207E1F710E0C6E7D0E000E006C06D
:1001300021970109802FFE010E94AF22C237D1070B
:1001400080E00807A9F70E94BA110C94412358CF08
:10015000CF93DF9300D01F92CDB7DEB79A83898308
:100160007C836B832B813C8189819A81A901BC01AD
:1001700082E892E00E94382200000F900F900F90CA
:100180000F90DF91CF910895CF93DF931F921F922D
:10019000CDB7DEB782E892E00E944E179A8389833A
:1001A00089819A810F900F90DF91CF910895CF931D
:1001B000DF9300D01F92CDB7DEB79A8389837C830B
:1001C0006B832B813C8189819A81A901BC018FE1DC
:1001D00093E00E94382200000F900F900F900F9034
:1001E000DF91CF910895CF93DF931F921F92CDB7E8
:1001F000DEB78FE193E00E944E179A83898389814D
:100200009A810F900F90DF91CF910895CF93DF9354
:1002100000D01F92CDB7DEB79A8389837C836B832E
:100220002B813C8189819A81A901BC018CEB93E0EF
:100230000E94382200000F900F900F900F90DF91D6
:10024000CF910895CF93DF9300D01F92CDB7DEB743
:100250009A8389837C836B832B813C8189819A81FA
:10026000A901BC0189E594E00E94382200000F90AA
:100270000F900F900F90DF91CF910895CF93DF9360
:100280001F921F92CDB7DEB78CEB93E00E944E1702
:100290009A83898389819A810F900F90DF91CF9102
:1002A0000895CF93DF931F921F92CDB7DEB789E5F4
:1002B00094E00E944E179A83898389819A810F90D6
:1002C0000F90DF91CF910895EF92FF920F931F93BC
:1002D000CF93DF93CDB7DEB72D970FB6F894DEBF7F
:1002E0000FBECDBF8F83798768875B874A873D873D
:1002F0002C870DB71EB78DB79EB77C018885998571
:10030000880F991F01979C838B8388859985880F17
:10031000991F2DB73EB7281B390B0FB6F8943EBF77
:100320000FBE2DBF8DB79EB701969E838D838F81A3
:10033000882F90E0880F991F80509E4FFC012081EC
:1003400031818D819E8148855985BA01F9011995C0
:100350001A82198289819A812885398582179307A3
:10036000B8F48A859B859C012F5F3F4F3B872A8786
:100370004D815E8129813A81240F351FF901208149
:10038000FC01208389819A8101969A838983E2CF37
:100390008C859D8521E0FC0120830FB6F894FEBE7C
:1003A0000FBEEDBE00000FB6F8941EBF0FBE0DBF0E
:1003B0002D960FB6F894DEBF0FBECDBFDF91CF9163
:1003C0001F910F91FF90EF900895CF93DF93CDB7DA
:1003D000DEB7CB54D1090FB6F894DEBF0FBECDBF48
:1003E000FE01EB5BFF4F8083CE018A5B9F4FFC01D8
:1003F00071836083CE01885B9F4FFC0151834083F2
:10040000CE01865B9F4FFC0131832083CE018B5B45
:100410009F4FFC018081882F90E0880F991F885F93
:100420009D4FFC0180819181FC0119959C838B83F8
:100430008B819C819E012A5B3F4FF9012081318194
:1004400028173907C9F4CE01865B9F4FFC01208134
:100450003181CE01885B9F4FFC0140815181CE01EB
:100460008A5B9F4FFC0160817181CE018B5B9F4F46
:10047000FC01808129DFA7C08B819C819E012A5BC2
:100480003F4FF901208131818217930708F46FC033
:10049000CE018A5B9F4FFC01808191819C01220FDC
:1004A000331F8B819C8128173907C8F0CE01865BEA
:1004B0009F4FFC0120813181CE01885B9F4FFC0161
:1004C00040815181CE018A5B9F4FFC016081718127
:1004D000CE018B5B9F4FFC018081F6DE74C0CE01A4
:1004E0008B5B9F4FFC018081882F90E0880F991FC4
:1004F00080509E4FFC01208131816B817C81CE0137
:100500008A5B9F4FFC0140815181CB01BA010E945F
:100510007922CB01AC0141505109CE018A5B9F4F3A
:10052000FC0180819181489FB001499F700D589FC7
:10053000700D1124CE010596F9011995CE01865B47
:100540009F4FFC0120813181CE01885B9F4FFC01D0
:1005500040815181CE018A5B9F4FFC016081718196
:10056000CE018B5B9F4FFC018081AEDE2CC01A82D6
:10057000198289819A819E012A5B3F4FF90120816E
:10058000318182179307B8F4CE01885B9F4FFC013D
:10059000808191819E01285B3F4FAC014F5F5F4F8F
:1005A000F90151834083FC01108289819A8101966F
:1005B0009A838983DECFCE01865B9F4FFC018081C9
:1005C0009181FC0110820000C55BDF4F0FB6F894EB
:1005D000DEBF0FBECDBFDF91CF910895CF93DF93E4
:1005E0001F92CDB7DEB789838981882339F189814C
:1005F000882F90E08230910579F083309105A9F041
:10060000019709F01CC040E855E260E070E081E02D
:1006100090E00E94C21013C040E855E260E070E034
:1006200082E090E00E94C2100AC040E855E260E01B
:1006300070E083E090E00E94C21001C000000F90C3
:10064000DF91CF9108958F929F92AF92CF92EF92C8
:100650000F93CF93DF93CDB7DEB7CA54D1090FB64E
:10066000F894DEBF0FBECDBF8FAFCE01805C9F4F31
:10067000FC0171836083CE018E5B9F4FFC0151832F
:100680004083CE018C5B9F4FFC012083CE018B5BAE
:100690009F4FFC010083CE018A5B9F4FFC01E082EB
:1006A000CE01895B9F4FFC01C082CE01885B9F4FCA
:1006B000FC01A082CE01875B9F4FFC01918280826A
:1006C000CE018C5B9F4FFC018081882F90E09A8344
:1006D0008983CE018E5B9F4FFC01808191819C8339
:1006E0008B8389819A81089721F484E090E09A8332
:1006F0008983CE01895B9F4FFC018081882329F487
:100700008AE090E09E838D831CC0CE01895B9F4F61
:10071000FC018081813029F480E190E09E838D830B
:1007200010C0CE01895B9F4FFC018081823029F48B
:1007300088E090E09E838D8304C082E090E09E83F9
:100740008D838FAD882F90E08130910509F476C2BA
:100750008230910524F4892B59F00C94FE0D8230DF
:10076000910509F40AC5039709F4A4C70C94FE0D7A
:10077000CE018B5B9F4FFC018081882329F58091FE
:100780008202909183020296FC012081318149818D
:100790005A81CE018E5B9F4FFC0180819181489FE1
:1007A000B001499F700D589F700D1124CE01805CDF
:1007B0009F4FFC0180819181AB01BC0182E892E0F6
:1007C000F90119950C94F70DCE01875B9F4FFC0141
:1007D00080819181BC0182E892E00E94791DCE0166
:1007E0008A5B9F4FFC018081882309F042C0CE01C3
:1007F000805C9F4FFC018081918198878F838B81E2
:100800009C819C01215031093C832B8321E0892B61
:1008100009F420E0222311F40C94F70DCE018B5B38
:100820009F4FFC018081813091F48F8198859C01DC
:100830002F5F3F4F38872F83FC0120818D819E8160
:10084000AC01622F82E892E00E94AC1DD8CF8F816C
:1008500098859C012F5F3F4F38872F83FC012081B3
:100860008D819E81AC01622F82E892E00E94F21E8F
:10087000C6CFCE018A5B9F4FFC018081813009F099
:1008800044C0CE01805C9F4FFC01808191819A879A
:1008900089878B819C819C01215031093C832B836A
:1008A00021E0892B09F420E0222311F40C94F70DA8
:1008B000CE018B5B9F4FFC018081813099F489854B
:1008C0009A859C012E5F3F4F3A872987FC018081E2
:1008D00091812D813E81A901BC0182E892E00E94B4
:1008E000F01DD7CF89859A859C012E5F3F4F3A87AF
:1008F0002987FC01808191812D813E81A901BC0164
:1009000082E892E00E94491FC4CFCE018A5B9F4FCC
:10091000FC018081823009F048C0CE01805C9F4F8D
:10092000FC01808191819C878B878B819C819C01BC
:10093000215031093C832B8321E0892B09F420E0ED
:10094000222311F40C94F70DCE018B5B9F4FFC0119
:1009500080818130A9F48B859C859C012C5F3F4F61
:100960003C872B87FC0180819181A281B3812D81FD
:100970003E81AC01BD0182E892E00E94851ED5CF88
:100980008B859C859C012C5F3F4F3C872B87FC010E
:1009900080819181A281B3812D813E81AC01BD0115
:1009A00082E892E00E94A91FC0CFCE018A5B9F4FD0
:1009B000FC018081833009F048C0CE01805C9F4FEC
:1009C000FC01808191819E878D878B819C819C0118
:1009D000215031093C832B8321E0892B09F420E04D
:1009E000222311F40C94F70DCE018B5B9F4FFC0179
:1009F00080818130A9F48D859E859C012F5F3F4FBA
:100A00003E872D87FC018081082E000C990B2D81DB
:100A10003E81A901BC0182E892E00E94CD1DD5CFA4
:100A20008D859E859C012F5F3F4F3E872D87FC0162
:100A30008081082E000C990B2D813E81A901BC01FB
:100A400082E892E00E941C1FC0CFCE018A5B9F4FBC
:100A5000FC018081843009F044C0CE01805C9F4F4E
:100A6000FC0180819181988B8F878B819C819C0177
:100A7000215031093C832B8321E0892B09F420E0AC
:100A8000222311F40C94F70DCE018B5B9F4FFC01D8
:100A90008081813099F48F8598899C012E5F3F4F2A
:100AA000388B2F87FC01808191812D813E81A901A6
:100AB000BC0182E892E00E94CD1DD7CF8F85988936
:100AC0009C012E5F3F4F388B2F87FC0180819181E5
:100AD0002D813E81A901BC0182E892E00E941C1F89
:100AE000C4CFCE018A5B9F4FFC018081853009F025
:100AF00048C0CE01805C9F4FFC01808191819A8B20
:100B0000898B8B819C819C01215031093C832B83F3
:100B100021E0892B09F420E0222311F40C94F70D35
:100B2000CE018B5B9F4FFC0180818130A9F48989C4
:100B30009A899C012C5F3F4F3A8B298BFC01808165
:100B40009181A281B3812D813E81AC01BD0182E8FA
:100B500092E00E94121ED5CF89899A899C012C5F50
:100B60003F4F3A8B298BFC0180819181A281B38117
:100B70002D813E81AC01BD0182E892E00E94761F8A
:100B8000C0CFCE018A5B9F4FFC018081863011F07F
:100B90000C94F70DCE01805C9F4FFC018081918108
:100BA0009C8B8B8B8B819C819C01215031093C83D8
:100BB0002B8321E0892B09F420E0222311F40C94EB
:100BC000F70DCE018B5B9F4FFC0180818130D9F402
:100BD000CE01885B9F4FFC018081482F50E08B89BC
:100BE0009C899C012C5F3F4F3C8B2B8BFC018081AF
:100BF0009181A281B3819A01AC01BD0182E892E0AA
:100C00000E94BC1ECFCFCE01885B9F4FFC0180812C
:100C1000482F50E08B899C899C012C5F3F4F3C8B77
:100C20002B8BFC0180819181A281B3819A01AC015F
:100C3000BD0182E892E00E94DC1FB4CFCE018B5B45
:100C40009F4FFC018081882321F580911F039091A3
:100C500020030296FC012081318149815A81CE0115
:100C60008E5B9F4FFC0180819181489FB001499F1D
:100C7000700D589F700D1124CE01805C9F4FFC01B8
:100C800080819181AB01BC018FE193E0F90119955D
:100C9000B0C7CE01875B9F4FFC0180819181BC0171
:100CA0008FE193E00E94791DCE018A5B9F4FFC018A
:100CB0008081882309F041C0CE01805C9F4FFC01F8
:100CC000808191819E8B8D8B8B819C819C01215099
:100CD00031093C832B8321E0892B09F420E0222376
:100CE00009F487C7CE018B5B9F4FFC018081813067
:100CF00091F48D899E899C012F5F3F4F3E8B2D8BF8
:100D0000FC0120818D819E81AC01622F8FE193E0F7
:100D10000E94AC1DD9CF8D899E899C012F5F3F4FCA
:100D20003E8B2D8BFC0120818D819E81AC01622F39
:100D30008FE193E00E94F21EC7CFCE018A5B9F4FE6
:100D4000FC018081813009F043C0CE01805C9F4F5F
:100D5000FC0180819181988F8F8B8B819C819C017C
:100D6000215031093C832B8321E0892B09F420E0B9
:100D7000222309F43EC7CE018B5B9F4FFC0180818B
:100D8000813099F48F89988D9C012E5F3F4F388F69
:100D90002F8BFC01808191812D813E81A901BC01B5
:100DA0008FE193E00E94F01DD8CF8F89988D9C0130
:100DB0002E5F3F4F388F2F8BFC01808191812D81D9
:100DC0003E81A901BC018FE193E00E94491FC5CF7C
:100DD000CE018A5B9F4FFC018081823009F047C0C1
:100DE000CE01805C9F4FFC01808191819A8F898F19
:100DF0008B819C819C01215031093C832B8321E014
:100E0000892B09F420E0222309F4F3C6CE018B5B81
:100E10009F4FFC0180818130A9F4898D9A8D9C01BE
:100E20002C5F3F4F3A8F298FFC0180819181A281F5
:100E3000B3812D813E81AC01BD018FE193E00E9421
:100E4000851ED6CF898D9A8D9C012C5F3F4F3A8F9E
:100E5000298FFC0180819181A281B3812D813E8106
:100E6000AC01BD018FE193E00E94A91FC1CFCE016B
:100E70008A5B9F4FFC018081833009F047C0CE011F
:100E8000805C9F4FFC01808191819C8F8B8F8B8137
:100E90009C819C01215031093C832B8321E0892BCB
:100EA00009F420E0222309F4A4C6CE018B5B9F4FF6
:100EB000FC0180818130A9F48B8D9C8D9C012F5F7A
:100EC0003F4F3C8F2B8FFC018081082E000C990B2B
:100ED0002D813E81A901BC018FE193E00E94CD1DCF
:100EE000D6CF8B8D9C8D9C012F5F3F4F3C8F2B8FDE
:100EF000FC018081082E000C990B2D813E81A901F7
:100F0000BC018FE193E00E941C1FC1CFCE018A5B20
:100F10009F4FFC018081843009F043C0CE01805C8A
:100F20009F4FFC01808191819E8F8D8F8B819C8151
:100F30009C01215031093C832B8321E0892B09F44A
:100F400020E0222309F455C6CE018B5B9F4FFC01A4
:100F50008081813099F48D8D9E8D9C012E5F3F4F55
:100F60003E8F2D8FFC01808191812D813E81A901D1
:100F7000BC018FE193E00E94CD1DD8CF8D8D9E8D59
:100F80009C012E5F3F4F3E8F2D8FFC018081918110
:100F90002D813E81A901BC018FE193E00E941C1FBD
:100FA000C5CFCE018A5B9F4FFC018081853009F05F
:100FB00047C0CE01805C9F4FFC018081918198A346
:100FC0008F8F8B819C819C01215031093C832B8325
:100FD00021E0892B09F420E0222309F40AC6CE017E
:100FE0008B5B9F4FFC0180818130A9F48F8D98A18C
:100FF0009C012C5F3F4F38A32F8FFC018081918192
:10100000A281B3812D813E81AC01BD018FE193E0CE
:101010000E94121ED6CF8F8D98A19C012C5F3F4F4E
:1010200038A32F8FFC0180819181A281B3812D8112
:101030003E81AC01BD018FE193E00E94761FC1CFDC
:10104000CE018A5B9F4FFC018081863009F0D1C5BB
:10105000CE01805C9F4FFC01808191819AA389A37E
:101060008B819C819C01215031093C832B8321E0A1
:10107000892B09F420E0222309F4BBC5CE018B5B48
:101080009F4FFC0180818130E1F5CE01895B9F4F4C
:10109000FC0180818823D9F4CE01885B9F4FFC013D
:1010A0008081482F50E089A19AA19C012C5F3F4F7D
:1010B0003AA329A3FC0180819181A281B3819A0185
:1010C000AC01BD018FE193E00E94BC1EC9CF89A194
:1010D0009AA19C012C5F3F4F3AA329A3FC01808178
:1010E0009181A281B381BC01CD010E949212AB011A
:1010F000BC018D819E819C018FE193E00E94121EB4
:10110000AFCFCE01895B9F4FFC0180818823D9F44A
:10111000CE01885B9F4FFC018081482F50E089A160
:101120009AA19C012C5F3F4F3AA329A3FC01808127
:101130009181A281B3819A01AC01BD018FE193E05D
:101140000E94DC1F8DCF89A19AA19C012C5F3F4F8B
:101150003AA329A3FC0180819181A281B381BC01C2
:10116000CD010E949212AB01BC018D819E819C0138
:101170008FE193E00E94761F73CFCE018B5B9F4F70
:10118000FC018081882321F58091BC039091BD03EF
:101190000296FC012081318149815A81CE018E5B0A
:1011A0009F4FFC0180819181489FB001499F700D44
:1011B000589F700D1124CE01805C9F4FFC018081EF
:1011C0009181AB01BC018CEB93E0F901199513C53A
:1011D000CE01875B9F4FFC0180819181BC018CEB2C
:1011E00093E00E94791DCE018A5B9F4FFC018081B4
:1011F000882309F041C0CE01805C9F4FFC018081B3
:1012000091819CA38BA38B819C819C0121503109EE
:101210003C832B8321E0892B09F420E0222309F46D
:10122000EAC4CE018B5B9F4FFC018081813091F439
:101230008BA19CA19C012F5F3F4F3CA32BA3FC01E2
:1012400020818D819E81AC01622F8CEB93E00E9406
:10125000AC1DD9CF8BA19CA19C012F5F3F4F3CA31C
:101260002BA3FC0120818D819E81AC01622F8CEB30
:1012700093E00E94F21EC7CFCE018A5B9F4FFC0114
:101280008081813009F043C0CE01805C9F4FFC011A
:10129000808191819EA38DA38B819C819C01215093
:1012A00031093C832B8321E0892B09F420E02223A0
:1012B00009F4A1C4CE018B5B9F4FFC01808181307A
:1012C00099F48DA19EA19C012E5F3F4F3EA32DA3BB
:1012D000FC01808191812D813E81A901BC018CEBB3
:1012E00093E00E94F01DD8CF8DA19EA19C012E5F9E
:1012F0003F4F3EA32DA3FC01808191812D813E8132
:10130000A901BC018CEB93E00E94491FC5CFCE011F
:101310008A5B9F4FFC018081823009F047C0CE017B
:10132000805C9F4FFC018081918198A78FA38B8166
:101330009C819C01215031093C832B8321E0892B26
:1013400009F420E0222309F456C4CE018B5B9F4FA1
:10135000FC0180818130A9F48FA198A59C012C5FAC
:101360003F4F38A72FA3FC0180819181A281B381D7
:101370002D813E81AC01BD018CEB93E00E94851E66
:10138000D6CF8FA198A59C012C5F3F4F38A72FA3E4
:10139000FC0180819181A281B3812D813E81AC01CC
:1013A000BD018CEB93E00E94A91FC1CFCE018A5BE7
:1013B0009F4FFC018081833009F047C0CE01805CE3
:1013C0009F4FFC01808191819AA789A78B819C8185
:1013D0009C01215031093C832B8321E0892B09F4A6
:1013E00020E0222309F407C4CE018B5B9F4FFC0150
:1013F00080818130A9F489A59AA59C012F5F3F4F78
:101400003AA729A7FC018081082E000C990B2D8199
:101410003E81A901BC018CEB93E00E94CD1DD6CF8B
:1014200089A59AA59C012F5F3F4F3AA729A7FC01E8
:101430008081082E000C990B2D813E81A901BC01F1
:101440008CEB93E00E941C1FC1CFCE018A5B9F4FA3
:10145000FC018081843009F043C0CE01805C9F4F45
:10146000FC01808191819CA78BA78B819C819C0131
:10147000215031093C832B8321E0892B09F420E0A2
:10148000222309F4B8C3CE018B5B9F4FFC018081FE
:10149000813099F48BA59CA59C012E5F3F4F3CA702
:1014A0002BA7FC01808191812D813E81A901BC0186
:1014B0008CEB93E00E94CD1DD8CF8BA59CA59C0101
:1014C0002E5F3F4F3CA72BA7FC01808191812D818E
:1014D0003E81A901BC018CEB93E00E941C1FC5CF8B
:1014E000CE018A5B9F4FFC018081853009F047C0A7
:1014F000CE01805C9F4FFC01808191819EA78DA7CA
:101500008B819C819C01215031093C832B8321E0FC
:10151000892B09F420E0222309F46DC3CE018B5BF3
:101520009F4FFC0180818130A9F48DA59EA59C016F
:101530002C5F3F4F3EA72DA7FC0180819181A281A6
:10154000B3812D813E81AC01BD018CEB93E00E9403
:10155000121ED6CF8DA59EA59C012C5F3F4F3EA7A6
:101560002DA7FC0180819181A281B3812D813E81D3
:10157000AC01BD018CEB93E00E94761FC1CFCE0180
:101580008A5B9F4FFC018081863009F034C3CE0115
:10159000805C9F4FFC018081918198AB8FA78B81EC
:1015A0009C819C01215031093C832B8321E0892BB4
:1015B00009F420E0222309F41EC3CE018B5B9F4F68
:1015C000FC0180818130D9F5CE01895B9F4FFC0100
:1015D00080818823D9F4CE01885B9F4FFC018081F4
:1015E000482F50E08FA598A99C012C5F3F4F38AB46
:1015F0002FA7FC0180819181A281B3819A01AC0166
:10160000BD018CEB93E00E94BC1EC9CF8FA598A9A9
:101610009C012C5F3F4F38AB2FA7FC01808191814B
:10162000A281B381BC01CD017DD7AB01BC018D810D
:101630009E819C018CEB93E00E94121EB0CFCE01E4
:10164000895B9F4FFC0180818823D9F4CE01885BA0
:101650009F4FFC018081482F50E08FA598A99C01E5
:101660002C5F3F4F38AB2FA7FC0180819181A28175
:10167000B3819A01AC01BD018CEB93E00E94DC1FA9
:101680008ECF8FA598A99C012C5F3F4F38AB2FA719
:10169000FC0180819181A281B381BC01CD0142D73F
:1016A000AB01BC018D819E819C018CEB93E00E947B
:1016B000761F75CFCE018B5B9F4FFC018081882305
:1016C00021F58091590490915A040296FC012081E1
:1016D000318149815A81CE018E5B9F4FFC0180810F
:1016E0009181489FB001499F700D589F700D112442
:1016F000CE01805C9F4FFC0180819181AB01BC01D8
:1017000089E594E0F901199578C2CE01875B9F4F76
:10171000FC0180819181BC0189E594E00E94791DE2
:10172000CE018A5B9F4FFC018081882309F041C074
:10173000CE01805C9F4FFC01808191819AAB89AB87
:101740008B819C819C01215031093C832B8321E0BA
:10175000892B09F420E0222309F44FC2CE018B5BD0
:101760009F4FFC018081813091F489A99AA99C0145
:101770002F5F3F4F3AAB29ABFC0120818D819E81C9
:10178000AC01622F89E594E00E94AC1DD9CF89A9F4
:101790009AA99C012F5F3F4F3AAB29ABFC012081F6
:1017A0008D819E81AC01622F89E594E00E94F21E3A
:1017B000C7CFCE018A5B9F4FFC018081813009F049
:1017C00043C0CE01805C9F4FFC01808191819CAB26
:1017D0008BAB8B819C819C01215031093C832B83F5
:1017E00021E0892B09F420E0222309F406C2CE016E
:1017F0008B5B9F4FFC018081813099F48BA99CA960
:101800009C012E5F3F4F3CAB2BABFC018081918153
:101810002D813E81A901BC0189E594E00E94F01D63
:10182000D8CF8BA99CA99C012E5F3F4F3CAB2BAB23
:10183000FC01808191812D813E81A901BC0189E556
:1018400094E00E94491FC5CFCE018A5B9F4FFC01E7
:101850008081823009F047C0CE01805C9F4FFC013F
:10186000808191819EAB8DAB8B819C819C012150AD
:1018700031093C832B8321E0892B09F420E02223CA
:1018800009F4BBC1CE018B5B9F4FFC01808181308D
:10189000A9F48DA99EA99C012C5F3F4F3EAB2DABB7
:1018A000FC0180819181A281B3812D813E81AC01B7
:1018B000BD0189E594E00E94851ED6CF8DA99EA921
:1018C0009C012C5F3F4F3EAB2DABFC018081918191
:1018D000A281B3812D813E81AC01BD0189E594E0F7
:1018E0000E94A91FC1CFCE018A5B9F4FFC0180815E
:1018F000833009F047C0CE01805C9F4FFC0180819E
:10190000918198AF8FAB8B819C819C0121503109D3
:101910003C832B8321E0892B09F420E0222309F466
:101920006CC1CE018B5B9F4FFC0180818130A9F49B
:101930008FA998AD9C012F5F3F4F38AF2FABFC01B3
:101940008081082E000C990B2D813E81A901BC01DC
:1019500089E594E00E94CD1DD6CF8FA998AD9C015A
:101960002F5F3F4F38AF2FABFC018081082E000C5A
:10197000990B2D813E81A901BC0189E594E00E946B
:101980001C1FC1CFCE018A5B9F4FFC018081843038
:1019900009F043C0CE01805C9F4FFC0180819181A2
:1019A0009AAF89AF8B819C819C01215031093C8386
:1019B0002B8321E0892B09F420E0222309F41DC1A7
:1019C000CE018B5B9F4FFC018081813099F489AD02
:1019D0009AAD9C012E5F3F4F3AAF29AFFC01808149
:1019E00091812D813E81A901BC0189E594E00E948D
:1019F000CD1DD8CF89AD9AAD9C012E5F3F4F3AAF38
:101A000029AFFC01808191812D813E81A901BC011A
:101A100089E594E00E941C1FC5CFCE018A5B9F4FD1
:101A2000FC018081853009F047C0CE01805C9F4F6A
:101A3000FC01808191819CAF8BAF8B819C819C014B
:101A4000215031093C832B8321E0892B09F420E0CC
:101A5000222309F4D2C0CE018B5B9F4FFC01808111
:101A60008130A9F48BAD9CAD9C012C5F3F4F3CAF06
:101A70002BAFFC0180819181A281B3812D813E81B8
:101A8000AC01BD0189E594E00E94121ED6CF8BAD5A
:101A90009CAD9C012C5F3F4F3CAF2BAFFC01808184
:101AA0009181A281B3812D813E81AC01BD0189E587
:101AB00094E00E94761FC1CFCE018A5B9F4FFC014C
:101AC0008081863009F099C0CE01805C9F4FFC0177
:101AD000808191819EAF8DAF8B819C819C01215033
:101AE00031093C832B8321E0892B09F420E0222358
:101AF00009F483C0CE018B5B9F4FFC018081813054
:101B0000D9F5CE01895B9F4FFC0180818823D9F4F0
:101B1000CE01885B9F4FFC018081482F50E08DAD46
:101B20009EAD9C012C5F3F4F3EAF2DAFFC018081ED
:101B30009181A281B3819A01AC01BD0189E594E054
:101B40000E94BC1EC9CF8DAD9EAD9C012C5F3F4F46
:101B50003EAF2DAFFC0180819181A281B381BC0198
:101B6000CD01E0D4AB01BC018D819E819C0189E552
:101B700094E00E94121EB0CFCE01895B9F4FFC0102
:101B800080818823D9F4CE01885B9F4FFC0180813E
:101B9000482F50E08DAD9EAD9C012C5F3F4F3EAF76
:101BA0002DAFFC0180819181A281B3819A01AC01AA
:101BB000BD0189E594E00E94DC1F8ECF8DAD9EAD06
:101BC0009C012C5F3F4F3EAF2DAFFC018081918186
:101BD000A281B381BC01CD01A5D4AB01BC018D8133
:101BE0009E819C0189E594E00E94761F75CF0000DC
:101BF00005C0000003C0000001C000000000C65B7B
:101C0000DF4F0FB6F894DEBF0FBECDBFDF91CF918F
:101C10000F91EF90CF90AF909F908F900895CF93BA
:101C2000DF9300D000D01F921F92CDB7DEB76D8337
:101C30007E838F8398878D819E81AF81B885BF77A2
:101C400020E030E040E859E5BC01CD0167D48823AD
:101C50000CF04FC020E030E040E05FE36D817E811A
:101C60008F81988595D58823ACF020E030E040E066
:101C70005FE36D817E818F819885D9D3DC01CB01B3
:101C8000BC01CD01BDD4DC01CB0189839A83AB8338
:101C9000BC8337C020E030E040E05FEB6D817E81A7
:101CA0008F81988575D518167CF420E030E0A90165
:101CB0006D817E818F8198856FD5DC01CB01898311
:101CC0009A83AB83BC831DC020E030E040E05FE33B
:101CD0006D817E818F819885A9D3DC01CB01BC0108
:101CE000CD0109D4DC01CB0189839A83AB83BC830A
:101CF00008C08D819E81AF81B88589839A83AB832B
:101D0000BC8389819A81AB81BC81BC01CD012896BD
:101D10000FB6F894DEBF0FBECDBFDF91CF9108950F
:101D20008F929F92AF92CF92EF92FF920F931F9359
:101D3000CF93DF93CDB7DEB767970FB6F894DEBFCA
:101D40000FBECDBF80913C0590913D05A0913E0511
:101D5000B0913F0520911002309111024091120282
:101D600050911302BC01CD01D9D3882381F0809119
:101D7000100290911102A0911202B091130280936F
:101D80003C0590933D05A0933E05B0933F0580919F
:101D90004005909141059E01295E3F4FAE014A5E8C
:101DA0005F4FBC0180E00E94E50180911C0590918D
:101DB0001D05A0911E05B0911F05209114023091C0
:101DC00015024091160250911702BC01CD01A6D315
:101DD000882381F08091140290911502A09116023F
:101DE000B091170280931C0590931D05A0931E05CA
:101DF000B0931F058E89882F90E0A0E0B0E0BC0171
:101E0000CD01C1D37B018C01809118029091190200
:101E1000A0911A02B0911B029C01AD01C801B7014B
:101E200006D3DC01CB018B839C83AD83BE831A82F6
:101E3000198214C089819A81835D9D4FFC01408184
:101E40009E01295F3F4F89819A81820F931FFC0178
:101E5000408389819A8101969A83898389819A81B5
:101E60000F9744F38091300590913105A091320590
:101E7000B0913305BC01CD015AD3DC01CB01E82E72
:101E80008091280590912905A0912A05B0912B05F4
:101E9000BC01CD014CD3DC01CB01F82E80912C0587
:101EA00090912D05A0912E05B0912F05BC01CD017B
:101EB0003ED3DC01CB01082F8091240590912505AC
:101EC000A0912605B0912705BC01CD0130D3DC01DE
:101ED000CB01182F8091200590912105A09122051A
:101EE000B0912305BC01CD0122D3DC01CB01E82F49
:101EF0009E01295F3F4FCE01039649016894AA24B1
:101F0000A1F8CE2CEF2C212F41E050E0BC018E2F08
:101F10000E942303000067960FB6F894DEBF0FBE41
:101F2000CDBFDF91CF911F910F91FF90EF90CF9098
:101F3000AF909F908F900895CF93DF9300D01F9222
:101F40001F92CDB7DEB78CE692E0FC0111821082C1
:101F500042E550E060E070E086EF94E00E943123BB
:101F60001092360581E08093470580911002909190
:101F70001102A0911202B091130280933C0590933C
:101F80003D05A0933E05B0933F0581E090E0A0E0C1
:101F9000B0E08093370590933805A0933905B0934E
:101FA0003A0581E090E0909343058093420580914B
:101FB000420590914305909341058093400580E050
:101FC0000E94EE0281E080933B051092F60481E0CE
:101FD000809346058091140290911502A0911602FB
:101FE000B091170280931C0590931D05A0931E05C8
:101FF000B0931F0581E090E0A0E0B0E08093F7048B
:102000009093F804A093F904B093FA041092200579
:1020100010922105109222051092230580E090E095
:10202000A0E0B1E48093240590932505A0932605B4
:10203000B093270580E090E0A0ECB0E48093280501
:1020400090932905A0932A05B0932B0580E090E09A
:10205000A0E0B0E480932C0590932D05A0932E056D
:10206000B0932F0510923005109231051092320571
:10207000109233058091200590912105A0912205B1
:10208000B0912305BC01CD01CADDDC01CB018A83FF
:102090009B83AC83BD8320E030E040E853E46A8159
:1020A0007B818C819D813AD28823ACF420E030E0A2
:1020B000A9016A817B818C819D816AD388234CF040
:1020C0006A817B818C819D8132D2DC01CB01898345
:1020D00004C0198202C08FEF898389810E94EE02B9
:1020E00081E08093FB0400000F900F900F900F9001
:1020F0000F90DF91CF910895CF93DF93CDB7DEB7E7
:1021000080913605882319F481E08093360580910B
:10211000F604882319F481E08093F6040000DF912F
:10212000CF910895CF93DF93CDB7DEB740E855E266
:1021300060E070E080E090E025D00000DF91CF917A
:102140000895CF93DF9300D000D0CDB7DEB79A8348
:1021500089834B835C836D837E838B819C81AD817E
:10216000BE81E981FA8126E0AC01BD01CF01D8D55D
:10217000000026960FB6F894DEBF0FBECDBFDF91EC
:10218000CF910895CF93DF9300D000D0CDB7DEB7C5
:102190009A8389834B835C836D837E8389819A8153
:1021A00081309105B1F0823091051CF4892B39F012
:1021B0002EC082309105B9F00397F9F028C08B81C9
:1021C0009C81AD81BE81AC01BD0182E892E0B9DFA6
:1021D0001EC08B819C81AD81BE81AC01BD018FE1B0
:1021E00093E0AFDF14C08B819C81AD81BE81AC01D7
:1021F000BD018CEB93E0A5DF0AC08B819C81AD8192
:10220000BE81AC01BD0189E594E09BDF00000000C8
:1022100026960FB6F894DEBF0FBECDBFDF91CF91EB
:102220000895CF93DF93CDB7DEB70000DF91CF9154
:102230000895EF92FF920F931F93CF93DF9300D0F7
:102240001F921F92CDB7DEB71982A6D3DC01CB0156
:102250008093720290937302A0937402B0937502FC
:102260002091720230917302409174025091750274
:1022700080916E0290916F02A0917002B0917102F4
:1022800079018A01E81AF90A0A0B1B0BD801C70168
:10229000803A9648A140B10508F43CC08091720292
:1022A00090917302A0917402B091750280936E02B6
:1022B00090936F02A0937002B09371023AD06CD3E6
:1022C000DC01CB018A839B83AC83BD8380916E024A
:1022D00090916F02A0917002B09171022A813B81AE
:1022E0004C815D8179018A01E81AF90A0A0B1B0BFE
:1022F000D801C701803A9648A140B10538F081E085
:1023000090E0909377028093760204C01092770257
:102310001092760281E0898389810F900F900F904F
:102320000F900F90DF91CF911F910F91FF90EF9041
:102330000895CF93DF93CDB7DEB78091780291E017
:10234000980F90937802882361F081E090E0909359
:102350007702809376028091780281508093780290
:1023600006C0DEDC80917802815080937802DF9194
:10237000CF910895CF93DF9300D000D01F921F928A
:10238000CDB7DEB78DEC9CECACECBDE389839A83D2
:10239000AB83BC831D821E821F8218861092490562
:1023A0001092480557D3BEDE80912B0290912C02EB
:1023B000FC0111821082C0DDF89433DF80912B0282
:1023C00090912C02FC018081918121E0892B09F000
:1023D00020E0822F80934805789417C080912B02CB
:1023E00090912C02FC018081918121E0892B09F4DC
:1023F00020E0822F809349059091490581E099233F
:1024000009F080E08093480514DF80914805882317
:1024100029F772DEF89480E090E028960FB6F894E1
:10242000DEBF0FBECDBFDF91CF9108955058BB27BF
:10243000AA270ED05CC14DD130F052D120F031F43A
:102440009F3F11F41EF442C10EF4E095E7FB0FC16B
:10245000E92F5ED180F3BA176207730784079507E7
:1024600018F071F49EF58DC10EF4E0950B2EBA2F85
:10247000A02D0B01B90190010C01CA01A00111248A
:10248000FF27591B99F0593F50F4503E68F11A1636
:10249000F040A22F232F342F4427585FF3CF4695C7
:1024A00037952795A795F0405395C9F77EF41F16E9
:1024B000BA0B620B730B840BBAF09150A1F0FF0FB3
:1024C000BB1F661F771F881FC2F70EC0BA0F621F9F
:1024D000731F841F48F4879577956795B795F7958F
:1024E0009E3F08F0B3CF9395880F08F09927EE0F21
:1024F0009795879508952ED180F09F3740F49111DC
:102500000EF440C160E070E080E89FE3089526F09B
:102510001B16611D711D811DB0C0CAC084D008F496
:1025200081E0089504D06894B1112CC10895F8D0C9
:1025300088F09F5790F0B92F9927B751A0F0D1F0AC
:10254000660F771F881F991F1AF0BA95C9F712C036
:10255000B13081F016D1B1E0089513C1672F782F03
:102560008827B85F39F0B93FCCF3869577956795A2
:10257000B395D9F73EF490958095709561957F4F0E
:102580008F4F9F4F0895E89409C097FB3EF49095B4
:102590008095709561957F4F8F4F9F4F9923A9F03C
:1025A000F92F96E9BB279395F695879577956795CB
:1025B000B795F111F8CFFAF4BB0F11F460FF1BC00F
:1025C0006F5F7F4F8F4F9F4F16C0882311F096E9A2
:1025D00011C0772321F09EE8872F762F05C0662350
:1025E00071F096E8862F70E060E02AF09A95660F09
:1025F000771F881FDAF7880F9695879597F90895C2
:10260000A9D080F09F3740F491110EF0BBC060E07C
:1026100070E080E89FEB089526F41B16611D711D84
:10262000811D2BC045C0990F0008550FAA0BE0E88B
:10263000FEEF16161706E807F907C0F01216130684
:10264000E407F50798F0621B730B840B950B39F4C4
:102650000A2661F0232B242B252B21F408950A262A
:1026600009F4A140A6958FEF811D811D089597F96A
:102670009F6780E870E060E00895882371F4772315
:1026800021F09850872B762F07C0662311F49927E5
:102690000DC09051862B70E060E02AF09A95660F8D
:1026A000771F881FDAF7880F9695879597F9089511
:1026B0009F3F31F0915020F4879577956795B795B6
:1026C000880F911D9695879597F908959FEF80EC57
:1026D000089500240A941616170618060906089588
:1026E00000240A9412161306140605060895092EEE
:1026F0000394000C11F4882352F0BB0F40F4BF2B5D
:1027000011F460FF04C06F5F7F4F8F4F9F4F08959C
:1027100057FD9058440F551F59F05F3F71F0479592
:10272000880F97FB991F61F09F3F79F08795089577
:10273000121613061406551FF2CF4695F1DF08C096
:10274000161617061806991FF1CF869571056105B3
:1027500008940895E5DFA0F0BEE7B91788F4BB2719
:102760009F3860F41616B11D672F782F8827985F61
:10277000F7CF869577956795B11D93959639C8F3F0
:102780000895E894BB2766277727CB0197F908952A
:102790004ADF08F48FEF08950BD0A9CF9ADF28F015
:1027A0009FDF18F0952309F062CF90CF1124EACF74
:1027B000AFDFA0F3959FD1F3950F50E0551F629FB7
:1027C000F001729FBB27F00DB11D639FAA27F00D8A
:1027D000B11DAA1F649F6627B00DA11D661F829FB1
:1027E0002227B00DA11D621F739FB00DA11D621F96
:1027F000839FA00D611D221F749F3327A00D611DB3
:10280000231F849F600D211D822F762F6A2F112494
:102810009F5750408AF0E1F088234AF0EE0FFF1FE7
:10282000BB1F661F771F881F91505040A9F79E3F1E
:10283000510570F01CCFA6CF5F3FECF3983EDCF360
:10284000869577956795B795F795E7959F5FC1F75B
:10285000FE2B880F911D9695879597F908951F92E5
:102860000F920FB60F9211248F939F93AF93BF9344
:10287000CF93DF93CDB7DEB72597DEBFCDBF809175
:102880007D0290917E02A0917F02B09180028983A7
:102890009A83AB83BC83809181028D8389819A81E5
:1028A000AB81BC810196A11DB11D89839A83AB8345
:1028B000BC838D818D5F8D838D818D3770F08D818F
:1028C0008D578D8389819A81AB81BC810196A11D31
:1028D000B11D89839A83AB83BC838D8180938102F0
:1028E00089819A81AB81BC8180937D0290937E0225
:1028F000A0937F02B09380028091790290917A0236
:10290000A0917B02B0917C020196A11DB11D809324
:10291000790290937A02A0937B02B0937C0200002C
:102920000F900F900F900F900F90DF91CF91BF916C
:10293000AF919F918F910F900FBE0F901F901895A0
:10294000CF93DF9300D01F921F92CDB7DEB78FE5F4
:1029500090E0FC0180818983F89480917D029091C0
:102960007E02A0917F02B09180028A839B83AC8318
:10297000BD838FE590E02981FC0120838A819B81C2
:10298000AC81BD81BC01CD010F900F900F900F90D5
:102990000F90DF91CF910895CF93DF9300D000D0B7
:1029A000CDB7DEB78FE590E0FC0180818D83F89490
:1029B0008091790290917A02A0917B02B0917C0281
:1029C00089839A83AB83BC8386E490E0FC01808199
:1029D0008E8385E390E0FC018081882F90E08170F8
:1029E0009927892B71F08E818F3F59F089819A81C7
:1029F000AB81BC810196A11DB11D89839A83AB83F4
:102A0000BC838FE590E02D81FC01208389819A8130
:102A1000AB81BC812227382F492F5A2F8E81882FD6
:102A200090E0A0E0B0E0820F931FA41FB51F880FB5
:102A3000991FAA1FBB1F880F991FAA1FBB1FBC018C
:102A4000CD0126960FB6F894DEBF0FBECDBFDF9145
:102A5000CF910895CF93DF93CDB7DEB7789484E418
:102A600090E0FC01208184E490E02260FC0120835E
:102A700084E490E0FC01208184E490E02160FC018A
:102A8000208385E490E0FC01208185E490E02260D1
:102A9000FC01208385E490E0FC01208185E490E046
:102AA0002160FC0120838EE690E0FC0120818EE60F
:102AB00090E02160FC01208381E890E0FC0110821D
:102AC00081E890E0FC01208181E890E02260FC0137
:102AD000208381E890E0FC01208181E890E0216082
:102AE000FC01208380E890E0FC01208180E890E0F8
:102AF0002160FC01208381EB90E0FC01208181EBCF
:102B000090E02460FC01208380EB90E0FC012081B8
:102B100080EB90E02160FC01208381E990E0FC01E2
:102B2000208181E990E02260FC01208381E990E02E
:102B3000FC01208181E990E02160FC01208380E993
:102B400090E0FC01208180E990E02160FC0120837D
:102B500081EA90E0FC01208181EA90E02260FC01A2
:102B6000208381EA90E0FC01208181EA90E02160ED
:102B7000FC01208380EA90E0FC01208180EA90E063
:102B80002160FC01208381E291E0FC01208181E24F
:102B900091E02260FC01208381E291E0FC01208130
:102BA00081E291E02160FC01208380E291E0FC0160
:102BB000208180E291E02160FC0120838AE790E09F
:102BC000FC0120818AE790E02460FC0120838AE7F1
:102BD00090E0FC0120818AE790E02260FC012083E4
:102BE0008AE790E0FC0120818AE790E02160FC0107
:102BF00020838AE790E0FC0120818AE790E020684A
:102C0000FC01208381EC90E0FC0110820000DF9148
:102C1000CF910895CF93DF93CDB7DEB7F89481E0DD
:102C2000DF91CF910895CF93DF931F921F92CDB77D
:102C3000DEB79A8389838FE590E029813A81F90193
:102C40002081FC01208300000F900F90DF91CF9135
:102C50000895CF93DF9300D0CDB7DEB79B838A83EF
:102C60008A819B81FC01848D882F90E02A813B81A1
:102C7000820F931F835A9F4FFC01808189838A8131
:102C80009B81FC01848D882F90E001968F73907852
:102C9000992324F40197806C9F6F0196282F8A81D5
:102CA0009B81FC01248F8A819B81FC018689978905
:102CB0002981FC0120838A819B81FC018089918983
:102CC000FC0180818370282F20648A819B81FC0114
:102CD00080899189FC0120838A819B81FC01238D5D
:102CE0008A819B81FC01948D81E0291709F080E0A5
:102CF000882379F08A819B81FC0182899389FC0178
:102D000020818A819B81FC01828993892F7DFC012E
:102D1000208300000F900F900F90DF91CF910895C6
:102D2000CF93DF9300D000D000D0CDB7DEB79C8327
:102D30008B834D835E836F837887298780E099E05A
:102D4000ADE3B0E02D813E814F815885BC01CD01BE
:102D50000E948D22DA01C9010197A109B109B69536
:102D6000A795979587959A8389838B819C81FC0190
:102D70008089918922E0FC0120838D819E81AF8131
:102D8000B8858115914EA105B10529F089819A81F7
:102D900081159041F0F08B819C81FC0180899189A3
:102DA000FC01108280E894E8AEE1B0E02D813E8124
:102DB0004F815885BC01CD010E948D22DA01C901E5
:102DC0000197A109B109B695A795979587959A831B
:102DD000898389819A81292F33278B819C81FC01EA
:102DE00084859585FC0120838B819C81FC018685EF
:102DF00097852981FC0120838B819C81FC01108EA9
:102E00008B819C81FC01848995892985FC01208323
:102E10008B819C81FC0182899389FC0120818B81BB
:102E20009C81FC01828993892061FC0120838B8134
:102E30009C81FC0182899389FC0120818B819C818A
:102E4000FC01828993892860FC0120838B819C810D
:102E5000FC0182899389FC0120818B819C81FC018A
:102E6000828993892068FC0120838B819C81FC01ED
:102E700082899389FC0120818B819C81FC0182895C
:102E800093892F7DFC012083000029960FB6F894CA
:102E9000DEBF0FBECDBFDF91CF910895CF93DF93FB
:102EA0001F921F92CDB7DEB79A83898389819A8159
:102EB000FC01818D882F90E09C01205C3F4F89812F
:102EC0009A81FC01828D882F90E0A901481B590B43
:102ED000CA018F7399270F900F90DF91CF910895BA
:102EE000CF93DF931F921F92CDB7DEB79A8389836A
:102EF00089819A81FC01218D89819A81FC01928DC1
:102F000081E0291709F080E0882319F08FEF9FEF07
:102F10000FC089819A81FC01828D882F90E02981E0
:102F20003A81820F931F4D96FC018081882F90E09B
:102F30000F900F90DF91CF910895CF93DF9300D042
:102F4000CDB7DEB79B838A838A819B81FC01218D6B
:102F50008A819B81FC01928D81E0291709F080E034
:102F6000882319F08FEF9FEF1CC08A819B81FC01A1
:102F7000828D882F90E02A813B81820F931F4D968E
:102F8000FC01808189838A819B81FC01828D8F5F16
:102F9000282F2F738A819B81FC01228F8981882FA2
:102FA00090E00F900F900F90DF91CF910895CF9305
:102FB000DF9300D01F92CDB7DEB79C838B838B81CC
:102FC0009C81FC01838D89838B819C81FC01848D94
:102FD0008A8399818A81981768F08981882F90E087
:102FE0002FE330E0281B390B8A81882F90E0820F75
:102FF000931F0BC08A81282F30E08981882F90E0B1
:10300000A901481B590BCA0101970F900F900F900F
:103010000F90DF91CF910895CF93DF931F921F926E
:10302000CDB7DEB79A83898389819A81FC01908D1F
:1030300081E08927882309F04DC089819A81FC01AC
:1030400082899389FC018081882F90E08072992782
:10305000892B69F489819A81FC0180899189FC011D
:103060008081882F90E080749927892B11F481E06A
:1030700001C080E0882379F18FE590E0FC01808138
:1030800088237CF089819A81FC0182899389FC01E3
:103090008081882F90E080729927892B11F081E040
:1030A00001C080E0882349F289819A81FC018089EE
:1030B0009189FC018081882F90E08072992721E01E
:1030C000892B09F420E0222309F4B7CF89819A8162
:1030D000C0DDB3CF00000F900F90DF91CF91089526
:1030E000CF93DF9300D000D01F921F92CDB7DEB7F1
:1030F0009F838E8368878E819F8121E0FC01208FD2
:103100008E819F81FC01238D8E819F81FC01848DA6
:10311000281779F48E819F81FC0180899189FC01B7
:103120008081882F90E080729927892B11F081E0AF
:1031300001C080E0882359F18FE590E0FC01808197
:103140008C8368DD898389818823D9F08E819F8172
:10315000FC01868997892885FC0120838E819F81C7
:10316000FC0180899189FC0180818370282F206473
:103170008E819F81FC0180899189FC0120831982C5
:10318000E2CFCE0104964FDD81E090E06EC08E81EB
:103190009F81FC01838D882F90E001968F7390783A
:1031A000992324F40197806C9F6F01968B838E8105
:1031B0009F81FC01948D81E02B81291709F080E02B
:1031C0008823F9F08FE590E0FC0180818095881FCD
:1031D0008827881F882359F38E819F81FC0180896D
:1031E0009189FC018081882F90E08072992721E0ED
:1031F000892B09F420E02223D1F28E819F8129DDE1
:10320000D6CF8E819F81FC01838D882F90E02E8107
:103210003F81820F931F835A9F4F2885FC01208393
:103220008FE590E0FC0180818D83F4DC8A838A81C4
:103230008823B1F08E819F812B81FC01238F8E81A9
:103240009F81FC0182899389FC0120818E819F816D
:10325000FC01828993892062FC0120831A82E7CFD6
:10326000CE010596E0DC81E090E028960FB6F89458
:10327000DEBF0FBECDBFDF91CF910895CF93DF9317
:103280001F921F92CDB7DEB79A83898324E632E07E
:1032900089819A81FC013183208389819A81FC0193
:1032A0001382128200000F900F90DF91CF9108954A
:1032B000CF93DF931F921F92CDB7DEB79A83898396
:1032C00080E090E00F900F90DF91CF910895CF9321
:1032D000DF931F921F92CDB7DEB79A8389830000D8
:1032E0000F900F90DF91CF910895CF93DF931F92AE
:1032F0001F92CDB7DEB79A83898389819A81BEDF19
:1033000022E532E089819A81FC0131832083298181
:103310003A8188EE93E0A0E0B0E0F90184839583E0
:10332000A683B78300000F900F90DF91CF9108958F
:10333000CF92DF92EF92FF920F931F93CF93DF9381
:10334000CDB7DEB72E970FB6F894DEBF0FBECDBF58
:103350009A8389837C836B835E834D8338872F8335
:103360001A870987FC86EB86DE86CD8689819A815D
:10337000BCDF20E432E089819A81FC013183208323
:1033800089819A812B813C81FC0135872487898141
:103390009A812D813E81FC013787268789819A8118
:1033A0002F813885FC01318B208B89819A81298579
:1033B0003A85FC01338B228B89819A812B853C8550
:1033C000FC01358B248B89819A812D853E85FC01FA
:1033D000378B268B89819A81FC01118E89819A8194
:1033E000FC01128E89819A81FC01138E89819A8158
:1033F000FC01148E00002E960FB6F894DEBF0FBEAF
:10340000CDBFDF91CF911F910F91FF90EF90DF9093
:10341000CF900895CF93DF9300D01F92CDB7DEB742
:103420009C838B838B819C81FC0180899189FC0129
:103430008081882F90E08470992721E0892B09F002
:1034400020E0222371F18B819C81FC018689978980
:10345000FC01808189838B819C81FC01818D8F5F40
:103460008F738A838B819C81FC01928D81E02A81FC
:10347000291709F480E08823D9F08B819C81FC0115
:10348000818D882F90E02B813C81820F931F4D9678
:103490002981FC0120838B819C812A81FC01218F61
:1034A00007C08B819C81FC0186899789FC01808102
:1034B00000000F900F900F900F90DF91CF91089523
:1034C0001F920F920FB60F9211240BB60F922F93EB
:1034D0003F934F935F936F937F938F939F93AF939C
:1034E000BF93EF93FF93CF93DF93CDB7DEB782E81F
:1034F00092E090DF0000DF91CF91FF91EF91BF91BB
:10350000AF919F918F917F916F915F914F913F917B
:103510002F910F900BBE0F900FBE0F901F9018951C
:103520001F920F920FB60F9211240BB60F922F938A
:103530003F934F935F936F937F938F939F93AF933B
:10354000BF93EF93FF93CF93DF93CDB7DEB782E8BE
:1035500092E07FDB0000DF91CF91FF91EF91BF916F
:10356000AF919F918F917F916F915F914F913F911B
:103570002F910F900BBE0F900FBE0F901F901895BC
:10358000CF92DF92EF92FF920F931F93CF93DF932F
:1035900000D01F92CDB7DEB79A8389837C836B837B
:1035A00089819A810197C9F48B819C810196A9F444
:1035B0000F2EF6ECCF2ED12CF02D0F2EF2ECEF2E9D
:1035C000F12CF02D01EC10E020EC30E044EC50E068
:1035D00065EC70E082E892E0ABDE00000F900F90A7
:1035E0000F900F90DF91CF911F910F91FF90EF906F
:1035F000DF90CF900895CF93DF93CDB7DEB76FEF15
:103600007FEF81E090E0BCDFDF91CF9108951F92C2
:103610000F920FB60F9211240BB60F922F933F9378
:103620004F935F936F937F938F939F93AF93BF93CA
:10363000EF93FF93CF93DF93CDB7DEB78FE193E0A6
:10364000E9DE0000DF91CF91FF91EF91BF91AF9143
:103650009F918F917F916F915F914F913F912F91AA
:103660000F900BBE0F900FBE0F901F9018951F92DA
:103670000F920FB60F9211240BB60F922F933F9318
:103680004F935F936F937F938F939F93AF93BF936A
:10369000EF93FF93CF93DF93CDB7DEB78FE193E046
:1036A000D8DA0000DF91CF91FF91EF91BF91AF91F8
:1036B0009F918F917F916F915F914F913F912F914A
:1036C0000F900BBE0F900FBE0F901F901895CF92CA
:1036D000DF92EF92FF920F931F93CF93DF9300D06F
:1036E0001F92CDB7DEB79A8389837C836B838981F0
:1036F0009A810197C9F48B819C810196A9F40F2EC0
:10370000FEECCF2ED12CF02D0F2EFAECEF2EF12C5B
:10371000F02D09EC10E028EC30E04CEC50E06DECC2
:1037200070E08FE193E004DE00000F900F900F90A7
:103730000F90DF91CF911F910F91FF90EF90DF904D
:10374000CF900895CF93DF93CDB7DEB76FEF7FEFC4
:1037500081E090E0BCDFDF91CF9108951F920F923E
:103760000FB60F9211240BB60F922F933F934F93E6
:103770005F936F937F938F939F93AF93BF93EF93D9
:10378000FF93CF93DF93CDB7DEB78CEB93E042DEB0
:103790000000DF91CF91FF91EF91BF91AF919F9189
:1037A0008F917F916F915F914F913F912F910F90EA
:1037B0000BBE0F900FBE0F901F9018951F920F9287
:1037C0000FB60F9211240BB60F922F933F934F9386
:1037D0005F936F937F938F939F93AF93BF93EF9379
:1037E000FF93CF93DF93CDB7DEB78CEB93E031DA65
:1037F0000000DF91CF91FF91EF91BF91AF919F9129
:103800008F917F916F915F914F913F912F910F9089
:103810000BBE0F900FBE0F901F901895CF92DF92A6
:10382000EF92FF920F931F93CF93DF9300D01F92DD
:10383000CDB7DEB79A8389837C836B8389819A8134
:103840000197C9F48B819C810196A9F40F2EF6EDA6
:10385000CF2ED12CF02D0F2EF2EDEF2EF12CF02DDE
:1038600001ED10E020ED30E044ED50E065ED70E05A
:103870008CEB93E05DDD00000F900F900F900F90A8
:10388000DF91CF911F910F91FF90EF90DF90CF903C
:103890000895CF93DF93CDB7DEB76FEF7FEF81E071
:1038A00090E0BCDFDF91CF9108951F920F920FB689
:1038B0000F9211240BB60F922F933F934F935F9368
:1038C0006F937F938F939F93AF93BF93EF93FF93E8
:1038D000CF93DF93CDB7DEB789E594E09BDD0000A1
:1038E000DF91CF91FF91EF91BF91AF919F918F9118
:1038F0007F916F915F914F913F912F910F900BBEF0
:103900000F900FBE0F901F9018951F920F920FB639
:103910000F9211240BB60F922F933F934F935F9307
:103920006F937F938F939F93AF93BF93EF93FF9387
:10393000CF93DF93CDB7DEB789E594E08AD9000055
:10394000DF91CF91FF91EF91BF91AF919F918F91B7
:103950007F916F915F914F913F912F910F900BBE8F
:103960000F900FBE0F901F901895CF92DF92EF929D
:10397000FF920F931F93CF93DF9300D01F92CDB789
:10398000DEB79A8389837C836B8389819A810197CF
:10399000D9F48B819C810196B9F40F2EF6E3CF2EDA
:1039A000DD24D394F02D0F2EF2E3EF2EFF24F394B9
:1039B000F02D01E311E020E331E044E351E065E361
:1039C00071E089E594E0B4DC00000F900F900F9057
:1039D0000F90DF91CF911F910F91FF90EF90DF90AB
:1039E000CF900895CF93DF93CDB7DEB76FEF7FEF22
:1039F00081E090E0BADFDF91CF9108950F931F939C
:103A0000CF93DF9300D01F92CDB7DEB79A8389831F
:103A10007C836B838B819C81892B19F480E090E0FF
:103A200014C089819A81FC01808191810296FC01F8
:103A3000008111818B819C811BD6AC012B813C8143
:103A400089819A81B901F80119950F900F900F9013
:103A50000F90DF91CF911F910F910895CF93DF9336
:103A600000D000D01F921F92CDB7DEB79C838B830E
:103A70007E836D8358874F831A8219828F81988540
:103A80009C012150310938872F8321E0892B09F4CB
:103A900020E0222319F18B819C81FC01808191819E
:103AA000FC01208131818D819E81AC014F5F5F4F90
:103AB0005E834D83FC0140818B819C81642FF901E1
:103AC000199521E0892B09F420E0222331F0898126
:103AD0009A8101969A838983D1CF000089819A8146
:103AE00028960FB6F894DEBF0FBECDBFDF91CF9101
:103AF0000895CF93DF9300D01F92CDB7DEB79A839E
:103B000089837C836B832B813C8189819A81B90174
:103B100075DF0F900F900F900F90DF91CF91089568
:103B2000CF93DF9300D0CDB7DEB79A8389836B83C1
:103B300089819A81FC0180819181FC012081318100
:103B40004B8189819A81642FF90119950F900F900B
:103B50000F90DF91CF910895CF93DF9300D01F9204
:103B60001F92CDB7DEB79A8389836B835D834C83C5
:103B70008B81882F90E0A0E0B0E02C813D81E9812D
:103B8000FA81AC01BD01CF01C0D00F900F900F9012
:103B90000F900F90DF91CF910895CF93DF9300D0D6
:103BA00000D0CDB7DEB79A8389837C836B835E8335
:103BB0004D838B819C81092E000CAA0BBB0B2D81A0
:103BC0003E81E981FA81AC01BD01CF012BD026965F
:103BD0000FB6F894DEBF0FBECDBFDF91CF91089531
:103BE000CF93DF9300D000D0CDB7DEB79A8389831F
:103BF0007C836B835E834D838B819C81CC01A0E0B1
:103C0000B0E02D813E81E981FA81AC01BD01CF0197
:103C10007CD026960FB6F894DEBF0FBECDBFDF91E5
:103C2000CF910895CF93DF9300D000D000D01F92A2
:103C3000CDB7DEB79C838B834D835E836F8378879C
:103C40003A87298789859A85892B79F48B819C818C
:103C5000FC0180819181FC01208131814D818B812A
:103C60009C81642FF901199547C089859A850A9727
:103C7000C1F58D819E81AF81B885BB2334F58B81E1
:103C80009C816DE24DDF9A8389838D819E81AF8116
:103C9000B885B095A095909581959F4FAF4FBF4F38
:103CA0008D839E83AF83B8878D819E81AF81B885D8
:103CB000EB81FC812AE0AC01BD01CF01B0D19C01B8
:103CC00089819A81820F931F17C08D819E81AF8158
:103CD000B885EB81FC812AE0AC01BD01CF019FD109
:103CE0000BC029858D819E81AF81B885EB81FC81D8
:103CF000AC01BD01CF0193D12A960FB6F894DEBF77
:103D00000FBECDBFDF91CF910895CF93DF9300D049
:103D100000D01F921F92CDB7DEB79A8389834B8361
:103D20005C836D837E8338872F838F819885892B71
:103D300079F489819A81FC0180819181FC01208143
:103D400031814B8189819A81642FF90119950BC0CA
:103D50002F818B819C81AD81BE81E981FA81AC018B
:103D6000BD01CF015CD128960FB6F894DEBF0FBE1F
:103D7000CDBFDF91CF910895CF93DF9300D000D0D6
:103D80001F921F92CDB7DEB79A8389834B835C83E2
:103D90006D837E8338872F832F818B819C81AD81BA
:103DA000BE81E981FA81AC01BD01CF01A3D1289682
:103DB0000FB6F894DEBF0FBECDBFDF91CF9108954F
:103DC000CF93DF931F921F92CDB7DEB79A8389837B
:103DD00089819A816CE172E011DE0F900F90DF9182
:103DE000CF910895CF93DF9300D000D01F92CDB72D
:103DF000DEB79C838B836D835F834E832E813F81EF
:103E00008B819C81A9016D81A7DE9A8389838B8137
:103E10009C81D6DF9C0189819A81820F931F9A83AE
:103E2000898389819A8127960FB6F894DEBF0FBEE9
:103E3000CDBFDF91CF910895CF93DF9300D000D015
:103E40001F921F92CDB7DEB79C838B837E836D83D9
:103E500058874F834F8158852D813E818B819C816E
:103E6000B9019BDE9A8389838B819C81A9DF9C01A8
:103E700089819A81820F931F9A83898389819A818C
:103E800028960FB6F894DEBF0FBECDBFDF91CF915D
:103E90000895CF93DF9300D000D01F921F92CDB72B
:103EA000DEB79C838B837E836D8358874F834F81DE
:103EB00058852D813E818B819C81B90191DE9A8349
:103EC00089838B819C817CDF9C0189819A81820F0F
:103ED000931F9A83898389819A8128960FB6F894D3
:103EE000DEBF0FBECDBFDF91CF910895CF93DF939B
:103EF00000D000D000D01F92CDB7DEB79C838B835B
:103F00004D835E836F8378873A87298729853A8531
:103F10008D819E81AF81B885EB81FC81AC01BD01B3
:103F2000CF0180DE9A8389838B819C8149DF9C014C
:103F300089819A81820F931F9A83898389819A81CB
:103F40002A960FB6F894DEBF0FBECDBFDF91CF919A
:103F50000895CF93DF9300D000D000D01F92CDB74B
:103F6000DEB79C838B834D835E836F8378873A872C
:103F7000298729853A858D819E81AF81B885EB811E
:103F8000FC81AC01BD01CF01C0DE9A8389838B81A6
:103F90009C8116DF9C0189819A81820F931F9A83ED
:103FA000898389819A812A960FB6F894DEBF0FBE65
:103FB000CDBFDF91CF910895CF93DF9300D000D094
:103FC00000D01F92CDB7DEB79C838B834D835E8379
:103FD0006F8378873A87298729853A858D819E81E5
:103FE000AF81B885EB81FC81AC01BD01CF01C4DE9E
:103FF0009A8389838B819C81E3DE9C0189819A81EC
:10400000820F931F9A83898389819A812A960FB69A
:10401000F894DEBF0FBECDBFDF91CF910895CF934F
:10402000DF93CDB7DEB7AB970FB6F894DEBF0FBE08
:10403000CDBF9EA38DA34FA358A769A77AA72BA78F
:10404000CE01049680969A83898389819A81FC01A6
:1040500010828BA5823010F48AE08BA78BA5282FC5
:1040600030E040E050E08FA198A5A9A5BAA5BC0119
:10407000CD0153D2DC01CB018B838BA5282F30E0FF
:1040800040E050E08FA198A5A9A5BAA5BC01CD013B
:1040900044D2DA01C9018FA398A7A9A7BAA78B8137
:1040A0008A3024F48B81805D282F03C08B81895C4A
:1040B000282F89819A8101979A83898389819A819E
:1040C000FC0120838FA198A5A9A5BAA5892B8A2BCD
:1040D0008B2B09F0C3CF29813A818DA19EA1B90113
:1040E0008DDCAB960FB6F894DEBF0FBECDBFDF916F
:1040F000CF910895CF92DF92EF92FF921F93CF93CB
:10410000DF93CDB7DEB768970FB6F894DEBF0FBE6A
:10411000CDBF9B8B8A8B4C8B5D8B6E8B7F8B288F5F
:104120001A8219822C893D894E895F896C897D8923
:104130008E899F898DD2882311F081E001C080E0B3
:10414000882331F08A899B896FE172E0D2DC30C12B
:104150008C899D89AE89BF896C017D01E894F7F84F
:1041600011E02FEF3FEF4FE75FE7C701B60170D2D5
:10417000882359F42FEF3FEF4FE75FE7C701B60100
:104180000E948E1218160CF410E081E08127882F0F
:1041900090E08170882331F08A899B8963E272E024
:1041A000A8DC06C12FEF3FEF4FE75FE46C897D8904
:1041B0008E899F890E94C813181634F48A899B89B6
:1041C00067E272E096DCF4C02FEF3FEF4FE75FEC61
:1041D0006C897D898E899F890E948E12882334F490
:1041E0008A899B8967E272E084DCE2C020E030E0EB
:1041F000A9016C897D898E899F890E948E128823EE
:10420000A4F48A899B896DE28BDC9C0189819A8167
:10421000820F931F9A8389838C899D89AE89BF8978
:10422000B0588C8B9D8BAE8BBF8B80E090E0A0E074
:10423000BFE38B839C83AD83BE831F829F81888D68
:10424000981798F420E030E040E251E46B817C81E3
:104250008D819E818CD1DC01CB018B839C83AD83CE
:10426000BE838F818F5F8F83E9CF2B813C814D810E
:104270005E816C897D898E899F890E941712DC017D
:10428000CB018C8B9D8BAE8BBF8B6C897D898E898E
:104290009F890E949712DC01CB018C879D87AE8796
:1042A000BF876C857D858E859F850E94C312DC014A
:1042B000CB019C01AD016C897D898E899F890E940B
:1042C0001612DC01CB0188879987AA87BB878C856A
:1042D0009D85AE85BF85EA89FB892AE030E0AC0187
:1042E000BD01CF0112DD9C0189819A81820F931F4C
:1042F0009A838983888D882359F08A899B896EE205
:104300000FDC9C0189819A81820F931F9A83898394
:10431000888D9FEF980F988F91E0882309F490E0A3
:10432000992309F443C020E030E040E251E468857D
:1043300079858A859B850E94CC13DC01CB01888717
:104340009987AA87BB87688579858A859B850E941E
:104350009712DC01CB01998B888B288939898A894E
:104360009B894AE050E0B9013BDC9C0189819A813C
:10437000820F931F9A83898388899989CC01A0E051
:10438000B0E0BC01CD010E94C312DC01CB019C0155
:10439000AD01688579858A859B850E941612DC01AE
:1043A000CB0188879987AA87BB87B2CF89819A81F9
:1043B00068960FB6F894DEBF0FBECDBFDF91CF91E8
:1043C0001F91FF90EF90DF90CF900895CF93DF93F0
:1043D00000D01F92CDB7DEB79C838B830E94A014C0
:1043E000DC01CB012B813C81F90180879187A28779
:1043F000B3878B819C81FC01808191810A96FC01AD
:10440000208131818B819C81F90119959A8389835F
:1044100089819A8199231CF089819A8122C00E9406
:10442000A0149B01AC018B819C81FC01808591854E
:10443000A285B385281B390B4A0B5B0B8B819C81B2
:10444000FC0184819581A681B78161E02817390735
:104450004A075B0708F060E0662309F0CACF8FEFD8
:104460009FEF0F900F900F900F90DF91CF910895D5
:10447000CF93DF9300D000D000D01F92CDB7DEB72E
:104480009E838D8378876F835A8749871A82198222
:1044900029813A8189859A8528173907D0F48D8139
:1044A0009E8194DF9C838B838B819C81992384F0F4
:1044B0008F8198859C012F5F3F4F38872F832B81F9
:1044C000FC01208389819A8101969A838983E0CFB8
:1044D000000089819A812A960FB6F894DEBF0FBE3C
:1044E000CDBFDF91CF910895CF93DF93CDB7DEB7E6
:1044F000B4D0AA1BBB1B51E107C0AA1FBB1FA61744
:10450000B70710F0A61BB70B881F991F5A95A9F77C
:1045100080959095BC01CD010895A1E21A2EAA1BA9
:10452000BB1BFD010DC0AA1FBB1FEE1FFF1FA21763
:10453000B307E407F50720F0A21BB30BE40BF50B60
:10454000661F771F881F991F1A9469F760957095E9
:10455000809590959B01AC01BD01CF010895EE0FB0
:10456000FF1F881F8BBF0790F691E02D199412D082
:104570000C9477130E94701358F00E94691340F056
:1045800029F45F3F29F00C94371351110C94C21396
:104590000C9466130E94881368F39923B1F3552392
:1045A00091F3951B550BBB27AA2762177307840746
:1045B00038F09F5F5F4F220F331F441FAA1FA9F3DC
:1045C00035D00E2E3AF0E0E832D091505040E695CA
:1045D000001CCAF72BD0FE2F29D0660F771F881F2B
:1045E000BB1F261737074807AB07B0E809F0BB0B1E
:1045F000802DBF01FF2793585F4F3AF09E3F510532
:1046000078F00C9437130C94C2135F3FE4F3983E98
:10461000D4F3869577956795B795F7959F5FC9F71A
:10462000880F911D9695879597F90895E1E0660F9B
:10463000771F881FBB1F621773078407BA0720F014
:10464000621B730B840BBA0BEE1F88F7E09508957D
:104650000E941313880B990B089581E090E0F89461
:1046600010C0DC0101C06D9341505040E0F7089547
:10467000FC0101900020E9F7809590958E0F9F1F17
:064680000895F894FFCF3D
:10468600A800D70006012201C400F3003E01510133
:104696000000000000000000000040C20D0A006E8D
:1046A600616E00696E66006F7666006C0241726428
:1046B600756E696F20446174613A20000000000045
:1046C60070182E1DD7170C184E179D17701700005F
:1046D600000074222E1D5819671974227422742240
:0C46E6000000000074222E1D58196719F6
:00000001FF
