:10000000F5C0000024C1000022C1000020C1000092
:100010001EC100001CC100001AC1000018C1000070
:1000200016C1000014C1000012C1000010C1000080
:100030000EC100000CC100000AC1000008C1000090
:1000400006C1000004C1000002C1000000C10000A0
:10005000FEC00000FCC00000FAC000000C94482D57
:10006000F6C000000C94792F0C94AF2FF0C0000064
:10007000EEC00000ECC00000EAC00000E8C00000D4
:10008000E6C00000E4C00000E2C00000E0C00000E4
:100090000C9405300C943B30DAC00000D8C000004E
:1000A000D6C00000D4C00000D2C00000D0C0000004
:1000B000CEC00000CCC00000CAC00000C8C0000014
:1000C000C6C00000C4C000000C94481E0C949130BF
:1000D0000C94C730BCC000000C941D310C945331FB
:1000E000B6C00000001D3A2774694E53E8F5D2CF20
:1000F0009C81A6BBCDD0F7EAB9A4839E25381F0208
:10010000514C6B76879ABDA0F3EEC9D46F725548F7
:100110001B06213C4A57706D3E230419A2BF9885E7
:10012000D6CBECF1130E2934677A5D40FBE6C1DCD7
:100130008F92B5A8DEC3E4F9AAB7908D362B0C11C7
:10014000425F78659489AEB3E0FDDAC77C61465BB7
:100150000815322F5944637E2D30170AB1AC8B96A7
:10016000C5D8FFE2263B1C01524F6875CED3F4E997
:10017000BAA7809DEBF6D1CC9F82A5B8031E392487
:10018000776A4D50A1BC9B86D5C8EFF24954736E77
:100190003D20071A6C71564B1805223F8499BEA367
:1001A000F0EDCAD735280F12415C7B66DDC0E7FA57
:1001B000A9B4938EF8E5C2DF8C91B6AB100D2A3747
:1001C00064795E43B2AF8895C6DBFCE15A47607D37
:1001D0002E3314097F6245580B16312C978AADB027
:1001E000E3FED9C4D82F6430F0307C3111241FBE17
:1001F000CFEFD1E2DEBFCDBF00E00CBF13E0A0E047
:10020000B2E0E4E5F7E600E00BBF02C007900D9214
:10021000A639B107D9F722E1A6E9B3E001C01D92E2
:10022000AA39B207E1F710E0C6EFD0E000E006C05F
:1002300021970109802FFE010E941B32C23FD10786
:1002400080E00807A9F70E946B2A0C94A833D8CE47
:100250008F929F92AF92BF92CF92DF92EF92FF92D6
:100260004B015C010E940111882399F0C090881213
:10027000D0908912E0908A12F0908B12C701B601DB
:10028000FF90EF90DF90CF90BF90AF909F908F90B6
:100290000895C501B4010E94BC108111E7CF20E090
:1002A00030E0A901C501B4010E94592B882329F12E
:1002B00020E030E040EE50E4C501B4010E94E52B9F
:1002C0006B017C0120E030E0A9010E94592B8823BA
:1002D000A1F020E030E0A901C501B4010E94592B32
:1002E00087FFCCCF20E030E040EE50E4C701B601FC
:1002F0000E94F52A6B017C01C1CFC12CD12C760163
:10030000BDCF4F925F926F927F928F929F92AF92EA
:10031000BF92CF92DF92EF92FF920F931F93CF93F2
:10032000DF93CDB7DEB766970FB6F894DEBF0FBE8A
:10033000CDBF6B017C0189014D83598320E030E002
:1003400040E85FEB0E94592B882309F42BC120E081
:1003500030E040E85FEBB8018D8199810E94592B14
:10036000882309F439C198014D815981B601C7012B
:100370000E94592B882309F433C120E030E040E08B
:1003800050E4B8018D8199810E94F52A0E945D2B6D
:100390009B012150304C220F331F220F331F3A8311
:1003A000298320E030E040E050E4B601C7010E941C
:1003B000F52A0E945D2B6150704C8B01000F111FBC
:1003C000000F111FF801E15EF84FEE24E39420E0E6
:1003D00030E0A90160817181828193810E94592B53
:1003E000811101C0E12CFF24F39420E030E0A90149
:1003F000E981FA81E15EF84F6081718182819381A8
:100400000E94592B811101C0F12CFE24EE24E394AB
:1004100020E030E0A901F801E15CF84F60817181D2
:10042000828193810E94592B811101C0E12CDD242E
:10043000D39420E030E0A901E981FA81E15CF84F32
:1004400060817181828193810E94592B811101C049
:10045000D12CED24F801E15AF84F11E020E030E012
:10046000A90160817181828193810E94592B811140
:1004700001C010E049815A81415A584F5A8349833B
:1004800001E020E030E0A901A981BA816D917D9160
:100490008D919C910E94592B811101C000E0812F08
:1004A00080270FE117E01E8A1D8A2E2D30E050E0D4
:1004B00040E029873A874B875C87282F30E050E05F
:1004C00040E02D873E874F87588B8F2D90E0B0E01E
:1004D000A0E0898B9A8BAB8BBC8BD8014D905D9043
:1004E0006D907D908D015C962D913D914D915C912B
:1004F0005F9729833A834B835C8369857A858B85F3
:100500009C850E94902B4B015C01D801DC962D91BB
:100510003D914D915C91DF972D833E834F835887AA
:100520006D857E858F8598890E94902B6B017C015B
:1005300069897A898B899C890E94902BA3019201F9
:100540000E94592B811153C0A501940169817A81C0
:100550008B819C810E94592B811149C0A701960172
:100560006D817E818F8198850E94592B81113FC0BA
:10057000ED89FE89309709F449C0BF01FF0F880B50
:10058000990B0E94902B20E030E040E85FE30E944E
:10059000F52A20E030E040E050E40E94F42A8B018C
:1005A0008D839983B8018D81998166960FB6F894F1
:1005B000DEBF0FBECDBFDF91CF911F910F91FF9096
:1005C000EF90DF90CF90BF90AF909F908F907F90F3
:1005D0006F905F904F9008958601ED82F982E2CF8F
:1005E00000E010E0F0E8FD832FEB2983DBCF4D899D
:1005F0005E894F5F5F4F5E8B4D8B4830510509F030
:100600006CCF00E010E01D821982CCCF00E010E03A
:1006100050E85D838FEB8983C5CF2F923F924F9235
:100620005F926F927F928F929F92AF92BF92CF9282
:10063000DF92EF92FF920F931F93CF93DF93CDB78B
:10064000DEB7E8970FB6F894DEBF0FBECDBFEFE17F
:10065000F7E080E6DF011D928A95E9F780E090E0FF
:10066000A0E8BFE38093630790936407A0936507B6
:10067000B0936607C0906A02D0906B02E0906C0263
:10068000F0906D02CB86DC86ED86FE86C0906E0211
:10069000D0906F02E0907002F0907102CF86D88AFD
:1006A000E98AFA8A27E237E03A872987312C412CF8
:1006B00090E8592E2FE3622E212C712C812C912C45
:1006C000A12CB12C00E010E020E030E040E85FE336
:1006D0006B857C858D859E850E94592BC22CD72CDD
:1006E0007401811122C0FF24F39420E030E0A901BD
:1006F000B501C8010E94592B811101C0F12CEE24D3
:10070000E39420E030E0A901622D772DC4010E941E
:10071000592B811101C0E12CFE246F2D70E090E077
:1007200080E00E94902B6B017C0120E030E040E8EB
:100730005FE36F85788989899A890E94592B811195
:100740000C94AB0B9924939420E030E0A901B501FF
:10075000C8010E94592B811101C0912C88248394D7
:1007600020E030E0A901632D742D852D962D0E9487
:10077000592B811101C0812C9824692D70E090E0E3
:1007800080E00E94902B262E772E4C01A985BA85F9
:10079000CD92DD92ED92FD92BA87A987822D972D99
:1007A000D401E985FA85848F958FA68FB78FC5010F
:1007B000D80184AF95AFA6AFB7AF3A2C4B2C502ED3
:1007C000612EEF53F74009F0C2C7809387089093DA
:1007D0008808A0938908B0938A081092970810920D
:1007E00098081092990810929A0880917E02909130
:1007F0007F02A0918002B091810280939308909330
:100800009408A0939508B093960843E358E05C8F52
:100810004B8F58A34F8FC12CD12CE12C80E4F82EA4
:10082000C0927F08D0928008E0928108F0928208FE
:1008300020E030E040E85FE32093830830938408B1
:100840004093850850938608C0907602D090770236
:10085000E0907802F090790220E030E040E85FEB31
:10086000C701B6010E94592B81110CC080E090E0B5
:10087000A0E8BFEB80937F0890938008A093810845
:10088000B093820820E030E040E85FEB60917A02AC
:1008900070917B0280917C0290917D020E94592B85
:1008A00081110CC080E090E0A0E8BFEB809383084A
:1008B00090938408A0938508B09386084090970889
:1008C000509098086090990870909A0820917F083D
:1008D000309180084091810850918208C301B20193
:1008E0000E94E52C4B015C0180929F089092A00829
:1008F000A092A108B092A208A3019201609183087E
:100900007091840880918508909186080E94E52C5A
:100910006093A3087093A4088093A5089093A608F9
:1009200020E030E040E85FEBC501B4010E94592BA4
:10093000882351F020E030E040E85FEBC701B601CA
:100940000E94592B81110CC780E090E0A0E8BFEB1A
:1009500080939F089093A008A093A108B093A20849
:10096000C0909F08D090A008E090A108F090A20845
:1009700020E030E040E85FEBC701B6010E94592B50
:10098000811160C780E090E0A0E8BFEB80938B0806
:1009900090938C08A0938D08B0938E08C090A30804
:1009A000D090A408E090A508F090A60820E030E0E0
:1009B00040E85FEBC701B6010E94592B882391F0F4
:1009C00080907A0290907B02A0907C02B0907D0291
:1009D00020E030E040E85FEBC501B4010E94592BF4
:1009E000811139C780E090E0A0E8BFEB80939F08B9
:1009F0009093A008A093A108B093A208C0909F086C
:100A0000D090A008E090A108F090A20820E030E08B
:100A100040E85FEBC701B6010E94592B81118DC7D9
:100A200080E090E0A0E8BFEB80938F08909390085F
:100A3000A0939108B0939208C0908B08C986D0907B
:100A40008C08DB8620908D0830908E08C601D1017D
:100A50008093A3089093A408A093A508B093A60838
:100A6000C0907F08D0908008E0908108F0908208C4
:100A7000CB8ADC8AED8AFE8AC0908308D0908408F5
:100A8000E0908508F0908608CF8AD88EE98EFA8E9D
:100A900040908708509088086090890870908A0874
:100AA0002FE838E03E8F2D8FAD8DBE8DCD90DD903F
:100AB000ED90FD90BE8FAD8F20E030E040E85FEB21
:100AC000C701B6010E94592B882309F443C720E0CF
:100AD00030E040E85FEB69857B85C1010E94592BBE
:100AE000882309F43AC729853B85A101C701B601CE
:100AF0000E94592B882309F433C720E030E040E0FE
:100B000050E469857B85C1010E94F52A0E945D2B16
:100B1000FB013197EE0FFF1FEE0FFF1FE15EF84F55
:100B200020813181428153812B8B3C8B4D8B5E8B9D
:100B3000FB013796EE0FFF1FEE0FFF1FE15EF84F30
:100B400020813181428153812F8B388F498F5A8F79
:100B5000615F7F4FFB01EE0FFF1FEE0FFF1FE15E96
:100B6000F84F408051806280738020E030E040E0A8
:100B700050E4C701B6010E94F52A0E945D2B4B018B
:100B8000FB013197EE0FFF1FEE0FFF1FE15EF84FE5
:100B9000CC24C39420E030E0A9016081718182817E
:100BA00093810E94592B811101C0C12C11E020E0DA
:100BB00030E0A9016B897C898D899E890E94592B1F
:100BC000811101C010E0C126F4013796EE0FFF1F1E
:100BD000EE0FFF1FE15EF84F01E020E030E0A901D9
:100BE00060817181828193810E94592B811101C0A2
:100BF00000E011E020E030E0A9016F89788D898D57
:100C00009A8D0E94592B811101C010E0F02EF1261F
:100C10003FE0830E911CF401EE0FFF1FEE0FFF1F4C
:100C2000E15EF84F11E020E030E0A90160817181C0
:100C3000828193810E94592B811101C010E001E053
:100C400020E030E0A901C301B2010E94592B8111BB
:100C500001C000E0812F80274FE157E0588B4F877C
:100C600010E000E02F2D30E050E040E029AB3AAB3F
:100C70004BAB5CAB282F30E050E040E02DAB3EABFF
:100C80004FAB58AFD12CF12CE12CEF85F889819135
:100C90009191A191B191F88BEF8789A39AA3ABA30E
:100CA000BCA3248D358D468D578D2DA33EA34FA318
:100CB00058A769A97AA98BA99CA90E94902B69A71A
:100CC0007AA78BA79CA7AF85B889DC962D913D911B
:100CD0004D915C91DF972DA73EA74FA758AB6DA90B
:100CE0007EA98FA998AD0E94902B4B015C01C70192
:100CF000B6010E94902B29A13AA14BA15CA10E94B0
:100D0000592B81110C94960F29A53AA54BA55CA5EA
:100D10006DA17EA18FA198A50E94592B81110C94E1
:100D2000960FA50194016DA57EA58FA598A90E9497
:100D3000592B81110C94960F0115110509F410C659
:100D4000B801110F880B990B0E94902B20E030E026
:100D500040E85FE30E94F52A20E030E040E050E404
:100D60000E94F42AED8DFE8DE759F84009F0EEC59A
:100D700009851B85910100939B0810939C08209383
:100D80009D0830939E08CB88DC88ED88FE88C09251
:100D90007F08D0928008E0928108F0928208CF8884
:100DA000D88CE98CFA8CC0928308D0928408E092A7
:100DB0008508F092860840928708509288086092D1
:100DC000890870928A08AF8DB8A19E938E937E9306
:100DD0006E93B8A3AF8F20E030E040E85FE360910E
:100DE0009708709198088091990890919A080E94AC
:100DF000F52A6093970870939808809399089093C8
:100E00009A08EF8DF8A1E751F84009F004CD42E8C7
:100E100052E05A87498710E000E01E0159E0250E94
:100E2000311C31E7832E35E1932EA12CB12CA985FD
:100E3000BA856D917D918D919D91BA87A98720E0AA
:100E400030E040E85FE30E94592B811166C0809139
:100E5000A7089091A808A091A908B091AA08843089
:100E60009105A105B10509F08DC56091AB087091A0
:100E7000AC088091AD089091AE082DE133EF41E0D0
:100E800050E00E94F93129013A019B01AC01A7EA27
:100E9000B1E40E9423326B017C01A4E1BBE0A30119
:100EA00092010E942332C616D706E806F90608F01A
:100EB0005CC56C197D098E099F09609570958095B8
:100EC00090959F776093AB087093AC088093AD08C2
:100ED0009093AE086091AB087091AC088091AD081A
:100EE0009091AE080E948E2B20E030E040E050E36D
:100EF0000E94E52C2B013C0120E030E040EE50E464
:100F0000C301B2010E94E52C0E94CB2BF801E95EDF
:100F1000F74F60837183828393830C5F1F4F0C3183
:100F2000110509F084CF10926B0810926C08109292
:100F30006D0810926E0880E090E0A0E8BFEB80930F
:100F40007B0890937C08A0937D08B0937E088093E3
:100F5000770890937808A0937908B0937A088093E3
:100F6000730890937408A0937508B09376088093E3
:100F70006F0890937008A0937108B0937208109254
:100F80009708109298081092990810929A0880E099
:100F900090E0A0E8BFE38093A3089093A408A093F7
:100FA000A508B093A60880E090E0A0EEB0E480939E
:100FB0009B0890939C08A0939D08B0939E088FE790
:100FC00097E09C878B87FC0180E090E0A0E8BFEB76
:100FD00081939193A193B19327E0E33DF207C1F789
:100FE00046E652E05A874987312C212CA985BA85DB
:100FF0005896CD90DD90ED90FC905B97C0929F0845
:10100000D092A008E092A108F092A20820E030E07F
:1010100040E85FEBC701B6010E94592B811135C72B
:1010200080E090E0A0E8BFEB80939F089093A00839
:10103000A093A108B093A208C0909F08D090A008E8
:10104000E090A108F090A208CF86D88AE98AFA8AAF
:10105000C090A308D090A408E090A508F090A6083E
:1010600080909B0890909C08A0909D08B0909E084E
:1010700040909708509098086090990870909A084E
:10108000A3019201C501B4010E94F42A0E945D2BC4
:10109000615071098B01000F111F060F171FC70147
:1010A000B6010E945D2B060F171F20E030E0A9015A
:1010B0006F85788989899A890E94592B095E1F4F0B
:1010C000000F111F000F111FF801E15EF84F87FF9D
:1010D000FFC680E090E0A0E8BFEB80839183A2830D
:1010E000B38320E030E040E85FE3C501B4010E9433
:1010F000F42A60939B0870939C0880939D089093BA
:101100009E0834E0231A31084CEE24164FEF3406C3
:1011100009F06CCF20E030E040E85FE3C301B201AA
:101120000E94F52A60939708709398088093990815
:1011300090939A0820E030E040E85FE3C701B601F1
:101140000E94F52A6093A3087093A4088093A508D1
:101150009093A60880E090E0A0EEB0E480939B0816
:1011600090939C08A0939D08B0939E08A985BA858A
:101170001497BA87A987AA55B24009F035CF0FE472
:1011800018E0F801AB85BC854D915D916D917C9126
:10119000139741935193619371931C96BC87AB87CE
:1011A000B8E0EB36FB0771F7D12CC12CC601855393
:1011B000984F5C017BE6E72E78E0F72EF70152911D
:1011C0004291329122917F01D5016D917D918D9156
:1011D0009C9197D8F7016083718382839383FCE0AD
:1011E000AF1AB1082FE4E21628E0F20639F734E02E
:1011F000C30ED11C48E0C416D104C1F663EDC62E5F
:1012000067E0D62E80E090E0A0E8BFEBF601819386
:101210009193A193B1936F01FBEFCF16F7E0DF0637
:10122000A9F780937F0890938008A0938108B093DA
:1012300082088093830890938408A0938508B093D4
:1012400086088093870890938808A0938908B093B4
:101250008A08E3EDF7E0D8014D915D916D917D91A4
:101260008D0140835183628373833896B8E00336DF
:101270001B0789F780E090E0A0ECB0E4809397082A
:1012800090939808A0939908B0939A0810929F0899
:101290001092A0081092A1081092A2085FE7E52E14
:1012A00058E0F52E8090D3079090D407A090D507F2
:1012B000B090D60720E030E040E85FEBC501B40114
:1012C0000E94592B81110DC680E090E0A0E8BFEB91
:1012D000F70180839183A283B38346E6242E42E004
:1012E000342EEBE6F8E0FA87E98703ED17E0D70143
:1012F0008D909D90AD90BC908092A3089092A40890
:10130000A092A508B092A60820E030E040E85FEB8C
:10131000C501B4010E94592B882379F0F10140AC3A
:1013200051AC62AC73AC20E030E040E85FEBC3014D
:10133000B2010E94592B8111E9C580E090E0A0E83C
:10134000BFEBF80184839583A683B783F8012481DA
:1013500035814681578160817181828193810E94AC
:101360008101A985BA856D937D938D939D93BA87ED
:10137000A987085F1F4FB4E02B0E311CC016D106A1
:1013800009F0B5CFE3EDF7E080E090E0A0E8BFEB37
:1013900081939193A193B1930E171F07C9F7809181
:1013A0006F0890917008A0917108B09172088093B5
:1013B000D3079093D407A093D507B093D607809115
:1013C000730890917408A0917508B0917608809385
:1013D000DB079093DC07A093DD07B093DE078091D5
:1013E000770890917808A0917908B0917A08809355
:1013F000E3079093E407A093E507B093E607809195
:101400007B0890917C08A0917D08B0917E08809324
:10141000EB079093EC07A093ED07B093EE07409095
:101420009F085090A0086090A1087090A20880903A
:10143000970890909808A0909908B0909A0820E09A
:1014400030E040E050E4C301B2010E94592B87FF15
:1014500019C0C501B4010E945D2B655B7F4F660F0B
:10146000771F660F771FFB01E15EF84F8081918146
:10147000A281B3818093F3079093F407A093F507BB
:10148000B093F60720E030E040E85FE3C301B2012B
:101490000E94F52A60939F087093A0088093A1088A
:1014A0009093A20820E030E040E85FE3C501B4017A
:1014B0000E94F52A60939708709398088093990882
:1014C00090939A08E4E0EE0EF11C2BE838E02E151C
:1014D0003F0509F0E7CE80E090E0A0E8BFE380930D
:1014E000970890939808A0939908B0939A086C0174
:1014F0007D01B12CA12C412C512C20E8622E2FEB28
:10150000722EAB8DBC8D4D925D926D927D92BC8F93
:10151000AB8FB2E0AB16B10414F1C701B6010E9463
:101520005D2B6E5A7F4F660F771F660F771FFB018B
:10153000E15EF84F80819181A281B381EB8DFC8DBA
:10154000349780839183A283B38320E030E040E826
:101550005FE3C701B6010E94F52A6B017C01EFEF42
:10156000AE1ABE0AF7E0AF16B10459F6C09297085A
:10157000D0929808E0929908F0929A0887E1E82EB4
:1015800088E0F82ED701D4962D913D914D915C9134
:10159000D797F701E05BFF4F608171818281938172
:1015A0000E948101F70192938293729362937F016B
:1015B0000E171F0739F781E090E00E94D21D40917D
:1015C000D6035091D7036091D8037091D90390E06E
:1015D00080E00E94CE1D8090E6039090E703A090EB
:1015E000E803B090E90320E030E040E85FEBC5019C
:1015F000B4010E94592B882331F1C090D603D090BA
:10160000D703E090D803F090D903A7019601C50154
:10161000B4010E94F42A4B015C0120E030E040E07C
:1016200054E3C701B6010E94E52C9B01AC01C50142
:10163000B4010E94E12C181634F086EB92E09093EE
:10164000C1038093C0038091EA03882331F086EBC5
:1016500092E09093C1038093C003C090DA03D090CE
:10166000DB03E090DC03F090DD03FFEFCF1ADF0A2D
:10167000EF0AFF0AC092DA03D092DB03E092DC03A8
:10168000F092DD03C114D104E104F10499F48091D6
:10169000DE039091DF03A091E003B091E103019696
:1016A000A11DB11D8093DE039093DF03A093E0039F
:1016B000B093E1038090E2039090E303A090E403F1
:1016C000B090E5036091DE037091DF038091E00349
:1016D0009091E1030E948E2BA50194010E94E52CBC
:1016E00020E030E040E85FE40E94E52C2B013C0163
:1016F000C701B6010E948E2BA50194010E94E52C22
:101700009B01AC01C301B2010E94F52A6093D6038C
:101710007093D7038093D8039093D903E8960FB6BC
:10172000F894DEBF0FBECDBFDF91CF911F910F9117
:10173000FF90EF90DF90CF90BF90AF909F908F90F1
:101740007F906F905F904F903F902F90089556013B
:1017500087010C946403232C742C852C962C16C8BA
:10176000A5019401C701B6010E94F52A60939B0868
:1017700070939C0880939D0890939E0842D588237F
:1017800049F08091881290918912A0918A12B091AB
:101790008B12DEC860919B0870919C0880919D0817
:1017A00090919E08E9D48111ECCF80909B08909095
:1017B0009C08A0909D08B0909E0820E030E0A90110
:1017C000C501B4010E94592B811109C010929F08D4
:1017D0001092A0081092A1081092A208C1C820E09F
:1017E00030E040EE50E4C501B4010E94E52B6B01EE
:1017F0007C01C0929F08D092A008E092A108F092CC
:10180000A20820E030E0A9010E94592B8823F1F2C0
:1018100020E030E0A901C501B4010E94592B87FFE7
:101820009FC820E030E040EE50E4C701B6010E94BE
:10183000F52A60939F087093A0088093A108909365
:10184000A2088EC8C0928B08D0928C08E0928D08B6
:10185000F0928E08A3C8A5019401C701B6010E94A9
:10186000F52A60939B0870939C0880939D08909341
:101870009E08C7D4882349F08091881290918912DC
:10188000A0918A12B0918B12B1C860919B0870919F
:101890009C0880919D0890919E086ED48111ECCF98
:1018A00080909B0890909C08A0909D08B0909E0806
:1018B00020E030E0A901C501B4010E94592B81113B
:1018C00009C010929F081092A0081092A1081092CF
:1018D000A20894C820E030E040EE50E4C501B40115
:1018E0000E94E52B6B017C01C0929F08D092A0085A
:1018F000E092A108F092A20820E030E0A9010E9445
:10190000592B8823F1F220E030E0A901C501B40190
:101910000E94592B87FF72C820E030E040EE50E46F
:10192000C701B6010E94F52A60939F087093A00832
:101930008093A1089093A20861C8C0928F08D092AA
:101940009008E0929108F092920876C869877B87A8
:101950001C01AAC8C984DB847101C701B60102CA8F
:1019600060E070E080E89FEBFDC9C61AD70AE80A7C
:10197000F90AC092AB08D092AC08E092AD08F092A0
:10198000AE08A8CA0597A105B10509F062C020916B
:10199000AF083091B0084091B1085091B2086DEC99
:1019A0007DE081E090E00E94D731AB01BC01495756
:1019B00059426D4E7F4F8091B3089091B408A09129
:1019C000B508B091B6086C017D01EDE0CC0CDD1CD2
:1019D000EE1CFF1CEA95D1F78C259D25AE25BF2571
:1019E0006C017D01F1E1F694E794D794C794FA95E0
:1019F000D1F78C259D25AE25BF256C017D0125E005
:101A0000CC0CDD1CEE1CFF1C2A95D1F78C259D25E6
:101A1000AE25BF254093AF085093B0086093B1083E
:101A20007093B2088093B3089093B408A093B5085C
:101A3000B093B6086A017B01C80ED91EEA1EFB1ED0
:101A4000C701B6010E948E2B20E030E040E85FE243
:101A50004FCA80917B1281114DC0A7EBB8E0E4EC36
:101A6000F9E01D923197E9F78092B7089092B80893
:101A7000A092B908B092BA08EBEBF8E0C12CD12CD7
:101A80007601C39481E795E1A0E0B0E09C01AD014F
:101A90006EE156954795379527956A95D1F7282792
:101AA00039274A275B2765E679E887E09CE60E94AC
:101AB000D731DC01CB018C0D9D1DAE1DBF1D819367
:101AC0009193A193B1932FEFC21AD20AE20AF20ABC
:101AD00030E7C31632E0D306E104F104B9F6C09250
:101AE0007712D0927812E0927912F0927A1241E055
:101AF00040937B129E012F5F3F4FC0907712D09092
:101B00007812E0907912F0907A125FEFC51AD50A38
:101B1000E50AF50A81E7C81682E0D806E104F10477
:101B200008F4BCC0E7EAF8E04489558966897789FA
:101B30007F77C088D188E288F388CC24DD24EE2426
:101B400090E8F922C42AD52AE62AF72AB701A60185
:101B50007695679557954795A1E0CA22DD24CD2853
:101B600041F0BFED4B27B0EB5B27B8E06B27B9E93D
:101B70007B27CF018C5B994FDC01CD90DD90ED9000
:101B8000FC904C255D256E257F25408B518B628B0B
:101B9000738B3496BCE0E333FB0731F6E3E4FCE0FF
:101BA000408151816281738144275527662770786F
:101BB000C480D580E680F780E894F7F8C42AD52A57
:101BC000E62AF72AB701A6017695679557954795B6
:101BD00081E0C822DD24CD2841F09FED492790EB1C
:101BE000592798E0692799E97927CF018C589340C4
:101BF000DC01CD90DD90ED90FC904C255D256E25AF
:101C00007F254193519361937193B2E1E337FB07D1
:101C100039F6C0907312D0907412E0907512F09063
:101C20007612CC24DD24EE24E0E8FE224091B708B1
:101C30005091B8086091B9087091BA087F77C42AAA
:101C4000D52AE62AF72AB701A60176956795579512
:101C50004795F1E0CF22DD24CD2841F08FED4827D4
:101C600080EB582788E0682789E97827C090E70E3D
:101C7000D090E80EE090E90EF090EA0E4C255D253C
:101C80006E257F25409373125093741260937512E2
:101C900070937612C12CD12C7601C394F601E150D9
:101CA000F04CEE0FFF1FEE0FFF1FE954F74F40817E
:101CB000518162817381C0927712D0927812E09242
:101CC0007912F0927A122A013B01BBE07694679474
:101CD00057944794BA95D1F744255525662577251D
:101CE0002A013B0187E0440C551C661C771C8A9531
:101CF000D1F790E8492296E559229CE269229DE9B4
:101D0000792244255525662577252A013B019FE048
:101D1000440C551C661C771C9A95D1F74424552415
:101D2000A6EC6A22E89474F84425552566257725A3
:101D30002A013B01E2E17694679457944794EA952F
:101D4000D1F74425552566257725F901419351930F
:101D5000619371939F01E215F30509F0CECE69817D
:101D60007A818B819C81E5E096958795779567953B
:101D7000EA95D1F70E948E2B20E030E040E85CE449
:101D80000E94E52C2B013C016D817E818F8198851D
:101D9000F6E09695879577956795FA95D1F70E9425
:101DA0008E2B9B01AC01C301B2010E94F52A20E0F9
:101DB00030E040E055E20E94E52C2B013C0120E0A0
:101DC00030E0A9010E94592B811196C8F1E0CF1A89
:101DD000D108E108F10820E7C21622E0D206E104AA
:101DE000F10478F4E7EBF8E081919191A191B19140
:101DF000892B8A2B8B2B09F07DCE32E1E737F30755
:101E000099F78092B7089092B808A092B908B0925A
:101E1000BA08EBEBF8E0C12CD12C7601C39481E732
:101E200095E1A0E0B0E09C01AD016EE156954795CB
:101E3000379527956A95D1F7282739274A275B27B1
:101E400065E679E887E09CE60E94D731DC01CB01AA
:101E50008C0D9D1DAE1DBF1D81939193A193B193D8
:101E60004FEFC41AD40AE40AF40A50E7C51652E048
:101E7000D506E104F104B9F6C0927712D092781237
:101E8000E0927912F0927A1235CEF101E558F74FCF
:101E900080809180A280B38020E030E040E85FEB5A
:101EA000C501B4010E94592B882309F4B9C8A501C2
:101EB0009401C701B6010E94F52A0E94280160938F
:101EC0009F087093A0088093A1089093A208B4C8BB
:101ED0002F85388949895A892083318342835383E6
:101EE00000C920919E0230919F024091A002509122
:101EF000A102C501B4010E94F42A0E942801D70161
:101F00006D937D938D939C931397E7C9A3019201E1
:101F1000C501B4010E94F52A0E942801D801149637
:101F20006D937D938D939C93179710CA0F5F1F4FEE
:101F30000830110511F00C94450660E070E0CB010B
:101F40000C94B206CF93DF9384E090E0DED0E0EC17
:101F5000F3E08BE2DF011D928A95E9F780E090E0E3
:101F6000A0E8BFEB86A397A3A0A7B1A78DEC9CEC3C
:101F7000ACE4BEE382A393A3A4A3B5A38AED91E846
:101F8000AEECB3E684839583A683B78387E298EDAE
:101F9000A0E8B9E980879187A287B38783E89FE2A9
:101FA000A8E2B1E084879587A687B78780E89CE0A0
:101FB000A4E1BDED808B918BA28BB38BC4EBD3E0FE
:101FC000D383C283AAEAB3E0B983A8838AEC92E000
:101FD00011969C938E9313969C938E9312971596BD
:101FE0009C938E93149717969C938E93169719969D
:101FF0009C938E93189784ED93E09D838C8384EC5F
:1020000093E09B838A8386ED93E09F838E83AFE189
:10201000B7E088E891E0ED019C0119922150304031
:10202000E1F7C7EAD8E085ED99E0DE019C011D9259
:1020300021503040E1F720EA33E08AE0D9011D92D7
:102040008A95E9F7A6E9B3E0B58BA48B8EE090E022
:1020500011969C938E938AE492E013969C938E93B0
:1020600012978EE292E015969C938E93149782E1DC
:1020700092E017969C938E93169786E092E01996BD
:102080009C938E93189787E090E0A0E0B0E088835F
:102090009983AA83BB8382E897EBA1E3B4E48C83A2
:1020A0009D83AE83BF8385EE95E5AAE9B5E1888778
:1020B0009987AA87BB8785EB9BE3A2E1BFE18C8769
:1020C0009D87AE87BF87DF91CF910895089560E027
:1020D00070E080E89FE7089560E070E080E89FE7A7
:1020E000089560E070E080E89FEF089560E070E0A0
:1020F00080E89FEF089560E070E080EC9FEF089526
:1021000060E070E080EC9FEF0895F5DF6093881247
:102110007093891280938A1290938B12F1DF6093EF
:102120007C1270937D1280937E1290937F12CFDF8A
:102130006093841270938512809386129093871215
:10214000CBDF609380127093811280938212909300
:102150008312C7DF60938C1270938D1280938E125E
:1021600090938F12C3DF60939012709391128093BB
:102170009212909393120895CF92DF92EF92FF9272
:10218000CF936B017C01AC019B0160918412709133
:10219000851280918612909187120E94592BC1E07E
:1021A000882371F0A701960160918C1270918D12B5
:1021B00080918E1290918F120E94592B8111C0E054
:1021C0008C2FCF91FF90EF90DF90CF9008950F93D9
:1021D0001F938B019C010027112720783F77011561
:1021E000110520483F4749F4AB01BC016F777727C1
:1021F00081E0452B462B472B09F480E01F910F917E
:102200000895E5CFEF92FF920F931F93CF93DF9343
:10221000EA01F901DC011496ED90FC9015971296F5
:102220004D915C9113974E0D5F1D28813981189651
:102230000D911C9119970217130730F00D911C9105
:102240001197012B09F441C08A01021B130BDC0119
:1022500018968D919C918E199F09800F911F86175A
:102260009707DCF1C901860F971F8417950778F44B
:1022700071836083338322831582148217821682CE
:1022800088819981680F791F7983688316C01183CB
:10229000008333832283601B710B7583648390E01A
:1022A00080E01616170614F49E2D8F2D96838783D3
:1022B000D701A60FB71FB983A88380E0DF91CF9124
:1022C0001F910F91FF90EF90089518968D919C911A
:1022D000821B930B861797075CF681E0EFCFCF92B6
:1022E000DF92EF92FF92CF93DF936B0184E4869F9E
:1022F000E001879FD00D1124C551DC4F8AA99BA90D
:10230000009721F00E9406331BAA1AAA84E48C9D30
:10231000F0018D9DF00D1124E551FC4F86A997A980
:10232000009711F00E94063384E48C9DF0018D9D8E
:10233000F00D1124E551FC4F138A128A168A178A70
:10234000108E118E128E138E148E158E168E178E81
:1023500010A211A281E090E093A382A315A214A27F
:1023600016A217A210A611A613A612A615A614A6A9
:1023700016A617A610AA11AA13AA12AA15AA14AA79
:1023800017AA16AA11AE10AE12AE13AE14AE15AE49
:10239000DF01DE961D921D921D921C921397EE5B3B
:1023A000FF4F11821082DF91CF91FF90EF90DF906D
:1023B000CF900895CF93DF93FB01DC016D917C9169
:1023C000DB011696CD91DC918081918123E0880F0D
:1023D000991F2A95E1F7AA81BB81A80FB91F8D919A
:1023E0009C91119724853585220F331FEB016A815B
:1023F0007B81EB01C20FD31F0990D881C02D1496A9
:102400002D913C9161E070E0232B11F062E070E0CF
:10241000C69F9001C79F300DD69F300D1124A08517
:10242000B1852A9FB0012B9F700D3A9F700D11242A
:10243000A481B5812A9FF0012B9FF00D3A9FF00DEA
:1024400011248E0F9F1FFA0191838083738362830F
:10245000DF91CF9108952F923F924F925F926F92AA
:102460007F928F929F92AF92BF92CF92DF92EF9224
:10247000FF920F931F93CF93DF9300D000D0CDB77F
:10248000DEB7DC011496ED91FC910190F081E02D16
:10249000808591859A838983A281B381BC83AB8334
:1024A000FB0181909190A190B190C12CD12C76012B
:1024B000C814D904EA04FB04CCF026960FB6F894AD
:1024C000DEBF0FBECDBFDF91CF911F910F91FF9067
:1024D000EF90DF90CF90BF90AF909F908F907F90C4
:1024E0006F905F904F903F902F900895448055805B
:1024F000668077804085518562857385CF014096DF
:102500009E838D83A081B1819D0183E0220F331FC3
:102510008A95E1F7A981BA8112968D919C91D90192
:10252000A80FB91F2D903C9011970484F585E02DDC
:10253000EE0FFF1F8B819C81E80FF91F0190F08146
:10254000E02D14968D919C91892B41F581E090E0CE
:10255000E89F9001E99F300DF89F300D1124249FD2
:102560008001259F100D349F100D1124249DC00162
:10257000259D900D349D900D1124A8016D817E81C3
:10258000820D931D0E948F33ED81FE81E00FF11FBC
:102590009FEFC91AD90AE90AF90A8ACF82E090E0C6
:1025A000D7CFCF93DF93DB01AE54BD4F2C912223C5
:1025B00069F024E4269FF001279FF00D1124E551D6
:1025C000FC4FEF0119922A95E9F71C9224E4269F0B
:1025D000F001279FF00D1124E551FC4F1482158264
:1025E000168217821186108613861286118A108A27
:1025F00017861686DF91CF9172CE2F923F924F921F
:102600005F926F927F928F929F92AF92BF92CF9282
:10261000DF92EF92FF920F931F93CF93DF9300D03F
:1026200000D01F921F92CDB7DEB724E4269FF001A1
:10263000279FF00D1124E551FC4F0481158126815F
:102640003781012B022B032B09F4B7C02A016B0140
:102650007C0110E000E0812C912C54013F019F018E
:10266000285F3F4F3C832B83CF0104969E838D834D
:10267000AB81BC818D919C91ED81FE814081518126
:102680006281738184169506A606B706E4F10E945E
:102690000633D3011A968D919C91892B09F07EC047
:1026A00084E48C9DD0018D9DB00D1124A551BC4FAB
:1026B000BC83AB8350968D919C910E940633EB8135
:1026C000FC81868597850E940633C701B60107DE27
:1026D000C701B60128960FB6F894DEBF0FBECDBF76
:1026E000DF91CF911F910F91FF90EF90DF90CF90EE
:1026F000BF90AF909F908F907F906F905F904F9022
:102700003F902F904ECFFC01E00FF11F92819983F3
:10271000A381AA839F83A887312C212C24143504FC
:1027200064F089819A810E940633EFEF8E1A9E0A27
:10273000AE0ABE0A0C5F1F4F9BCFAF81B885ED91EB
:10274000FD91B887AF83309759F0848195810E94BD
:102750000633EF81F8853297808191810E9406339C
:10276000BFEF2B1A3B0ADACF800F911FFC01848147
:1027700095810E9406332B813C812F5F3F4F3C8324
:102780002B83025F1F4FF501808191812B813C815A
:10279000241535054CF30E94063382CF10E000E08B
:1027A0001C821B8224E42C9DC0012D9D900D1124C0
:1027B000DC01AB50BC4F5D01E6CF28960FB6F89414
:1027C000DEBF0FBECDBFDF91CF911F910F91FF9064
:1027D000EF90DF90CF90BF90AF909F908F907F90C1
:1027E0006F905F904F903F902F90089524E4269F24
:1027F000F001279FF00D1124E551FC4F8289938948
:102800000497029758F485E090E0938B828B8FEFCA
:102810009FEFDC01828F938FA48FB58F08952F9245
:102820003F924F925F926F927F928F929F92AF9260
:10283000BF92CF92DF92EF92FF920F931F93CF93AD
:10284000DF93CDB7DEB7AA970FB6F894DEBF0FBE01
:10285000CDBF9AA389A37E8B6D8B1A01098B1A8B2E
:102860002B8B3C8B84E429893A89829F6001839F6A
:10287000D00C1124860105511C4F89899A89AB8996
:10288000BC89F80180839183A283B383AB01BC012F
:10289000CD01B3DED601A151BC4F84E0F10101901E
:1028A0000D928A95E1F7F4E02F0E311C64E070E0A0
:1028B000D80114968D919C910E945032F801918715
:1028C0008087892B09F0F5C04D895E8969897A89ED
:1028D0008B899C8992DE81E0AA960FB6F894DEBFC0
:1028E0000FBECDBFDF91CF911F910F91FF90EF9061
:1028F000DF90CF90BF90AF909F908F907F906F9020
:102900005F904F903F902F900895A9A5BAA58D9103
:102910009C91E98DFA8DE80FF91FF88FEF8BD101AB
:102920008D919C91880F991FA9A1BAA1ED91FC915D
:10293000E80FF91F80819181EF89F88D9183808361
:10294000D10114962D913D914D915C9117972BA338
:102950003CA34DA35EA362E070E08D899E890E9436
:102960005032EF89F88D93838283892B09F4ACCFA1
:10297000F8E02F0E311C412C512C32012BA13CA12F
:102980004DA15EA142165306640675069CF02B8D80
:102990003C8D4D8D5E8D2F5F3F4F4F4F5F4F2B8F87
:1029A0003C8F4D8F5E8F498D5A8D4C5F5F4F5A8F94
:1029B000498F90C0610124E0C20ED11CD101ED907D
:1029C000FC90EE0CFF1CEF89F88D82819381E80E5C
:1029D000F91E68E070E081E090E00E9450328C01C6
:1029E000D7018D939C93892B09F46ECF84E0F60177
:1029F000D80101900D928A95E1F7B8E02B0E311CB9
:102A0000F80180819181A281B381181619061A06F6
:102A10001B06DCF464E070E00E945032D801159689
:102A20009C938E931497892B09F44ECFD12CC12CF3
:102A3000812C912C5401F80180819181A281B38174
:102A400088169906AA06BB0634F0FFEF4F1A5F0AF4
:102A50006F0A7F0A93CFF801E480F580EC0CFD1C2F
:102A600080E1F101DE01119601900D928A95E1F766
:102A7000F0E12F0E311CA701BE016F5F7F4FA9A1AE
:102A8000BAA114968D919C9195DCF801868197816D
:102A9000D70112962D913C91820F931F97838683C5
:102AA000BFEF8B1A9B0AAB0ABB0AE4E0CE0ED11C27
:102AB000C2CF1A8E198E1B8E1C8E1D8E1E8E18A3D1
:102AC0000F8FA8014C5F5F4F58A74FA3C80108960E
:102AD0009AA789A7EFA1F8A580819181A281B381EE
:102AE0002B8D3C8D4D8D5E8D281739074A075B076E
:102AF0000CF40BCF6EE070E08D899E890E945032FD
:102B0000AF8DB8A11B969C938E931A97B12CA12CD4
:102B1000D12CC12CF12CE12C24E4E989FA892E9FD7
:102B2000C0012F9F900D11249C012B503C4F388FDA
:102B30002F8B88248394912C4D895E89C416D506E9
:102B400054F184E4A989BA898A9F80018B9F100D72
:102B5000112405511C4FF80115861486C70133E076
:102B6000880F991F3A95E1F70E946A32D801519671
:102B70009C938E935097892B09F4A6CEC701880F9A
:102B8000991F0E946A32F80197878687892B09F47A
:102B90009BCE80E0A1CED1014D905D906D907D9057
:102BA0001D0177FC91CEEF89F88D008111810A0D0E
:102BB0001B1DD80111969C928E9241145104610400
:102BC000710429F1C2010E946A32F801958384835D
:102BD000892B09F479CEF801538242828481958150
:102BE00097838683918780871386128681E090E0A1
:102BF00045284628472811F490E080E0E80EF91EA9
:102C0000FFEFCF1ADF0A2EE0A20EB11C95CF15966A
:102C10001C921E921497DFCF2F923F924F925F9299
:102C20006F927F928F929F92AF92BF92CF92DF92DC
:102C3000EF92FF920F931F93CF93DF93CDB7DEB741
:102C40006A970FB6F894DEBF0FBECDBF9E8B8D8BFB
:102C500049015A0184E4829F7001839FF00C112482
:102C6000970125513C4F6901FB0180819181F90158
:102C7000958B848BD701AF5FBB4FFB01349684E00B
:102C800001900D928A95E1F7D701AB5FBB4FFB0135
:102C9000389684E001900D928A95E1F7D701A75FFD
:102CA000BB4FFB013C9684E001900D928A95E1F7C1
:102CB000D701A75EBB4FFB01709684E001900D9297
:102CC0008A95E1F78B010C5E1F4FF90186A597A548
:102CD000A0A9B1A918161906DCF5880F991F880F4D
:102CE000991F0E946A32F60193AB82AB892B09F4DB
:102CF000D3C0312C212C412C512C32019601225D64
:102D00003F4F388F2F8BC601C2969A8F898FF496CA
:102D1000FC8BEB8BB301A2012FEF421A520A620A1D
:102D2000720AEF89F88D80819181A281B381481761
:102D300059076A077B070CF47BC0F60184A995A9A3
:102D40000E946A32F60197AB86AB892B09F4A4C0C6
:102D5000F80180819181A281B38124E4289DF00152
:102D6000299DF00D1124E551FC4FAC01BD014D7FB3
:102D700021E030E0452B462B472B11F030E020E0DE
:102D800033A322A324E4289DF001299DF00D1124F2
:102D9000E551FC4F0197A109B10921E030E002970C
:102DA000A105B10510F030E020E035A324A3D70140
:102DB000AF5EBB4FF801349684E001900D928A9586
:102DC000E1F784E4889DF001899DF00D1124E5511F
:102DD000FC4F868D978DA0A1B1A1B7FF58C0B095CB
:102DE000A095909581959F4FAF4FBF4F82AF93AF06
:102DF000A4AFB5AF168E178E10A211A280E06A960E
:102E00000FB6F894DEBF0FBECDBFDF91CF911F91FB
:102E10000F91FF90EF90DF90CF90BF90AF909F9079
:102E20008F907F906F905F904F903F902F9008957C
:102E3000E98DFA8D808191819C01220D331D3A8BA1
:102E4000298B80E1F801DE01119601900D928A959F
:102E5000E1F7005F1F4F49895A89BE016F5F7F4FBD
:102E6000ED89FE8984819581A5DAEB89FC898081D1
:102E70009181E989FA8922813381820F931FEB893D
:102E8000FC8991838083F4E02F0E311C43CF12AE76
:102E900013AE14AE15AEB2CFC501B40120DA81E095
:102EA000AECFCF92DF92EF92FF92CF93DF9310924B
:102EB000730424E4269FF001279FF00D1124E551AF
:102EC000FC4F15A614A630E020E0D12CC12CDF0168
:102ED0001A96C1E0D0E0C416D506F4F024E4269F8B
:102EE000F001279FF00D1124E551FC4F13A612A607
:102EF00011AE10AEDF01DE961D921D921D921C9246
:102F0000139782E090E0938B828BDF91CF91FF90BB
:102F1000EF90DF90CF900895ED91FC911197E20F23
:102F2000F31FE280F3801E141F0454F4E480F58044
:102F3000F782E682F186E08613861286D183C0830B
:102F4000EFEFCE1ADE0A225F3F4FC5CF24E4269F63
:102F5000F001279FF00D1124E551FC4F138A128ACE
:102F60004CCB24E4269FF001279FF00D1124E5515E
:102F7000FC4F8289938981309105C8F08530910595
:102F800018F0059769F008958FEF9FEFDC01828FAD
:102F9000938FA48FB58F85E090E0938B828B0895FB
:102FA0008FEF9FEFDC01828F938FA48FB58F0895F1
:102FB00024E4249FD001259FB00D1124A551BC4FBE
:102FC0002EE0AC01249FC001259F900D11241A967C
:102FD000ED91FC91E80FF91F81E0809373048285E5
:102FE000938591878087408551852681378181E04F
:102FF00090E04217530711F090E080E091838083C6
:1030000008952F923F924F925F926F927F928F928C
:103010009F92AF92BF92CF92DF92EF92FF920F9367
:103020001F93CF93DF93CDB7DEB7C055D1090FB64D
:10303000F894DEBF0FBECDBF9EAF8DAF4BA75CA790
:103040006DA77EA76801790184E4809FF001819FCC
:10305000F00D1124E551FC4F2285338523963FAFB7
:103060002EAF239782899389029761F486A597A54D
:10307000A0A9B1A9892B8A2B8B2BC9F584E090E0FC
:10308000938B828B84E48C9DF0018D9DF00D112437
:10309000E551FC4F828993898230910509F037C24E
:1030A00082AD93ADA4ADB5AD22242394312C181676
:1030B00019061A061B060CF42FC2C05BDF4F0FB6B1
:1030C000F894DEBF0FBECDBFDF91CF911F910F915E
:1030D000FF90EF90DF90CF90BF90AF909F908F9038
:1030E0007F906F905F904F903F902F9008958489CC
:1030F00095894DAD5EAD8417950721F606A917A9F0
:1031000018AE1FAA1BAA1CAA1DAA1EAA1F01CF0126
:103110008E9627969FAF8EAF2797DF01D29629967E
:10312000BFAFAEAF2997F8962B96FFAFEEAF2B97B8
:1031300091012A5D3F4F2D963FAF2EAF2D97A101F4
:103140004E5D5F4F2F965FAF4EAF2F970A976196F8
:103150009FAF8EAF61972796EEADFFAD2797808129
:103160009181A281B3812BA93CA94DA95EA9281701
:1031700039074A075B0744F081E090E0D101D99616
:103180009C938E93D8977ECF2996AEADBFAD2997ED
:10319000ED91FC912FA938ADE20FF31F42815381CD
:1031A0005AAF49AF50815FAF818121968FAF219790
:1031B0002B96AEADBFAD2B978D919C91892B21F1B4
:1031C0002D96EEADFFAD2D9780809180A280B380CB
:1031D0001AAB09AB5FA72196FFAD2197F8AB29ADDC
:1031E0003AAD369527953695279525963FAF2EAF64
:1031F00025971CAE1BAE2596AEADBFAD2597EBADAA
:10320000FCADEA17FB070CF149AD5AAD6FAD219645
:103210007FAD2197C8010E948F3389AD9AAD8C7F15
:10322000080F191F2BA93CA94DA95EA92F5F3F4F7D
:103230004F4F5F4F2BAB3CAB4DAB5EAB4FA958AD87
:103240004C5F5F4F58AF4FAB86CF2F96AEADBFAD43
:103250002F978D919C91892B71F1EFA5F8A9408052
:10326000518062807380A3019201C501B4010E9464
:10327000592B181664F0A9A9BAA92D913D914D9129
:103280005C91C501B4010E94E12C1816BCF1A301A8
:103290009201C501B4010E94592B87FF0CC0E9A916
:1032A000FAA92081318142815381C501B4010E9474
:1032B000592B882319F16196AEADBFAD61978D9101
:1032C0009C91892B09F445C0EFA5F8A94080518055
:1032D00062807380A3019201C501B4010E94E12CB8
:1032E00018161CF5A9A9BAA92D913D914D915C9193
:1032F000C501B4010E94592B18165CF184E48C9D21
:10330000F0018D9DF00D1124E551FC4F868D978DB8
:10331000A0A1B1A1892B8A2B8B2B69F183E090E0CE
:10332000938B828B81E090E02CC0A3019201C501B8
:10333000B4010E94592B81110CC0E9A9FAA920817E
:10334000318142815381C501B4010E94592B87FD0F
:10335000D5CF2BAD3CAD2F5F3F4F3CAF2BAF49A935
:103360005AA94C5F5F4F5AAB49AB8FA598A90496F9
:1033700098AB8FA740CF84E090E0938B828B86AD93
:1033800097AD93A782A77ECEEBADFCAD80819181F6
:10339000F401EE0FFF1FEE0FFF1FE80FF91FA081D2
:1033A000B1818C9181110AC0FFEF8F1A9F0AAF0A79
:1033B000BF0A8DA29EA2AFA2B8A68FC18330A1F38F
:1033C0000280F381E02D2FA938ADE20FF31F808139
:1033D00091819AAB89AB892B39F34F5F5F4F6F4F68
:1033E0007F4F49875A876B877C879E01235E3F4FBB
:1033F000AE01475D5F4F64E070E0C8010E940211BA
:103400008111D0C18D819E81AF81B8850496A11DA7
:10341000B11D8D839E83AF83B8874D8D5E8DBE01B8
:103420006B5D7F4F8F8D98A10E948F338BA19CA1E4
:10343000009761F06D8D7E8DA5E2B0E0AC0FBD1FF1
:103440006A0F7B1F49A15AA10E948F331CAA1BAA95
:10345000412C512C3201E9A9FAA980819181A281E4
:10346000B381481659066A067B060CF09DCFE9A980
:10347000FAA9848195812BA93CA9280F391F38AB63
:103480002FA7D90112966D917C919E01235E3F4F2B
:10349000AE01475D5F4FC8010E940211811182C1D8
:1034A000EFA5F8A982819381092E000CAA0BBB0B12
:1034B0004D815E816F817885840F951FA61FB71F90
:1034C0008D839E83AF83B887608171814D8D5E8DC2
:1034D0008F8D98A10E948F338BA19CA1009761F0E2
:1034E000AFA5B8A96D917C912D8D3E8D620F731F94
:1034F00049A15AA10E948F33BFEF4B1A5B0A6B0A96
:103500007B0AEBA9FCA93496FCABEBABA4CF312C26
:10351000212C049709F0D1CD8EE0EDADFEAD8E9F4C
:1035200080018F9F100D112423962EAD3FAD239760
:10353000020F131FD80112964D915C9113974115FC
:10354000510509F4BACD16968D919C919AA789A739
:1035500080E1FE013196DF011D928A95E9F7C98A63
:10356000DA8AEB8AFC8A2114310409F458C084E415
:103570008C9DF0018D9DF00D1124E551FC4FDF0174
:10358000DE968D909D90AD90BC9082AD93ADA4AD34
:10359000B5AD88169906AA06BB0609F040C0F80129
:1035A000848195810084F185E02D349624E0DE014C
:1035B000559601900D922A95E1F72D893E89285F55
:1035C0003F4F3E8B2D8BD80118966D917C911997AA
:1035D000260F371F19963C932E93189718962D9106
:1035E0003C911997480F591F241B350B37FD06C016
:1035F000820F931F19969C938E93189784E48C9D49
:10360000F0018D9DF00D1124E75DFB4FB1E08B1AA9
:103610009108A108B10880829182A282B3829E01A2
:103620002B5E3F4FAE01475D5F4F64E170E0C80124
:103630000E9402118111B6C08CE090E0A0E0B0E0E1
:103640008D839E83AF83B8879E01235E3F4FAE017B
:10365000475D5F4F64E070E0C8010E940211811174
:10366000A1C080E190E0A0E0B0E08D839E83AF83B5
:10367000B8874D8D5E8DBE01655D7F4F8F8D98A1A2
:103680000E948F338BA19CA1009761F06D8D7E8D80
:10369000EBE2F0E0EC0FFD1F6E0F7F1F49A15AA176
:1036A0000E948F331DA21EA21FA218A62DAD3EADF3
:1036B000220F331F38AF2FAB24E42C9DC0012D9D6A
:1036C000900D112485519C4FAC014C5F5F4F5AAF58
:1036D00049AFDC011896BCAFABAF8DA09EA0AFA0E8
:1036E000B8A449855A856B857C85E9ADFAAD8081A2
:1036F0009181A281B38188169906AA06BB060CF4B3
:1037000043CE452B462B472B09F4D7CC8AE190E0DA
:10371000A0E0B0E089839A83AB83BC832DAD3EAD3E
:10372000C901330FAA0BBB0B8D879E87AF87B88B60
:103730004D895E89BE016F5F7F4F8F89988D0E9492
:103740008F338B8D9C8D009761F06D897E8941E070
:1037500050E04C0F5D1F640F751F498D5A8D0E94FC
:103760008F3389A59AA5D80117969C938E931697A7
:1037700011961C921E92232809F49FCC84E48C9D00
:10378000F0018D9DF00D1124E75DFB4F808191814B
:10379000A281B3810196A11DB11D80839183A28373
:1037A000B3838BCC232809F088CC84E48C9DF00172
:1037B0008D9DF00D1124E551FC4F81E090E095A71F
:1037C00084A785E090E0938B828B77CCCF92DF92B9
:1037D000EF92FF920F931F9324E4269FF001279FFF
:1037E000F00D1124E551FC4F228933892115310553
:1037F00009F452C06B017C0121303105B1F482A57E
:1038000093A59C012F5F3F4F33A722A7092E000CE1
:10381000AA0BBB0B028D138D248D358D801791075C
:10382000A207B307C9F5C7013CDB84E48C9DF00116
:103830008D9DF00D1124E551FC4F828993890397EA
:1038400059F582A593A59C012F5F3F4F33A722A76F
:10385000092E000CAA0BBB0B468D578D60A171A1E0
:1038600084179507A607B707BCF086AD97AD93A759
:1038700082A784E090E0938B828B82AD93ADA4AD60
:10388000B5AD181619061A061B0634F4EE5BFF4F89
:1038900081E090E0918380831F910F91FF90EF90E2
:1038A000DF90CF90089524E4269FF001279FF00D2C
:1038B0001124E551FC4F828993890497B1F482A5C4
:1038C00093A5019693A782A7092E000CAA0BBB0B08
:1038D00046895789608D718D84179507A607B707AC
:1038E00021F485E090E0938B828B08952F923F9294
:1038F0004F925F926F927F928F929F92AF92BF9200
:10390000CF92DF92EF92FF920F931F93CF93DF93AB
:10391000CDB7DEB72E970FB6F894DEBF0FBECDBF82
:10392000DC0149835A836B837C83290184E4849F6F
:10393000F001859FF00D1124E551FC4F228833885A
:10394000C1010497029708F0D5C011961C921E92EF
:1039500013961C921E92129715861486912C812C18
:1039600090E080E08F019F01205F3F4F38872F83D9
:103970003F013CE0630E711CBF01625F7F4F7A879D
:1039800069873A96FC87EB87EF81F8852081318142
:10399000F30140815181E985FA85A080B1808415C9
:1039A00095050CF445C011965C934E9313963C9389
:1039B0002E9312971596BC92AE921497452BF9F45C
:1039C000F5E02F163104D9F410927304F801828DBA
:1039D000938DA48DB58DAE014F5F5F4F64E070E0B5
:1039E0008F3F9F4FAF4FBF4F09F079C080E290E00B
:1039F000F6D469817A818B819C81A201A7DA2E9607
:103A00000FB6F894DEBF0FBECDBFDF91CF911F91EF
:103A10000F91FF90EF90DF90CF90BF90AF909F906D
:103A20008F907F906F905F904F903F902F90089570
:103A3000EB85FC8560817181FB01E80DF91DFE8736
:103A4000ED8760817181672B89F5E084F184628163
:103A500073817E836D83668177816A01E3E0CC0C9C
:103A6000DD1CEA95E1F72C0D3D1D440F551F4A0D55
:103A70005B1DFA0191838083F301408151814F5F87
:103A80005F4F51834083F901F382E282ED85FE8529
:103A900073876287E616F70670F46E197F09F901DD
:103AA0007183608315821482178216820196FEE06C
:103AB0008F0E911C69CFED85FE85C480D5804D8128
:103AC0005E814C0D5D1D4E195F09F90151834083E4
:103AD0006C197D0975836483D782C682E7CF8FE135
:103AE00090E07DD4F80113A612A681E090E0938BBC
:103AF000828B85CF1586148611961C921E92139682
:103B00001C921E9212977BCFEF92FF920F931F93FE
:103B1000CF93DF937C018B01EA013DD581111BC05E
:103B20008091B4029091B5020497F9F4DF91CF919E
:103B30001F910F91FF90EF90089528ED38EB45E02D
:103B400050E060E070E0CB01DCD7AE01B801C70106
:103B5000E6D7C801AFD78091740490917504892B82
:103B6000F9F68881882349F3DBCF83E090E09093D6
:103B7000B5028093B402DACFCF93DF932091B402E1
:103B80003091B5022430310531F0EB01C8D7CE01B8
:103B9000DF91CF918FC7DF91CF9108950C948D293C
:103BA0000C9482290C94702995C70C9414290895BB
:103BB00070E060E090E080E0C9C40895AF92BF92E9
:103BC000CF92DF92EF92FF920F931F93CF93DF93E9
:103BD0001F921F92CDB7DEB75C018B0169017A019C
:103BE00090E080E0C114D104E104F10469F40F9085
:103BF0000F90DF91CF911F910F91FF90EF90DF9089
:103C0000CF90BF90AF9008959C2D8D2DC114D104FD
:103C100021E0E206F10410F09FEF8FEF9E012F5F8D
:103C20003F4F492F582FB801C5010E94162A8F3FD8
:103C30009807E9F229813A81C21AD30AE108F1080A
:103C4000020F131FCFCF40E855E260E070E090E034
:103C500080E000C08130910579F01CF4892B39F0A7
:103C600008958230910561F0039771F0089526E080
:103C70008BEA94E00C94192F26E088E495E0FACFC3
:103C800026E085EE95E0F6CF26E082E896E0F2CFDA
:103C90001F920F920FB60F9211240BB60F922F9313
:103CA0003F934F935F936F937F938F939F93AF93C4
:103CB000BF93EF93FF938BEC93EF90932501809349
:103CC00024010E944F2AFF91EF91BF91AF919F91E4
:103CD0008F917F916F915F914F913F912F910F90B5
:103CE0000BBE0F900FBE0F901F9018958BEC93EFAB
:103CF0009093250180932401A3E7B0E08C918E7FFF
:103D00008C93E0E2F1E080818C7F8083E1E2F1E05E
:103D10008081877E808380818560808380818D7FA4
:103D200080838C9181608C93089581E008958F92B7
:103D30009F92AF92BF92CF92DF92EF92FF920F933A
:103D40001F93CF93DF935C017B018A01C1E0D0E038
:103D5000CE15DF05CCF081E0F5018083B801C70105
:103D60000E94B729F5019283818390E080E0DF9182
:103D7000CF911F910F91FF90EF90DF90CF90BF9068
:103D8000AF909F908F9008956E018FEFC81AD80A58
:103D9000FE01EE0FFF1FE00FF11F80809180811464
:103DA000910469F069E373E0C4010E949F33892B99
:103DB00041F4CC0FDD1FC00FD11F19821882E6011C
:103DC000C7CF6CE373E0C4010E949F33892BB9F71E
:103DD000EC14FD04A1F36E01E2E0CE0ED11CCC0F79
:103DE000DD1FC00FD11F198218821B821A82E7CFF4
:103DF00086E794E0089580E008950F931F93CF9392
:103E0000DF938B01BA01E901198218829801012E12
:103E1000000C440B550BFC0181819281CFDE019691
:103E200041F01983088380E0DF91CF911F910F91BA
:103E3000089581E0F9CF0F931F93CF93DF931F92E3
:103E40001F92CDB7DEB7FB018A01B9019E012F5F3A
:103E50003F4FAF01FC01818192810E94CB290196E5
:103E600069F089819A81F8019183808380E00F90C5
:103E70000F90DF91CF911F910F91089581E0F7CFBF
:103E8000FC01808108950895089581E0FB018083FD
:103E900080E00895089510929E040895FC018181A8
:103EA00092810C94AF29CF93DF9300D000D000D043
:103EB0001F92CDB7DEB7B0E0A0E089839A83AB83D1
:103EC000BC83CB01770FAA0BBB0B8D839E83AF8383
:103ED000B8879E01275F3F4FAE014F5F5F4F68E09D
:103EE00070E080918D0490918E0487DF811110C065
:103EF00081E029853A852830310509F480E02A9649
:103F00000FB6F894DEBF0FBECDBFDF91CF910895FD
:103F100081E0F5CF0F931F93CF93DF931F921F92F2
:103F2000CDB7DEB78B019E012F5F3F4FAC01809173
:103F30008D0490918E0461DF81110EC081E0298192
:103F40003A812017310709F480E00F900F90DF913C
:103F5000CF911F910F91089581E0F7CFCF93DF9319
:103F6000EC01109291041092900410929D04109212
:103F70009C04AC0160E070E0CB010E94A617AE018A
:103F800061E070E080E090E00E94A61780918D04CF
:103F900090918E04DF91CF917DCF4F925F926F927F
:103FA0007F928F929F92AF92BF92CF92DF92EF92C9
:103FB000FF920F931F93CF93DF931F921F92CDB762
:103FC000DEB78C017C0197FF03C087E0E80EF11C8F
:103FD00023E0F594E7942A95E1F7C80168E070E0E2
:103FE0000E94E6316C010E5F1F4F80918B0490910F
:103FF0008C0480179107D4F48091890490918A04ED
:10400000009731F00E94063310928C0410928B04BA
:10401000C8010E946A3290938A0480938904892B94
:1040200009F482C010938C0400938B0410E000E02C
:1040300047C1412C512C3201B12CA12C95012E5697
:104040003B4FAE014F5F5F4F61E070E080918D04A8
:1040500090918E04F0DE811149C0EFEF4E1A5E0A96
:104060006E0A7E0AF0E94F16FFE55F06F1E06F0683
:10407000710444F060919C0470919D048DEE90E079
:1040800012DFD7CF89819A81A80EB91E8AE0A816BF
:10409000B10409F043C049E050E070E060E082E91B
:1040A00094E00E94412A60919C0470919D048823B1
:1040B00091F180919A0490E08617970781F4BC01F2
:1040C0008EEE90E0F0DE80919C0490919D0401962C
:1040D000992790939D0480939C040F5F1F4F0E15AA
:1040E0001F050CF4A6CFCD2809F07CC090E080E03D
:1040F0000F900F90DF91CF911F910F91FF90EF9054
:10410000DF90CF90BF90AF909F908F907F906F90F7
:104110005F904F9008958FEE90E0B2CFEAE0AE1638
:10412000B1040CF48BCFDBCF10E000E0D8CF0A3025
:10413000110531F549E050E070E060E082E994E07B
:104140000E94412A60919C0470919D048823A9F0EB
:1041500080919A0490E08617970741F6BC018EEE95
:1041600090E0A1DE80919C0490919D040196992796
:1041700090939D0480939C04B9CF8FEE90E02BC068
:104180000A3011050CF0B2CF98012E563B4FAE010C
:104190004F5F5F4F61E070E080918D0490918E04DD
:1041A0004ADE8111A3CF89819A81080F191FFFEF81
:1041B000CF1ADF0AEF0AFF0A80E9C8168FE5D80692
:1041C00081E0E806F1040CF4B2CF60919C04709198
:1041D0009D048DEE90E067DE10E000E0C12CD12C54
:1041E0007601D2CFC12CD12C760110E000E0CCCFEB
:1041F000412C512C3201B12CA12C480193E0880CA8
:10420000991C9A95E1F72091890430918A04C5019F
:10421000880D991D280F391FAE014F5F5F4F61E078
:1042200070E080918D0490918E0405DE81115ECF47
:10423000EFEF4E1A5E0A6E0A7E0A60919C0470913E
:104240009D048DEE90E0F0E94F16FFE55F06F1E08A
:104250006F0671040CF043C089819A81A80EB91EC3
:104260008AE0A816B10409F041C049E050E0B40169
:104270008091890490918A040E94412A60919C0453
:1042800070919D04882349F18091890490918A045A
:10429000880E991EF401808590E08617970781F4B7
:1042A000BC018EEE90E0FFDD80919C0490919D0416
:1042B0000196992790939D0480939C040F5F1F4F54
:1042C0000E151F050CF494CFC114D10409F081C060
:1042D0008091890490918A040BCF8FEE90E0E3DD0A
:1042E000412C512C3201B12CA12C8DCFFAE0AF160C
:1042F000B1040CF488CFE4CF8FEE90E0D4DDF12C44
:10430000E12C812C912C540197012E563B4FAE018C
:104310004F5F5F4F61E070E080918D0490918E045B
:104320008ADD8111E3CE8FEF881A980AA80AB80AAD
:1043300060919C0470919D048DEE90E0E0E98E16F2
:10434000EFE59E06E1E0AE06B104C4F689819A81EC
:10435000E80EF91EFAE0EF16F104A9F549E050E085
:1043600070E060E082E994E00E94412A60919C0440
:1043700070919D04882309F4BFCF80919A0490E046
:104380008617970709F0A4CFBC018EEE90E08BDD75
:1043900083E0000F111F8A95E1F7809189049091C5
:1043A0008A04A60162E974E0800F911F0E948F3396
:1043B00080919C0490919D040196992790939D046F
:1043C00080939C0485CF8AE0E816F1040CF49CCF1E
:1043D0007FCF812C912C5401F12CE12C95CFCF92E1
:1043E000DF92EF92FF920F931F93CF93DF931F9271
:1043F000CDB7DEB76C017B018A01452B39F0AB01EB
:1044000070E060E0C8010E943D2A8983B701C601BF
:104410004ADD81110DC00115110551F0B701C80128
:1044200079DD811105C061E070E0CE01019672DD99
:104430000F90DF91CF911F910F91FF90EF90DF9040
:10444000CF900895CF92DF92EF92FF92CF93DF93B8
:1044500000D000D01F921F92CDB7DEB76B01F12CB8
:10446000E12CC982DA82EB82FC822D833E834F836A
:104470005887AE014F5F5F4F68E070E0B0DF28966D
:104480000FB6F894DEBF0FBECDBFDF91CF91FF9086
:10449000EF90DF90CF9008958F929F92AF92BF924E
:1044A000CF92DF92EF92FF920F931F93CF93DF9300
:1044B0007C01EB01CA01690170DD0097B1F42FEFB7
:1044C0003FEFA90161E070E0C701BCDFC1E08C2FC4
:1044D000DF91CF911F910F91FF90EF90DF90CF90E0
:1044E000BF90AF909F908F900895FC018190919024
:1044F000A190B190BF01FCE1EF16F10479F4A501A0
:104500009401CE010E940C16C82FA50194018823A6
:1045100069F061E070E0C70195DFD9CF95018401B2
:10452000AB01B601CE010E940F14EECF70E060E047
:10453000C701DF91CF911F910F91FF90EF90DF9016
:10454000CF90BF90AF909F908F907CCF0F931F9391
:10455000CF93DF93EC018B014BDC90938E0480931F
:104560008D040097A9F0A801BE01E1DBEC01892BC5
:1045700049F080918D0490918E0485DC10928E0418
:1045800010928D04CE01DF91CF911F910F9108956C
:10459000C8E4D3E0EECF80918D0490918E0470CC6E
:1045A0002F923F924F925F926F927F928F929F9243
:1045B000AF92BF92CF92DF92EF92FF920F931F9331
:1045C000CF93DF93CDB7DEB769970FB6F894DEBF10
:1045D0000FBECDBF209191042223F1F05B8B4A8B5B
:1045E0006E877F87888B998B9A01AB01BC01CE01C6
:1045F00001967C017BD910E048E0242E312CE88E16
:10460000F98E89819A81181619060CF450C211236B
:1046100019F08A899B89A2DC69960FB6F894DEBFEF
:104620000FBECDBFDF91CF911F910F91FF90EF9003
:10463000DF90CF90BF90AF909F908F907F906F90C2
:104640005F904F903F902F900895EB81FC818C8577
:104650009D8533E0880F991F3A95E1F7E80FF91F20
:10466000808191819093880480938704248135818F
:10467000428153815093860440938504468157813B
:104680005093840440938304820F931F9C01990FDD
:10469000440B550B2C8B3D8B4E8B5F8B812C912CBF
:1046A00054018C899D89AE89BF8988169906AA060E
:1046B000BB0638F18C859D85880F991FED81FE81A1
:1046C000E80FF91F4E855F8568897989808191811E
:1046D0000E94D817AC85BD851196BD87AC878981AE
:1046E0009A81EC85FD85E817F9070CF4AECF2A898D
:1046F0003B894E855F8568897989888D998DF6D843
:1047000080CF1F826091870470918804CB01072EAF
:10471000000CAA0BBB0B84017501640134E0C30ECD
:10472000D11CE11CF11CC816D906EA06FB0608F0EC
:10473000B3C02091850430918604A4014C5F5F4F83
:10474000240F351FF901C080D12CF12CE12C24015C
:104750003501F5E04F0E511C611C711C48165906BD
:104760006A067B0608F0A3C0209185043091860478
:10477000F8013596E20FF31F2081D22A240135017A
:1047800026E0420E511C611C711C481659066A062F
:104790007B0608F097C02091850430918604F801CB
:1047A0003696E20FF31F2081E22A2401350137E01B
:1047B000430E511C611C711C481659066A067B0683
:1047C00008F08BC02091850430918604F80137965B
:1047D000E20FF31F208126013701722A750164015F
:1047E00048E0C40ED11CE11CF11C8C159D05AE05E2
:1047F000BF0508F41DC188169906AA06BB0608F075
:1048000077C08091850490918604800F911F68E0A5
:1048100070E080DBE0918704F09188049F010F2E07
:10482000000C440B550BD301C2018C0D9D1DAE1D18
:10483000BF1D281739074A075B0708F478C0C2165E
:10484000D306E406F50608F05DC0809185049091DA
:1048500086049801285F3F4F820F931FB2015ADBF5
:104860008091870490918804AC01092E000C660B9E
:10487000770BC416D506E606F70608F04DC0085FAC
:104880001F4F8091850490918604800F911FA20193
:1048900070E060E0F2D5A7C044E050E0461B570B43
:1048A000480D591D209183043091840449CFE5E0DF
:1048B000F0E0E61BF70BE00FF11F2091830430912D
:1048C000840458CFE6E0F0E0E61BF70BE00FF11FA1
:1048D000209183043091840464CFE7E0F0E0E61B8C
:1048E000F70BE00FF11F209183043091840470CF07
:1048F0009801261B370B8091830490918404820FCA
:10490000931F85CF91012E1B3F0B200F311F8091EC
:10491000830490918404A0CFD101A81BB90BCD01D1
:10492000080F191F8091830490918404AECFBF01BA
:1049300068507109601B710BC216D306E406F506B8
:1049400008F062C080918504909186049801285FE8
:104950003F4F820F931FDEDA809187049091880485
:10496000B101681B790B600F711F640D751D80917B
:10497000830490918404CEDA809187049091880416
:10498000AC0148505109FA01E01BF10BAC01092EB2
:10499000000C660B770BC416D506E606F70608F082
:1049A0003DC080918504909186049801285F3F4F17
:1049B000820F931FAF0170E060E05FD58F8320917D
:1049C000870430918804F101E21BF30B9F01200F53
:1049D000311F240D351D50E040E0682F8091830485
:1049E0009091840436D58F8361E070E0CE01079604
:1049F00091DA182F38E0430E511C611C711C840C95
:104A0000951CA61CB71C4DCE91012E1B3F0B200FF1
:104A1000311F80918304909184049BCF9101281BC6
:104A2000390B200F311F8091830490918404C0CFF3
:104A300088169906AA06BB0668F5601B710B809163
:104A4000850490918604800F911F64DA8091870419
:104A500090918804B101681B790B600F711F640D80
:104A6000751D809183049091840454DA80918704A9
:104A700090918804AC01092E000C660B770BC416CC
:104A8000D506E606F70608F4FACE9101281B390B85
:104A9000C90146CFC801861B970B20918304309132
:104AA0008404B201685F7F4F820F931FDECF1D86A3
:104AB0001C8615CECF93DF93EC01AC0160E070E073
:104AC000CB016EDDAE0161E070E080E090E0DF914F
:104AD000CF9166CDCF9380918D0490918E048BD928
:104AE000C82F81110BC060E070E0CB010E94D11291
:104AF00061E070E080E090E00E94D1128C2FCF91B5
:104B000008950F931F9389019A01AB01BC01809115
:104B10008D0490918E04B8D91F910F9108954F92F2
:104B20005F926F927F928F929F92AF92BF92CF923D
:104B3000DF92EF92FF920F931F93CF93DF93CDB746
:104B4000DEB763970FB6F894DEBF0FBECDBF6C0122
:104B50008B015A0180919104882309F43DC0809112
:104B60009104882309F442C0809190041A8219822A
:104B7000882309F4C0C0F0E94F2EFFE55F2E6624BC
:104B80006394712CF12CE12C970127583B4FAE0117
:104B90004F5F5F4F61E070E080918D0490918E04D3
:104BA0004AD9982E811169C089819A81E80EF91E2F
:104BB000E114F10409F461C081E0481A5108610868
:104BC000710859F560919C0470919D048DEE90E000
:104BD0006AD91A82198251C061E974E080918D040A
:104BE00090918E0452D9882309F4B9CF63960FB6F9
:104BF000F894DEBF0FBECDBFDF91CF911F910F9113
:104C0000FF90EF90DF90CF90BF90AF909F908F90EC
:104C10007F906F905F904F900895AAE0EA16F1049C
:104C200009F063C049E050E070E060E089E794E09B
:104C300028D460919C0470919D04882309F452C08B
:104C40008091810490E08617970719F6BC018EEEDB
:104C500090E029D988E0E9E7F4E0DE0119960190B7
:104C60000D928A95E1F780919C0490919D040196A4
:104C7000992790939D0480939C0481E029813A8137
:104C8000121613060CF080E09110CAC2882309F4B2
:104C9000ADCF80919004811104C019861A861B86BD
:104CA0001C8689859A85AB85BC8580319105A105D7
:104CB000B10508F09BCFFC018827EE59F94D8F4FC5
:104CC0000C941B32E226A1281029F625E627192884
:104CD000D226DA26B626F528E428F128F625F62588
:104CE000F625A1268FEE90E073CFBAE0EB16F10423
:104CF0000CF44ACFC2CFF12CE12CE8E06E2E712CDF
:104D000029E030E02C0F3D1F2E0D3F1DAE014F5FFF
:104D10005F4FB3016E197F0980918D0490918E04CD
:104D20008AD8982E29813A81811109C0E20EF31E9A
:104D3000E114F10421F0E8E0EE16F1040CF381E057
:104D40009FCFD6011696ED91FC9180819181A28131
:104D5000B38189839A83AB83BC83AE014F5F5F4F7E
:104D600064E070E085E190E03ADB40CF8D859E8580
:104D700014D92FEF3FEFA90161E070E0009771F0C7
:104D8000FC01C080D180E280F380A801C701B60198
:104D90000E945117A701960170E060E08DE190E05C
:104DA00051DB24CF4D855E859801B6018BE190E003
:104DB00073DB1CCF4D855E852FEF3FEFB6018CE195
:104DC00090E0F6CFD6011496ED91FC91008111810F
:104DD000F80182809380A080B18070E1472E512C31
:104DE000612C712C49825A826B827C8288E090E02F
:104DF000A0E0B0E08D839E83AF83B8879E012F5ED5
:104E00003F4FAE014F5F5F4F68E070E080918D04CF
:104E100090918E040E94FD1E8823D9F010E000E0DE
:104E2000C80163960FB6F894DEBF0FBECDBFDF9109
:104E3000CF911F910F91FF90EF90DF90CF90BF9097
:104E4000AF909F908F907F906F905F904F900C9459
:104E5000063389899A89089709F7D801ED90FC9063
:104E6000B8E0EB0EF11CEE0CFF1CEE0CFF1CC701B2
:104E70000E946A328C01892B89F249825A826B82A4
:104E80007C82C7010F2C000CAA0BBB0B8D839E8369
:104E9000AF83B8879E012F5E3F4FAE014F5F5F4FDC
:104EA00068E070E080918D0490918E040E94FD1E58
:104EB0008111B6CF89899A89089709F0B1CFD601B7
:104EC0001296ED91FC914081518162817381D801EC
:104ED0004D935D936D937C931397448155816681C7
:104EE000778114964D935D936D937C9317974085CE
:104EF00051856285738518964D935D936D937C9370
:104F00001B9784859585A685B785F8018487958745
:104F1000A687B787108A118A128A138A84E090E0E4
:104F2000A0E0B0E0848B958BA68BB78B8091B40208
:104F30009091B502B0E0A0E0808F918FA28FB38FE7
:104F4000C5010B2C000CAA0BBB0B848F958FA68F71
:104F5000B78FF401D801909690E080E08A159B0508
:104F60005CF19E012F5E3F4FA801B70180918D0437
:104F700090918E040E94FD1E811152CF89899A89D9
:104F8000E816F90609F04CCFA70170E060E0C8010F
:104F900074D28B8B9E012F5E3F4FAE014D5E5F4FF3
:104FA00061E070E080918D0490918E040E94FD1E5E
:104FB00081E08093900434CF4191519170E060E0A2
:104FC0004D935D936D937D930196C8CF8D859E859E
:104FD000AF85B8890097A105B10521F481E08093E0
:104FE0008F0404CE0E94CD1F009781F481E090E0F1
:104FF000A0E0B0E089839A83AB83BC83AE014F5FAE
:105000005F4F64E070E082E190E0AECEBC01C6018B
:105010000E942B1219821A821B821C82AE014F5FE2
:105020005F4F64E070E082E190E0D9D98823B1F26B
:10503000DDCDD6011496ED91FC910190F081E02D2B
:10504000E084F1848FEF8983E114F10409F472C0E4
:10505000D7016D907C90C280D38070E060E090E0DA
:1050600080E08615970594F083E190E00E94531F3D
:1050700010E000E08111BACD061517055CF161E082
:1050800070E0CE0101960E948A1FB0CD9C0143E0E2
:10509000220F331F4A95E1F7F701A281B381A20FD6
:1050A000B31F1296ED91FC911397EE0FFF1FEC0DBD
:1050B000FD1D0190F081E02D16964D915C91E49FCD
:1050C0009001E59F300DF49F300D1124620F731F86
:1050D0000196C7CFD7011296ED91FC91C80123E04C
:1050E000880F991F2A95E1F7E80FF91FA080B1807A
:1050F000A281B381AA0FBB1FAC0DBD1D2D913C91A8
:1051000086819781289F4001299F900C389F900CA1
:105110001124B401C5010E948A1F582E940150E049
:1051200040E06981C50195D1898351105FCD0F5F42
:105130001F4FA2CF70E060E083E190E00E94531F18
:1051400055CD50E040E070E060E081E190E047D96B
:1051500081114CCD60E070E0CB010E94F61380918C
:105160007304882329F0A80160E070E0CB0118DA0D
:10517000A80160E070E0CB010E94FD1261E070E0E8
:1051800080E090E00E94F61380917304882331F050
:10519000A80161E070E080E090E002DAA80161E03F
:1051A00070E080E090E00E94FD1210929104109255
:1051B000900410929D0410929C0480918D04909113
:1051C0008E040E944B1F12CD81E090E090937504F5
:1051D0008093740450E040E070E060E086E190E08D
:1051E000C3CD81E0F501808301CD8D859E850E9430
:1051F000CD1F2FEF3FEFA90161E070E0009769F04C
:10520000DC01CD90DD90ED90FC90C701B6010E94CD
:10521000B117A701960170E060E08EE190E0C0CD8B
:10522000C8010E94AE1FE2CCCF92DF92EF92FF92B4
:10523000CF93DF93EC01C12CD12C7601C701B601CD
:105240000E94F613AE01C701B601AAD9AE01C7018B
:10525000B6010E94FD128091890490918A04009702
:1052600031F00E94063310928A0410928904CA9485
:10527000CD28CE28CF2879F580919004F12C882371
:1052800051F050E040E070E060E084E190E0A7D8A9
:10529000F82E1092900480919104882341F010928E
:1052A000910481E090E09093B5028093B4028091E4
:1052B0008D0490918E040E944E1F80918D049091D8
:1052C0008E040E94431F8F2DDF91CF91FF90EF90AE
:1052D000DF90CF900895C12CD12C7601C394AECF2E
:1052E000CF93DF93EC01AC0160E070E0CB010E9452
:1052F000E61BAE0161E070E080E090E0DF91CF91CD
:105300000C94E61B60E070E0CB010E94531C61E04E
:1053100070E080E090E00C94531CCF92DF92EF920B
:10532000FF920F931F93CF93DF93EC016A017B01F0
:1053300000E010E098010E94011801E010E020E078
:1053400030E0B701A601CE010E940118DF91CF9194
:105350001F910F91FF90EF90DF90CF90089568EE2E
:1053600073E080E090E003D490E080E0089526E0D0
:1053700040E050E16EE070E08BEA94E05AD58BEAB1
:1053800094E08DD4892B21F08BEA94E0A2D4F7CF5E
:1053900090E080E00895CF92DF92EF92FF920F931A
:1053A0001F93CF93DF936B017A01E9011982188271
:1053B0008BEA94E074D4892B71F18601CC24C394D8
:1053C00085E6D82E80919E04811111C08BEA94E06D
:1053D00080D485369105B1F7C0929E04F801D19230
:1053E0008F0188819981019699838883EBCF888189
:1053F00099818E159F0578F48BEA94E06AD48F3FEB
:105400009807A9F3F80181938F018881998101960A
:1054100099838883ECCF90E080E0DF91CF911F915A
:105420000F91FF90EF90DF90CF9008950F931F930F
:10543000CF93DF93EA0189018BEA94E08AD7F801E0
:10544000D183C08390E080E0DF91CF911F910F91D5
:105450000895DC01A40FB51F420F531F9D01281BA7
:10546000390B2417350710F0862F0895ED91E627A4
:10547000F0E0EC51FF4F6491F1CF9A01AB016FEF77
:10548000E8CFCF93FC01E60FF71FE40FF51FC081B3
:10549000F4DF91E0C81390E0892FCF9108958091B7
:1054A0009F0491E0980F90939F04882349F021E096
:1054B00030E03093A1042093A00480939F040895CA
:1054C00078940E940D03F89480919F0481508093FA
:1054D0009F040C94D01DFF920F931F93CF93DF93E3
:1054E0001F92CDB7DEB7109295121092941275D319
:1054F0000E94231E0091CB021091CC02F801118270
:10550000108270E060E090E080E00E94D81D0E9470
:10551000A20FF8947894C80186960E94D71D81E066
:1055200090E00E94D41D1982AE014F5F5F4F61E091
:1055300070E0F801828193810E94841D8981882313
:1055400019F081E0F80182A70E94DD1DF8940E9405
:10555000761EF80180819181892B19F481E092A552
:10556000911180E08093941278947894FF24F394BE
:1055700080919412811110C00E94661081E090E029
:105580000E94D51DF89490E080E00F90DF91CF91BC
:105590001F910F91FF9008951982AE014F5F5F4FE9
:1055A00061E070E0F801828193810E94BC1D8981D5
:1055B000882311F0F801F2A6F80180819181892BEE
:1055C00089F481E092A5911101C080E08093951249
:1055D0009091951281E0911180E0809394120E9445
:1055E000951EC6CF81E0F2CF5058BB27AA270ED018
:1055F00097C188D130F08DD120F031F49F3F11F464
:105600001EF47DC10EF4E095E7FB4AC1E92F99D164
:1056100080F3BA17620773078407950718F071F4CF
:105620009EF5C8C10EF4E0950B2EBA2FA02D0B01EC
:10563000B90190010C01CA01A0011124FF27591BD7
:1056400099F0593F50F4503E68F11A16F040A22FDD
:10565000232F342F4427585FF3CF4695379527954E
:10566000A795F0405395C9F77EF41F16BA0B620B4D
:10567000730B840BBAF09150A1F0FF0FBB1F661F94
:10568000771F881FC2F70EC0BA0F621F731F841FD7
:1056900048F4879577956795B795F7959E3F08F0FD
:1056A000B3CF9395880F08F09927EE0F97958795BC
:1056B0000895D2D008F481E0089504D06894B1111F
:1056C0007AC1089546D188F09F5790F0B92F992755
:1056D000B751A0F0D1F0660F771F881F991F1AF0FD
:1056E000BA95C9F712C0B13081F064D1B1E0089524
:1056F00061C1672F782F8827B85F39F0B93FCCF3A5
:10570000869577956795B395D9F73EF490958095F2
:10571000709561957F4F8F4F9F4F0895E89409C012
:1057200097FB3EF490958095709561957F4F8F4FD4
:105730009F4F9923A9F0F92F96E9BB279395F695EA
:10574000879577956795B795F111F8CFFAF4BB0F68
:1057500011F460FF1BC06F5F7F4F8F4F9F4F16C0CC
:10576000882311F096E911C0772321F09EE8872F56
:10577000762F05C0662371F096E8862F70E060E012
:105780002AF09A95660F771F881FDAF7880F96958B
:10579000879597F90895F7D080F09F3740F49111DD
:1057A0000EF009C160E070E080E89FEB089526F4F8
:1057B0001B16611D711D811D79C093C0A3D018F007
:1057C00011F0A7D038F49BC0F6C0E92FBAD0B0F3DF
:1057D0005523C9F3E7FB6217730784079507A8F100
:1057E00099F3E92FFF2788232AF03197660F771F57
:1057F000881FDAF7952F5527442332F091505040F7
:10580000220F331F441FD2F7BB27E91BF50B621B86
:10581000730B840BB109C1F222F4620F731F841F52
:10582000B11D31972AF0660F771F881FBB1FEFCF7E
:10583000915050405AF041F0882332F0660F771FA4
:10584000881F91505040C1F793954BC0869577952E
:1058500067959F5FD9F7F8CF990F0008550FAA0BEE
:10586000E0E8FEEF16161706E807F907C0F0121673
:105870001306E407F50798F0621B730B840B950B76
:1058800039F40A2661F0232B242B252B21F40895CB
:105890000A2609F4A140A6958FEF811D811D089568
:1058A00097F99F6780E870E060E00895882371F4BD
:1058B000772321F09850872B762F07C0662311F4A9
:1058C00099270DC09051862B70E060E02AF09A95E0
:1058D000660F771F881FDAF7880F9695879597F9D7
:1058E00008959F3F31F0915020F487957795679503
:1058F000B795880F911D9695879597F908959FEF15
:1059000080EC089500240A94161617061806090656
:10591000089500240A941216130614060506089525
:10592000092E0394000C11F4882352F0BB0F40F4AD
:10593000BF2B11F460FF04C06F5F7F4F8F4F9F4FED
:10594000089557FD9058440F551F59F05F3F71F06F
:105950004795880F97FB991F61F09F3F79F08795D6
:105960000895121613061406551FF2CF4695F1DF5F
:1059700008C0161617061806991FF1CF86957105EF
:10598000610508940895E5DFA0F0BEE7B91788F433
:10599000BB279F3860F41616B11D672F782F882714
:1059A000985FF7CF869577956795B11D9395963952
:1059B000C8F30895E894BB2766277727CB0197F9AA
:1059C00008954ADF08F48FEF08950BD0A9CF9ADF2E
:1059D00028F09FDF18F0952309F062CF90CF1124B3
:1059E000EACFAFDFA0F3959FD1F3950F50E0551F9D
:1059F000629FF001729FBB27F00DB11D639FAA2724
:105A0000F00DB11DAA1F649F6627B00DA11D661F72
:105A1000829F2227B00DA11D621F739FB00DA11D93
:105A2000621F839FA00D611D221F749F3327A00D4D
:105A3000611D231F849F600D211D822F762F6A2FE9
:105A400011249F5750408AF0E1F088234AF0EE0F6E
:105A5000FF1FBB1F661F771F881F91505040A9F77B
:105A60009E3F510570F01CCFA6CF5F3FECF3983EF0
:105A7000DCF3869577956795B795F795E7959F5FE2
:105A8000C1F7FE2B880F911D9695879597F908957C
:105A90001F920F920FB60F9211242F933F938F9363
:105AA0009F93AF93BF938091A3049091A404A0917E
:105AB000A504B091A6043091A20423E0230F2D3752
:105AC00058F50196A11DB11D2093A2048093A30453
:105AD0009093A404A093A504B093A6048091A70476
