:10000000F5C0000024C1000022C1000020C1000092
:100010001EC100001CC100001AC1000018C1000070
:1000200016C1000014C1000012C1000010C1000080
:100030000EC100000CC100000AC1000008C1000090
:1000400006C1000004C1000002C1000000C10000A0
:10005000FEC00000FCC00000FAC000000C94152790
:10006000F6C000000C9446290C947C29F0C00000D6
:10007000EEC00000ECC00000EAC00000E8C00000D4
:10008000E6C00000E4C00000E2C00000E0C00000E4
:100090000C94D2290C94082ADAC00000D8C00000C1
:1000A000D6C00000D4C00000D2C00000D0C0000004
:1000B000CEC00000CCC00000CAC00000C8C0000014
:1000C000C6C00000C4C000000C9415180C945E2A31
:1000D0000C94942ABCC000000C94EA2A0C94202BA7
:1000E000B6C00000001D3A2774694E53E8F5D2CF20
:1000F0009C81A6BBCDD0F7EAB9A4839E25381F0208
:10010000514C6B76879ABDA0F3EEC9D46F725548F7
:100110001B06213C4A57706D3E230419A2BF9885E7
:10012000D6CBECF1130E2934677A5D40FBE6C1DCD7
:100130008F92B5A8DEC3E4F9AAB7908D362B0C11C7
:10014000425F78659489AEB3E0FDDAC77C61465BB7
:100150000815322F5944637E2D30170AB1AC8B96A7
:10016000C5D8FFE2263B1C01524F6875CED3F4E997
:10017000BAA7809DEBF6D1CC9F82A5B8031E392487
:10018000776A4D50A1BC9B86D5C8EFF24954736E77
:100190003D20071A6C71564B1805223F8499BEA367
:1001A000F0EDCAD735280F12415C7B66DDC0E7FA57
:1001B000A9B4938EF8E5C2DF8C91B6AB100D2A3747
:1001C00064795E43B2AF8895C6DBFCE15A47607D37
:1001D0002E3314097F6245580B16312C978AADB027
:1001E000E3FED9C4A529312ABD2A492B11241FBEFB
:1001F000CFEFD1E2DEBFCDBF00E00CBF13E0A0E047
:10020000B2E0EEEEFAE500E00BBF02C007900D92FF
:10021000A239B107D9F721E1A2E9B3E001C01D92EB
:10022000AC3EB207E1F710E0C6EFD0E000E006C058
:1002300021970109802FFE010E94E82BC23FD107C0
:1002400080E00807A9F70E9438240C94752DD8CEB9
:100250002F923F924F925F926F927F928F929F92D6
:10026000AF92BF92CF92DF92EF92FF920F931F93C4
:10027000CF93DF93CDB7DEB7AE970FB6F894DEBF5E
:100280000FBECDBFE5E3F7E080E6DF011D928A9562
:10029000E9F780E090E0A0E8BFE3809379079093CE
:1002A0007A07A0937B07B0937C07C0906A02D09036
:1002B0006B02E0906C02F0906D02CB86DC86ED86DE
:1002C000FE86C0906E02D0906F02E0907002F090B7
:1002D0007102CF86D88AE98AFA8A2DE337E03A8715
:1002E000298789E197E09C8B8B8B312C412CB0E8DE
:1002F0005B2E1FE3612EA12CB12C00E010E0212C1D
:10030000712C812C912C20E030E040E85FE36B857C
:100310007C858D859E850E942625C22CD72C740154
:10032000811122C0FF24F39420E030E0A901B5013F
:10033000C8010E942625811101C0F12CEE24E3940E
:1003400020E030E0A901622D772DC4010E9426250E
:10035000811101C0E12CFE246F2D70E090E080E05F
:100360000E945D256B017C0120E030E040E85FE306
:100370006F85788989899A890E94262581117EC492
:100380009924939420E030E0A901B501C8010E94AE
:100390002625811101C0912C8824839420E030E02F
:1003A000A901632D742D852D962D0E94262581117E
:1003B00001C0812C9824692D70E090E080E00E94BB
:1003C0005D25262E772E4C01A985BA85CD92DD922A
:1003D000ED92FD92BA87A987822D972DD401E985E8
:1003E000FA85848F958FA68FB78FC501D80184AF0A
:1003F00095AFA6AFB7AF3A2C4B2C502E612EE555DA
:10040000F74009F038C48093F1079093F207A09366
:10041000F307B093F4071092E9071092EA071092DD
:10042000EB071092EC0785E397E09E8B8D8B01EB39
:1004300017E0F801119211921192119297E0ED3CA0
:10044000F907C1F7812C912CF0E8AF2EFFE3BF2E06
:10045000A6E0CA2ED12CC501B4010E942A256B5DED
:100460007F4F660F771F660F771FDB01A75EB84FC0
:100470007D01B6010D2C000C880B990B0E945D25A7
:10048000F701608371838283938320E030E040E84A
:100490005FE3C501B4010E94C2244B015C01F1E09D
:1004A000CF1AD108C0F68092F5079092F607A09275
:1004B000F707B092F80736E7E32E32E0F32E4DEC63
:1004C000C42E47E0D42E56E6A52E52E0B52ED70115
:1004D0006D917D918D919D917D0120E030E040E80E
:1004E0005FEB0E94262581110AC080E090E0A0E821
:1004F000BFEBF6017C9780839183A283B383F601DF
:1005000011921192119211926F01F2E9EF16F2E03D
:10051000FF06E9F64090E9075090EA076090EB0784
:100520007090EC0721EBE22E27E0F22ED7016D91BF
:100530007D918D919D917D01A30192010E94B22632
:10054000F701608F718F828F938FF9ECEF16F7E0D0
:10055000FF0661F780918E0290918F02A091900228
:10056000B09191028093E5079093E607A093E70787
:10057000B093E80721EB37E03A872987A985BA8548
:100580001D921D921D921D92BA87A987AD5CB7403E
:10059000A9F7D8015C96CD90DD90ED90FC905F9727
:1005A000C092F507D092F607E092F707F092F807AD
:1005B00020E030E040E85FEBC701B6010E9426254D
:1005C000811161C380E090E0A0E8BFEBF801808377
:1005D0009183A283B3830C5F1F4FF4E0AF0EB11C75
:1005E0009EE7C92E92E0D92ECA14DB0491F68091C1
:1005F0008E0290918F02A0919002B091910280930F
:10060000C9079093CA07A093CB07B093CC0720905B
:10061000B1073090B2070091B3071091B407C10140
:10062000D8018093ED079093EE07A093EF07B09366
:10063000F007C090F507D090F607E090F707F0902C
:10064000F807CF86D88AE98AFA8A25EB37E03C8713
:100650002B87AB85BC85CD90DD90ED90FD90BC8760
:10066000AB8720E030E040E85FEBC701B6010E94B5
:100670002625882309F48BC320E030E040E85FEBB7
:10068000B101C8010E942625882309F436C19101D1
:10069000A801C701B6010E942625882309F47AC360
:1006A00020E030E040E050E4B101C8010E94C224E3
:1006B0000E942A254B01FB013696EE0FFF1FEE0F1D
:1006C000FF1FE75EF84F80819181A281B3818F8700
:1006D000988BA98BBA8BF4017696EE0FFF1FEE0F65
:1006E000FF1FE75EF84F208031800281138120E0F8
:1006F00030E040E050E4C701B6010E94C2240E94ED
:100700002A252B01FB013696EE0FFF1FEE0FFF1F70
:10071000E75EF84FFF24F39420E030E0A901608108
:100720007181828193810E942625811101C0F12C63
:10073000CC24C39420E030E0A9016F8578898989B1
:100740009A890E942625811101C0C12CCF24F20173
:100750003E96EE0FFF1FEE0FFF1FE75EF84FFF24E0
:10076000F39420E030E0A90160817181828193815E
:100770000E942625811101C0F12C9EE0890E911C5A
:10078000F401EE0FFF1FEE0FFF1FE75EF84FEE24A0
:10079000E39420E030E0A90160817181828193813E
:1007A0000E942625811101C0E12CFE24A6E14A0EFB
:1007B000511CF201EE0FFF1FEE0FFF1FE75EF84F17
:1007C000EE24E39420E030E0A90160817181828110
:1007D00093810E942625811101C0E12CDD24D39450
:1007E00020E030E0A901B101C8010E942625811155
:1007F00001C0D12CED2455E3852E57E0952EB12C68
:10080000A12C8F2D90E0B0E0A0E08FA398A7A9A71E
:10081000BAA78E2D90E0B0E0A0E08BA79CA7ADA773
:10082000BEA7D12CF12CE12CF40181919191A191E1
:10083000B1914F018F8B988FA98FBA8F848D958D31
:10084000A68DB78D8B8F9C8FAD8FBE8F6FA178A536
:1008500089A59AA50E945D252B013C01D401DC9657
:100860008D919D910D90BC91A02D8F8F98A3A9A3E0
:10087000BAA36BA57CA58DA59EA50E945D256BA343
:100880007CA38DA39EA3C701B6010E945D252F897D
:10089000388D498D5A8D0E94262581111BC5A301D3
:1008A00092016B8D7C8D8D8D9E8D0E9426258111F0
:1008B00011C52BA13CA14DA15EA16F8D78A189A18D
:1008C0009AA10E942625811105C5A114B10409F43D
:1008D00061C2B501BB0C880B990B0E945D2520E01D
:1008E00030E040E85FE30E94C22420E030E040E0D6
:1008F00050E40E94C1246B017C01EB85FC852985B5
:100900003A85E217F30709F03FC2C092ED07D09293
:10091000EE07E092EF07F092F0078F859889A9899A
:10092000BA898093F5079093F607A093F707B093E1
:10093000F807C101D8018093F1079093F207A093C3
:10094000F307B093F407AD89BE89FE92EE92DE9272
:10095000CE92BE8BAD8B20E030E040E85FE360914B
:10096000E9077091EA078091EB079091EC070E94EC
:10097000C2246093E9077093EA078093EB07909392
:10098000EC07ED89FE89E951F74009F050CD85E388
:1009900097E0AB89BC894D915D916D917D91BC8B48
:1009A000AB8BFD01E858FF4F408351836283738313
:1009B0008A179B0771F7E2E9F2E0FA87E98710E00E
:1009C00000E01E01F9E02F0E311C31E7432E35E126
:1009D000532E612C712CA985BA856D917D918D91D5
:1009E0009D91BA87A98720E030E040E85FE30E944C
:1009F000262581116EC08091F9079091FA07A09188
:100A0000FB07B091FC0784309105A105B10509F001
:100A1000D5C16091FD077091FE078091FF0790910D
:100A200000082DE133EF41E050E00E94C62B490160
:100A30005A019B01AC01A7EAB1E40E94F02B6B01C3
:100A40007C01A4E1BBE0A50194010E94F02BC61635
:100A5000D706E806F90608F0A4C16C197D098E09CD
:100A60009F0960957095809590959F776093FD079D
:100A70007093FE078093FF07909300086091FD0735
:100A80007091FE078091FF07909100080E945B25FE
:100A900020E030E040E050E30E94B2264B015C01D0
:100AA0008092E9079092EA07A092EB07B092EC07D8
:100AB00020E030E040EE50E4C501B4010E94B226CF
:100AC0000E949825F801EB56F84F6083718382836A
:100AD00093830C5F1F4F0C31110509F07CCF81E02F
:100AE00090E00E949F174091D0035091D1036091F4
:100AF000D2037091D30390E080E00E949B17809016
:100B0000E0039090E103A090E203B090E30320E0C3
:100B100030E040E85FEBC501B4010E942625882340
:100B200031F1C090D003D090D103E090D203F09087
:100B3000D303A7019601C501B4010E94C1244B0152
:100B40005C0120E030E040E054E3C701B6010E94C0
:100B5000B2269B01AC01C501B4010E94AE26181655
:100B600034F082EB92E09093BB038093BA038091C0
:100B7000E403882331F082EB92E09093BB038093EF
:100B8000BA03C090D403D090D503E090D603F09080
:100B9000D7038FEFC81AD80AE80AF80AC092D4031C
:100BA000D092D503E092D603F092D703C114D104BA
:100BB000E104F10499F48091D8039091D903A091B4
:100BC000DA03B091DB030196A11DB11D8093D80318
:100BD0009093D903A093DA03B093DB038090DC03F6
:100BE0009090DD03A090DE03B090DF036091D80306
:100BF0007091D9038091DA039091DB030E945B2509
:100C0000A50194010E94B22620E030E040E85FE4B4
:100C10000E94B2262B013C01C701B6010E945B2550
:100C2000A50194010E94B2269B01AC01C301B2014F
:100C30000E94C2246093D0037093D1038093D203A7
:100C40009093D303AE960FB6F894DEBF0FBECDBF20
:100C5000DF91CF911F910F91FF90EF90DF90CF9098
:100C6000BF90AF909F908F907F906F905F904F90CC
:100C70003F902F9008955601870145CB232C742C6B
:100C8000852C962CA1CBD50150964D905D906D9002
:100C90007C90539720E030E040E85FEBC301B20165
:100CA0000E942625882309F48DCCA3019201C70157
:100CB000B6010E94C2246093F5077093F6078093F3
:100CC000F7079093F8076AD48823C9F0C090DA1127
:100CD000D090DB11E090DC11F090DD1120E030E0ED
:100CE00040E85FEBC701B6010E942625882309F47E
:100CF00069CCF801C082D182E282F3826CCC60912F
:100D0000F5077091F6078091F7079091F80701D4E5
:100D10008111DCCF4090F5075090F6076090F707FF
:100D20007090F80720E030E0A901C301B2010E94F1
:100D30002625882329F120E030E040EE50E4C3016D
:100D4000B2010E94B2256B017C0120E030E0A901D4
:100D50000E9426258823A1F020E030E0A901C301EC
:100D6000B2010E94262587FFB9CF20E030E040EE97
:100D700050E4C701B6010E94C2246B017C01AECFD2
:100D8000C12CD12C7601B5CF1601870162CC61014F
:100D90007801B3CDC12CD12C40E8E42E4FEBF42EDA
:100DA000ACCDC61AD70AE80AF90AC092FD07D0925C
:100DB000FE07E092FF07F092000860CE0597A105BC
:100DC000B10509F062C020910108309102084091FC
:100DD0000308509104086DEC7DE081E090E00E94F2
:100DE000A42BAB01BC01495759426D4E7F4F8091F6
:100DF000050890910608A0910708B09108086C01B9
:100E00007D01EDE0CC0CDD1CEE1CFF1CEA95D1F75A
:100E10008C259D25AE25BF256C017D01F1E1F69461
:100E2000E794D794C794FA95D1F78C259D25AE25E4
:100E3000BF256C017D0125E0CC0CDD1CEE1CFF1CE8
:100E40002A95D1F78C259D25AE25BF254093010815
:100E50005093020860930308709304088093050878
:100E600090930608A0930708B09308086A017B01D5
:100E7000C80ED91EEA1EFB1EC701B6010E945B25E3
:100E800020E030E040E85FE207CE8091CD11811193
:100E90004DC0A9E0B8E0E4ECF9E01D923197E9F724
:100EA0004092090850920A0860920B0870920C0850
:100EB000EDE0F8E0C12CD12C7601C39481E795E1F7
:100EC000A0E0B0E09C01AD016EE1569547953795E5
:100ED00027956A95D1F7282739274A275B2765E6A2
:100EE00079E887E09CE60E94A42BDC01CB018C0D05
:100EF0009D1DAE1DBF1D81939193A193B1932FEFC3
:100F0000C21AD20AE20AF20A30E7C31632E0D30666
:100F1000E104F104B9F6C092C911D092CA11E0926D
:100F2000CB11F092CC1181E08093CD119E012F5F07
:100F30003F4FC090C911D090CA11E090CB11F090F2
:100F4000CC119FEFC91AD90AE90AF90AA1E7CA1612
:100F5000A2E0DA06E104F10408F4C2C0E9EFF7E028
:100F600044895589668977897F77C088D188E288E6
:100F7000F388CC24DD24EE24B0E8FB22C42AD52A51
:100F8000E62AF72AB701A601769567955795479502
:100F900081E0C822DD24CD2841F09FED492790EB68
:100FA000592798E0692799E97927CF018C5B994FF8
:100FB000DC01CD90DD90ED90FC904C255D256E25FB
:100FC0007F25408B518B628B738B3496B5E8CB2E8B
:100FD000BBE0DB2ECE16DF0619F6E5E9FBE040812B
:100FE0005181628173814427552766277078C480B8
:100FF000D580E680F780E894F7F8C42AD52AE62A57
:10100000F72AB701A601769567955795479581E030
:10101000C822DD24CD2841F09FED492790EB5927C8
:1010200098E0692799E97927CF018C589340DC0132
:10103000CD90DD90ED90FC904C255D256E257F25B3
:10104000419351936193719345ECC42E41E1D42EA9
:10105000CE16DF0621F6C090C511D090C611E090E3
:10106000C711F090C811CC24DD24EE2480E8F822CA
:101070004091090850910A0860910B0870910C0882
:101080007F77C42AD52AE62AF72AB701A6017695E2
:1010900067955795479591E0C922DD24CD2841F009
:1010A000AFED4A27A0EB5A27A8E06A27A9E97A27DB
:1010B000C090390ED0903A0EE0903B0EF0903C0E6E
:1010C0004C255D256E257F254093C5115093C61193
:1010D0006093C7117093C811C12CD12C7601C394B1
:1010E000F601E150F04CEE0FFF1FEE0FFF1FE75F20
:1010F000F74F4081518162817381C092C911D092B2
:10110000CA11E092CB11F092CC114A015B01EBE0E5
:10111000B694A79497948794EA95D1F748255925D2
:101120006A257B254A015B01F7E0880C991CAA1C03
:10113000BB1CFA95D1F7B0E88B22B6E59B22BCE246
:10114000AB22BDE9BB22482559256A257B254A01EA
:101150005B01AFE0880C991CAA1CBB1CAA95D1F7B7
:1011600088249924E6ECAE22E894B4F84825592561
:101170006A257B254A015B01B2E1B694A794979456
:101180008794BA95D1F7482559256A257B25D90139
:101190004D935D936D937D939D012A163B0609F057
:1011A000C8CE69817A818B819C81B5E096958795BF
:1011B00077956795BA95D1F70E945B2520E030E0DE
:1011C00040E85CE40E94B2264B015C016D817E81A7
:1011D0008F81988526E096958795779567952A95CE
:1011E000D1F70E945B259B01AC01C501B4010E94AF
:1011F000C22420E030E040E055E20E94B2264B01DC
:101200005C0120E030E0A9010E942625811148CC34
:10121000B1E0CB1AD108E108F108E0E7CE16E2E030
:10122000DE06E104F10490F4E9E0F8E081919191A7
:10123000A191B191892B8A2B8B2B09F077CEA9EC48
:10124000CA2EA1E1DA2ECE16DF0681F740920908F8
:1012500050920A0860920B0870920C08EDE0F8E0DA
:10126000C12CD12C7601C39481E795E1A0E0B0E0D8
:101270009C01AD016EE156954795379527956A9586
:10128000D1F7282739274A275B2765E679E887E0E1
:101290009CE60E94A42BDC01CB018C0D9D1DAE1D94
:1012A000BF1D81939193A193B1932FEFC21AD20ADC
:1012B000E20AF20A30E7C31632E0D306E104F10491
:1012C000B9F6C092C911D092CA11E092CB11F09236
:1012D000CC112CCE9FEFA91AB90AA8E0AA16B10426
:1012E00009F0A2CAC12CD12C760107CBCF93DF9392
:1012F00084E090E0D7D0EAEBF3E08BE2DF011D92CF
:101300008A95E9F780E090E0A0E8BFEB86A397A379
:10131000A0A7B1A78DEC9CECACE4BEE382A393A3A1
:10132000A4A3B5A384E997E4A6E9B8EC84839583E4
:10133000A683B78384E29BE7ACE0BCEB8087918710
:10134000A287B3878FE893EFA1E9BAEF84879587E7
:10135000A687B78783E292EEADECBDED808B918BD3
:10136000A28BB38BAEEAB3E0B383A283C6EAD3E029
:101370001196DC93CE9386EC92E0998388839B83CD
:101380008A839D838C839F838E838EEC93E0159656
:101390009C938E9314978EEB93E013969C938E936D
:1013A000129780ED93E017969C938E931697A9E180
:1013B000B7E080EEED0119928A95E9F7C9EFD7E021
:1013C00085ED99E0DE019C011D9221503040E1F74E
:1013D0002CE933E08AE0D9011D928A95E9F7A2E968
:1013E000B3E0B58BA48B8EE090E011969C938E9326
:1013F0008AE492E013969C938E9312978EE292E089
:1014000015969C938E93149782E192E017969C9385
:101410008E93169786E092E019969C938E93189778
:1014200087E090E0A0E0B0E088839983AA83BB8343
:1014300082E897EBA1E3B4E48C839D83AE83BF8302
:1014400085EE95E5AAE9B5E188879987AA87BB87E4
:1014500085EB9BE3A2E1BFE18C879D87AE87BF87C9
:10146000DF91CF910895089560E070E080E89FE7F4
:10147000089560E070E080E89FE7089560E070E024
:1014800080E89FEF089560E070E080E89FEF0895A6
:1014900060E070E080EC9FEF089560E070E080EC29
:1014A0009FEF0895F5DF6093DA117093DB1180935D
:1014B000DC119093DD11F1DF6093CE117093CF11A9
:1014C0008093D0119093D111CFDF6093D611709398
:1014D000D7118093D8119093D911CBDF6093D2119B
:1014E0007093D3118093D4119093D511C7DF60937B
:1014F000DE117093DF118093E0119093E111C3DF4F
:101500006093E2117093E3118093E4119093E511DD
:101510000895CF92DF92EF92FF92CF936B017C01FF
:10152000AC019B016091D6117091D7118091D811B7
:101530009091D9110E942625C1E0882371F0A7015E
:1015400096016091DE117091DF118091E011909110
:10155000E1110E9426258111C0E08C2FCF91FF90D0
:10156000EF90DF90CF9008950F931F938B019C0114
:101570000027112720783F770115110520483F47A4
:1015800049F4AB01BC016F77772781E0452B462BEF
:10159000472B09F480E01F910F910895E5CFEF925A
:1015A000FF920F931F93CF93DF93EA01F901DC01C0
:1015B0001496ED90FC90159712964D915C911397AF
:1015C0004E0D5F1D2881398118960D911C91199738
:1015D0000217130730F00D911C911197012B09F49C
:1015E00041C08A01021B130BDC0118968D919C915E
:1015F0008E199F09800F911F86179707DCF1C9018B
:10160000860F971F8417950778F47183608333835F
:101610002283158214821782168288819981680F2D
:10162000791F7983688316C01183008333832283F3
:10163000601B710B7583648390E080E016161706BB
:1016400014F49E2D8F2D96838783D701A60FB71F85
:10165000B983A88380E0DF91CF911F910F91FF9014
:10166000EF90089518968D919C91821B930B86178D
:1016700097075CF681E0EFCFCF92DF92EF92FF9277
:10168000CF93DF936B0184E4869FE001879FD00DA9
:101690001124CB51DC4F8AA99BA9009721F00E940D
:1016A000D32C1BAA1AAA84E48C9DF0018D9DF00D09
:1016B0001124EB51FC4F86A997A9009711F00E94C5
:1016C000D32C84E48C9DF0018D9DF00D1124EB5101
:1016D000FC4F138A128A168A178A108E118E128E68
:1016E000138E148E158E168E178E10A211A281E005
:1016F00090E093A382A315A214A216A217A210A68B
:1017000011A613A612A615A614A616A617A610AA09
:1017100011AA13AA12AA15AA14AA17AA16AA11AED8
:1017200010AE12AE13AE14AE15AEDF01DE961D92F2
:101730001D921D921C921397EE5BFF4F1182108237
:10174000DF91CF91FF90EF90DF90CF900895CF93EE
:10175000DF93FB01DC016D917C91DB011696CD914D
:10176000DC918081918123E0880F991F2A95E1F710
:10177000AA81BB81A80FB91F8D919C9111972485D7
:101780003585220F331FEB016A817B81EB01C20F8C
:10179000D31F0990D881C02D14962D913C9161E002
:1017A00070E0232B11F062E070E0C69F9001C79FAC
:1017B000300DD69F300D1124A085B1852A9FB00130
:1017C0002B9F700D3A9F700D1124A481B5812A9F23
:1017D000F0012B9FF00D3A9FF00D11248E0F9F1FEB
:1017E000FA019183808373836283DF91CF9108959F
:1017F0002F923F924F925F926F927F928F929F9221
:10180000AF92BF92CF92DF92EF92FF920F931F930E
:10181000CF93DF9300D000D0CDB7DEB7DC011496B4
:10182000ED91FC910190F081E02D808591859A8366
:101830008983A281B381BC83AB83FB0181909190AA
:10184000A190B190C12CD12C7601C814D904EA041E
:10185000FB04CCF026960FB6F894DEBF0FBECDBFCA
:10186000DF91CF911F910F91FF90EF90DF90CF907C
:10187000BF90AF909F908F907F906F905F904F90B0
:101880003F902F90089544805580668077804085F2
:10189000518562857385CF0140969E838D83A0819B
:1018A000B1819D0183E0220F331F8A95E1F7A98161
:1018B000BA8112968D919C91D901A80FB91F2D90D4
:1018C0003C9011970484F585E02DEE0FFF1F8B816E
:1018D0009C81E80FF91F0190F081E02D14968D9105
:1018E0009C91892B41F581E090E0E89F9001E99F70
:1018F000300DF89F300D1124249F8001259F100D7D
:10190000349F100D1124249DC001259D900D349D00
:10191000900D1124A8016D817E81820D931D0E947E
:101920005C2DED81FE81E00FF11F9FEFC91AD90AEE
:10193000E90AF90A8ACF82E090E0D7CFCF93DF930C
:10194000DB01A255BD4F2C91222369F024E4269F90
:10195000F001279FF00D1124EB51FC4FEF0119927C
:101960002A95E9F71C9224E4269FF001279FF00DA9
:101970001124EB51FC4F14821582168217821186B6
:10198000108613861286118A108A17861686DF91B2
:10199000CF9172CE2F923F924F925F926F927F9231
:1019A0008F929F92AF92BF92CF92DF92EF92FF926F
:1019B0000F931F93CF93DF9300D000D01F921F92FD
:1019C000CDB7DEB724E4269FF001279FF00D112448
:1019D000EB51FC4F0481158126813781012B022BAD
:1019E000032B09F4B7C02A016B017C0110E000E071
:1019F000812C912C54013F019F01285F3F4F3C8374
:101A00002B83CF0104969E838D83AB81BC818D9106
:101A10009C91ED81FE8140815181628173818416A8
:101A20009506A606B706E4F10E94D32CD3011A96B8
:101A30008D919C91892B09F07EC084E48C9DD0010E
:101A40008D9DB00D1124AB51BC4FBC83AB83509620
:101A50008D919C910E94D32CEB81FC81868597858A
:101A60000E94D32CC701B60107DEC701B601289634
:101A70000FB6F894DEBF0FBECDBFDF91CF911F919F
:101A80000F91FF90EF90DF90CF90BF90AF909F901D
:101A90008F907F906F905F904F903F902F904ECFA0
:101AA000FC01E00FF11F92819983A381AA839F8398
:101AB000A887312C212C2414350464F089819A8163
:101AC0000E94D32CEFEF8E1A9E0AAE0ABE0A0C5F5C
:101AD0001F4F9BCFAF81B885ED91FD91B887AF8344
:101AE000309759F0848195810E94D32CEF81F8853D
:101AF0003297808191810E94D32CBFEF2B1A3B0A31
:101B0000DACF800F911FFC01848195810E94D32C34
:101B10002B813C812F5F3F4F3C832B83025F1F4F04
:101B2000F501808191812B813C81241535054CF391
:101B30000E94D32C82CF10E000E01C821B8224E4A0
:101B40002C9DC0012D9D900D1124DC01A151BC4F95
:101B50005D01E6CF28960FB6F894DEBF0FBECDBF6D
:101B6000DF91CF911F910F91FF90EF90DF90CF9079
:101B7000BF90AF909F908F907F906F905F904F90AD
:101B80003F902F90089524E4269FF001279FF00DA9
:101B90001124EB51FC4F828993890497029758F4E2
:101BA00085E090E0938B828B8FEF9FEFDC01828F3B
:101BB000938FA48FB58F08952F923F924F925F928B
:101BC0006F927F928F929F92AF92BF92CF92DF924D
:101BD000EF92FF920F931F93CF93DF93CDB7DEB7B2
:101BE000AA970FB6F894DEBF0FBECDBF9AA389A304
:101BF0007E8B6D8B1A01098B1A8B2B8B3C8B84E4AB
:101C000029893A89829F6001839FD00C1124860123
:101C10000B511C4F89899A89AB89BC89F801808353
:101C20009183A283B383AB01BC01CD01B3DED601A6
:101C3000A751BC4F84E0F10101900D928A95E1F724
:101C4000F4E02F0E311C64E070E0D80114968D9101
:101C50009C910E941D2CF80191878087892B09F0A7
:101C6000F5C04D895E8969897A898B899C8992DE64
:101C700081E0AA960FB6F894DEBF0FBECDBFDF910C
:101C8000CF911F910F91FF90EF90DF90CF90BF9079
:101C9000AF909F908F907F906F905F904F903F900C
:101CA0002F900895A9A5BAA58D919C91E98DFA8DE3
:101CB000E80FF91FF88FEF8BD1018D919C91880F60
:101CC000991FA9A1BAA1ED91FC91E80FF91F80819C
:101CD0009181EF89F88D91838083D10114962D91A4
:101CE0003D914D915C9117972BA33CA34DA35EA30F
:101CF00062E070E08D899E890E941D2CEF89F88D2D
:101D000093838283892B09F4ACCFF8E02F0E311C2A
:101D1000412C512C32012BA13CA14DA15EA14216B8
:101D20005306640675069CF02B8D3C8D4D8D5E8DA3
:101D30002F5F3F4F4F4F5F4F2B8F3C8F4D8F5E8FED
:101D4000498D5A8D4C5F5F4F5A8F498F90C061010A
:101D500024E0C20ED11CD101ED90FC90EE0CFF1CD2
:101D6000EF89F88D82819381E80EF91E68E070E0BA
:101D700081E090E00E941D2C8C01D7018D939C93F3
:101D8000892B09F46ECF84E0F601D80101900D9201
:101D90008A95E1F7B8E02B0E311CF8018081918122
:101DA000A281B381181619061A061B06DCF464E03A
:101DB00070E00E941D2CD80115969C938E93149769
:101DC000892B09F44ECFD12CC12C812C912C54019C
:101DD000F80180819181A281B38188169906AA06B3
:101DE000BB0634F0FFEF4F1A5F0A6F0A7F0A93CFEA
:101DF000F801E480F580EC0CFD1C80E1F101DE01CE
:101E0000119601900D928A95E1F7F0E12F0E311CA9
:101E1000A701BE016F5F7F4FA9A1BAA114968D9152
:101E20009C9195DCF80186819781D70112962D91BE
:101E30003C91820F931F97838683BFEF8B1A9B0A77
:101E4000AB0ABB0AE4E0CE0ED11CC2CF1A8E198EAB
:101E50001B8E1C8E1D8E1E8E18A30F8FA8014C5F2B
:101E60005F4F58A74FA3C80108969AA789A7EFA16B
:101E7000F8A580819181A281B3812B8D3C8D4D8D00
:101E80005E8D281739074A075B070CF40BCF6EE00D
:101E900070E08D899E890E941D2CAF8DB8A11B9684
:101EA0009C938E931A97B12CA12CD12CC12CF12C80
:101EB000E12C24E4E989FA892E9FC0012F9F900D1F
:101EC00011249C0121513C4F388F2F8B88248394FF
:101ED000912C4D895E89C416D50654F184E4A989F4
:101EE000BA898A9F80018B9F100D11240B511C4FC2
:101EF000F80115861486C70133E0880F991F3A95BB
:101F0000E1F70E94372CD80151969C938E935097FD
:101F1000892B09F4A6CEC701880F991F0E94372C80
:101F2000F80197878687892B09F49BCE80E0A1CEA4
:101F3000D1014D905D906D907D901D0177FC91CE0B
:101F4000EF89F88D008111810A0D1B1DD8011196B2
:101F50009C928E92411451046104710429F1C201D2
:101F60000E94372CF80195838483892B09F479CE5C
:101F7000F801538242828481958197838683918779
:101F800080871386128681E090E0452846284728FE
:101F900011F490E080E0E80EF91EFFEFCF1ADF0A9F
:101FA0002EE0A20EB11C95CF15961C921E9214978E
:101FB000DFCF2F923F924F925F926F927F928F92DC
:101FC0009F92AF92BF92CF92DF92EF92FF920F93C8
:101FD0001F93CF93DF93CDB7DEB76A970FB6F89410
:101FE000DEBF0FBECDBF9E8B8D8B49015A0184E4AD
:101FF000829F7001839FF00C112497012B513C4F5D
:102000006901FB0180819181F901958B848BD70156
:10201000A550BC4FFB01349684E001900D928A9547
:10202000E1F7D701A150BC4FFB01389684E0019045
:102030000D928A95E1F7D701AD5FBB4FFB013C964E
:1020400084E001900D928A95E1F7D701AD5EBB4F18
:10205000FB01709684E001900D928A95E1F78B0167
:102060000C5E1F4FF90186A597A5A0A9B1A9181666
:102070001906DCF5880F991F880F991F0E94372CCD
:10208000F60193AB82AB892B09F4D3C0312C212C00
:10209000412C512C32019601225D3F4F388F2F8BFE
:1020A000C601C2969A8F898FF496FC8BEB8BB30195
:1020B000A2012FEF421A520A620A720AEF89F88DC2
:1020C00080819181A281B381481759076A077B07F4
:1020D0000CF47BC0F60184A995A90E94372CF60167
:1020E00097AB86AB892B09F4A4C0F801808191815C
:1020F000A281B38124E4289DF001299DF00D1124D3
:10210000EB51FC4FAC01BD014D7F21E030E0452B90
:10211000462B472B11F030E020E033A322A324E428
:10212000289DF001299DF00D1124EB51FC4F0197E2
:10213000A109B10921E030E00297A105B10510F035
:1021400030E020E035A324A3D701A55FBB4FF80101
:10215000349684E001900D928A95E1F784E4889D9D
:10216000F001899DF00D1124EB51FC4F868D978D68
:10217000A0A1B1A1B7FF58C0B095A0959095819549
:102180009F4FAF4FBF4F82AF93AFA4AFB5AF168E87
:10219000178E10A211A280E06A960FB6F894DEBFE7
:1021A0000FBECDBFDF91CF911F910F91FF90EF90A8
:1021B000DF90CF90BF90AF909F908F907F906F9067
:1021C0005F904F903F902F900895E98DFA8D808118
:1021D00091819C01220D331D3A8B298B80E1F801FE
:1021E000DE01119601900D928A95E1F7005F1F4F75
:1021F00049895A89BE016F5F7F4FED89FE898481CD
:102200009581A5DAEB89FC8980819181E989FA8938
:1022100022813381820F931FEB89FC899183808314
:10222000F4E02F0E311C43CF12AE13AE14AE15AE38
:10223000B2CFC501B40120DA81E0AECFCF92DF92F8
:10224000EF92FF92CF93DF9310926D0424E4269FC8
:10225000F001279FF00D1124EB51FC4F15A614A699
:1022600030E020E0D12CC12CDF011A96C1E0D0E093
:10227000C416D506F4F024E4269FF001279FF00D44
:102280001124EB51FC4F13A612A611AE10AEDF01C4
:10229000DE961D921D921D921C92139782E090E093
:1022A000938B828BDF91CF91FF90EF90DF90CF9057
:1022B0000895ED91FC911197E20FF31FE280F380F6
:1022C0001E141F0454F4E480F580F782E682F18640
:1022D000E08613861286D183C083EFEFCE1ADE0A22
:1022E000225F3F4FC5CF24E4269FF001279FF00DCA
:1022F0001124EB51FC4F138A128A4CCB24E4269F05
:10230000F001279FF00D1124EB51FC4F8289938936
:1023100081309105C8F08530910518F0059769F076
:1023200008958FEF9FEFDC01828F938FA48FB58F7D
:1023300085E090E0938B828B08958FEF9FEFDC0117
:10234000828F938FA48FB58F089524E4249FD001AA
:10235000259FB00D1124AB51BC4F2EE0AC01249F42
:10236000C001259F900D11241A96ED91FC91E80F64
:10237000F91F81E080936D04828593859187808722
:10238000408551852681378181E090E042175307CF
:1023900011F090E080E09183808308952F923F9226
:1023A0004F925F926F927F928F929F92AF92BF9265
:1023B000CF92DF92EF92FF920F931F93CF93DF9311
:1023C000CDB7DEB7C055D1090FB6F894DEBF0FBE4A
:1023D000CDBF9EAF8DAF4BA75CA76DA77EA7680151
:1023E000790184E4809FF001819FF00D1124EB516D
:1023F000FC4F2285338523963FAF2EAF23978289EA
:102400009389029761F486A597A5A0A9B1A9892B04
:102410008A2B8B2BC9F584E090E0938B828B84E42C
:102420008C9DF0018D9DF00D1124EB51FC4F8289A4
:1024300093898230910509F037C282AD93ADA4AD86
:10244000B5AD22242394312C181619061A061B0642
:102450000CF42FC2C05BDF4F0FB6F894DEBF0FBE87
:10246000CDBFDF91CF911F910F91FF90EF90DF9043
:10247000CF90BF90AF909F908F907F906F905F9024
:102480004F903F902F900895848995894DAD5EAD12
:102490008417950721F606A917A918AE1FAA1BAA2B
:1024A0001CAA1DAA1EAA1F01CF018E9627969FAFB8
:1024B0008EAF2797DF01D2962996BFAFAEAF29978F
:1024C000F8962B96FFAFEEAF2B9791012A5D3F4F09
:1024D0002D963FAF2EAF2D97A1014E5D5F4F2F96EA
:1024E0005FAF4EAF2F970A9761969FAF8EAF619700
:1024F0002796EEADFFAD279780819181A281B381B0
:102500002BA93CA94DA95EA9281739074A075B07E3
:1025100044F081E090E0D101D9969C938E93D897B6
:102520007ECF2996AEADBFAD2997ED91FC912FA935
:1025300038ADE20FF31F428153815AAF49AF50814A
:102540005FAF818121968FAF21972B96AEADBFAD46
:102550002B978D919C91892B21F12D96EEADFFAD9E
:102560002D9780809180A280B3801AAB09AB5FA7C2
:102570002196FFAD2197F8AB29AD3AAD3695279559
:102580003695279525963FAF2EAF25971CAE1BAEEF
:102590002596AEADBFAD2597EBADFCADEA17FB07B9
:1025A0000CF149AD5AAD6FAD21967FAD2197C801B1
:1025B0000E945C2D89AD9AAD8C7F080F191F2BA945
:1025C0003CA94DA95EA92F5F3F4F4F4F5F4F2BABEB
:1025D0003CAB4DAB5EAB4FA958AD4C5F5F4F58AFB6
:1025E0004FAB86CF2F96AEADBFAD2F978D919C91FF
:1025F000892B71F1EFA5F8A940805180628073802A
:10260000A3019201C501B4010E942625181664F0A9
:10261000A9A9BAA92D913D914D915C91C501B40133
:102620000E94AE261816BCF1A3019201C501B401A7
:102630000E94262587FF0CC0E9A9FAA920813181D3
:1026400042815381C501B4010E942625882319F1D6
:102650006196AEADBFAD61978D919C91892B09F4C8
:1026600045C0EFA5F8A94080518062807380A30126
:102670009201C501B4010E94AE2618161CF5A9A945
:10268000BAA92D913D914D915C91C501B4010E9473
:10269000262518165CF184E48C9DF0018D9DF00DCB
:1026A0001124EB51FC4F868D978DA0A1B1A1892BF0
:1026B0008A2B8B2B69F183E090E0938B828B81E0F6
:1026C00090E02CC0A3019201C501B4010E9426250F
:1026D00081110CC0E9A9FAA920813181428153817D
:1026E000C501B4010E94262587FDD5CF2BAD3CAD99
:1026F0002F5F3F4F3CAF2BAF49A95AA94C5F5F4FAB
:102700005AAB49AB8FA598A9049698AB8FA740CF39
:1027100084E090E0938B828B86AD97AD93A782A7E0
:102720007ECEEBADFCAD80819181F401EE0FFF1FF9
:10273000EE0FFF1FE80FF91FA081B1818C9181116D
:102740000AC0FFEF8F1A9F0AAF0ABF0A8DA29EA28E
:10275000AFA2B8A68FC18330A1F30280F381E02D30
:102760002FA938ADE20FF31F808191819AAB89AB1D
:10277000892B39F34F5F5F4F6F4F7F4F49875A87E0
:102780006B877C879E01235E3F4FAE01475D5F4FA5
:1027900064E070E0C8010E94CF0A8111D0C18D8130
:1027A0009E81AF81B8850496A11DB11D8D839E8346
:1027B000AF83B8874D8D5E8DBE016B5D7F4F8F8D72
:1027C00098A10E945C2D8BA19CA1009761F06D8D5A
:1027D0007E8DA5E2B0E0AC0FBD1F6A0F7B1F49A143
:1027E0005AA10E945C2D1CAA1BAA412C512C32011B
:1027F000E9A9FAA980819181A281B381481659067D
:102800006A067B060CF09DCFE9A9FAA9848195811F
:102810002BA93CA9280F391F38AB2FA7D901129635
:102820006D917C919E01235E3F4FAE01475D5F4FEE
:10283000C8010E94CF0A811182C1EFA5F8A9828147
:102840009381092E000CAA0BBB0B4D815E816F8119
:102850007885840F951FA61FB71F8D839E83AF8336
:10286000B887608171814D8D5E8D8F8D98A10E949A
:102870005C2D8BA19CA1009761F0AFA5B8A96D91CB
:102880007C912D8D3E8D620F731F49A15AA10E942C
:102890005C2DBFEF4B1A5B0A6B0A7B0AEBA9FCA904
:1028A0003496FCABEBABA4CF312C212C049709F070
:1028B000D1CD8EE0EDADFEAD8E9F80018F9F100DCE
:1028C000112423962EAD3FAD2397020F131FD8017D
:1028D00012964D915C9113974115510509F4BACDAB
:1028E00016968D919C919AA789A780E1FE01319659
:1028F000DF011D928A95E9F7C98ADA8AEB8AFC8A98
:102900002114310409F458C084E48C9DF0018D9D9C
:10291000F00D1124EB51FC4FDF01DE968D909D9060
:10292000AD90BC9082AD93ADA4ADB5AD88169906BF
:10293000AA06BB0609F040C0F80184819581008495
:10294000F185E02D349624E0DE01559601900D923C
:102950002A95E1F72D893E89285F3F4F3E8B2D8BCD
:10296000D80118966D917C911997260F371F1996EB
:102970003C932E93189718962D913C911997480FD8
:10298000591F241B350B37FD06C0820F931F199664
:102990009C938E93189784E48C9DF0018D9DF00D8F
:1029A0001124ED5DFB4FB1E08B1A9108A108B1082D
:1029B00080829182A282B3829E012B5E3F4FAE0144
:1029C000475D5F4F64E170E0C8010E94CF0A81114A
:1029D000B6C08CE090E0A0E0B0E08D839E83AF8332
:1029E000B8879E01235E3F4FAE01475D5F4F64E0B5
:1029F00070E0C8010E94CF0A8111A1C080E190E07F
:102A0000A0E0B0E08D839E83AF83B8874D8D5E8D4F
:102A1000BE01655D7F4F8F8D98A10E945C2D8BA1BB
:102A20009CA1009761F06D8D7E8DEBE2F0E0EC0FE4
:102A3000FD1F6E0F7F1F49A15AA10E945C2D1DA290
:102A40001EA21FA218A62DAD3EAD220F331F38AF18
:102A50002FAB24E42C9DC0012D9D900D11248B5192
:102A60009C4FAC014C5F5F4F5AAF49AFDC011896E9
:102A7000BCAFABAF8DA09EA0AFA0B8A449855A85CE
:102A80006B857C85E9ADFAAD80819181A281B381AE
:102A900088169906AA06BB060CF443CE452B462B96
:102AA000472B09F4D7CC8AE190E0A0E0B0E089831D
:102AB0009A83AB83BC832DAD3EADC901330FAA0B06
:102AC000BB0B8D879E87AF87B88B4D895E89BE0112
:102AD0006F5F7F4F8F89988D0E945C2D8B8D9C8DB1
:102AE000009761F06D897E8941E050E04C0F5D1FD9
:102AF000640F751F498D5A8D0E945C2D89A59AA57A
:102B0000D80117969C938E93169711961C921E923D
:102B1000232809F49FCC84E48C9DF0018D9DF00D59
:102B20001124ED5DFB4F80819181A281B3810196DB
:102B3000A11DB11D80839183A283B3838BCC2328F5
:102B400009F088CC84E48C9DF0018D9DF00D11245A
:102B5000EB51FC4F81E090E095A784A785E090E0E1
:102B6000938B828B77CCCF92DF92EF92FF920F9371
:102B70001F9324E4269FF001279FF00D1124EB51B1
:102B8000FC4F228933892115310509F452C06B01AC
:102B90007C0121303105B1F482A593A59C012F5F02
:102BA0003F4F33A722A7092E000CAA0BBB0B028DA7
:102BB000138D248D358D80179107A207B307C9F5B2
:102BC000C7013CDB84E48C9DF0018D9DF00D112448
:102BD000EB51FC4F82899389039759F582A593A500
:102BE0009C012F5F3F4F33A722A7092E000CAA0B91
:102BF000BB0B468D578D60A171A184179507A60761
:102C0000B707BCF086AD97AD93A782A784E090E0AC
:102C1000938B828B82AD93ADA4ADB5AD181619061A
:102C20001A061B0634F4EE5BFF4F81E090E09183BF
:102C300080831F910F91FF90EF90DF90CF900895C8
:102C400024E4269FF001279FF00D1124EB51FC4F47
:102C5000828993890497B1F482A593A5019693A7DD
:102C600082A7092E000CAA0BBB0B46895789608DE1
:102C7000718D84179507A607B70721F485E090E0CA
:102C8000938B828B08952F923F924F925F926F9217
:102C90007F928F929F92AF92BF92CF92DF92EF92EC
:102CA000FF920F931F93CF93DF93CDB7DEB72E978D
:102CB0000FB6F894DEBF0FBECDBFDC0149835A8347
:102CC0006B837C83290184E4849FF001859FF00D50
:102CD0001124EB51FC4F22883388C10104970297DD
:102CE00008F0D5C011961C921E9213961C921E924B
:102CF000129715861486912C812C90E080E08F012C
:102D00009F01205F3F4F38872F833F013CE0630ED8
:102D1000711CBF01625F7F4F7A8769873A96FC8793
:102D2000EB87EF81F88520813181F301408151816A
:102D3000E985FA85A080B180841595050CF445C01D
:102D400011965C934E9313963C932E93129715967F
:102D5000BC92AE921497452BF9F4F5E02F1631048E
:102D6000D9F410926D04F801828D938DA48DB58DE8
:102D7000AE014F5F5F4F64E070E08F3F9F4FAF4FFA
:102D8000BF4F09F079C080E290E0F6D469817A8182
:102D90008B819C81A201A7DA2E960FB6F894DEBF34
:102DA0000FBECDBFDF91CF911F910F91FF90EF909C
:102DB000DF90CF90BF90AF909F908F907F906F905B
:102DC0005F904F903F902F900895EB85FC85608138
:102DD0007181FB01E80DF91DFE87ED87608171812E
:102DE000672B89F5E084F184628173817E836D8332
:102DF000668177816A01E3E0CC0CDD1CEA95E1F79E
:102E00002C0D3D1D440F551F4A0D5B1DFA0191838A
:102E10008083F301408151814F5F5F4F5183408335
:102E2000F901F382E282ED85FE8573876287E616FB
:102E3000F70670F46E197F09F901718360831582BA
:102E40001482178216820196FEE08F0E911C69CFC4
:102E5000ED85FE85C480D5804D815E814C0D5D1D64
:102E60004E195F09F901518340836C197D097583FF
:102E70006483D782C682E7CF8FE190E07DD4F801EA
:102E800013A612A681E090E0938B828B85CF1586E6
:102E9000148611961C921E9213961C921E921297E3
:102EA0007BCFEF92FF920F931F93CF93DF937C0121
:102EB0008B01EA013DD581111BC08091B002909138
:102EC000B1020497F9F4DF91CF911F910F91FF9018
:102ED000EF90089528ED38EB45E050E060E070E0B9
:102EE000CB01DCD7AE01B801C701E6D7C801AFD727
:102EF00080916E0490916F04892BF9F68881882364
:102F000049F3DBCF83E090E09093B1028093B0026D
:102F1000DACFCF93DF932091B0023091B102243009
:102F2000310531F0EB01C8D7CE01DF91CF918FC7CA
:102F3000DF91CF9108950C945A230C944F230C9455
:102F40003D2395C70C94E122089570E060E090E085
:102F500080E0C9C40895AF92BF92CF92DF92EF9202
:102F6000FF920F931F93CF93DF931F921F92CDB7C2
:102F7000DEB75C018B0169017A0190E080E0C11449
:102F8000D104E104F10469F40F900F90DF91CF9127
:102F90001F910F91FF90EF90DF90CF90BF90AF9077
:102FA00008959C2D8D2DC114D10421E0E206F10479
:102FB00010F09FEF8FEF9E012F5F3F4F492F582F4B
:102FC000B801C5010E94E3238F3F9807E9F22981E8
:102FD0003A81C21AD30AE108F108020F131FCFCFBA
:102FE00040E855E260E070E090E080E000C08130B1
:102FF000910579F01CF4892B39F008958230910500
:1030000061F0039771F0089526E085EA94E00C944E
:10301000E62826E082E495E0FACF26E08FED95E001
:10302000F6CF26E08CE796E0F2CF1F920F920FB614
:103030000F9211240BB60F922F933F934F935F93F0
:103040006F937F938F939F93AF93BF93EF93FF9370
:103050008BEC93EF90932501809324010E941C2414
:10306000FF91EF91BF91AF919F918F917F916F9160
:103070005F914F913F912F910F900BBE0F900FBE1C
:103080000F901F9018958BEC93EF909325018093F0
:103090002401A3E7B0E08C918E7F8C93E0E2F1E015
:1030A00080818C7F8083E1E2F1E08081877E808374
:1030B00080818560808380818D7F80838C91816019
:1030C0008C93089581E008958F929F92AF92BF9262
:1030D000CF92DF92EF92FF920F931F93CF93DF93E4
:1030E0005C017B018A01C1E0D0E0CE15DF05CCF0A8
:1030F00081E0F5018083B801C7010E948423F501B6
:103100009283818390E080E0DF91CF911F910F91B6
:10311000FF90EF90DF90CF90BF90AF909F908F90F7
:1031200008956E018FEFC81AD80AFE01EE0FFF1F37
:10313000E00FF11F808091808114910469F065E3B4
:1031400073E0C4010E946C2D892B41F4CC0FDD1F6C
:10315000C00FD11F19821882E601C7CF68E373E060
:10316000C4010E946C2D892BB9F7EC14FD04A1F366
:103170006E01E2E0CE0ED11CCC0FDD1FC00FD11FBF
:10318000198218821B821A82E7CF80E794E00895A3
:1031900080E008950F931F93CF93DF938B01BA01C3
:1031A000E901198218829801012E000C440B550B7D
:1031B000FC0181819281CFDE019641F01983088361
:1031C00080E0DF91CF911F910F91089581E0F9CFB9
:1031D0000F931F93CF93DF931F921F92CDB7DEB74C
:1031E000FB018A01B9019E012F5F3F4FAF01FC0136
:1031F000818192810E949823019669F089819A8148
:10320000F8019183808380E00F900F90DF91CF9140
:103210001F910F91089581E0F7CFFC0180810895FF
:103220000895089581E0FB01808380E0089508956A
:10323000109298040895FC01818192810C947C2362
:10324000CF93DF9300D000D000D01F92CDB7DEB770
:10325000B0E0A0E089839A83AB83BC83CB01770F76
:10326000AA0BBB0B8D839E83AF83B8879E01275F1C
:103270003F4FAE014F5F5F4F68E070E08091870481
:103280009091880487DF811110C081E029853A85FB
:103290002830310509F480E02A960FB6F894DEBF95
:1032A0000FBECDBFDF91CF91089581E0F5CF0F9391
:1032B0001F93CF93DF931F921F92CDB7DEB78B0181
:1032C0009E012F5F3F4FAC0180918704909188044D
:1032D00061DF81110EC081E029813A812017310719
:1032E00009F480E00F900F90DF91CF911F910F9123
:1032F000089581E0F7CFCF93DF93EC0110928B0418
:1033000010928A041092970410929604AC0160E027
:1033100070E0CB010E947311AE0161E070E080E0CB
:1033200090E00E9473118091870490918804DF914E
:10333000CF917DCF4F925F926F927F928F929F92AB
:10334000AF92BF92CF92DF92EF92FF920F931F93B3
:10335000CF93DF931F921F92CDB7DEB78C017C0114
:1033600097FF03C087E0E80EF11C23E0F594E79493
:103370002A95E1F7C80168E070E00E94B32B6C0168
:103380000E5F1F4F809185049091860480179107EE
:10339000D4F48091830490918404009731F00E94CA
:1033A000D32C1092860410928504C8010E94372CF9
:1033B0009093840480938304892B09F482C0109332
:1033C00086040093850410E000E047C1412C512C95
:1033D0003201B12CA12C950124573B4FAE014F5F18
:1033E0005F4F61E070E08091870490918804F0DE87
:1033F000811149C0EFEF4E1A5E0A6E0A7E0AF0E9AB
:103400004F16FFE55F06F1E06F06710444F060912E
:103410009604709197048DEE90E012DFD7CF8981EA
:103420009A81A80EB91E8AE0A816B10409F043C01B
:1034300049E050E070E060E08CE894E00E940E24E7
:103440006091960470919704882391F1809194047F
:1034500090E08617970781F4BC018EEE90E0F0DED5
:1034600080919604909197040196992790939704E0
:10347000809396040F5F1F4F0E151F050CF4A6CF07
:10348000CD2809F07CC090E080E00F900F90DF9194
:10349000CF911F910F91FF90EF90DF90CF90BF9051
:1034A000AF909F908F907F906F905F904F90089516
:1034B0008FEE90E0B2CFEAE0AE16B1040CF48BCF01
:1034C000DBCF10E000E0D8CF0A30110531F549E03C
:1034D00050E070E060E08CE894E00E940E2460917F
:1034E0009604709197048823A9F08091940490E049
:1034F0008617970741F6BC018EEE90E0A1DE809121
:10350000960490919704019699279093970480933D
:103510009604B9CF8FEE90E02BC00A3011050CF065
:10352000B2CF980124573B4FAE014F5F5F4F61E030
:1035300070E080918704909188044ADE8111A3CFC6
:1035400089819A81080F191FFFEFCF1ADF0AEF0A4E
:10355000FF0A80E9C8168FE5D80681E0E806F10485
:103560000CF4B2CF60919604709197048DEE90E0C8
:1035700067DE10E000E0C12CD12C7601D2CFC12C47
:10358000D12C760110E000E0CCCF412C512C32013F
:10359000B12CA12C480193E0880C991C9A95E1F775
:1035A0002091830430918404C501880D991D280F52
:1035B000391FAE014F5F5F4F61E070E0809187047B
:1035C0009091880405DE81115ECFEFEF4E1A5E0AFE
:1035D0006E0A7E0A60919604709197048DEE90E0D9
:1035E000F0E94F16FFE55F06F1E06F0671040CF09D
:1035F00043C089819A81A80EB91E8AE0A816B10439
:1036000009F041C049E050E0B401809183049091F9
:1036100084040E940E24609196047091970488237C
:1036200049F18091830490918404880E991EF401DD
:10363000808590E08617970781F4BC018EEE90E0BC
:10364000FFDD8091960490919704019699279093BD
:103650009704809396040F5F1F4F0E151F050CF4FF
:1036600094CFC114D10409F081C08091830490915A
:1036700084040BCF8FEE90E0E3DD412C512C32011E
:10368000B12CA12C8DCFFAE0AF16B1040CF488CF89
:10369000E4CF8FEE90E0D4DDF12CE12C812C912C45
:1036A0005401970124573B4FAE014F5F5F4F61E0DC
:1036B00070E080918704909188048ADD8111E3CEC7
:1036C0008FEF881A980AA80AB80A60919604709138
:1036D00097048DEE90E0E0E98E16EFE59E06E1E0BE
:1036E000AE06B104C4F689819A81E80EF91EFAE0AB
:1036F000EF16F104A9F549E050E070E060E08CE8D5
:1037000094E00E940E24609196047091970488239F
:1037100009F4BFCF8091940490E08617970709F0D1
:10372000A4CFBC018EEE90E08BDD83E0000F111F73
:103730008A95E1F78091830490918404A6016CE856
:1037400074E0800F911F0E945C2D809196049091EF
:10375000970401969927909397048093960485CFB8
:103760008AE0E816F1040CF49CCF7FCF812C912CD9
:103770005401F12CE12C95CFCF92DF92EF92FF9282
:103780000F931F93CF93DF931F92CDB7DEB76C01DA
:103790007B018A01452B39F0AB0170E060E0C80184
:1037A0000E940A248983B701C6014ADD81110DC038
:1037B0000115110551F0B701C80179DD811105C06E
:1037C00061E070E0CE01019672DD0F90DF91CF9144
:1037D0001F910F91FF90EF90DF90CF900895CF92BF
:1037E000DF92EF92FF92CF93DF9300D000D01F9231
:1037F0001F92CDB7DEB76B01F12CE12CC982DA82C2
:10380000EB82FC822D833E834F835887AE014F5F4E
:103810005F4F68E070E0B0DF28960FB6F894DEBF27
:103820000FBECDBFDF91CF91FF90EF90DF90CF9093
:1038300008958F929F92AF92BF92CF92DF92EF92B4
:10384000FF920F931F93CF93DF937C01EB01CA018B
:10385000690170DD0097B1F42FEF3FEFA90161E03E
:1038600070E0C701BCDFC1E08C2FDF91CF911F91C9
:103870000F91FF90EF90DF90CF90BF90AF909F900F
:103880008F900895FC0181909190A190B190BF011B
:10389000FCE1EF16F10479F4A5019401CE010E9438
:1038A000D90FC82FA5019401882369F061E070E069
:1038B000C70195DFD9CF95018401AB01B601CE01D7
:1038C0000E94DC0DEECF70E060E0C701DF91CF9188
:1038D0001F910F91FF90EF90DF90CF90BF90AF902E
:1038E0009F908F907CCF0F931F93CF93DF93EC012A
:1038F0008B014BDC90938804809387040097A9F098
:10390000A801BE01E1DBEC01892B49F0809187041D
:103910009091880485DC1092880410928704CE016F
:10392000DF91CF911F910F910895C4E4D3E0EECFC2
:10393000809187049091880470CC2F923F924F928F
:103940005F926F927F928F929F92AF92BF92CF922F
:10395000DF92EF92FF920F931F93CF93DF93CDB738
:10396000DEB769970FB6F894DEBF0FBECDBF2091CA
:103970008B042223F1F05B8B4A8B6E877F87888BC9
:10398000998B9A01AB01BC01CE0101967C017BD9D8
:1039900010E048E0242E312CE88EF98E89819A813E
:1039A000181619060CF450C2112319F08A899B8944
:1039B000A2DC69960FB6F894DEBF0FBECDBFDF91D3
:1039C000CF911F910F91FF90EF90DF90CF90BF901C
:1039D000AF909F908F907F906F905F904F903F90AF
:1039E0002F900895EB81FC818C859D8533E0880FB5
:1039F000991F3A95E1F7E80FF91F80819181909323
:103A000082048093810424813581428153815093C3
:103A1000800440937F044681578150937E044093F5
:103A20007D04820F931F9C01990F440B550B2C8B27
:103A30003D8B4E8B5F8B812C912C54018C899D8901
:103A4000AE89BF8988169906AA06BB0638F18C850F
:103A50009D85880F991FED81FE81E80FF91F4E8526
:103A60005F8568897989808191810E94A511AC85E3
:103A7000BD851196BD87AC8789819A81EC85FD85CE
:103A8000E817F9070CF4AECF2A893B894E855F858C
:103A900068897989888D998DF6D880CF1F82609149
:103AA000810470918204CB01072E000CAA0BBB0B82
:103AB00084017501640134E0C30ED11CE11CF11CCA
:103AC000C816D906EA06FB0608F0B3C020917F04A9
:103AD00030918004A4014C5F5F4F240F351FF90122
:103AE000C080D12CF12CE12C24013501F5E04F0EE2
:103AF000511C611C711C481659066A067B0608F0A9
:103B0000A3C020917F0430918004F8013596E20F24
:103B1000F31F2081D22A2401350126E0420E511CD8
:103B2000611C711C481659066A067B0608F097C08E
:103B300020917F0430918004F8013696E20FF31F44
:103B40002081E22A2401350137E0430E511C611C1B
:103B5000711C481659066A067B0608F08BC0209136
:103B60007F0430918004F8013796E20FF31F208123
:103B700026013701722A7501640148E0C40ED11C88
:103B8000E11CF11C8C159D05AE05BF0508F41DC197
:103B900088169906AA06BB0608F077C080917F04B4
:103BA00090918004800F911F68E070E080DBE091CD
:103BB0008104F09182049F010F2E000C440B550BE1
:103BC000D301C2018C0D9D1DAE1DBF1D28173907E5
:103BD0004A075B0708F478C0C216D306E406F50668
:103BE00008F05DC080917F04909180049801285F67
:103BF0003F4F820F931FB2015ADB80918104909155
:103C00008204AC01092E000C660B770BC416D50696
:103C1000E606F70608F04DC0085F1F4F80917F044D
:103C200090918004800F911FA20170E060E0F2D5B6
:103C3000A7C044E050E0461B570B480D591D20918A
:103C40007D0430917E0449CFE5E0F0E0E61BF70B00
:103C5000E00FF11F20917D0430917E0458CFE6E003
:103C6000F0E0E61BF70BE00FF11F20917D0430918F
:103C70007E0464CFE7E0F0E0E61BF70BE00FF11FF6
:103C800020917D0430917E0470CF9801261B370B64
:103C900080917D0490917E04820F931F85CF9101C6
:103CA0002E1B3F0B200F311F80917D0490917E04CD
:103CB000A0CFD101A81BB90BCD01080F191F80910E
:103CC0007D0490917E04AECFBF0168507109601BE6
:103CD000710BC216D306E406F50608F062C08091A7
:103CE0007F04909180049801285F3F4F820F931FBB
:103CF000DEDA8091810490918204B101681B790B16
:103D0000600F711F640D751D80917D0490917E047C
:103D1000CEDA8091810490918204AC01485051091F
:103D2000FA01E01BF10BAC01092E000C660B770BBE
:103D3000C416D506E606F70608F03DC080917F045C
:103D4000909180049801285F3F4F820F931FAF012D
:103D500070E060E05FD58F83209181043091820410
:103D6000F101E21BF30B9F01200F311F240D351DC4
:103D700050E040E0682F80917D0490917E0436D51C
:103D80008F8361E070E0CE01079691DA182F38E05A
:103D9000430E511C611C711C840C951CA61CB71C85
:103DA0004DCE91012E1B3F0B200F311F80917D04C2
:103DB00090917E049BCF9101281B390B200F311F5E
:103DC00080917D0490917E04C0CF88169906AA0642
:103DD000BB0668F5601B710B80917F049091800495
:103DE000800F911F64DA8091810490918204B10167
:103DF000681B790B600F711F640D751D80917D0428
:103E000090917E0454DA8091810490918204AC01F7
:103E1000092E000C660B770BC416D506E606F706CE
:103E200008F4FACE9101281B390BC90146CFC8010D
:103E3000861B970B20917D0430917E04B201685F50
:103E40007F4F820F931FDECF1D861C8615CECF932A
:103E5000DF93EC01AC0160E070E0CB016EDDAE0100
:103E600061E070E080E090E0DF91CF9166CDCF938C
:103E700080918704909188048BD9C82F81110BC041
:103E800060E070E0CB010E949E0C61E070E080E099
:103E900090E00E949E0C8C2FCF9108950F931F935A
:103EA00089019A01AB01BC0180918704909188043B
:103EB000B8D91F910F9108954F925F926F927F92A0
:103EC0008F929F92AF92BF92CF92DF92EF92FF922A
:103ED0000F931F93CF93DF93CDB7DEB763970FB6E2
:103EE000F894DEBF0FBECDBF6C018B015A018091EB
:103EF0008B04882309F43DC080918B04882309F446
:103F000042C080918A041A821982882309F4C0C0B1
:103F1000F0E94F2EFFE55F2E66246394712CF12C9F
:103F2000E12C97012D583B4FAE014F5F5F4F61E091
:103F300070E080918704909188044AD9982E81116D
:103F400069C089819A81E80EF91EE114F10409F42F
:103F500061C081E0481A51086108710859F5609103
:103F60009604709197048DEE90E06AD91A821982B6
:103F700051C06BE874E0809187049091880452D915
:103F8000882309F4B9CF63960FB6F894DEBF0FBE4D
:103F9000CDBFDF91CF911F910F91FF90EF90DF90F8
:103FA000CF90BF90AF909F908F907F906F905F90D9
:103FB0004F900895AAE0EA16F10409F063C049E0C1
:103FC00050E070E060E083E794E028D460919604CC
:103FD00070919704882309F452C080917B0490E08B
:103FE0008617970719F6BC018EEE90E029D988E074
:103FF000E3E7F4E0DE01199601900D928A95E1F76E
:104000008091960490919704019699279093970434
:104010008093960481E029813A81121613060CF0F0
:1040200080E09110CAC2882309F4ADCF80918A0440
:10403000811104C019861A861B861C8689859A857B
:10404000AB85BC8580319105A105B10508F09BCFFA
:10405000FC018827E15DFF4D8F4F0C94E82BAF20CA
:104060006E22DD22C31FB321E6219F20A7208320DB
:10407000C222B122BE22C31FC31FC31F6E208FEEF8
:1040800090E073CFBAE0EB16F1040CF44ACFC2CF44
:10409000F12CE12CE8E06E2E712C29E030E02C0FA1
:1040A0003D1F2E0D3F1DAE014F5F5F4FB3016E19D7
:1040B0007F0980918704909188048AD8982E29815D
:1040C0003A81811109C0E20EF31EE114F10421F0DE
:1040D000E8E0EE16F1040CF381E09FCFD6011696CE
:1040E000ED91FC9180819181A281B38189839A8332
:1040F000AB83BC83AE014F5F5F4F64E070E085E14E
:1041000090E03ADB40CF8D859E8514D92FEF3FEFAD
:10411000A90161E070E0009771F0FC01C080D180DE
:10412000E280F380A801C701B6010E941E11A70119
:10413000960170E060E08DE190E051DB24CF4D8589
:104140005E859801B6018BE190E073DB1CCF4D8555
:104150005E852FEF3FEFB6018CE190E0F6CFD60100
:104160001496ED91FC9100811181F8018280938079
:10417000A080B18070E1472E512C612C712C4982B6
:104180005A826B827C8288E090E0A0E0B0E08D8370
:104190009E83AF83B8879E012F5E3F4FAE014F5F76
:1041A0005F4F68E070E080918704909188040E94DE
:1041B000CA188823D9F010E000E0C80163960FB652
:1041C000F894DEBF0FBECDBFDF91CF911F910F914D
:1041D000FF90EF90DF90CF90BF90AF909F908F9027
:1041E0007F906F905F904F900C94D32C89899A891F
:1041F000089709F7D801ED90FC90B8E0EB0EF11CA0
:10420000EE0CFF1CEE0CFF1CC7010E94372C8C012A
:10421000892B89F249825A826B827C82C7010F2CDA
:10422000000CAA0BBB0B8D839E83AF83B8879E01C6
:104230002F5E3F4FAE014F5F5F4F68E070E08091AF
:104240008704909188040E94CA188111B6CF898989
:104250009A89089709F0B1CFD6011296ED91FC9199
:104260004081518162817381D8014D935D936D933B
:104270007C931397448155816681778114964D9381
:104280005D936D937C931797408551856285738507
:1042900018964D935D936D937C931B9784859585BC
:1042A000A685B785F80184879587A687B787108A82
:1042B000118A128A138A84E090E0A0E0B0E0848B37
:1042C000958BA68BB78B8091B0029091B102B0E034
:1042D000A0E0808F918FA28FB38FC5010B2C000CB3
:1042E000AA0BBB0B848F958FA68FB78FF401D801D3
:1042F000909690E080E08A159B055CF19E012F5E10
:104300003F4FA801B70180918704909188040E94D3
:10431000CA18811152CF89899A89E816F90609F0DD
:104320004CCFA70170E060E0C80174D28B8B9E0176
:104330002F5E3F4FAE014D5E5F4F61E070E08091B8
:104340008704909188040E94CA1881E080938A04AF
:1043500034CF4191519170E060E04D935D936D9346
:104360007D930196C8CF8D859E85AF85B8890097CE
:10437000A105B10521F481E08093890404CE0E9457
:104380009A19009781F481E090E0A0E0B0E0898381
:104390009A83AB83BC83AE014F5F5F4F64E070E0F4
:1043A00082E190E0AECEBC01C6010E94F80B1982FA
:1043B0001A821B821C82AE014F5F5F4F64E070E087
:1043C00082E190E0D9D98823B1F2DDCDD6011496EF
:1043D000ED91FC910190F081E02DE084F1848FEF6C
:1043E0008983E114F10409F472C0D7016D907C90C7
:1043F000C280D38070E060E090E080E08615970591
:1044000094F083E190E00E94201910E000E0811117
:10441000BACD061517055CF161E070E0CE0101969A
:104420000E945719B0CD9C0143E0220F331F4A95DB
:10443000E1F7F701A281B381A20FB31F1296ED91AC
:10444000FC911397EE0FFF1FEC0DFD1D0190F08105
:10445000E02D16964D915C91E49F9001E59F300D03
:10446000F49F300D1124620F731F0196C7CFD7013F
:104470001296ED91FC91C80123E0880F991F2A95AF
:10448000E1F7E80FF91FA080B180A281B381AA0FE4
:10449000BB1FAC0DBD1D2D913C9186819781289F3E
:1044A0004001299F900C389F900C1124B401C50144
:1044B0000E945719582E940150E040E06981C501CF
:1044C00095D1898351105FCD0F5F1F4FA2CF70E050
:1044D00060E083E190E00E94201955CD50E040E07B
:1044E00070E060E081E190E047D981114CCD60E05F
:1044F00070E0CB010E94C30D80916D04882329F0E8
:10450000A80160E070E0CB0118DAA80160E070E07B
:10451000CB010E94CA0C61E070E080E090E00E9454
:10452000C30D80916D04882331F0A80161E070E033
:1045300080E090E002DAA80161E070E080E090E0C5
:104540000E94CA0C10928B0410928A041092970455
:104550001092960480918704909188040E94181903
:1045600012CD81E090E090936F0480936E0450E050
:1045700040E070E060E086E190E0C3CD81E0F501CD
:10458000808301CD8D859E850E949A192FEF3FEF84
:10459000A90161E070E0009769F0DC01CD90DD9049
:1045A000ED90FC90C701B6010E947E11A701960113
:1045B00070E060E08EE190E0C0CDC8010E947B1900
:1045C000E2CCCF92DF92EF92FF92CF93DF93EC0198
:1045D000C12CD12C7601C701B6010E94C30DAE01DA
:1045E000C701B601AAD9AE01C701B6010E94CA0C23
:1045F0008091830490918404009731F00E94D32C21
:104600001092840410928304CA94CD28CE28CF2817
:1046100079F580918A04F12C882351F050E040E034
:1046200070E060E084E190E0A7D8F82E10928A0450
:1046300080918B04882341F010928B0481E090E0FC
:104640009093B1028093B002809187049091880486
:104650000E941B1980918704909188040E94101970
:104660008F2DDF91CF91FF90EF90DF90CF90089545
:10467000C12CD12C7601C394AECFCF93DF93EC0144
:10468000AC0160E070E0CB010E94B315AE0161E0C7
:1046900070E080E090E0DF91CF910C94B31560E082
:1046A00070E0CB010E94201661E070E080E090E0B5
:1046B0000C942016CF92DF92EF92FF920F931F93EC
:1046C000CF93DF93EC016A017B0100E010E09801D9
:1046D0000E94CE1101E010E020E030E0B701A60119
:1046E000CE010E94CE11DF91CF911F910F91FF90CB
:1046F000EF90DF90CF90089568EE73E080E090E057
:1047000003D490E080E0089526E040E050E16EE0C0
:1047100070E085EA94E05AD585EA94E08DD4892B3F
:1047200021F085EA94E0A2D4F7CF90E080E00895EC
:10473000CF92DF92EF92FF920F931F93CF93DF936D
:104740006B017A01E9011982188285EA94E074D438
:10475000892B71F18601CC24C39485E6D82E8091F3
:104760009804811111C085EA94E080D485369105C2
:10477000B1F7C0929804F801D1928F018881998194
:10478000019699838883EBCF888199818E159F0547
:1047900078F485EA94E06AD48F3F9807A9F3F8018A
:1047A00081938F0188819981019699838883ECCFC9
:1047B00090E080E0DF91CF911F910F91FF90EF90FB
:1047C000DF90CF9008950F931F93CF93DF93EA016B
:1047D000890185EA94E08AD7F801D183C08390E00B
:1047E00080E0DF91CF911F910F910895DC01A40F1C
:1047F000B51F420F531F9D01281B390B2417350786
:1048000010F0862F0895ED91E627F0E0EC51FF4F70
:104810006491F1CF9A01AB016FEFE8CFCF93FC0128
:10482000E60FF71FE40FF51FC081F4DF91E0C81316
:1048300090E0892FCF9108958091990491E0980F8D
:1048400090939904882349F021E030E030939B0451
:1048500020939A0480939904089578940E942801E3
:10486000F894809199048150809399040C949D1739
:10487000FF920F931F93CF93DF931F92CDB7DEB7B5
:104880001092E7111092E61175D30E94F017009173
:10489000C7021091C802F8011182108270E060E036
:1048A00090E080E00E94A5170E947609F894789421
:1048B000C80186960E94A41781E090E00E94A1178B
:1048C0001982AE014F5F5F4F61E070E0F8018281B5
:1048D00093810E9451178981882319F081E0F801A2
:1048E00082A70E94AA17F8940E944318F8018081B9
:1048F0009181892B19F481E092A5911180E0809338
:10490000E61178947894FF24F3948091E611811154
:1049100010C00E94330A81E090E00E94A217F89430
:1049200090E080E00F90DF91CF911F910F91FF9069
:1049300008951982AE014F5F5F4F61E070E0F801AA
:10494000828193810E9489178981882311F0F8015F
:10495000F2A6F80180819181892B89F481E092A5EA
:10496000911101C080E08093E7119091E71181E0FF
:10497000911180E08093E6110E946218C6CF81E019
:10498000F2CF5058BB27AA270ED097C188D130F05C
:104990008DD120F031F49F3F11F41EF47DC10EF44F
:1049A000E095E7FB4AC1E92F99D180F3BA17620776
:1049B00073078407950718F071F49EF5C8C10EF4CB
:1049C000E0950B2EBA2FA02D0B01B90190010C011F
:1049D000CA01A0011124FF27591B99F0593F50F437
:1049E000503E68F11A16F040A22F232F342F44278F
:1049F000585FF3CF469537952795A795F040539587
:104A0000C9F77EF41F16BA0B620B730B840BBAF056
:104A10009150A1F0FF0FBB1F661F771F881FC2F7C1
:104A20000EC0BA0F621F731F841F48F487957795D5
:104A30006795B795F7959E3F08F0B3CF9395880F8C
:104A400008F09927EE0F979587950895D2D008F42E
:104A500081E0089504D06894B1117AC1089546D1D7
:104A600088F09F5790F0B92F9927B751A0F0D1F057
:104A7000660F771F881F991F1AF0BA95C9F712C0E1
:104A8000B13081F064D1B1E0089561C1672F782F12
:104A90008827B85F39F0B93FCCF38695779567954D
:104AA000B395D9F73EF490958095709561957F4FB9
:104AB0008F4F9F4F0895E89409C097FB3EF490955F
:104AC0008095709561957F4F8F4F9F4F9923A9F0E7
:104AD000F92F96E9BB279395F69587957795679576
:104AE000B795F111F8CFFAF4BB0F11F460FF1BC0BA
:104AF0006F5F7F4F8F4F9F4F16C0882311F096E94D
:104B000011C0772321F09EE8872F762F05C06623FA
:104B100071F096E8862F70E060E02AF09A95660FB3
:104B2000771F881FDAF7880F9695879597F908956C
:104B3000F7D080F09F3740F491110EF009C160E08A
:104B400070E080E89FEB089526F41B16611D711D2F
:104B5000811D79C093C0A3D018F011F0A7D038F40C
:104B60009BC0F6C0E92FBAD0B0F35523C9F3E7FBD9
:104B70006217730784079507A8F199F3E92FFF27B8
:104B800088232AF03197660F771F881FDAF7952F51
:104B90005527442332F091505040220F331F441FB9
:104BA000D2F7BB27E91BF50B621B730B840BB10912
:104BB000C1F222F4620F731F841FB11D31972AF0D6
:104BC000660F771F881FBB1FEFCF915050405AF0E0
:104BD00041F0882332F0660F771F881F91505040B4
:104BE000C1F793954BC08695779567959F5FD9F7E9
:104BF000F8CF990F0008550FAA0BE0E8FEEF161644
:104C00001706E807F907C0F012161306E407F507C0
:104C100098F0621B730B840B950B39F40A2661F034
:104C2000232B242B252B21F408950A2609F4A140D7
:104C3000A6958FEF811D811D089597F99F6780E8E4
:104C400070E060E00895882371F4772321F0985094
:104C5000872B762F07C0662311F499270DC090513A
:104C6000862B70E060E02AF09A95660F771F881F08
:104C7000DAF7880F9695879597F908959F3F31F059
:104C8000915020F4879577956795B795880F911D7A
:104C90009695879597F908959FEF80EC08950024E5
:104CA0000A941616170618060906089500240A9491
:104CB00012161306140605060895092E0394000C17
:104CC00011F4882352F0BB0F40F4BF2B11F460FFA6
:104CD00004C06F5F7F4F8F4F9F4F089557FD9058CF
:104CE000440F551F59F05F3F71F04795880F97FBB0
:104CF000991F61F09F3F79F087950895121613066A
:104D00001406551FF2CF4695F1DF08C01616170698
:104D10001806991FF1CF86957105610508940895CD
:104D2000E5DFA0F0BEE7B91788F4BB279F3860F431
:104D30001616B11D672F782F8827985FF7CF8695B5
:104D400077956795B11D93959639C8F30895E894C2
:104D5000BB2766277727CB0197F908954ADF08F428
:104D60008FEF08950BD0A9CF9ADF28F09FDF18F0BE
:104D7000952309F062CF90CF1124EACFAFDFA0F3E3
:104D8000959FD1F3950F50E0551F629FF001729FE0
:104D9000BB27F00DB11D639FAA27F00DB11DAA1FFF
:104DA000649F6627B00DA11D661F829F2227B00D4C
:104DB000A11D621F739FB00DA11D621F839FA00DD7
:104DC000611D221F749F3327A00D611D231F849F27
:104DD000600D211D822F762F6A2F11249F5750407E
:104DE0008AF0E1F088234AF0EE0FFF1FBB1F661F19
:104DF000771F881F91505040A9F79E3F510570F0D2
:104E00001CCFA6CF5F3FECF3983EDCF386957795F9
:104E10006795B795F795E7959F5FC1F7FE2B880FCC
:104E2000911D9695879597F908951F920F920FB649
:104E30000F9211242F933F938F939F93AF93BF9320
:104E400080919D0490919E04A0919F04B091A00434
:104E500030919C0423E0230F2D3758F50196A11DB6
:104E6000B11D20939C0480939D0490939E04A09375
:104E70009F04B093A0048091A1049091A204A091FA
:104E8000A304B091A4040196A11DB11D8093A104B7
:104E90009093A204A093A304B093A404BF91AF91F4
:104EA0009F918F913F912F910F900FBE0F901F9068
:104EB000189526E8230F0296A11DB11DD2CF3FB74A
:104EC000F8948091A1049091A204A091A304B091C0
:104ED000A40426B5A89B05C02F3F19F00196A11D7B
:104EE000B11D3FBFBA2FA92F982F8827BC01CD0134
:104EF000620F711D811D911D42E0660F771F881F93
:104F0000991F4A95D1F708958F929F92AF92BF92C1
:104F1000CF92DF92EF92FF926B017C01D0DF4B01C9
:104F20005C01C114D104E104F104D9F00CD4C7DF51
:104F3000681979098A099B09683E734081059105C2
:104F400080F321E0C21AD108E108F10888EE880E4A
:104F500083E0981EA11CB11CC114D104E104F1042A
:104F600031F7FF90EF90DF90CF90BF90AF909F9080
:104F70008F900895789484B5826084BD84B58160F3
:104F800084BD85B5826085BD85B5816085BDEEE651
:104F9000F0E0808181608083E1E8F0E01082808130
:104FA00082608083808181608083E0E8F0E080819E
:104FB00081608083E1EBF0E0808184608083E0EBBE
:104FC000F0E0808181608083E1E9F0E080818260AF
:104FD0008083808181608083E0E9F0E0808181606E
:104FE0008083E1EAF0E0808182608083808181605B
:104FF0008083E0EAF0E0808181608083E1E2F1E09B
:10500000808182608083808181608083E0E2F1E042
:10501000808181608083EAE7F0E080818460808322
:1050200080818260808380818160808380818068CC
:1050300080831092C1000895FC01918D228D892FEB
:1050400090E0805C9F4F821B91098F739927089590
:10505000FC01918D828D981731F0828DE80FF11D42
:10506000858D90E008958FEF9FEF0895FC01918D5D
:10507000828D981761F0A28DAE0FBF2FB11D5D9686
:105080008C91928D9F5F9F73928F90E008958FEF28
:105090009FEF0895FC01538D448D252F30E0842F20
:1050A00090E0821B930B541710F0CF960895019750
:1050B0000895FC01A48DA80FB92FB11DA35ABF4FAD
:1050C0002C91848D90E001968F739927848FA68907
:1050D000B7892C93A089B1898C91837080648C935B
:1050E000938D848D981306C00288F389E02D80810A
:1050F0008F7D80830895CF93DF93EC01888D882383
:10510000B1F0AA89BB89E889F9898C9185FD03C032
:10511000808186FD0CC00FB607FCF7CF8C9185FF10
:10512000F2CF808185FFEDCFCE01C3DFEACFDF91E3
:10513000CF910895EF92FF920F931F93CF93DF9338
:10514000EC0181E0888F9B8D8C8D98131AC0E889C3
:10515000F989808185FF15C09FB7F894EE89FF8992
:105160006083E889F98980818370806480839FBF30
:1051700081E090E0DF91CF911F910F91FF90EF9030
:105180000895F62E0B8D10E00F5F1F4F0F73112740
:10519000E02E8C8D8E110BC00FB607FCFACFE8897C
:1051A000F989808185FFF5CFCE0183DFF2CFEB8DCA
:1051B000EC0FFD2FF11DE35AFF4FF0829FB7F894DB
:1051C0000B8FEA89FB8980818062D0CFCF92DF92FA
:1051D000EF92FF921F93CF93DF93EC016A017B0163
:1051E000122FE889F98982E08083C11481EED80604
:1051F000E104F10499F060E079E08DE390E0A7012B
:105200009601C4D22150310941095109569547955B
:1052100037952795211580E1380790F0E889F989BD
:10522000108260E874E88EE190E0A7019601AED2AA
:1052300021503109410951095695479537952795D0
:10524000EC85FD853083EE85FF852083188EEC8903
:10525000FD891083EA89FB89808180618083EA89E6
:10526000FB89808188608083EA89FB8980818068EE
:105270008083EA89FB8980818F7D8083DF91CF9154
:105280001F91FF90EF90DF90CF9008951F920F92A3
:105290000FB60F9211240BB60F922F938F939F93FB
:1052A000EF93FF93E091B504F091B6048081E09113
:1052B000BB04F091BC0482FD1DC090818091BE04AE
:1052C0008F5F8F732091BF04821741F0E091BE047D
:1052D000F0E0EB55FB4F958F8093BE04FF91EF916B
:1052E0009F918F912F910F900BBE0F900FBE0F903B
:1052F0001F9018958081F2CF1F920F920FB60F92D8
:1053000011240BB60F922F933F934F935F936F939C
:105310007F938F939F93AF93BF93EF93FF9385EA10
:1053200094E0C7DEFF91EF91BF91AF919F918F9174
:105330007F916F915F914F913F912F910F900BBE95
:105340000F900FBE0F901F901895E5EAF4E01382BE
:10535000128288EE93E0A0E0B0E084839583A68378
:10536000B78383E893E09183808385EC90E0958711
:10537000848784EC90E09787868780EC90E0918B1F
:10538000808B81EC90E0938B828B82EC90E0958B0C
:10539000848B86EC90E0978B868B118E128E138E09
:1053A000148E08951F920F920FB60F9211240BB610
:1053B0000F922F938F939F93EF93FF93E09152055A
:1053C000F09153058081E0915805F091590582FDD7
:1053D0001DC0908180915B058F5F8F7320915C056C
:1053E000821741F0E0915B05F0E0EE5BFA4F958F9C
:1053F00080935B05FF91EF919F918F912F910F907B
:105400000BBE0F900FBE0F901F9018958081F2CFAA
:105410001F920F920FB60F9211240BB60F922F937B
:105420003F934F935F936F937F938F939F93AF932C
:10543000BF93EF93FF9382E495E03BDEFF91EF9102
:10544000BF91AF919F918F917F916F915F914F919C
:105450003F912F910F900BBE0F900FBE0F901F909A
:105460001895E2E4F5E01382128288EE93E0A0E062
:10547000B0E084839583A683B78383E893E0918328
:1054800080838DEC90E0958784878CEC90E0978703
:10549000868788EC90E0918B808B89EC90E0938BF1
:1054A000828B8AEC90E0958B848B8EEC90E0978BCE
:1054B000868B118E128E138E148E08951F920F926A
:1054C0000FB60F9211240BB60F922F938F939F93C9
:1054D000EF93FF93E091EF05F091F0058081E0916B
:1054E000F505F091F60582FD1DC090818091F805CB
:1054F0008F5F8F732091F905821741F0E091F805D5
:10550000F0E0E152FA4F958F8093F805FF91EF910B
:105510009F918F912F910F900BBE0F900FBE0F9008
:105520001F9018958081F2CF1F920F920FB60F92A5
:1055300011240BB60F922F933F934F935F936F936A
:105540007F938F939F93AF93BF93EF93FF938FEDD1
:1055500095E0AFDDFF91EF91BF91AF919F918F915A
:105560007F916F915F914F913F912F910F900BBE63
:105570000F900FBE0F901F901895EFEDF5E013827E
:10558000128288EE93E0A0E0B0E084839583A68346
:10559000B78383E893E09183808385ED90E09587DE
:1055A000848784ED90E09787868780ED90E0918BEB
:1055B000808B81ED90E0938B828B82ED90E0958BD8
:1055C000848B86ED90E0978B868B118E128E138ED6
:1055D000148E08951F920F920FB60F9211240BB6DE
:1055E0000F922F938F939F93EF93FF93E0918C06ED
:1055F000F0918D068081E0919206F091930682FDF4
:105600001DC09081809195068F5F8F7320919606C3
:10561000821741F0E0919506F0E0E458F94F958F3C
:1056200080939506FF91EF919F918F912F910F900D
:105630000BBE0F900FBE0F901F9018958081F2CF78
:105640001F920F920FB60F9211240BB60F922F9349
:105650003F934F935F936F937F938F939F93AF93FA
:10566000BF93EF93FF938CE796E023DDFF91EF91DB
:10567000BF91AF919F918F917F916F915F914F916A
:105680003F912F910F900BBE0F900FBE0F901F9068
:105690001895ECE7F6E01382128288EE93E0A0E022
:1056A000B0E084839583A683B78383E893E09183F6
:1056B000808385E391E09587848784E391E09787F1
:1056C000868780E391E0918B808B81E391E0938BDF
:1056D000828B82E391E0958B848B86E391E0978BBC
:1056E000868B118E128E138E148E0895AF92BF92F8
:1056F000CF92DF92EF92FF920F931F93CF93DF939E
:105700006C017B018B01040F151FEB015E01AE18CC
:10571000BF08C017D10759F06991D601ED91FC91EE
:105720000190F081E02DC6011995892B79F7C5010B
:10573000DF91CF911F910F91FF90EF90DF90CF906D
:10574000BF90AF9008950895DB018F939F9348D049
:10575000BF91AF91A29F800D911DA39F900DB29F0D
:10576000900D1124089597FB072E16F4009406D08F
:1057700077FD08D03FD007FC05D03EF49095819589
:105780009F4F0895709561957F4F0895A1E21A2E5D
:10579000AA1BBB1BFD010DC0AA1FBB1FEE1FFF1FD5
:1057A000A217B307E407F50720F0A21BB30BE40B25
:1057B000F50B661F771F881F991F1A9469F760956C
:1057C0007095809590959B01AC01BD01CF01089526
:1057D000EE0FFF1F881F8BBF0790F691E02D1994E5
:1057E0001DD0A59F900DB49F900DA49F800D911D7D
:1057F00011240895AA1BBB1B51E107C0AA1FBB1FA0
:10580000A617B70710F0A61BB70B881F991F5A954C
:10581000A9F780959095BC01CD010895A29FB00194
:10582000B39FC001A39F700D811D1124911DB29FD4
:10583000700D811D1124911D08950F931F93CF9317
:10584000DF93869F8001879F100D969F100D112476
:10585000C8010DD0EC01009721F0A80170E060E0D4
:1058600034D1CE01DF91CF911F910F9108950F9305
:105870001F93CF93DF938230910510F482E090E084
:10588000E091EA11F091EB1130E020E0B0E0A0E00F
:10589000309799F42115310509F44AC0281B390BBA
:1058A00024303105D8F58A819B816115710589F114
:1058B000FB0193838283FE0111C0408151810281EB
:1058C000138148175907E0F04817590799F41097C2
:1058D00061F012960C93129713961C933296CF0197
:1058E000DF91CF911F910F9108950093EA111093CA
:1058F000EB11F4CF2115310551F04217530738F061
:10590000A901DB019A01BD01DF01F801C1CFEF015F
:10591000F9CF9093EB118093EA11CDCFFE01E20F06
:10592000F31F819391932250310939832883D7CF74
:105930002091E8113091E911232B41F420910202CA
:10594000309103023093E9112093E8112091000275
:10595000309101022115310541F42DB73EB7409138
:10596000040250910502241B350BE091E811F091DF
:10597000E911E217F307A0F42E1B3F0B2817390794
:1059800078F0AC014E5F5F4F2417350748F04E0F9B
:105990005F1F5093E9114093E811819391939FCF3A
:1059A000F0E0E0E09CCFCF93DF930097E9F0FC01BB
:1059B000329713821282A091EA11B091EB11ED019E
:1059C00030E020E01097A1F420813181820F931FF5
:1059D0002091E8113091E9112817390709F061C0C9
:1059E000F093E911E093E811DF91CF910895EA0176
:1059F000CE17DF07E8F54A815B819E01411551050D
:105A0000B1F7E901FB83EA8349915991C40FD51F8E
:105A1000EC17FD0761F4808191810296840F951F38
:105A2000E90199838883828193819B838A83F0E053
:105A3000E0E012968D919C9113970097B9F52D9106
:105A40003C911197CD010296820F931F2091E8118E
:105A50003091E9112817390739F6309751F510922E
:105A6000EB111092EA11B093E911A093E811BCCFA9
:105A7000D383C28340815181840F951FC817D907F2
:105A800061F44E5F5F4F88819981480F591F5183A0
:105A900040838A819B81938382832115310509F09C
:105AA000B0CFF093EB11E093EA119ECFFD01DC0142
:105AB000C0CF13821282D7CFFB01DC0102C001905C
:105AC0000D9241505040D8F70895DC0101C06D930C
:105AD00041505040E0F70895FB01DC018D910190A9
