:1000000036C1000065C1000063C1000061C100008D
:100010005FC100005DC100005BC1000059C100006C
:1000200057C1000055C1000053C1000051C100007C
:100030004FC100004DC100004BC1000049C100008C
:1000400047C1000045C1000043C1000041C100009C
:100050003FC100003DC100003BC100000C946E2B6D
:1000600037C100000C949F2D0C94D52D31C1000098
:100070002FC100002DC100002BC1000029C10000CC
:1000800027C1000025C1000023C1000021C10000DC
:100090000C942B2E0C94612E1BC1000019C1000082
:1000A00017C1000015C1000013C1000011C10000FC
:1000B0000FC100000DC100000BC1000009C100000C
:1000C00007C1000005C100000C94521A0C94B72E11
:1000D0000C94ED2EFDC000000C94432F0C94792F4E
:1000E000F7C0000007634236B79BD8A71A39685695
:1000F00018AEBAAB558C1D3CB7CC5763BD6DEDFD4A
:10010000753EF6177231BF000000803F0800000006
:10011000BE922449123EABAAAA2ABECDCCCC4C3EFC
:1001200000000080BEABAAAAAA3E00000000BF00EB
:100130000000803F0000000000084178D3BB4387E7
:10014000D1133D190E3CC3BD4282AD2B3E68EC82FB
:1001500076BED98FE1A93E4C80EFFFBE01C4FF7F80
:100160003F0000000000001D3A2774694E53E8F577
:10017000D2CF9C81A6BBCDD0F7EAB9A4839E253807
:100180001F02514C6B76879ABDA0F3EEC9D46F72F3
:1001900055481B06213C4A57706D3E230419A2BFE7
:1001A0009885D6CBECF1130E2934677A5D40FBE6D7
:1001B000C1DC8F92B5A8DEC3E4F9AAB7908D362BC7
:1001C0000C11425F78659489AEB3E0FDDAC77C61BB
:1001D000465B0815322F5944637E2D30170AB1ACA7
:1001E0008B96C5D8FFE2263B1C01524F6875CED3D3
:1001F000F4E9BAA7809DEBF6D1CC9F82A5B8031E87
:100200003924776A4D50A1BC9B86D5C8EFF249547A
:10021000736E3D20071A6C71564B1805223F849966
:10022000BEA3F0EDCAD735280F12415C7B66DDC056
:10023000E7FAA9B4938EF8E5C2DF8C91B6AB100D46
:100240002A3764795E43B2AF8895C6DBFCE15A4732
:10025000607D2E3314097F6245580B16312C978A26
:10026000ADB0E3FED9C4FE2D8A2E162FA22F112485
:100270001FBECFEFD1E2DEBFCDBF00E00CBF13E069
:10028000A0E0B2E0E0EAF3E600E00BBF02C00790B6
:100290000D92AE39B107D9F722E1AEE9B3E001C062
:1002A0001D92AB37B207E1F711E0C7E3D1E000E000
:1002B00006C021970109802FFE010E944130C333FF
:1002C000D10780E00807A9F70E9476260C94CE316A
:1002D00097CE8F929F92AF92BF92CF92DF92EF9282
:1002E000FF926B017C0149015A010E940B0D88238A
:1002F00049F0C0906912D0906A12E0906B12F090B1
:100300006C1235C0C501B4010E940B0D8111F1CFF3
:10031000C501B4010E94C60C882309F43DC0E894CD
:10032000F7F820E030E040E85FE3C701B6010E9443
:100330007727882309F4AAC020E030E040E85FE393
:10034000C701B6010E94672920E030E0A901181614
:10035000CCF4C501B4010E9467291816CCF4C090F2
:100360006512D0906612E0906712F0906812C70193
:10037000B601FF90EF90DF90CF90BF90AF909F902D
:100380008F900895C501B4010E94672918163CF7A3
:10039000C12CD12C7601EBCF20E030E0A901C501C2
:1003A000B4010E947727882309F470C020E030E070
:1003B00040E85FE3C501B4019F770E947727811170
:1003C00014C020E030E0A901C501B4010E946729F2
:1003D00018166CF2A701960160E070E080E89FE3D8
:1003E0000E947B276B017C01C2CF20E030E040E01F
:1003F00050E4C501B4010E947727811107C0A7010D
:100400009601C701B6010E946B29ECCF20E030E0D5
:1004100040E05FE3C501B4010E94772720E030E0AF
:10042000A901811112C0C701B6010E94672987FD89
:1004300034C0C701B601FF90EF90DF90CF90BF901E
:10044000AF909F908F900C941E2AC701B6010E9416
:10045000772787FF0DC0C501B4010E9451289B0179
:10046000AC01C501B4010E94672918160CF441CFF4
:10047000A5019401C701B601FF90EF90DF90CF90E6
:10048000BF90AF909F908F900C94CE29C12CD12C0F
:1004900080E8E82E8FE3F82E6ACF20E030E0A90153
:1004A000C701B6010E94772787FFE2CF22CFCF9204
:1004B000DF92EF92FF926B017C019F7720E030E0AA
:1004C00040E859E50E94772787FF2BC020E030E005
:1004D00040E05FE3C701B6010E94672987FD0EC0B7
:1004E00020E030E040E05FE3C701B6010E94002752
:1004F000FF90EF90DF90CF900C94512820E030E0F7
:1005000040E05FEBC701B6010E946729181684F42A
:1005100020E030E0A901C701B6010E946B296B0100
:100520007C01C701B601FF90EF90DF90CF90089556
:1005300020E030E040E05FE3C701B6010E94FF2603
:10054000FF90EF90DF90CF900C9464272F923F9212
:100550004F925F926F927F928F929F92AF92BF92D3
:10056000CF92DF92EF92FF920F931F93CF93DF937F
:10057000CDB7DEB7E2970FB6F894DEBF0FBECDBFA2
:10058000E5E2F7E080E6DF011D928A95E9F7209128
:100590006E0230916F02409170025091710260E0E2
:1005A00070E080E090E495DE20E030E040E85FE33A
:1005B0000E94FF26609374087093750880937608F4
:1005C0009093770860916E0270916F028091700233
:1005D000909171026CDF6B017C01C0927808D0921F
:1005E0007908E0927A08F0927B0820E030E040E061
:1005F00053E40E94772787FF36C520E030E040E0D3
:1006000053ECC701B6010E94672900E887FD08C0C6
:10061000C701B6010E94E327062F16160CF424C565
:10062000C0907808D0907908E0907A08F0907B0824
:1006300020E030E040E053E4C701B6010E94772794
:100640006FE787FF0FC020E030E040E053ECC701C8
:10065000B6010E94672960E887FD04C0C701B601A2
:100660000E94E327E62F660FFF0BEC57F84F81E05F
:100670008083109225071092260710922707109268
:10068000280760918507062E000C770B880B990BC5
:100690000E9416286093290770932A0780932B07DE
:1006A00090932C0710924507109246071092470727
:1006B0001092480760918607062E000C770B880B76
:1006C000990B0E9416286093490770934A078093FC
:1006D0004B0790934C071092650710926607109293
:1006E00067071092680760918707062E000C770B4A
:1006F000880B990B0E9416286093690770936A070C
:1007000080936B0790936C0720E030E040E85FE354
:1007100060917408709175088091760890917708BF
:100720000E94FF260E94E3272B017DE2E72E77E05F
:10073000F72ED12CC12C002E000C110B01501109E9
:10074000F801EB57F84FFA87E987C414D5040CF485
:1007500096C4109274081092750810927608109240
:10076000770820E238E03E8F2D8F4CE358E0588B1D
:100770004F87FA01119211921192119258E0E835C7
:10078000F507C1F7812C912C30E8A32E3FE3B32E5F
:1007900046E0E42EF12CC501B4010E94E32761502C
:1007A0007109660F771F660F771F8B01045C174F67
:1007B000B7010F2C000C880B990B0E941628D8014A
:1007C0006D937D938D939C93139720E030E040E8E8
:1007D0005FE3C501B4010E9400274B015C01B1E059
:1007E000EB1AF108C0F68092780890927908A092EE
:1007F0007A08B0927B084090651250906612609023
:1008000067127090681202E812E098E5E92E98E00D
:10081000F92E57016801D6016D917D918D919D91C1
:100820006D01A30192010E947727811106C0F50195
:100830007C974082518262827382F50111921192FB
:10084000119211925F01FEE9CF16F2E0DF0619F76F
:100850008090740890907508A0907608B090770802
:100860008CE3C82E88E0D82ED6016D917D918D91B4
:100870009D916D01A50194010E946B29F601608F85
:10088000718F828F938FF4E5CF16F8E0DF0661F762
:1008900080919A0290919B02A0919C02B0919D023E
:1008A0008093700890937108A0937208B0937308B6
:1008B000AF85B8891D921D921D921D92B88BAF878E
:1008C000A855B840A9F7D7016D917D918D919D9163
:1008D0007D01F80121913191419151918F010E9447
:1008E0000027609378087093790880937A08909332
:1008F0007B080E940B0D882309F427C4809169129C
:1009000090916A12A0916B12B0916C1280937C0846
:1009100090937D08A0937E08B0937F0860917C0837
:1009200070917D0880917E0890917F080E940B0D48
:10093000882381F08091651290916612A0916712D0
:10094000B091681280937C0890937D08A0937E08F4
:10095000B0937F0860917C0870917D0880917E083B
:1009600090917F080E940B0DF701B097882309F43E
:1009700044C48091651290916612A0916712B09163
:10098000681280839183A283B383F2E00A391F0740
:1009900009F099CF80919A0290919B02A0919C02BC
:1009A000B0919D028093540890935508A0935608E7
:1009B000B0935708C0903C08D0903D08E0903E08A6
:1009C000F0903F08C0927C08D0927D08E0927E08AB
:1009D000F0927F0820916512298B309166123A8B34
:1009E0002090671230906812809180089091810861
:1009F000A0918208B09183088B8B9C8BAD8BBE8BB2
:100A0000209184083091850840918608509187088C
:100A10002F8B388F498F5A8F40E458E05C8F4B8F73
:100A2000EB8DFC8D81919191A191B191FC8FEB8F18
:100A300089879A87AB87BC8729893A89A101BC013C
:100A4000CD010E947727882309F446C1A7019601AA
:100A500069897A89C1010E947727882309F4D6C35E
:100A6000A701960169857A858B859C850E947727E9
:100A7000882309F4D0C320E030E040E050E4C7010F
:100A8000B6010E9400270E94E3274B01FB0131972A
:100A9000EE0FFF1FEE0FFF1FEB5DF84FC080D18000
:100AA000E280F380CB8ADC8AED8AFE8AF4013796F5
:100AB000EE0FFF1FEE0FFF1FEB5DF84FC080D180E0
:100AC000E280F380CF8AD88EE98EFA8E20E030E083
:100AD00040E050E469857A858B859C850E940027DB
:100AE0000E94E3272B01FB013197EE0FFF1FEE0F52
:100AF000FF1FEB5DF84FCC24C39420E030E0A90148
:100B000060817181828193810E947727811101C068
:100B1000C12C11E020E030E0A9016B897C898D892E
:100B20009E890E947727811101C010E0C126F20141
:100B30003796EE0FFF1FEE0FFF1FEB5DF84F01E042
:100B400020E030E0A90160817181828193810E945F
:100B50007727811101C000E011E020E030E0A90119
:100B60006F89788D898D9A8D0E947727811101C0B8
:100B700010E0F02EF1262FE0420E511CF201EE0F94
:100B8000FF1FEE0FFF1FEB5DF84F11E020E030E09C
:100B9000A90160817181828193810E9477278111EF
:100BA00001C010E03FE0830E911CF401EE0FFF1F27
:100BB000EE0FFF1FEB5DF84F01E020E030E0A901F0
:100BC00060817181828193810E947727811101C0A8
:100BD00000E0812F802745E257E05E874D8710E0D7
:100BE00000E02F2D30E050E040E02BA73CA74DA7C0
:100BF0005EA7282F30E050E040E02FA738AB49AB8C
:100C00005AABD12CF12CE12CED85FE85819191918F
:100C1000A191B191FE87ED878F8F98A3A9A3BAA365
:100C2000248D358D468D578D2BA33CA34DA35EA3FC
:100C30006BA57CA58DA59EA50E9416282B013C01C5
:100C4000AD85BE85DC962D913D914D915C91DF97F0
:100C50002FA338A749A75AA76FA578A989A99AA948
:100C60000E9416284B015C01C701B6010E9416289C
:100C70002F8D38A149A15AA10E947727811166C5FD
:100C8000A30192016BA17CA18DA19EA10E94772757
:100C900081115CC5A50194016FA178A589A59AA5CC
:100CA0000E947727811152C50115110509F4B3C2BD
:100CB000B801110F880B990B0E94162820E030E034
:100CC00040E85FE30E94002720E030E040E050E48D
:100CD0000E94FF266B017C01EF85F8892B8D3C8DEE
:100CE000E217F30709F09CCEC0927C08D0927D08F1
:100CF000E0927E08F0927F088B899C89AD89BE893D
:100D00008093800890938108A0938208B093830811
:100D10002F89388D498D5A8D20938408309385080A
:100D2000409386085093870889859A85AB85BC8552
:100D30008093780890937908A0937A08B0937B0801
:100D4000AD8DBE8DFE92EE92DE92CE92BE8FAD8FB5
:100D500020E030E040E85FE360917408709175082E
:100D600080917608909177080E940027609374081C
:100D7000709375088093760890937708ED8DFE8DBB
:100D8000E450F84009F0F1CCE4E0F8E080E298E0CB
:100D90004191519161917191408F518F628F738F09
:100DA0008E179F07A9F74EE952E05A87498710E04E
:100DB00000E01E0159E0250E311C31E7432E35E1DC
:100DC000532E612C712CA985BA856D917D918D91E1
:100DD0009D91BA87A98720E030E040E85FE30E9458
:100DE000772781116EC08091880890918908A09121
:100DF0008A08B0918B0884309105A105B10509F0EE
:100E00001BC260918C0870918D0880918E08909122
:100E10008F082DE133EF41E050E00E941F3049017F
:100E20005A019B01AC01A7EAB1E40E9449306B0171
:100E30007C01A4E1BBE0A50194010E944930C616E3
:100E4000D706E806F90608F0EAC16C197D098E0993
:100E50009F0960957095809590959F7760938C0819
:100E600070938D0880938E0890938F0860918C0802
:100E700070918D0880918E0890918F080E9414289F
:100E800020E030E040E050E30E946B294B015C0120
:100E90008092740890927508A0927608B0927708B4
:100EA00020E030E040EE50E4C501B4010E946B291F
:100EB0000E945128F801E05EF74F608371838283BE
:100EC00093830C5F1F4F0C31110509F07CCF81E03B
:100ED00090E00E94DC194091DC035091DD036091A9
:100EE000DE037091DF0390E080E00E94D8198090CB
:100EF000EC039090ED03A090EE03B090EF0320E0A0
:100F000030E040E85FEBC501B4010E9477278823F9
:100F100031F1C090DC03D090DD03E090DE03F0906F
:100F2000DF03A7019601C501B4010E94FF264B0112
:100F30005C0120E030E040E054E3C701B6010E94CC
:100F40006B299B01AC01C501B4010E9467291816E9
:100F500034F08EEB92E09093C7038093C6038091A8
:100F6000F003882331F08EEB92E09093C7038093D7
:100F7000C603C090E003D090E103E090E203F0905C
:100F8000E3033FEFC31AD30AE30AF30AC092E00374
:100F9000D092E103E092E203F092E303C114D104A2
:100FA000E104F10499F48091E4039091E503A091A8
:100FB000E603B091E7030196A11DB11D8093E40300
:100FC0009093E503A093E603B093E7038090E803D2
:100FD0009090E903A090EA03B090EB036091E403E2
:100FE0007091E5038091E6039091E7030E94142835
:100FF000A50194010E946B2920E030E040E85FE405
:101000000E946B292B013C01C701B6010E941428E4
:10101000A50194010E946B299B01AC01C301B2019F
:101020000E9400276093DC037093DD038093DE034E
:101030009093DF03E2960FB6F894DEBF0FBECDBFEC
:10104000DF91CF911F910F91FF90EF90DF90CF90A4
:10105000BF90AF909F908F907F906F905F904F90D8
:101060003F902F9008950FE7402F002E000C550B56
:1010700070E060E085E897E00E94BE31D1CA309010
:10108000850756E7652E52E0752E66E8862E67E0E6
:10109000962EB12CA12CA016B106A4F1A985BA8573
:1010A0003C9260918507062E000C770B880B990BFC
:1010B0000E941628F70161937193819391937F01A8
:1010C00060918607062E000C770B880B990B0E9407
:1010D0001628D7015C966D937D938D939C935F97B3
:1010E00060918707062E000C770B880B990B0E94E6
:1010F0001628F70164AF75AF86AF97AFFFEFCF1A31
:10110000DF0A23CBFFEFAF1ABF0AD3016D917D91A8
:101110008D919D913D01F40121904F0120E030E03F
:1011200040E85FE30E947727F401329781110BC0FA
:1011300081E0211001C080E091E0311001C090E019
:1011400089278083A8CF2082A6CF609178087091EC
:10115000790880917A0890917B0818D48111CECBC0
:10116000409078085090790860907A0870907B08D9
:1011700020E030E0A901C301B2010E94772781116C
:1011800009C010927C0810927D0810927E0810927F
:101190007F08C4CB20E030E040EE50E4C301B20150
:1011A0000E946B284B015C0180927C0890927D0824
:1011B000A0927E08B0927F0820E030E0A9010E9452
:1011C00077278823F1F220E030E0A901C301B201C2
:1011D0000E94772787FFA2CB20E030E040EE50E46A
:1011E000C501B4010E94002760937C0870937D08BC
:1011F00080937E0890937F0891CB80917C0890919A
:101200007D08A0917E08B0917F08BBCBC984DA84A9
:10121000EB84FC8461CDC988DA8871015DCDC61A82
:10122000D70AE80AF90AC0928C08D0928D08E09299
:101230008E08F0928F081ACE0597A105B10509F026
:1012400062C020919008309191084091920850918D
:1012500093086DEC7DE081E090E00E94FD2FAB01F2
:10126000BC01495759426D4E7F4F8091940890912F
:101270009508A0919608B09197086C017D01EDE06A
:10128000CC0CDD1CEE1CFF1CEA95D1F78C259D25AE
:10129000AE25BF256C017D01F1E1F694E794D7946A
:1012A000C794FA95D1F78C259D25AE25BF256C01F5
:1012B0007D0125E0CC0CDD1CEE1CFF1C2A95D1F72E
:1012C0008C259D25AE25BF2540939008509391080D
:1012D0006093920870939308809394089093950874
:1012E000A0939608B09397086A017B01C80ED91E97
:1012F000EA1EFB1EC701B6010E94142820E030E060
:1013000040E85FE2C1CD80915C1281114DC0A8E937
:10131000B8E0E4ECF9E01D923197E9F740929808C3
:101320005092990860929A0870929B08ECE9F8E054
:10133000C12CD12C7601C39481E795E1A0E0B0E007
:101340009C01AD016EE156954795379527956A95B5
:10135000D1F7282739274A275B2765E679E887E010
:101360009CE60E94FD2FDC01CB018C0D9D1DAE1D66
:10137000BF1D81939193A193B1932FEFC21AD20A0B
:10138000E20AF20A30E7C31632E0D306E104F104C0
:10139000B9F6C0925812D0925912E0925A12F092B5
:1013A0005B1241E040935C129E012F5F3F4FC09063
:1013B0005812D0905912E0905A12F0905B125FEFE1
:1013C000C51AD50AE50AF50A81E7C81682E0D806EB
:1013D000E104F10408F4C2C0E8E8F8E04489558962
:1013E000668977897F77C088D188E288F388CC24A2
:1013F000DD24EE2490E8F922C42AD52AE62AF72A29
:10140000B701A6017695679557954795A1E0CA2241
:10141000DD24CD2841F0BFED4B27B0EB5B27B8E0D2
:101420006B27B9E97B27CF018C5B994FDC01CD900D
:10143000DD90ED90FC904C255D256E257F25408B41
:10144000518B628B738B349694E1C92E9CE0D92E1C
:10145000CE16DF0619F6E4E2FCE04081518162819C
:1014600073814427552766277078C480D580E6802D
:10147000F780E894F7F8C42AD52AE62AF72AB701B4
:10148000A601769567955795479581E0C822DD249A
:10149000CD2841F09FED492790EB592798E0692727
:1014A00099E97927CF018C589340DC01CD90DD90EC
:1014B000ED90FC904C255D256E257F254193519341
:1014C00061937193B4E5CB2EB2E1DB2ECE16DF062D
:1014D00021F6C0905412D0905512E0905612F09020
:1014E0005712CC24DD24EE2440E8F42240919808E1
:1014F0005091990860919A0870919B087F77C42A4F
:10150000D52AE62AF72AB701A60176956795579559
:10151000479581E0C822DD24CD2841F09FED492781
:1015200090EB592798E0692799E97927C090C80E70
:10153000D090C90EE090CA0EF090CB0E4C255D25E0
:101540006E257F2540935412509355126093561286
:1015500070935712C12CD12C7601C394F601E1503F
:10156000F04CEE0FFF1FEE0FFF1FE856F74F4081C4
:10157000518162817381C0925812D0925912E092C7
:101580005A12F0925B124A015B01BBE0B694A79439
:1015900097948794BA95D1F7482559256A257B25D4
:1015A0004A015B0187E0880C991CAA1CBB1C8A9528
:1015B000D1F7A0E88A22A6E59A22ACE2AA22ADE9F8
:1015C000BA22482559256A257B254A015B019FE0FF
:1015D000880C991CAA1CBB1C9A95D1F788249924C5
:1015E000B6ECAB22E894B4F8482559256A257B254A
:1015F0004A015B01E2E1B694A79497948794EA9537
:10160000D1F7482559256A257B25F9014193519346
:10161000619371939F012E163F0609F0C8CE698130
:101620007A818B819C81E5E0969587957795679582
:10163000EA95D1F70E94142820E030E040E85CE40D
:101640000E946B294B015C016D817E818F819885A1
:10165000F6E09695879577956795FA95D1F70E946C
:1016600014289B01AC01C501B4010E94002720E0B1
:1016700030E040E055E20E946B294B015C0120E024
:1016800030E0A9010E947727811102CCF1E0CF1A46
:10169000D108E108F10820E7C21622E0D206E104F1
:1016A000F10480F4E8E9F8E081919191A191B19180
:1016B000892B8A2B8B2B09F077CE48E552E14E1708
:1016C0005F0791F7409298085092990860929A08A3
:1016D00070929B08ECE9F8E0C12CD12C7601C39400
:1016E00081E795E1A0E0B0E09C01AD016EE1569587
:1016F0004795379527956A95D1F7282739274A279F
:101700005B2765E679E887E09CE60E94FD2FDC0117
:10171000CB018C0D9D1DAE1DBF1D81939193A19397
:10172000B1935FEFC51AD50AE50AF50A20E7C2169C
:1017300022E0D206E104F104B9F6C0925812D09228
:101740005912E0925A12F0925B122ECE0F5F1F4F89
:101750000830110509F058CAC12CD12C7601BCCA39
:10176000CF93DF9384E090E0DAD0E6ECF3E08BE215
:10177000DF011D928A95E9F780E090E0A0E8BFEBD9
:1017800086A397A3A0A7B1A78DEC9CECACE4BEE325
:1017900082A393A3A4A3B5A389EF99EBACECB9EB17
:1017A00084839583A683B7838DEA9AE1ABE6BEE492
:1017B00080879187A287B38780E495E1A9EEBFE790
:1017C00084879587A687B78785E991E5A9ECB9E86D
:1017D000808B918BA28BB38BAAEBB3E0B383A283F4
:1017E000C2EBD3E01196DC93CE9382ED92E0998325
:1017F00088839B838A839D838C839F838E838AEDDA
:1018000093E015969C938E9314978AEC93E013962D
:101810009C938E9312978CED93E017969C938E93E6
:101820001697A5E2B7E083E691E0ED019C011992DD
:1018300021503040E1F7C8E8D8E085ED99E0DE01BD
:101840009C011D9221503040E1F728EA33E08AE004
:10185000D9011D928A95E9F7AEE9B3E0B58BA48B67
:101860008EE090E011969C938E9382E592E0139621
:101870009C938E93129786E392E015969C938E9399
:10188000149782E192E017969C938E93169786E0C8
:1018900092E019969C938E93189787E090E0A0E0D1
:1018A000B0E088839983AA83BB8382E897EBA1E3A6
:1018B000B4E48C839D83AE83BF8385EE95E5AAE96E
:1018C000B5E188879987AA87BB8785EB9BE3A2E16F
:1018D000BFE18C879D87AE87BF87DF91CF91089549
:1018E000089560E070E080E89FE7089560E070E0B0
:1018F00080E89FE7089560E070E080E89FEF08953A
:1019000060E070E080E89FEF089560E070E080ECB8
:101910009FEF089560E070E080EC9FEF0895F5DFA1
:101920006093691270936A1280936B1290936C1299
:10193000F1DF60935D1270935E1280935F1290935B
:101940006012CFDF60936512709366128093671206
:1019500090936812CBDF6093611270936212809350
:10196000631290936412C7DF60936D1270936E12CE
:1019700080936F1290937012C3DF60937112709313
:10198000721280937312909374120895CF92DF9223
:10199000EF92FF92CF936B017C01AC019B016091B0
:1019A00065127091661280916712909168120E9480
:1019B0007727C1E0882371F0A701960160916D122D
:1019C00070916E1280916F12909170120E94772721
:1019D0008111C0E08C2FCF91FF90EF90DF90CF90DE
:1019E00008950F931F938B019C01002711272078E6
:1019F0003F770115110520483F4749F4AB01BC0171
:101A00006F77772781E0452B462B472B09F480E041
:101A10001F910F910895E5CFEF92FF920F931F93BF
:101A2000CF93DF93EA01F901DC011496ED90FC906D
:101A3000159712964D915C9113974E0D5F1D28815D
:101A4000398118960D911C9119970217130730F0E0
:101A50000D911C911197012B09F441C08A01021BC1
:101A6000130BDC0118968D919C918E199F09800FA4
:101A7000911F86179707DCF1C901860F971F8417FE
:101A8000950778F4718360833383228315821482EF
:101A90001782168288819981680F791F79836883FC
:101AA00016C01183008333832283601B710B7583FF
:101AB000648390E080E01616170614F49E2D8F2D97
:101AC00096838783D701A60FB71FB983A88380E0C9
:101AD000DF91CF911F910F91FF90EF90089518968D
:101AE0008D919C91821B930B861797075CF681E082
:101AF000EFCFCF92DF92EF92FF92CF93DF936B0104
:101B000084E4869FE001879FD00D1124CF50DC4FE5
:101B10008AA99BA9009721F00E942C311BAA1AAA1E
:101B200084E48C9DF0018D9DF00D1124EF50FC4F4D
:101B300086A997A9009711F00E942C3184E48C9D0E
:101B4000F0018D9DF00D1124EF50FC4F138A128A85
:101B5000168A178A108E118E128E138E148E158E81
:101B6000168E178E10A211A281E090E093A382A39B
:101B700015A214A216A217A210A611A613A612A6A9
:101B800015A614A616A617A610AA11AA13AA12AA79
:101B900015AA14AA17AA16AA11AE10AE12AE13AE49
:101BA00014AE15AEDF01DE961D921D921D921C92A1
:101BB0001397EE5BFF4F11821082DF91CF91FF9060
:101BC000EF90DF90CF900895CF93DF93FB01DC017E
:101BD0006D917C91DB011696CD91DC918081918194
:101BE00023E0880F991F2A95E1F7AA81BB81A80FEE
:101BF000B91F8D919C91119724853585220F331F34
:101C0000EB016A817B81EB01C20FD31F0990D88160
:101C1000C02D14962D913C9161E070E0232B11F0C2
:101C200062E070E0C69F9001C79F300DD69F300DD7
:101C30001124A085B1852A9FB0012B9F700D3A9F7A
:101C4000700D1124A481B5812A9FF0012B9FF00D06
:101C50003A9FF00D11248E0F9F1FFA01918380830C
:101C600073836283DF91CF9108952F923F924F92B9
:101C70005F926F927F928F929F92AF92BF92CF921C
:101C8000DF92EF92FF920F931F93CF93DF9300D0D9
:101C900000D0CDB7DEB7DC011496ED91FC91019038
:101CA000F081E02D808591859A838983A281B3811B
:101CB000BC83AB83FB0181909190A190B190C12C2A
:101CC000D12C7601C814D904EA04FB04CCF0269682
:101CD0000FB6F894DEBF0FBECDBFDF91CF911F913D
:101CE0000F91FF90EF90DF90CF90BF90AF909F90BB
:101CF0008F907F906F905F904F903F902F900895BE
:101D000044805580668077804085518562857385E3
:101D1000CF0140969E838D83A081B1819D0183E098
:101D2000220F331F8A95E1F7A981BA8112968D910E
:101D30009C91D901A80FB91F2D903C901197048454
:101D4000F585E02DEE0FFF1F8B819C81E80FF91FB9
:101D50000190F081E02D14968D919C91892B41F595
:101D600081E090E0E89F9001E99F300DF89F300DF1
:101D70001124249F8001259F100D349F100D1124E4
:101D8000249DC001259D900D349D900D1124A80126
:101D90006D817E81820D931D0E94B531ED81FE81A2
:101DA000E00FF11F9FEFC91AD90AE90AF90A8ACF91
:101DB00082E090E0D7CFCF93DF93DB01A654BD4FF5
:101DC0002C91222369F024E4269FF001279FF00D37
:101DD0001124EF50FC4FEF0119922A95E9F71C925C
:101DE00024E4269FF001279FF00D1124EF50FC4FB3
:101DF0001482158216821782118610861386128627
:101E0000118A108A17861686DF91CF9172CE2F9293
:101E10003F924F925F926F927F928F929F92AF927A
:101E2000BF92CF92DF92EF92FF920F931F93CF93C7
:101E3000DF9300D000D01F921F92CDB7DEB724E40D
:101E4000269FF001279FF00D1124EF50FC4F0481D5
:101E5000158126813781012B022B032B09F4B7C092
:101E60002A016B017C0110E000E0812C912C5401CF
:101E70003F019F01285F3F4F3C832B83CF01049696
:101E80009E838D83AB81BC818D919C91ED81FE8180
:101E9000408151816281738184169506A606B7063A
:101EA000E4F10E942C31D3011A968D919C91892BDB
:101EB00009F07EC084E48C9DD0018D9DB00D11246D
:101EC000AF50BC4FBC83AB8350968D919C910E94C8
:101ED0002C31EB81FC81868597850E942C31C701CE
:101EE000B60107DEC701B60128960FB6F894DEBF2B
:101EF0000FBECDBFDF91CF911F910F91FF90EF905B
:101F0000DF90CF90BF90AF909F908F907F906F9019
:101F10005F904F903F902F904ECFFC01E00FF11F4C
:101F200092819983A381AA839F83A887312C212C36
:101F30002414350464F089819A810E942C31EFEFDA
:101F40008E1A9E0AAE0ABE0A0C5F1F4F9BCFAF814E
:101F5000B885ED91FD91B887AF83309759F08481B2
:101F600095810E942C31EF81F88532978081918193
:101F70000E942C31BFEF2B1A3B0ADACF800F911F42
:101F8000FC01848195810E942C312B813C812F5F43
:101F90003F4F3C832B83025F1F4FF501808191816E
:101FA0002B813C81241535054CF30E942C3182CFC6
:101FB00010E000E01C821B8224E42C9DC0012D9DBA
:101FC000900D1124DC01A550BC4F5D01E6CF289691
:101FD0000FB6F894DEBF0FBECDBFDF91CF911F913A
:101FE0000F91FF90EF90DF90CF90BF90AF909F90B8
:101FF0008F907F906F905F904F903F902F900895BB
:1020000024E4269FF001279FF00D1124EF50FC4F90
:10201000828993890497029758F485E090E0938B26
:10202000828B8FEF9FEFDC01828F938FA48FB58F10
:1020300008952F923F924F925F926F927F928F926C
:102040009F92AF92BF92CF92DF92EF92FF920F9347
:102050001F93CF93DF93CDB7DEB7AA970FB6F8944F
:10206000DEBF0FBECDBF9AA389A37E8B6D8B1A01F5
:10207000098B1A8B2B8B3C8B84E429893A89829FAC
:102080006001839FD00C112486010F501C4F898959
:102090009A89AB89BC89F80180839183A283B38339
:1020A000AB01BC01CD01B3DED601AB50BC4F84E027
:1020B000F10101900D928A95E1F7F4E02F0E311CA9
:1020C00064E070E0D80114968D919C910E94763066
:1020D000F80191878087892B09F0F5C04D895E89C9
:1020E00069897A898B899C8992DE81E0AA960FB6EC
:1020F000F894DEBF0FBECDBFDF91CF911F910F913E
:10210000FF90EF90DF90CF90BF90AF909F908F9017
:102110007F906F905F904F903F902F900895A9A56A
:10212000BAA58D919C91E98DFA8DE80FF91FF88F72
:10213000EF8BD1018D919C91880F991FA9A1BAA114
:10214000ED91FC91E80FF91F80819181EF89F88D65
:1021500091838083D10114962D913D914D915C9195
:1021600017972BA33CA34DA35EA362E070E08D897B
:102170009E890E947630EF89F88D93838283892B24
:1021800009F4ACCFF8E02F0E311C412C512C320158
:102190002BA13CA14DA15EA1421653066406750613
:1021A0009CF02B8D3C8D4D8D5E8D2F5F3F4F4F4FA3
:1021B0005F4F2B8F3C8F4D8F5E8F498D5A8D4C5FBB
:1021C0005F4F5A8F498F90C0610124E0C20ED11C2D
:1021D000D101ED90FC90EE0CFF1CEF89F88D82810F
:1021E0009381E80EF91E68E070E081E090E00E94C3
:1021F00076308C01D7018D939C93892B09F46ECF97
:1022000084E0F601D80101900D928A95E1F7B8E0DB
:102210002B0E311CF80180819181A281B3811816A7
:1022200019061A061B06DCF464E070E00E947630A2
:10223000D80115969C938E931497892B09F44ECF51
:10224000D12CC12C812C912C5401F80180819181D9
:10225000A281B38188169906AA06BB0634F0FFEF67
:102260004F1A5F0A6F0A7F0A93CFF801E480F58066
:10227000EC0CFD1C80E1F101DE01119601900D9244
:102280008A95E1F7F0E12F0E311CA701BE016F5FC7
:102290007F4FA9A1BAA114968D919C9195DCF8016C
:1022A00086819781D70112962D913C91820F931FC1
:1022B00097838683BFEF8B1A9B0AAB0ABB0AE4E0C5
:1022C000CE0ED11CC2CF1A8E198E1B8E1C8E1D8E67
:1022D0001E8E18A30F8FA8014C5F5F4F58A74FA306
:1022E000C80108969AA789A7EFA1F8A580819181D6
:1022F000A281B3812B8D3C8D4D8D5E8D28173907C2
:102300004A075B070CF40BCF6EE070E08D899E8965
:102310000E947630AF8DB8A11B969C938E931A972E
:10232000B12CA12CD12CC12CF12CE12C24E4E98975
:10233000FA892E9FC0012F9F900D11249C012550DA
:102340003C4F388F2F8B88248394912C4D895E8944
:10235000C416D50654F184E4A989BA898A9F8001FC
:102360008B9F100D11240F501C4FF80115861486F9
:10237000C70133E0880F991F3A95E1F70E9490302A
:10238000D80151969C938E935097892B09F4A6CE31
:10239000C701880F991F0E949030F80197878687A0
:1023A000892B09F49BCE80E0A1CED1014D905D90A8
:1023B0006D907D901D0177FC91CEEF89F88D0081A5
:1023C00011810A0D1B1DD80111969C928E92411409
:1023D00051046104710429F1C2010E949030F80196
:1023E00095838483892B09F479CEF8015382428244
:1023F000848195819783868391878087138612864F
:1024000081E090E045284628472811F490E080E0DC
:10241000E80EF91EFFEFCF1ADF0A2EE0A20EB11C64
:1024200095CF15961C921E921497DFCF2F923F9254
:102430004F925F926F927F928F929F92AF92BF92D4
:10244000CF92DF92EF92FF920F931F93CF93DF9380
:10245000CDB7DEB76A970FB6F894DEBF0FBECDBF1B
:102460009E8B8D8B49015A0184E4829F7001839F6A
:10247000F00C112497012F503C4F6901FB01808122
:102480009181F901958B848BD701A95FBB4FFB012B
:10249000349684E001900D928A95E1F7D701A55F0B
:1024A000BB4FFB01389684E001900D928A95E1F7CD
:1024B000D701A15FBB4FFB013C9684E001900D92D8
:1024C0008A95E1F7D701A15EBB4FFB01709684E0CE
:1024D00001900D928A95E1F78B010C5E1F4FF90177
:1024E00086A597A5A0A9B1A918161906DCF5880F2D
:1024F000991F880F991F0E949030F60193AB82AB11
:10250000892B09F4D3C0312C212C412C512C3201C0
:102510009601225D3F4F388F2F8BC601C2969A8F4E
:10252000898FF496FC8BEB8BB301A2012FEF421A3B
:10253000520A620A720AEF89F88D80819181A28124
:10254000B381481759076A077B070CF47BC0F60173
:1025500084A995A90E949030F60197AB86AB892B90
:1025600009F4A4C0F80180819181A281B38124E49F
:10257000289DF001299DF00D1124EF50FC4FAC0176
:10258000BD014D7F21E030E0452B462B472B11F05C
:1025900030E020E033A322A324E4289DF001299D0C
:1025A000F00D1124EF50FC4F0197A109B10921E072
:1025B00030E00297A105B10510F030E020E035A32E
:1025C00024A3D701A95EBB4FF801349684E00190A3
:1025D0000D928A95E1F784E4889DF001899DF00DC4
:1025E0001124EF50FC4F868D978DA0A1B1A1B7FFAC
:1025F00058C0B095A095909581959F4FAF4FBF4F14
:1026000082AF93AFA4AFB5AF168E178E10A211A2F2
:1026100080E06A960FB6F894DEBF0FBECDBFDF91A3
:10262000CF911F910F91FF90EF90DF90CF90BF90CF
:10263000AF909F908F907F906F905F904F903F9062
:102640002F900895E98DFA8D808191819C01220D52
:10265000331D3A8B298B80E1F801DE011196019040
:102660000D928A95E1F7005F1F4F49895A89BE0193
:102670006F5F7F4FED89FE8984819581A5DAEB89B3
:10268000FC8980819181E989FA8922813381820FD5
:10269000931FEB89FC8991838083F4E02F0E311C1A
:1026A00043CF12AE13AE14AE15AEB2CFC501B40116
:1026B00020DA81E0AECFCF92DF92EF92FF92CF93FC
:1026C000DF931092790424E4269FF001279FF00DF8
:1026D0001124EF50FC4F15A614A630E020E0D12CB9
:1026E000C12CDF011A96C1E0D0E0C416D506F4F083
:1026F00024E4269FF001279FF00D1124EF50FC4F9A
:1027000013A612A611AE10AEDF01DE961D921D9229
:102710001D921C92139782E090E0938B828BDF9145
:10272000CF91FF90EF90DF90CF900895ED91FC91C5
:102730001197E20FF31FE280F3801E141F0454F47C
:10274000E480F580F782E682F186E08613861286C1
:10275000D183C083EFEFCE1ADE0A225F3F4FC5CF91
:1027600024E4269FF001279FF00D1124EF50FC4F29
:10277000138A128A4CCB24E4269FF001279FF00D88
:102780001124EF50FC4F8289938981309105C8F064
:102790008530910518F0059769F008958FEF9FEF48
:1027A000DC01828F938FA48FB58F85E090E0938BAF
:1027B000828B08958FEF9FEFDC01828F938FA48F20
:1027C000B58F089524E4249FD001259FB00D1124D6
:1027D000AF50BC4F2EE0AC01249FC001259F900D4F
:1027E00011241A96ED91FC91E80FF91F81E0809376
:1027F00079048285938591878087408551852681DC
:10280000378181E090E04217530711F090E080E0BB
:102810009183808308952F923F924F925F926F929F
:102820007F928F929F92AF92BF92CF92DF92EF9260
:10283000FF920F931F93CF93DF93CDB7DEB7C055B1
:10284000D1090FB6F894DEBF0FBECDBF9EAF8DAFDE
:102850004BA75CA76DA77EA76801790184E4809FE0
:10286000F001819FF00D1124EF50FC4F228533853C
:1028700023963FAF2EAF239782899389029761F405
:1028800086A597A5A0A9B1A9892B8A2B8B2BC9F561
:1028900084E090E0938B828B84E48C9DF0018D9D8D
:1028A000F00D1124EF50FC4F8289938982309105FD
:1028B00009F037C282AD93ADA4ADB5AD2224239407
:1028C000312C181619061A061B060CF42FC2C05B11
:1028D000DF4F0FB6F894DEBF0FBECDBFDF91CF91B3
:1028E0001F910F91FF90EF90DF90CF90BF90AF902E
:1028F0009F908F907F906F905F904F903F902F9020
:102900000895848995894DAD5EAD8417950721F6AC
:1029100006A917A918AE1FAA1BAA1CAA1DAA1EAA9F
:102920001F01CF018E9627969FAF8EAF2797DF01AD
:10293000D2962996BFAFAEAF2997F8962B96FFAFE8
:10294000EEAF2B9791012A5D3F4F2D963FAF2EAFF3
:102950002D97A1014E5D5F4F2F965FAF4EAF2F9722
:102960000A9761969FAF8EAF61972796EEADFFAD48
:10297000279780819181A281B3812BA93CA94DA980
:102980005EA9281739074A075B0744F081E090E009
:10299000D101D9969C938E93D8977ECF2996AEADD0
:1029A000BFAD2997ED91FC912FA938ADE20FF31F30
:1029B000428153815AAF49AF50815FAF81812196E7
:1029C0008FAF21972B96AEADBFAD2B978D919C917C
:1029D000892B21F12D96EEADFFAD2D978080918052
:1029E000A280B3801AAB09AB5FA72196FFAD2197F8
:1029F000F8AB29AD3AAD36952795369527952596AE
:102A00003FAF2EAF25971CAE1BAE2596AEADBFAD2A
:102A10002597EBADFCADEA17FB070CF149AD5AADBC
:102A20006FAD21967FAD2197C8010E94B53189AD68
:102A30009AAD8C7F080F191F2BA93CA94DA95EA93F
:102A40002F5F3F4F4F4F5F4F2BAB3CAB4DAB5EAB60
:102A50004FA958AD4C5F5F4F58AF4FAB86CF2F9605
:102A6000AEADBFAD2F978D919C91892B71F1EFA5E4
:102A7000F8A94080518062807380A3019201C50152
:102A8000B4010E947727181664F0A9A9BAA92D915C
:102A90003D914D915C91C501B4010E9467291816C2
:102AA000BCF1A3019201C501B4010E94772787FF01
:102AB0000CC0E9A9FAA92081318142815381C50165
:102AC000B4010E947727882319F16196AEADBFAD9E
:102AD00061978D919C91892B09F445C0EFA5F8A9C8
:102AE0004080518062807380A3019201C501B401CE
:102AF0000E94672918161CF5A9A9BAA92D913D9124
:102B00004D915C91C501B4010E94772718165CF1C4
:102B100084E48C9DF0018D9DF00D1124EF50FC4F4D
:102B2000868D978DA0A1B1A1892B8A2B8B2B69F162
:102B300083E090E0938B828B81E090E02CC0A30136
:102B40009201C501B4010E94772781110CC0E9A947
:102B5000FAA92081318142815381C501B4010E94CB
:102B6000772787FDD5CF2BAD3CAD2F5F3F4F3CAFD7
:102B70002BAF49A95AA94C5F5F4F5AAB49AB8FA500
:102B800098A9049698AB8FA740CF84E090E0938BF0
:102B9000828B86AD97AD93A782A77ECEEBADFCADC1
:102BA00080819181F401EE0FFF1FEE0FFF1FE80FF0
:102BB000F91FA081B1818C9181110AC0FFEF8F1A9A
:102BC0009F0AAF0ABF0A8DA29EA2AFA2B8A68FC16C
:102BD0008330A1F30280F381E02D2FA938ADE20FFD
:102BE000F31F808191819AAB89AB892B39F34F5FB9
:102BF0005F4F6F4F7F4F49875A876B877C879E0156
:102C0000235E3F4FAE01475D5F4F64E070E0C80157
:102C10000E940C0D8111D0C18D819E81AF81B8853C
:102C20000496A11DB11D8D839E83AF83B8874D8D02
:102C30005E8DBE016B5D7F4F8F8D98A10E94B53177
:102C40008BA19CA1009761F06D8D7E8DA5E2B0E017
:102C5000AC0FBD1F6A0F7B1F49A15AA10E94B5315D
:102C60001CAA1BAA412C512C3201E9A9FAA9808186
:102C70009181A281B381481659066A067B060CF041
:102C80009DCFE9A9FAA9848195812BA93CA9280F98
:102C9000391F38AB2FA7D90112966D917C919E01F7
:102CA000235E3F4FAE01475D5F4FC8010E940C0D90
:102CB000811182C1EFA5F8A982819381092E000CB0
:102CC000AA0BBB0B4D815E816F817885840F951FA8
:102CD000A61FB71F8D839E83AF83B88760817181E4
:102CE0004D8D5E8D8F8D98A10E94B5318BA19CA1D9
:102CF000009761F0AFA5B8A96D917C912D8D3E8DA7
:102D0000620F731F49A15AA10E94B531BFEF4B1A40
:102D10005B0A6B0A7B0AEBA9FCA93496FCABEBAB14
:102D2000A4CF312C212C049709F0D1CD8EE0EDAD4C
:102D3000FEAD8E9F80018F9F100D112423962EAD26
:102D40003FAD2397020F131FD80112964D915C914E
:102D500013974115510509F4BACD16968D919C91A2
:102D60009AA789A780E1FE013196DF011D928A951D
:102D7000E9F7C98ADA8AEB8AFC8A2114310409F45A
:102D800058C084E48C9DF0018D9DF00D1124EF500E
:102D9000FC4FDF01DE968D909D90AD90BC9082AD92
:102DA00093ADA4ADB5AD88169906AA06BB0609F089
:102DB00040C0F801848195810084F185E02D34962E
:102DC00024E0DE01559601900D922A95E1F72D89B8
:102DD0003E89285F3F4F3E8B2D8BD80118966D9111
:102DE0007C911997260F371F19963C932E931897AD
:102DF00018962D913C911997480F591F241B350B9C
:102E000037FD06C0820F931F19969C938E931897D7
:102E100084E48C9DF0018D9DF00D1124E15DFB4F4C
:102E2000B1E08B1A9108A108B10880829182A28238
:102E3000B3829E012B5E3F4FAE01475D5F4F64E161
:102E400070E0C8010E940C0D8111B6C08CE090E0CA
:102E5000A0E0B0E08D839E83AF83B8879E01235EA0
:102E60003F4FAE01475D5F4F64E070E0C8010E94D4
:102E70000C0D8111A1C080E190E0A0E0B0E08D8355
:102E80009E83AF83B8874D8D5E8DBE01655D7F4F9C
:102E90008F8D98A10E94B5318BA19CA1009761F004
:102EA0006D8D7E8DEBE2F0E0EC0FFD1F6E0F7F1F4E
:102EB00049A15AA10E94B5311DA21EA21FA218A6A7
:102EC0002DAD3EAD220F331F38AF2FAB24E42C9D28
:102ED000C0012D9D900D11248F509C4FAC014C5F73
:102EE0005F4F5AAF49AFDC011896BCAFABAF8DA0B6
:102EF0009EA0AFA0B8A449855A856B857C85E9ADB5
:102F0000FAAD80819181A281B38188169906AA06C3
:102F1000BB060CF443CE452B462B472B09F4D7CCEC
:102F20008AE190E0A0E0B0E089839A83AB83BC8320
:102F30002DAD3EADC901330FAA0BBB0B8D879E870C
:102F4000AF87B88B4D895E89BE016F5F7F4F8F89D8
:102F5000988D0E94B5318B8D9C8D009761F06D89A5
:102F60007E8941E050E04C0F5D1F640F751F498D55
:102F70005A8D0E94B53189A59AA5D80117969C93C0
:102F80008E93169711961C921E92232809F49FCCBB
:102F900084E48C9DF0018D9DF00D1124E15DFB4FCB
:102FA00080819181A281B3810196A11DB11D808391
:102FB0009183A283B3838BCC232809F088CC84E44B
:102FC0008C9DF0018D9DF00D1124EF50FC4F81E0A0
:102FD00090E095A784A785E090E0938B828B77CCD7
:102FE000CF92DF92EF92FF920F931F9324E4269FDC
:102FF000F001279FF00D1124EF50FC4F22893389F7
:103000002115310509F452C06B017C0121303105D5
:10301000B1F482A593A59C012F5F3F4F33A722A750
:10302000092E000CAA0BBB0B028D138D248D358D40
:1030300080179107A207B307C9F5C7013CDB84E4F9
:103040008C9DF0018D9DF00D1124EF50FC4F828975
:103050009389039759F582A593A59C012F5F3F4F54
:1030600033A722A7092E000CAA0BBB0B468D578D48
:1030700060A171A184179507A607B707BCF086ADBC
:1030800097AD93A782A784E090E0938B828B82AD6B
:1030900093ADA4ADB5AD181619061A061B0634F487
:1030A000EE5BFF4F81E090E0918380831F910F9151
:1030B000FF90EF90DF90CF90089524E4269FF001D9
:1030C000279FF00D1124EF50FC4F828993890497BC
:1030D000B1F482A593A5019693A782A7092E000CAF
:1030E000AA0BBB0B46895789608D718D8417950794
:1030F000A607B70721F485E090E0938B828B0895B3
:103100002F923F924F925F926F927F928F929F92F7
:10311000AF92BF92CF92DF92EF92FF920F931F93E5
:10312000CF93DF93CDB7DEB72E970FB6F894DEBFFF
:103130000FBECDBFDC0149835A836B837C83290199
:1031400084E4849FF001859FF00D1124EF50FC4F23
:1031500022883388C1010497029708F0D5C01196E0
:103160001C921E9213961C921E921297158614861C
:10317000912C812C90E080E08F019F01205F3F4FD8
:1031800038872F833F013CE0630E711CBF01625FF3
:103190007F4F7A8769873A96FC87EB87EF81F885BE
:1031A00020813181F30140815181E985FA85A08038
:1031B000B180841595050CF445C011965C934E932F
:1031C00013963C932E9312971596BC92AE92149739
:1031D000452BF9F4F5E02F163104D9F41092790457
:1031E000F801828D938DA48DB58DAE014F5F5F4F39
:1031F00064E070E08F3F9F4FAF4FBF4F09F079C041
:1032000080E290E0F6D469817A818B819C81A20171
:10321000A7DA2E960FB6F894DEBF0FBECDBFDF91B2
:10322000CF911F910F91FF90EF90DF90CF90BF90C3
:10323000AF909F908F907F906F905F904F903F9056
:103240002F900895EB85FC8560817181FB01E80D6D
:10325000F91DFE87ED8760817181672B89F5E08418
:10326000F184628173817E836D83668177816A01D7
:10327000E3E0CC0CDD1CEA95E1F72C0D3D1D440F7D
:10328000551F4A0D5B1DFA0191838083F301408134
:1032900051814F5F5F4F51834083F901F382E28296
:1032A000ED85FE8573876287E616F70670F46E1962
:1032B0007F09F90171836083158214821782168257
:1032C0000196FEE08F0E911C69CFED85FE85C480CE
:1032D000D5804D815E814C0D5D1D4E195F09F90150
:1032E000518340836C197D0975836483D782C682BC
:1032F000E7CF8FE190E07DD4F80113A612A681E01C
:1033000090E0938B828B85CF1586148611961C9244
:103310001E9213961C921E9212977BCFEF92FF92F1
:103320000F931F93CF93DF937C018B01EA013DD56F
:1033300081111BC08091BC029091BD020497F9F4E9
:10334000DF91CF911F910F91FF90EF90089528ED9D
:1033500038EB45E050E060E070E0CB01DCD7AE0137
:10336000B801C701E6D7C801AFD780917A04909120
:103370007B04892BF9F68881882349F3DBCF83E02E
:1033800090E09093BD028093BC02DACFCF93DF939D
:103390002091BC023091BD022430310531F0EB01A7
:1033A000C8D7CE01DF91CF918FC7DF91CF9108951C
:1033B0000C9497250C948C250C947A2595C70C9425
:1033C0001E25089570E060E090E080E0C9C4089593
:1033D000AF92BF92CF92DF92EF92FF920F931F9323
:1033E000CF93DF931F921F92CDB7DEB75C018B01A5
:1033F00069017A0190E080E0C114D104E104F10494
:1034000069F40F900F90DF91CF911F910F91FF9072
:10341000EF90DF90CF90BF90AF9008959C2D8D2DB1
:10342000C114D10421E0E206F10410F09FEF8FEF08
:103430009E012F5F3F4F492F582FB801C5010E94B1
:1034400020268F3F9807E9F229813A81C21AD30AD0
:10345000E108F108020F131FCFCF40E855E260E00A
:1034600070E090E080E000C08130910579F01CF4BC
:10347000892B39F008958230910561F0039771F03E
:10348000089526E081EB94E00C943F2D26E08EE435
:1034900095E0FACF26E08BEE95E0F6CF26E088E8BF
:1034A00096E0F2CF1F920F920FB60F9211240BB637
:1034B0000F922F933F934F935F936F937F938F93CD
:1034C0009F93AF93BF93EF93FF938BEC93EF909306
:1034D0002501809324010E945A26FF91EF91BF910C
:1034E000AF919F918F917F916F915F914F913F919C
:1034F0002F910F900BBE0F900FBE0F901F9018953D
:103500008BEC93EF9093250180932401A3E7B0E027
:103510008C918E7F8C93E0E2F1E080818C7F8083C0
:10352000E1E2F1E08081877E808380818560808315
:1035300080818D7F80838C9181608C93089581E060
:1035400008958F929F92AF92BF92CF92DF92EF92A7
:10355000FF920F931F93CF93DF935C017B018A014E
:10356000C1E0D0E0CE15DF05CCF081E0F50180832D
:10357000B801C7010E94C125F5019283818390E0C3
:1035800080E0DF91CF911F910F91FF90EF90DF903E
:10359000CF90BF90AF909F908F9008956E018FEF66
:1035A000C81AD80AFE01EE0FFF1FE00FF11F80803E
:1035B00091808114910469F061E473E0C4010E9478
:1035C000C531892B41F4CC0FDD1FC00FD11F1982EB
:1035D0001882E601C7CF64E473E0C4010E94C531DC
:1035E000892BB9F7EC14FD04A1F36E01E2E0CE0ED5
:1035F000D11CCC0FDD1FC00FD11F198218821B8276
:103600001A82E7CF8CE794E0089580E008950F9345
:103610001F93CF93DF938B01BA01E90119821882BE
:103620009801012E000C440B550BFC018181928105
:10363000CFDE019641F01983088380E0DF91CF91BE
:103640001F910F91089581E0F9CF0F931F93CF93AE
:10365000DF931F921F92CDB7DEB7FB018A01B9013C
:103660009E012F5F3F4FAF01FC01818192810E943B
:10367000D525019669F089819A81F801918380832B
:1036800080E00F900F90DF91CF911F910F910895DF
:1036900081E0F7CFFC01808108950895089581E0CD
:1036A000FB01808380E0089508951092A40408959A
:1036B000FC01818192810C94B925CF93DF9300D0D6
:1036C00000D000D01F92CDB7DEB7B0E0A0E0898374
:1036D0009A83AB83BC83CB01770FAA0BBB0B8D8383
:1036E0009E83AF83B8879E01275F3F4FAE014F5F38
:1036F0005F4F68E070E0809193049091940487DFBD
:10370000811110C081E029853A852830310509F4FE
:1037100080E02A960FB6F894DEBF0FBECDBFDF91D2
:10372000CF91089581E0F5CF0F931F93CF93DF934F
:103730001F921F92CDB7DEB78B019E012F5F3F4FC7
:10374000AC01809193049091940461DF81110EC0CB
:1037500081E029813A812017310709F480E00F9038
:103760000F90DF91CF911F910F91089581E0F7CFD6
:10377000CF93DF93EC01109297041092960410926D
:10378000A3041092A204AC0160E070E0CB010E949F
:10379000B013AE0161E070E080E090E00E94B013F1
:1037A0008091930490919404DF91CF917DCF4F92BB
:1037B0005F926F927F928F929F92AF92BF92CF92C1
:1037C000DF92EF92FF920F931F93CF93DF931F929D
:1037D0001F92CDB7DEB78C017C0197FF03C087E055
:1037E000E80EF11C23E0F594E7942A95E1F7C8016F
:1037F00068E070E00E940C306C010E5F1F4F8091FA
:1038000091049091920480179107D4F480918F04D1
:1038100090919004009731F00E942C311092920404
:1038200010929104C8010E9490309093900480936C
:103830008F04892B09F482C01093920400939104A1
:1038400010E000E047C1412C512C3201B12CA12CD9
:10385000950128563B4FAE014F5F5F4F61E070E02E
:103860008091930490919404F0DE811149C0EFEFB0
:103870004E1A5E0A6E0A7E0AF0E94F16FFE55F06F1
:10388000F1E06F06710444F06091A2047091A3040A
:103890008DEE90E012DFD7CF89819A81A80EB91EF4
:1038A0008AE0A816B10409F043C049E050E070E096
:1038B00060E088E994E00E944C266091A204709137
:1038C000A304882391F18091A00490E086179707C4
:1038D00081F4BC018EEE90E0F0DE8091A204909124
:1038E000A304019699279093A3048093A2040F5FE9
:1038F0001F4F0E151F050CF4A6CFCD2809F07CC074
:1039000090E080E00F900F90DF91CF911F910F9189
:10391000FF90EF90DF90CF90BF90AF909F908F90EF
:103920007F906F905F904F9008958FEE90E0B2CFB0
:10393000EAE0AE16B1040CF48BCFDBCF10E000E070
:10394000D8CF0A30110531F549E050E070E060E071
:1039500088E994E00E944C266091A2047091A3042F
:103960008823A9F08091A00490E08617970741F67C
:10397000BC018EEE90E0A1DE8091A2049091A304A0
:10398000019699279093A3048093A204B9CF8FEE58
:1039900090E02BC00A3011050CF0B2CF98012856E8
:1039A0003B4FAE014F5F5F4F61E070E08091930449
:1039B000909194044ADE8111A3CF89819A81080FE6
:1039C000191FFFEFCF1ADF0AEF0AFF0A80E9C816B6
:1039D0008FE5D80681E0E806F1040CF4B2CF6091DF
:1039E000A2047091A3048DEE90E067DE10E000E089
:1039F000C12CD12C7601D2CFC12CD12C760110E074
:103A000000E0CCCF412C512C3201B12CA12C48012B
:103A100093E0880C991C9A95E1F720918F043091DE
:103A20009004C501880D991D280F391FAE014F5F05
:103A30005F4F61E070E0809193049091940405DE03
:103A400081115ECFEFEF4E1A5E0A6E0A7E0A609118
:103A5000A2047091A3048DEE90E0F0E94F16FFE50B
:103A60005F06F1E06F0671040CF043C089819A8112
:103A7000A80EB91E8AE0A816B10409F041C049E0B9
:103A800050E0B40180918F04909190040E944C26E4
:103A90006091A2047091A304882349F180918F045E
:103AA00090919004880E991EF401808590E086170D
:103AB000970781F4BC018EEE90E0FFDD8091A204B7
:103AC0009091A304019699279093A3048093A20454
:103AD0000F5F1F4F0E151F050CF494CFC114D104B6
:103AE00009F081C080918F04909190040BCF8FEEEC
:103AF00090E0E3DD412C512C3201B12CA12C8DCF73
:103B0000FAE0AF16B1040CF488CFE4CF8FEE90E06A
:103B1000D4DDF12CE12C812C912C540197012856F5
:103B20003B4FAE014F5F5F4F61E070E080919304C7
:103B3000909194048ADD8111E3CE8FEF881A980A60
:103B4000A80AB80A6091A2047091A3048DEE90E0D7
:103B5000E0E98E16EFE59E06E1E0AE06B104C4F69C
:103B600089819A81E80EF91EFAE0EF16F104A9F5B1
:103B700049E050E070E060E088E994E00E944C2663
:103B80006091A2047091A304882309F4BFCF8091AF
:103B9000A00490E08617970709F0A4CFBC018EEE31
:103BA00090E08BDD83E0000F111F8A95E1F7809193
:103BB0008F0490919004A60168E974E0800F911F32
:103BC0000E94B5318091A2049091A3040196992797
:103BD0009093A3048093A20485CF8AE0E816F104B1
:103BE0000CF49CCF7FCF812C912C5401F12CE12C33
:103BF00095CFCF92DF92EF92FF920F931F93CF93C7
:103C0000DF931F92CDB7DEB76C017B018A01452B94
:103C100039F0AB0170E060E0C8010E94482689835A
:103C2000B701C6014ADD81110DC00115110551F022
:103C3000B701C80179DD811105C061E070E0CE01F6
:103C4000019672DD0F90DF91CF911F910F91FF9040
:103C5000EF90DF90CF900895CF92DF92EF92FF9296
:103C6000CF93DF9300D000D01F921F92CDB7DEB765
:103C70006B01F12CE12CC982DA82EB82FC822D836C
:103C80003E834F835887AE014F5F5F4F68E070E01F
:103C9000B0DF28960FB6F894DEBF0FBECDBFDF9120
:103CA000CF91FF90EF90DF90CF9008958F929F92E9
:103CB000AF92BF92CF92DF92EF92FF920F931F933A
:103CC000CF93DF937C01EB01CA01690170DD00979E
:103CD000B1F42FEF3FEFA90161E070E0C701BCDF55
:103CE000C1E08C2FDF91CF911F910F91FF90EF904A
:103CF000DF90CF90BF90AF909F908F900895FC0180
:103D000081909190A190B190BF01FCE1EF16F10478
:103D100079F4A5019401CE010E941612C82FA501C5
:103D20009401882369F061E070E0C70195DFD9CF85
:103D300095018401AB01B601CE010E941910EECFAE
:103D400070E060E0C701DF91CF911F910F91FF906C
:103D5000EF90DF90CF90BF90AF909F908F907CCFEF
:103D60000F931F93CF93DF93EC018B014BDC909368
:103D70009404809393040097A9F0A801BE01E1DBAD
:103D8000EC01892B49F0809193049091940485DC97
:103D90001092940410929304CE01DF91CF911F9161
:103DA0000F910895C0E5D3E0EECF809193049091F8
:103DB000940470CC2F923F924F925F926F927F92B9
:103DC0008F929F92AF92BF92CF92DF92EF92FF922B
:103DD0000F931F93CF93DF93CDB7DEB769970FB6DD
:103DE000F894DEBF0FBECDBF209197042223F1F0DF
:103DF0005B8B4A8B6E877F87888B998B9A01AB018F
:103E0000BC01CE0101967C017BD910E048E0242E54
:103E1000312CE88EF98E89819A81181619060CF4D6
:103E200050C2112319F08A899B89A2DC69960FB6CA
:103E3000F894DEBF0FBECDBFDF91CF911F910F91E0
:103E4000FF90EF90DF90CF90BF90AF909F908F90BA
:103E50007F906F905F904F903F902F900895EB81EF
:103E6000FC818C859D8533E0880F991F3A95E1F799
:103E7000E80FF91F8081918190938E0480938D04C7
:103E8000248135814281538150938C0440938B046B
:103E90004681578150938A0440938904820F931F6F
:103EA0009C01990F440B550B2C8B3D8B4E8B5F8BDC
:103EB000812C912C54018C899D89AE89BF898816EB
:103EC0009906AA06BB0638F18C859D85880F991F37
:103ED000ED81FE81E80FF91F4E855F85688979893C
:103EE000808191810E94E213AC85BD851196BD87CA
:103EF000AC8789819A81EC85FD85E817F9070CF478
:103F0000AECF2A893B894E855F8568897989888DFE
:103F1000998DF6D880CF1F8260918D0470918E04A8
:103F2000CB01072E000CAA0BBB0B840175016401A9
:103F300034E0C30ED11CE11CF11CC816D906EA06F8
:103F4000FB0608F0B3C020918B0430918C04A401CF
:103F50004C5F5F4F240F351FF901C080D12CF12C2D
:103F6000E12C24013501F5E04F0E511C611C711C40
:103F7000481659066A067B0608F0A3C020918B04F8
:103F800030918C04F8013596E20FF31F2081D22A7C
:103F90002401350126E0420E511C611C711C48169B
:103FA00059066A067B0608F097C020918B04309171
:103FB0008C04F8013696E20FF31F2081E22A2401D7
:103FC000350137E0430E511C611C711C481659061F
:103FD0006A067B0608F08BC020918B0430918C041C
:103FE000F8013796E20FF31F208126013701722A6C
:103FF0007501640148E0C40ED11CE11CF11C8C1554
:104000009D05AE05BF0508F41DC188169906AA06D0
:10401000BB0608F077C080918B0490918C04800FD0
:10402000911F68E070E080DBE0918D04F0918E04D8
:104030009F010F2E000C440B550BD301C2018C0DB8
:104040009D1DAE1DBF1D281739074A075B0708F4E1
:1040500078C0C216D306E406F50608F05DC080916C
:104060008B0490918C049801285F3F4F820F931F1F
:10407000B2015ADB80918D0490918E04AC01092E1F
:10408000000C660B770BC416D506E606F70608F09B
:104090004DC0085F1F4F80918B0490918C04800F5E
:1040A000911FA20170E060E0F3D5A7C044E050E0AA
:1040B000461B570B480D591D2091890430918A04E5
:1040C00049CFE5E0F0E0E61BF70BE00FF11F209190
:1040D000890430918A0458CFE6E0F0E0E61BF70B44
:1040E000E00FF11F2091890430918A0464CFE7E04A
:1040F000F0E0E61BF70BE00FF11F209189043091EF
:104100008A0470CF9801261B370B80918904909107
:104110008A04820F931F85CF91012E1B3F0B200F26
:10412000311F8091890490918A04A0CFD101A81BEE
:10413000B90BCD01080F191F8091890490918A0451
:10414000AECFBF0168507109601B710BC216D30658
:10415000E406F50608F062C080918B0490918C040F
:104160009801285F3F4F820F931FDEDA80918D0404
:1041700090918E04B101681B790B600F711F640D63
:10418000751D8091890490918A04CEDA80918D0406
:1041900090918E04AC0148505109FA01E01BF10BDB
:1041A000AC01092E000C660B770BC416D506E6068B
:1041B000F70608F03DC080918B0490918C04980123
:1041C000285F3F4F820F931FAF0170E060E060D522
:1041D0008F8320918D0430918E04F101E21BF30B4B
:1041E0009F01200F311F240D351D50E040E0682F46
:1041F0008091890490918A0437D58F8361E070E0C3
:10420000CE01079691DA182F38E0430E511C611C3D
:10421000711C840C951CA61CB71C4DCE91012E1B45
:104220003F0B200F311F8091890490918A049BCF0E
:104230009101281B390B200F311F80918904909127
:104240008A04C0CF88169906AA06BB0668F5601BCB
:10425000710B80918B0490918C04800F911F64DA14
:1042600080918D0490918E04B101681B790B600FD1
:10427000711F640D751D8091890490918A0454DA30
:1042800080918D0490918E04AC01092E000C660B78
:10429000770BC416D506E606F70608F4FACE9101A8
:1042A000281B390BC90146CFC801861B970B2091EB
:1042B000890430918A04B201685F7F4F820F931F97
:1042C000DECF1D861C8615CECF93DF93EC01AC01AB
:1042D00060E070E0CB016EDDAE0161E070E080E097
:1042E00090E0DF91CF9166CDCF9380919304909130
:1042F00094048BD9C82F81110BC060E070E0CB0112
:104300000E94DB0E61E070E080E090E00E94DB0E36
:104310008C2FCF9108950F931F9389019A01AB01C0
:10432000BC018091930490919404B8D91F910F918E
:1043300008954F925F926F927F928F929F92AF9269
:10434000BF92CF92DF92EF92FF920F931F93CF9382
:10435000DF93CDB7DEB763970FB6F894DEBF0FBE1D
:10436000CDBF6C018B015A0180919704882309F419
:104370003DC080919704882309F442C0809196043F
:104380001A821982882309F4C0C0F0E94F2EFFE594
:104390005F2E66246394712CF12CE12C9701215837
:1043A0003B4FAE014F5F5F4F61E070E0809193043F
:1043B000909194044AD9982E811169C089819A817B
:1043C000E80EF91EE114F10409F461C081E0481A15
:1043D00051086108710859F56091A2047091A30415
:1043E0008DEE90E06AD91A82198251C067E974E0B3
:1043F000809193049091940452D9882309F4B9CF01
:1044000063960FB6F894DEBF0FBECDBFDF91CF919C
:104410001F910F91FF90EF90DF90CF90BF90AF90E2
:104420009F908F907F906F905F904F900895AAE03B
:10443000EA16F10409F063C049E050E070E060E082
:104440008FE794E029D46091A2047091A30488239B
:1044500009F452C08091870490E08617970719F6F7
:10446000BC018EEE90E029D988E0EFE7F4E0DE01B0
:10447000199601900D928A95E1F78091A20490918E
:10448000A304019699279093A3048093A20481E04A
:1044900029813A81121613060CF080E09110CAC2ED
:1044A000882309F4ADCF80919604811104C0198648
:1044B0001A861B861C8689859A85AB85BC858031CA
:1044C0009105A105B10508F09BCFFC018827E459AF
:1044D000FD4D8F4F0C944130EC22AB241A25002265
:1044E000F0232324DC22E422C022FF24EE24FB2438
:1044F000002200220022AB228FEE90E073CFBAE0C0
:10450000EB16F1040CF44ACFC2CFF12CE12CE8E019
:104510006E2E712C29E030E02C0F3D1F2E0D3F1D1B
:10452000AE014F5F5F4FB3016E197F098091930415
:10453000909194048AD8982E29813A81811109C0DA
:10454000E20EF31EE114F10421F0E8E0EE16F104AE
:104550000CF381E09FCFD6011696ED91FC918081FE
:104560009181A281B38189839A83AB83BC83AE019D
:104570004F5F5F4F64E070E085E190E03ADB40CF51
:104580008D859E8514D92FEF3FEFA90161E070E082
:10459000009771F0FC01C080D180E280F380A80117
:1045A000C701B6010E945B13A701960170E060E0AD
:1045B0008DE190E051DB24CF4D855E859801B601F9
:1045C0008BE190E073DB1CCF4D855E852FEF3FEFD5
:1045D000B6018CE190E0F6CFD6011496ED91FC91F6
:1045E00000811181F80182809380A080B18070E108
:1045F000472E512C612C712C49825A826B827C820D
:1046000088E090E0A0E0B0E08D839E83AF83B88720
:104610009E012F5E3F4FAE014F5F5F4F68E070E03D
:1046200080919304909194040E94071B8823D9F0F1
:1046300010E000E0C80163960FB6F894DEBF0FBE2D
:10464000CDBFDF91CF911F910F91FF90EF90DF9041
:10465000CF90BF90AF909F908F907F906F905F9022
:104660004F900C942C3189899A89089709F7D801C1
:10467000ED90FC90B8E0EB0EF11CEE0CFF1CEE0C84
:10468000FF1CC7010E9490308C01892B89F249825E
:104690005A826B827C82C7010F2C000CAA0BBB0BC9
:1046A0008D839E83AF83B8879E012F5E3F4FAE01FF
:1046B0004F5F5F4F68E070E08091930490919404A5
:1046C0000E94071B8111B6CF89899A89089709F042
:1046D000B1CFD6011296ED91FC914081518162815A
:1046E0007381D8014D935D936D937C9313974481AF
:1046F00055816681778114964D935D936D937C937C
:104700001797408551856285738518964D935D9303
:104710006D937C931B9784859585A685B785F80155
:1047200084879587A687B787108A118A128A138A89
:1047300084E090E0A0E0B0E0848B958BA68BB78BF3
:104740008091BC029091BD02B0E0A0E0808F918F7B
:10475000A28FB38FC5010B2C000CAA0BBB0B848F4F
:10476000958FA68FB78FF401D801909690E080E0E6
:104770008A159B055CF19E012F5E3F4FA801B70192
:1047800080919304909194040E94071B811152CF51
:1047900089899A89E816F90609F04CCFA70170E0DB
:1047A00060E0C80175D28B8B9E012F5E3F4FAE013A
:1047B0004D5E5F4F61E070E08091930490919404AE
:1047C0000E94071B81E08093960434CF4191519160
:1047D00070E060E04D935D936D937D930196C8CF3B
:1047E0008D859E85AF85B8890097A105B10521F417
:1047F00081E08093950404CE0E94D71B009781F43A
:1048000081E090E0A0E0B0E089839A83AB83BC8331
:10481000AE014F5F5F4F64E070E082E190E0AECEAA
:10482000BC01C6010E94350E19821A821B821C82AD
:10483000AE014F5F5F4F64E070E082E190E0D9D954
:104840008823B1F2DDCDD6011496ED91FC91019053
:10485000F081E02DE084F1848FEF8983E114F1048D
:1048600009F472C0D7016D907C90C280D38070E053
:1048700060E090E080E08615970594F083E190E099
:104880000E945D1B10E000E08111BACD06151705EE
:104890005CF161E070E0CE0101960E94941BB0CD06
:1048A0009C0143E0220F331F4A95E1F7F701A281F3
:1048B000B381A20FB31F1296ED91FC911397EE0FE7
:1048C000FF1FEC0DFD1D0190F081E02D16964D911E
:1048D0005C91E49F9001E59F300DF49F300D112411
:1048E000620F731F0196C7CFD7011296ED91FC910D
:1048F000C80123E0880F991F2A95E1F7E80FF91FF7
:10490000A080B180A281B381AA0FBB1FAC0DBD1DD9
:104910002D913C9186819781289F4001299F900C81
:10492000389F900C1124B401C5010E94941B582E8D
:10493000940150E040E06981C50196D1898351100E
:104940005FCD0F5F1F4FA2CF70E060E083E190E08A
:104950000E945D1B55CD50E040E070E060E081E1D9
:1049600090E047D981114CCD60E070E0CB010E940E
:10497000001080917904882329F0A80160E070E09C
:10498000CB0118DAA80160E070E0CB010E94070FAC
:1049900061E070E080E090E00E9400108091790476
:1049A000882331F0A80161E070E080E090E002DA55
:1049B000A80161E070E080E090E00E94070F109293
:1049C0009704109296041092A3041092A20480916E
:1049D0009304909194040E94551B12CD81E090E0C5
:1049E00090937B0480937A0450E040E070E060E0B4
:1049F00086E190E0C3CD81E0F501808301CD8D8516
:104A00009E850E94D71B2FEF3FEFA90161E070E068
:104A1000009769F0DC01CD90DD90ED90FC90C7012E
:104A2000B6010E94BB13A701960170E060E08EE121
:104A300090E0C0CDC8010E94B81BE2CCCF92DF92BB
:104A4000EF92FF92CF93DF93EC01C12CD12C760132
:104A5000C701B6010E940010AE01C701B601AAD974
:104A6000AE01C701B6010E94070F80918F0490919B
:104A70009004009731F00E942C3110929004109213
:104A80008F04CA94CD28CE28CF2879F5809196043A
:104A9000F12C882351F050E040E070E060E084E1C8
:104AA00090E0A7D8F82E109296048091970488235E
:104AB00041F01092970481E090E09093BD028093C2
:104AC000BC0280919304909194040E94581B8091A1
:104AD0009304909194040E944D1B8F2DDF91CF91F0
:104AE000FF90EF90DF90CF900895C12CD12C7601EC
:104AF000C394AECFCF93DF93EC01AC0160E070E0E4
:104B0000CB010E94F017AE0161E070E080E090E020
:104B1000DF91CF910C94F01760E070E0CB010E9420
:104B20005D1861E070E080E090E00C945D18CF9239
:104B3000DF92EF92FF920F931F93CF93DF93EC01DD
:104B40006A017B0100E010E098010E940B1401E073
:104B500010E020E030E0B701A601CE010E940B1466
:104B6000DF91CF911F910F91FF90EF90DF90CF9049
:104B7000089568EE73E080E090E01FD690E080E05A
:104B8000089526E040E050E16EE070E081EB94E0B3
:104B900076D781EB94E0A9D6892B21F081EB94E0C4
:104BA000BED6F7CF90E080E00895CF92DF92EF92EB
:104BB000FF920F931F93CF93DF936B017A01E9016B
:104BC0001982188281EB94E090D6892B71F18601CD
:104BD000CC24C39485E6D82E8091A404811111C001
:104BE00081EB94E09CD685369105B1F7C092A40480
:104BF000F801D1928F0188819981019699838883E8
:104C0000EBCF888199818E159F0578F481EB94E034
:104C100086D68F3F9807A9F3F80181938F01888189
:104C20009981019699838883ECCF90E080E0DF91B1
:104C3000CF911F910F91FF90EF90DF90CF9008954B
:104C40000F931F93CF93DF93EA01890181EB94E0E7
:104C50000E94CF2FF801D183C08390E080E0DF91E4
:104C6000CF911F910F910895DC01A40FB51F420F42
:104C7000531F9D01281B390B2417350710F0862F71
:104C80000895ED91E627F0E0EA59FE4F6491F1CFE7
:104C90009A01AB016FEFE8CFCF93FC01E60FF71F4E
:104CA000E40FF51FC081F4DF91E0C81390E0892F75
:104CB000CF9108958091A50491E0980F9093A50459
:104CC000882349F021E030E03093A7042093A60424
:104CD0008093A504089578940E94A602F894809188
:104CE000A50481508093A5040C94DA19FF920F93C8
:104CF0001F93CF93DF931F92CDB7DEB7109276123A
:104D00001092751290D50E942D1A0091D302109125
:104D1000D402F8011182108270E060E090E080E03F
:104D20000E94E2190E94B00BF8947894C80186960C
:104D30000E94E11981E090E00E94DE191982AE0123
:104D40004F5F5F4F61E070E0F801828193810E94C4
:104D50008E198981882319F081E0F80182A70E94C9
:104D6000E719F8940E94801AF80180819181892BBB
:104D700019F481E092A5911180E0809375127894E6
:104D80007894FF24F39480917512811110C00E94D1
:104D9000700C81E090E00E94DF19F89490E080E0D0
:104DA0000F90DF91CF911F910F91FF90089519827D
:104DB000AE014F5F5F4F61E070E0F8018281938147
:104DC0000E94C6198981882311F0F801F2A6F80122
:104DD00080819181892B89F481E092A5911101C094
:104DE00080E0809376129091761281E0911180E0BC
:104DF000809375120E949F1AC6CF81E0F2CF50585F
:104E0000BB27AA270ED012C203D230F008D220F05E
:104E100031F49F3F11F41EF4F8C10EF4E095E7FB66
:104E2000C5C1E92F14D280F3BA176207730784074C
:104E3000950718F071F49EF543C20EF4E0950B2E21
:104E4000BA2FA02D0B01B90190010C01CA01A001DC
:104E50001124FF27591B99F0593F50F4503E68F137
:104E60001A16F040A22F232F342F4427585FF3CF78
:104E7000469537952795A795F0405395C9F77EF449
:104E80001F16BA0B620B730B840BBAF09150A1F092
:104E9000FF0FBB1F661F771F881FC2F70EC0BA0F18
:104EA000621F731F841F48F4879577956795B795A0
:104EB000F7959E3F08F0B3CF9395880F08F0992798
:104EC000EE0F979587950895E4D180F09F3740F4D1
:104ED00091110EF4F6C160E070E080E89FE3089560
:104EE00026F01B16611D711D811D66C180C13AD15E
:104EF00008F481E008950CD099C191D140F088D197
:104F000030F021F45F3F19F051C15111DAC17DC178
:104F10009ED198F39923C9F35523B1F3951B550BF3
:104F2000BB27AA2762177307840738F09F5F5F4F7C
:104F3000220F331F441FAA1FA9F333D00E2E3AF0BD
:104F4000E0E830D091505040E695001CCAF729D0D7
:104F5000FE2F27D0660F771F881FBB1F2617370726
:104F60004807AB07B0E809F0BB0B802DBF01FF2756
:104F700093585F4F2AF09E3F510568F017C1A1C1B9
:104F80005F3FECF3983EDCF3869577956795B79590
:104F9000F7959F5FC9F7880F911D9695879597F9AB
:104FA0000895E1E0660F771F881FBB1F6217730724
:104FB0008407BA0720F0621B730B840BBA0BEE1F39
:104FC00088F7E095089504D06894B1117AC10895E6
:104FD00046D188F09F5790F0B92F9927B751A0F08C
:104FE000D1F0660F771F881F991F1AF0BA95C9F77D
:104FF00012C0B13081F064D1B1E0089561C1672F72
:10500000782F8827B85F39F0B93FCCF3869577952C
:105010006795B395D9F73EF4909580957095619515
:105020007F4F8F4F9F4F0895E89409C097FB3EF440
:1050300090958095709561957F4F8F4F9F4F9923E5
:10504000A9F0F92F96E9BB279395F6958795779563
:105050006795B795F111F8CFFAF4BB0F11F460FF23
:105060001BC06F5F7F4F8F4F9F4F16C0882311F07B
:1050700096E911C0772321F09EE8872F762F05C08F
:10508000662371F096E8862F70E060E02AF09A952A
:10509000660F771F881FDAF7880F9695879597F91F
:1050A0000895F7D080F09F3740F491110EF009C1B8
:1050B00060E070E080E89FEB089526F41B16611D08
:1050C000711D811D79C093C0A3D018F011F0A7D035
:1050D00038F49BC0F6C0E92FBAD0B0F35523C9F31A
:1050E000E7FB6217730784079507A8F199F3E92F87
:1050F000FF2788232AF03197660F771F881FDAF77A
:10510000952F5527442332F091505040220F331FE2
:10511000441FD2F7BB27E91BF50B621B730B840BF3
:10512000B109C1F222F4620F731F841FB11D3197C0
:105130002AF0660F771F881FBB1FEFCF915050409A
:105140005AF041F0882332F0660F771F881F915084
:105150005040C1F793954BC08695779567959F5FB3
:10516000D9F7F8CF990F0008550FAA0BE0E8FEEF2A
:1051700016161706E807F907C0F012161306E4071B
:10518000F50798F0621B730B840B950B39F40A2614
:1051900061F0232B242B252B21F408950A2609F4F2
:1051A000A140A6958FEF811D811D089597F99F67F6
:1051B00080E870E060E00895882371F4772321F09F
:1051C0009850872B762F07C0662311F499270DC0BE
:1051D0009051862B70E060E02AF09A95660F771F59
:1051E000881FDAF7880F9695879597F908959F3F5E
:1051F00031F0915020F4879577956795B795880F92
:10520000911D9695879597F908959FEF80EC0895E5
:1052100000240A9416161706180609060895002495
:105220000A9412161306140605060895092E03940F
:10523000000C11F4882352F0BB0F40F4BF2B11F483
:1052400060FF04C06F5F7F4F8F4F9F4F089557FDE2
:105250009058440F551F59F05F3F71F04795880FE4
:1052600097FB991F61F09F3F79F08795089512167B
:1052700013061406551FF2CF4695F1DF08C0161627
:1052800017061806991FF1CF8695710561050894D8
:105290000895E5DFA0F0BEE7B91788F4BB279F3873
:1052A00060F41616B11D672F782F8827985FF7CF07
:1052B000869577956795B11D93959639C8F30895AE
:1052C000E894BB2766277727CB0197F908954ADF33
:1052D00008F48FEF08950BD0A9CF9ADF28F09FDF55
:1052E00018F0952309F062CF90CF1124EACFAFDFF9
:1052F000A0F3959FD1F3950F50E0551F629FF001E9
:10530000729FBB27F00DB11D639FAA27F00DB11D41
:10531000AA1F649F6627B00DA11D661F829F2227CA
:10532000B00DA11D621F739FB00DA11D621F839F51
:10533000A00D611D221F749F3327A00D611D231F27
:10534000849F600D211D822F762F6A2F11249F5775
:1053500050408AF0E1F088234AF0EE0FFF1FBB1F98
:10536000661F771F881F91505040A9F79E3F510537
:1053700070F01CCFA6CF5F3FECF3983EDCF3869530
:1053800077956795B795F795E7959F5FC1F7FE2BE2
:10539000880F911D9695879597F90895FA01EE0F5C
:1053A000FF1F30962105310599F16115710561F4F2
:1053B0008038BFE39B0749F168949038810561F01C
:1053C0008038BFEF9B0741F0992342F5FF3FE1058D
:1053D0003105210511F1E8940894E795D901AA2334
:1053E00029F4AB2FBE2FF85FD0F310C0FF5F70F42D
:1053F000A695E0F7F73950F019F0FF3A38F49F77A7
:105400009F930CD00F9007FC905808953EF0FDCE6E
:1054100060E070E080E89FE308954FE79F775F9337
:105420004F933F932F93E7D02F913F914F915F91EF
:1054300052DF47C011F40EF4E8CED9CE10DFD0F31E
:105440009923D9F3CEF39F57550B87FF66D00024DD
:10545000A0E640EA900180585695979528F4805C24
:10546000660F771F881F20F026173707480730F48C
:10547000621B730B840B202931294A2BA6951794A4
:105480000794202531254A2758F7660F771F881F74
:1054900020F026173707480730F4620B730B840B94
:1054A000200D311D411DA09581F7B901842F915820
:1054B000880F96958795089519F40EF077CE00CF52
:1054C000A4CECDDEC8F39638C0F707F80F92E89463
:1054D0002BE33AEA48EB5FE70CDF0F920F920F9253
:1054E0004DB75EB70F92C7D0E4EEF0E01DD04F91FC
:1054F0005F91EF91FF91E595EE1FFF1F49F0FE5779
:10550000E0684427EE0F441FFA95E1F74195550BEB
:1055100039D00F9007FE2DC0089591505040660F6E
:10552000771F881FD2F70895DF93CF931F930F93B0
:10553000FF92EF92DF927B018C01689405C0DA2E16
:10554000EF01D5DEFE01E894A591259135914591B5
:105550005591AEF3EF0165DCFE019701A801DA94E5
:1055600079F7DF90EF90FF900F911F91CF91DF912E
:1055700008959B01AC0160E070E080E89FE3BBCC44
:1055800015CE35CE6CDEE8F39923D9F3940F511D77
:10559000BBF39150504094F059F0882332F0660FDD
:1055A000771F881F91505040C1F79E3F510544F727
:1055B000880F911D9695879597F908955F3FACF0F8
:1055C000983E9CF0BB27869577956795B79508F42C
:1055D000B1609395C1F7BB0F58F711F460FFE8CFA6
:1055E0006F5F7F4F8F4F9F4FE3CF6BCE0EF0FFCD9E
:1055F0000CCE6894DBCD33DEC8F39923D1F3C6F328
:10560000DF93CF931F930F93FF92C92FDD2788233A
:105610002AF02197660F771F881FDAF720E030E025
:1056200040E85FEB9FE3883920F0803E30F0219620
:105630008F77E6DBECE0F1E003C0E2DBE9E3F1E0E9
:1056400073DF8B01BE01EC01FB2E6F57710975955D
:10565000771F880B990BEADC28E132E741E35FE32F
:1056600046DEAF2D9801AE01FF900F911F91CF91B3
:10567000DF91D7DBDBCDFA01DC01AA0FBB1F9B0159
:10568000AC01BF5728F422273327442750781FC086
:10569000B75188F4AB2F0024469537952795011C08
:1056A000A395D2F3002069F0220F331F441FB39556
:1056B000DAF30DD0A4CB61307105A0E88A07B946B2
:1056C00030F49B01AC0166277727882790783096C5
:1056D00021F0208331834283538308951F920F92D8
:1056E0000FB60F9211242F933F938F939F93AF93F5
:1056F000BF938091A9049091AA04A091AB04B091AA
:10570000AC043091A80423E0230F2D3758F50196FF
:10571000A11DB11D2093A8048093A9049093AA040D
:10572000A093AB04B093AC048091AD049091AE040F
:10573000A091AF04B091B0040196A11DB11D80935A
:10574000AD049093AE04A093AF04B093B004BF91A6
:10575000AF919F918F913F912F910F900FBE0F901E
:105760001F90189526E8230F0296A11DB11DD2CFD8
:105770003FB7F8948091AD049091AE04A091AF042E
:10578000B091B00426B5A89B05C02F3F19F0019633
:10579000A11DB11D3FBFBA2FA92F982F8827BC018B
:1057A000CD01620F711D811D911D42E0660F771FB3
:1057B000881F991F4A95D1F708958F929F92AF92B3
:1057C000BF92CF92DF92EF92FF926B017C01D0DF0C
:1057D0004B015C01C114D104E104F104D9F00CD4F3
:1057E000C7DF681979098A099B09683E73408105FA
:1057F000910580F321E0C21AD108E108F10888EE92
:10580000880E83E0981EA11CB11CC114D104E104D0
:10581000F10431F7FF90EF90DF90CF90BF90AF9001
:105820009F908F900895789484B5826084BD84B5EC
:10583000816084BD85B5826085BD85B5816085BD8B
:10584000EEE6F0E0808181608083E1E8F0E01082A4
:10585000808182608083808181608083E0E8F0E0E5
:10586000808181608083E1EBF0E0808184608083CF
:10587000E0EBF0E0808181608083E1E9F0E080810D
:1058800082608083808181608083E0E9F0E08081B4
:1058900081608083E1EAF0E08081826080838081A2
:1058A00081608083E0EAF0E0808181608083E1E2D2
:1058B000F1E0808182608083808181608083E0E28A
:1058C000F1E0808181608083EAE7F0E0808184609C
:1058D00080838081826080838081816080838081F9
:1058E000806880831092C1000895FC01918D228D03
:1058F000892F90E0805C9F4F821B91098F739927BD
:105900000895FC01918D828D981731F0828DE80FFA
:10591000F11D858D90E008958FEF9FEF0895FC01B4
:10592000918D828D981761F0A28DAE0FBF2FB11DA2
:105930005D968C91928D9F5F9F73928F90E00895FA
:105940008FEF9FEF0895FC01538D448D252F30E09C
:10595000842F90E0821B930B541710F0CF9608957C
:1059600001970895FC01A48DA80FB92FB11DA35A6A
:10597000BF4F2C91848D90E001968F739927848F6F
:10598000A689B7892C93A089B1898C918370806492
:105990008C93938D848D981306C00288F389E02D33
:1059A00080818F7D80830895CF93DF93EC01888D74
:1059B0008823B1F0AA89BB89E889F9898C9185FD92
:1059C00003C0808186FD0CC00FB607FCF7CF8C9119
:1059D00085FFF2CF808185FFEDCFCE01C3DFEACF17
:1059E000DF91CF910895EF92FF920F931F93CF9382
:1059F000DF93EC0181E0888F9B8D8C8D98131AC00A
:105A0000E889F989808185FF15C09FB7F894EE89F0
:105A1000FF896083E889F98980818370806480834D
:105A20009FBF81E090E0DF91CF911F910F91FF9098
:105A3000EF900895F62E0B8D10E00F5F1F4F0F7340
:105A40001127E02E8C8D8E110BC00FB607FCFACFFC
:105A5000E889F989808185FFF5CFCE0183DFF2CF18
:105A6000EB8DEC0FFD2FF11DE35AFF4FF0829FB736
:105A7000F8940B8FEA89FB8980818062D0CFCF9226
:105A8000DF92EF92FF921F93CF93DF93EC016A01B5
:105A90007B01122FE889F98982E08083C11481EEAD
:105AA000D806E104F10499F060E079E08DE390E03C
:105AB000A7019601C4D221503109410951095695D7
:105AC000479537952795211580E1380790F0E889AB
:105AD000F989108260E874E88EE190E0A7019601F0
