:10000000F5C0000024C1000022C1000020C1000092
:100010001EC100001CC100001AC1000018C1000070
:1000200016C1000014C1000012C1000010C1000080
:100030000EC100000CC100000AC1000008C1000090
:1000400006C1000004C1000002C1000000C10000A0
:10005000FEC00000FCC00000FAC000000C94251E89
:10006000F6C000000C9456200C948C20F0C00000C8
:10007000EEC00000ECC00000EAC00000E8C00000D4
:10008000E6C00000E4C00000E2C00000E0C00000E4
:100090000C94E2200C941821DAC00000D8C00000B3
:1000A000D6C00000D4C00000D2C00000D0C0000004
:1000B000CEC00000CCC00000CAC00000C8C0000014
:1000C000C6C00000C4C000000C94F70F0C946E2151
:1000D0000C94A421BCC000000C94FA210C94302292
:1000E000B6C00000001D3A2774694E53E8F5D2CF20
:1000F0009C81A6BBCDD0F7EAB9A4839E25381F0208
:10010000514C6B76879ABDA0F3EEC9D46F725548F7
:100110001B06213C4A57706D3E230419A2BF9885E7
:10012000D6CBECF1130E2934677A5D40FBE6C1DCD7
:100130008F92B5A8DEC3E4F9AAB7908D362B0C11C7
:10014000425F78659489AEB3E0FDDAC77C61465BB7
:100150000815322F5944637E2D30170AB1AC8B96A7
:10016000C5D8FFE2263B1C01524F6875CED3F4E997
:10017000BAA7809DEBF6D1CC9F82A5B8031E392487
:10018000776A4D50A1BC9B86D5C8EFF24954736E77
:100190003D20071A6C71564B1805223F8499BEA367
:1001A000F0EDCAD735280F12415C7B66DDC0E7FA57
:1001B000A9B4938EF8E5C2DF8C91B6AB100D2A3747
:1001C00064795E43B2AF8895C6DBFCE15A47607D37
:1001D0002E3314097F6245580B16312C978AADB027
:1001E000E3FED9C4B5204121CD21592211241FBEDF
:1001F000CFEFD1E2DEBFCDBF00E00CBF13E0A0E047
:10020000B2E0EEEBF8E400E00BBF02C007900D9205
:10021000A235B107D9F726E0A2E5B3E001C01D92EF
:10022000AF3EB207E1F710E0C6EFD0E000E006C055
:1002300021970109802FFE010E94E922C23FD107C8
:1002400080E00807A9F70E941A1C0C945D24D8CE00
:100250004F925F926F927F928F929F92AF92BF92D6
:10026000CF92DF92EF92FF9280E090E0A0E8BFE3B0
:100270008093D9069093DA06A093DB06B093DC0650
:100280008093DD069093DE06A093DF06B093E00630
:100290008093E1069093E206A093E306B093E40610
:1002A0008093E5069093E606A093E706B093E806F0
:1002B00080E090E0A0E2B1E48093D5069093D6066A
:1002C000A093D706B093D80681E090E00E94810FFA
:1002D00040918C0350918D0360918E0370918F0338
:1002E00090E080E00E947D0F80909C0390909D03A1
:1002F000A0909E03B0909F0320E030E040E85FEBC9
:10030000C501B4010E94081D882331F1C0908C03FF
:10031000D0908D03E0908E03F0908F03A70196019B
:10032000C501B4010E94A31C4B015C0120E030E038
:1003300040E054E3C701B6010E94C21D9B01AC011D
:10034000C501B4010E94BE1D181634F082E792E088
:1003500090937703809376038091A003882331F0F4
:1003600082E792E09093770380937603C0909003A6
:10037000D0909103E0909203F09093038FEFC81A0E
:10038000D80AE80AF80AC0929003D0929103E0924A
:100390009203F0929303C114D104E104F10499F49F
:1003A0008091940390919503A0919603B091970347
:1003B0000196A11DB11D8093940390939503A09382
:1003C0009603B09397038090980390909903A09020
:1003D0009A03B0909B036091940370919503809170
:1003E0009603909197030E940C1DA50194010E9411
:1003F000C21D20E030E040E85FE40E94C21D2B01F6
:100400003C01C701B6010E940C1DA50194010E9488
:10041000C21D9B01AC01C301B2010E94A41C6093E8
:100420008C0370938D0380938E0390938F03FF90C2
:10043000EF90DF90CF90BF90AF909F908F907F9084
:100440006F905F904F900895CF93DF93E6E7F3E0CE
:100450008BE2DF011D928A95E9F780E090E0A0E849
:10046000BFEB86A397A3A0A7B1A78DEC9CECACE44F
:10047000BEE382A393A3A4A3B5A38DE49EE7ACE05F
:10048000B7EE84839583A683B78383E09EE6AAE9CB
:10049000B2ED80879187A287B38783ED9DECADEEA7
:1004A000BCE584879587A687B78780E79DE7A7ED9A
:1004B000B2E2808B918BA28BB38BAAE6B3E0B383BD
:1004C000A283C6E6D3E01196DC93CE9386E892E051
:1004D000998388839B838A838AE893E015969C930B
:1004E0008E9314978AE793E013969C938E931297BA
:1004F0008CE893E017969C938E931697A5EDB6E043
:1005000084E1ED0119928A95E9F7ACE5B3E08AE060
:10051000ED0119928A95E9F7A2E5B3E0B58BA48BBA
:100520008EE090E011969C938E938AE392E013966E
:100530009C938E9312978EE192E015969C938E93E6
:10054000149782E192E017969C938E93169786E01B
:1005500092E019969C938E931897DF91CF9108950E
:100560000895EF92FF920F931F93CF93DF93EA01C9
:10057000F901DC011496ED90FC90159712964D91BF
:100580005C9113974E0D5F1D2881398118960D914E
:100590001C9119970217130730F00D911C911197B8
:1005A000012B09F441C08A01021B130BDC011896D0
:1005B0008D919C918E199F09800F911F8617970727
:1005C000DCF1C901860F971F8417950778F47183B2
:1005D0006083338322831582148217821682888176
:1005E0009981680F791F7983688316C0118300830E
:1005F00033832283601B710B7583648390E080E0FA
:100600001616170614F49E2D8F2D96838783D70117
:10061000A60FB71FB983A88380E0DF91CF911F9108
:100620000F91FF90EF90089518968D919C91821BE9
:10063000930B861797075CF681E0EFCFCF92DF929E
:10064000EF92FF92CF93DF936B0184E4869FE001EA
:10065000879FD00D1124CF55DC4F8AA99BA9009705
:1006600021F00E94BB231BAA1AAA84E48C9DF001EE
:100670008D9DF00D1124EF55FC4F86A997A9009789
:1006800011F00E94BB2384E48C9DF0018D9DF00D40
:100690001124EF55FC4F138A128A168A178A108E7E
:1006A000118E128E138E148E158E168E178E10A22A
:1006B00011A281E090E093A382A315A214A216A236
:1006C00017A210A611A613A612A615A614A616A662
:1006D00017A610AA11AA13AA12AA15AA14AA17AA31
:1006E00016AA11AE10AE12AE13AE14AE15AEDF01E7
:1006F000DE961D921D921D921C921397EE5BFF4F8A
:1007000011821082DF91CF91FF90EF90DF90CF9018
:100710000895CF93DF93FB01DC016D917C91DB01A8
:100720001696CD91DC918081918123E0880F991FED
:100730002A95E1F7AA81BB81A80FB91F8D919C91E1
:10074000119724853585220F331FEB016A817B8148
:10075000EB01C20FD31F0990D881C02D14962D91A3
:100760003C9161E070E0232B11F062E070E0C69FE5
:100770009001C79F300DD69F300D1124A085B18503
:100780002A9FB0012B9F700D3A9F700D1124A481F8
:10079000B5812A9FF0012B9FF00D3A9FF00D112497
:1007A0008E0F9F1FFA019183808373836283DF9191
:1007B000CF9108952F923F924F925F926F927F92C6
:1007C0008F929F92AF92BF92CF92DF92EF92FF9261
:1007D0000F931F93CF93DF9300D000D0CDB7DEB738
:1007E000DC011496ED91FC910190F081E02D808563
:1007F00091859A838983A281B381BC83AB83FB01FA
:1008000081909190A190B190C12CD12C7601C81407
:10081000D904EA04FB04CCF026960FB6F894DEBFA8
:100820000FBECDBFDF91CF911F910F91FF90EF9041
:10083000DF90CF90BF90AF909F908F907F906F9000
:100840005F904F903F902F90089544805580668030
:1008500077804085518562857385CF0140969E8360
:100860008D83A081B1819D0183E0220F331F8A9582
:10087000E1F7A981BA8112968D919C91D901A80FB7
:10088000B91F2D903C9011970484F585E02DEE0F53
:10089000FF1F8B819C81E80FF91F0190F081E02DF3
:1008A00014968D919C91892B41F581E090E0E89F11
:1008B0009001E99F300DF89F300D1124249F800195
:1008C000259F100D349F100D1124249DC001259DDE
:1008D000900D349D900D1124A8016D817E81820DB3
:1008E000931D0E944424ED81FE81E00FF11F9FEFD4
:1008F000C91AD90AE90AF90A8ACF82E090E0D7CF6B
:10090000CF93DF93DB01A259BD4F2C91222369F0D5
:1009100024E4269FF001279FF00D1124EF55FC4F92
:10092000EF0119922A95E9F71C9224E4269FF00121
:10093000279FF00D1124EF55FC4F1482158216826B
:1009400017821186108613861286118A108A1786DE
:100950001686DF91CF9172CE2F923F924F925F9287
:100960006F927F928F929F92AF92BF92CF92DF92BF
:10097000EF92FF920F931F93CF93DF9300D000D09D
:100980001F921F92CDB7DEB724E4269FF001279F68
:10099000F00D1124EF55FC4F04811581268137811C
:1009A000012B022B032B09F4B7C02A016B017C0138
:1009B00010E000E0812C912C54013F019F01285F41
:1009C0003F4F3C832B83CF0104969E838D83AB8165
:1009D000BC818D919C91ED81FE814081518162812C
:1009E000738184169506A606B706E4F10E94BB2320
:1009F000D3011A968D919C91892B09F07EC084E4D5
:100A00008C9DD0018D9DB00D1124AF55BC4FBC8382
:100A1000AB8350968D919C910E94BB23EB81FC810E
:100A2000868597850E94BB23C701B60107DEC701F3
:100A3000B60128960FB6F894DEBF0FBECDBFDF918A
:100A4000CF911F910F91FF90EF90DF90CF90BF90CB
:100A5000AF909F908F907F906F905F904F903F905E
:100A60002F904ECFFC01E00FF11F92819983A3815B
:100A7000AA839F83A887312C212C2414350464F089
:100A800089819A810E94BB23EFEF8E1A9E0AAE0ADB
:100A9000BE0A0C5F1F4F9BCFAF81B885ED91FD91D2
:100AA000B887AF83309759F0848195810E94BB232A
:100AB000EF81F8853297808191810E94BB23BFEF3F
:100AC0002B1A3B0ADACF800F911FFC01848195819C
:100AD0000E94BB232B813C812F5F3F4F3C832B83A4
:100AE000025F1F4FF501808191812B813C8124158C
:100AF00035054CF30E94BB2382CF10E000E01C823E
:100B00001B8224E42C9DC0012D9D900D1124DC013D
:100B1000A555BC4F5D01E6CF28960FB6F894DEBF11
:100B20000FBECDBFDF91CF911F910F91FF90EF903E
:100B3000DF90CF90BF90AF909F908F907F906F90FD
:100B40005F904F903F902F90089524E4269FF001EE
:100B5000279FF00D1124EF55FC4F8289938904974C
:100B6000029758F485E090E0938B828B8FEF9FEF94
:100B7000DC01828F938FA48FB58F08952F923F92BF
:100B80004F925F926F927F928F929F92AF92BF929D
:100B9000CF92DF92EF92FF920F931F93CF93DF9349
:100BA000CDB7DEB7AA970FB6F894DEBF0FBECDBFA4
:100BB0009AA389A37E8B6D8B1A01098B1A8B2B8BC1
:100BC0003C8B84E429893A89829F6001839FD00C01
:100BD000112486010F551C4F89899A89AB89BC89DC
:100BE000F80180839183A283B383AB01BC01CD0163
:100BF000B3DED601AB55BC4F84E0F10101900D92FC
:100C00008A95E1F7F4E02F0E311C64E070E0D80122
:100C100014968D919C910E940523F80191878087FD
:100C2000892B09F0F5C04D895E8969897A898B899C
:100C30009C8992DE81E0AA960FB6F894DEBF0FBEC3
:100C4000CDBFDF91CF911F910F91FF90EF90DF907B
:100C5000CF90BF90AF909F908F907F906F905F905C
:100C60004F903F902F900895A9A5BAA58D919C9182
:100C7000E98DFA8DE80FF91FF88FEF8BD1018D9177
:100C80009C91880F991FA9A1BAA1ED91FC91E80F41
:100C9000F91F80819181EF89F88D91838083D10143
:100CA00014962D913D914D915C9117972BA33CA3E8
:100CB0004DA35EA362E070E08D899E890E940523AA
:100CC000EF89F88D93838283892B09F4ACCFF8E008
:100CD0002F0E311C412C512C32012BA13CA14DA1D6
:100CE0005EA142165306640675069CF02B8D3C8D62
:100CF0004D8D5E8D2F5F3F4F4F4F5F4F2B8F3C8F42
:100D00004D8F5E8F498D5A8D4C5F5F4F5A8F498F43
:100D100090C0610124E0C20ED11CD101ED90FC9085
:100D2000EE0CFF1CEF89F88D82819381E80EF91E8D
:100D300068E070E081E090E00E9405238C01D7011B
:100D40008D939C93892B09F46ECF84E0F601D80132
:100D500001900D928A95E1F7B8E02B0E311CF80155
:100D600080819181A281B381181619061A061B068B
:100D7000DCF464E070E00E940523D80115969C9392
:100D80008E931497892B09F44ECFD12CC12C812C32
:100D9000912C5401F80180819181A281B381881640
:100DA0009906AA06BB0634F0FFEF4F1A5F0A6F0AD6
:100DB0007F0A93CFF801E480F580EC0CFD1C80E104
:100DC000F101DE01119601900D928A95E1F7F0E1B3
:100DD0002F0E311CA701BE016F5F7F4FA9A1BAA1E1
:100DE00014968D919C9195DCF80186819781D701AD
:100DF00012962D913C91820F931F97838683BFEFAC
:100E00008B1A9B0AAB0ABB0AE4E0CE0ED11CC2CF00
:100E10001A8E198E1B8E1C8E1D8E1E8E18A30F8F80
:100E2000A8014C5F5F4F58A74FA3C80108969AA727
:100E300089A7EFA1F8A580819181A281B3812B8D33
:100E40003C8D4D8D5E8D281739074A075B070CF4E2
:100E50000BCF6EE070E08D899E890E940523AF8DD7
:100E6000B8A11B969C938E931A97B12CA12CD12CD0
:100E7000C12CF12CE12C24E4E989FA892E9FC001D0
:100E80002F9F900D11249C0125553C4F388F2F8B9F
:100E900088248394912C4D895E89C416D50654F11B
:100EA00084E4A989BA898A9F80018B9F100D11243F
:100EB0000F551C4FF80115861486C70133E0880FC3
:100EC000991F3A95E1F70E941F23D80151969C93F0
:100ED0008E935097892B09F4A6CEC701880F991FCE
:100EE0000E941F23F80197878687892B09F49BCEE0
:100EF00080E0A1CED1014D905D906D907D901D015F
:100F000077FC91CEEF89F88D008111810A0D1B1DB0
:100F1000D80111969C928E9241145104610471047F
:100F200029F1C2010E941F23F80195838483892B34
:100F300009F479CEF80153824282848195819783A6
:100F40008683918780871386128681E090E045280A
:100F50004628472811F490E080E0E80EF91EFFEFE4
:100F6000CF1ADF0A2EE0A20EB11C95CF15961C9267
:100F70001E921497DFCF2F923F924F925F926F9203
:100F80007F928F929F92AF92BF92CF92DF92EF9219
:100F9000FF920F931F93CF93DF93CDB7DEB76A977E
:100FA0000FB6F894DEBF0FBECDBF9E8B8D8B49016F
:100FB0005A0184E4829F7001839FF00C11249701F1
:100FC0002F553C4F6901FB0180819181F901958B7F
:100FD000848BD701A954BC4FFB01349684E0019067
:100FE0000D928A95E1F7D701A554BC4FFB013896C5
:100FF00084E001900D928A95E1F7D701A154BC4F8E
:10100000FB013C9684E001900D928A95E1F7D701AF
:10101000A153BC4FFB01709684E001900D928A951C
:10102000E1F78B010C5E1F4FF90186A597A5A0A9DA
:10103000B1A918161906DCF5880F991F880F991F9A
:101040000E941F23F60193AB82AB892B09F4D3C016
:10105000312C212C412C512C32019601225D3F4F25
:10106000388F2F8BC601C2969A8F898FF496FC8B8E
:10107000EB8BB301A2012FEF421A520A620A720AE5
:10108000EF89F88D80819181A281B381481759073A
:101090006A077B070CF47BC0F60184A995A90E941E
:1010A0001F23F60197AB86AB892B09F4A4C0F80186
:1010B00080819181A281B38124E4289DF001299D42
:1010C000F00D1124EF55FC4FAC01BD014D7F21E027
:1010D00030E0452B462B472B11F030E020E033A3C6
:1010E00022A324E4289DF001299DF00D1124EF5541
:1010F000FC4F0197A109B10921E030E00297A10559
:10110000B10510F030E020E035A324A3D701A953A6
:10111000BC4FF801349684E001900D928A95E1F776
:1011200084E4889DF001899DF00D1124EF55FC4F5A
:10113000868D978DA0A1B1A1B7FF58C0B095A0959D
:10114000909581959F4FAF4FBF4F82AF93AFA4AFA4
:10115000B5AF168E178E10A211A280E06A960FB658
:10116000F894DEBF0FBECDBFDF91CF911F910F91DD
:10117000FF90EF90DF90CF90BF90AF909F908F90B7
:101180007F906F905F904F903F902F900895E98DE2
:10119000FA8D808191819C01220D331D3A8B298B20
:1011A00080E1F801DE01119601900D928A95E1F738
:1011B000005F1F4F49895A89BE016F5F7F4FED89DC
:1011C000FE8984819581A5DAEB89FC8980819181F2
:1011D000E989FA8922813381820F931FEB89FC8987
:1011E00091838083F4E02F0E311C43CF12AE13AEF7
:1011F00014AE15AEB2CFC501B40120DA81E0AECF96
:10120000CF92DF92EF92FF92CF93DF931092290457
:1012100024E4269FF001279FF00D1124EF55FC4F89
:1012200015A614A630E020E0D12CC12CDF011A96BF
:10123000C1E0D0E0C416D506F4F024E4269FF00106
:10124000279FF00D1124EF55FC4F13A612A611AEE7
:1012500010AEDF01DE961D921D921D921C92139717
:1012600082E090E0938B828BDF91CF91FF90EF90A3
:10127000DF90CF900895ED91FC911197E20FF31F4D
:10128000E280F3801E141F0454F4E480F580F7829A
:10129000E682F186E08613861286D183C083EFEF63
:1012A000CE1ADE0A225F3F4FC5CF24E4269FF0010D
:1012B000279FF00D1124EF55FC4F138A128A4CCB57
:1012C00024E4269FF001279FF00D1124EF55FC4FD9
:1012D0008289938981309105C8F08530910518F095
:1012E000059769F008958FEF9FEFDC01828F938F50
:1012F000A48FB58F85E090E0938B828B08958FEF5C
:101300009FEFDC01828F938FA48FB58F089524E423
:10131000249FD001259FB00D1124AF55BC4F2EE066
:10132000AC01249FC001259F900D11241A96ED91C8
:10133000FC91E80FF91F81E0809329048285938551
:1013400091878087408551852681378181E090E0B3
:101350004217530711F090E080E091838083089555
:101360002F923F924F925F926F927F928F929F92B5
:10137000AF92BF92CF92DF92EF92FF920F931F93A3
:10138000CF93DF93CDB7DEB7C055D1090FB6F89430
:10139000DEBF0FBECDBF9EAF8DAF4BA75CA76DA7C5
:1013A0007EA76801790184E4809FF001819FF00DA0
:1013B0001124EF55FC4F2285338523963FAF2EAF86
:1013C000239782899389029761F486A597A5A0A99E
:1013D000B1A9892B8A2B8B2BC9F584E090E0938BE4
:1013E000828B84E48C9DF0018D9DF00D1124EF55CE
:1013F000FC4F828993898230910509F037C282AD12
:1014000093ADA4ADB5AD22242394312C1816190642
:101410001A061B060CF42FC2C05BDF4F0FB6F89400
:10142000DEBF0FBECDBFDF91CF911F910F91FF9017
:10143000EF90DF90CF90BF90AF909F908F907F9074
:101440006F905F904F903F902F9008958489958979
:101450004DAD5EAD8417950721F606A917A918AE04
:101460001FAA1BAA1CAA1DAA1EAA1F01CF018E9685
:1014700027969FAF8EAF2797DF01D2962996BFAFF1
:10148000AEAF2997F8962B96FFAFEEAF2B97910151
:101490002A5D3F4F2D963FAF2EAF2D97A1014E5D98
:1014A0005F4F2F965FAF4EAF2F970A9761969FAF12
:1014B0008EAF61972796EEADFFAD27978081918122
:1014C000A281B3812BA93CA94DA95EA92817390790
:1014D0004A075B0744F081E090E0D101D9969C93E4
:1014E0008E93D8977ECF2996AEADBFAD2997ED915B
:1014F000FC912FA938ADE20FF31F428153815AAFFF
:1015000049AF50815FAF818121968FAF21972B9694
:10151000AEADBFAD2B978D919C91892B21F12D966E
:10152000EEADFFAD2D9780809180A280B3801AAB85
:1015300009AB5FA72196FFAD2197F8AB29AD3AAD76
:10154000369527953695279525963FAF2EAF25974B
:101550001CAE1BAE2596AEADBFAD2597EBADFCAD79
:10156000EA17FB070CF149AD5AAD6FAD21967FAD7F
:101570002197C8010E94442489AD9AAD8C7F080F41
:10158000191F2BA93CA94DA95EA92F5F3F4F4F4FB3
:101590005F4F2BAB3CAB4DAB5EAB4FA958AD4C5F37
:1015A0005F4F58AF4FAB86CF2F96AEADBFAD2F97E5
:1015B0008D919C91892B71F1EFA5F8A94080518004
:1015C00062807380A3019201C501B4010E94081DCD
:1015D000181664F0A9A9BAA92D913D914D915C917D
:1015E000C501B4010E94BE1D1816BCF1A3019201F1
:1015F000C501B4010E94081D87FF0CC0E9A9FAA922
:101600002081318142815381C501B4010E94081DAE
:10161000882319F16196AEADBFAD61978D919C9114
:10162000892B09F445C0EFA5F8A94080518062805C
:101630007380A3019201C501B4010E94BE1D18165A
:101640001CF5A9A9BAA92D913D914D915C91C501B7
:10165000B4010E94081D18165CF184E48C9DF00111
:101660008D9DF00D1124EF55FC4F868D978DA0A117
:10167000B1A1892B8A2B8B2B69F183E090E0938BAE
:10168000828B81E090E02CC0A3019201C501B401DE
:101690000E94081D81110CC0E9A9FAA9208131819D
:1016A00042815381C501B4010E94081D87FDD5CF39
:1016B0002BAD3CAD2F5F3F4F3CAF2BAF49A95AA993
:1016C0004C5F5F4F5AAB49AB8FA598A9049698AB76
:1016D0008FA740CF84E090E0938B828B86AD97AD4F
:1016E00093A782A77ECEEBADFCAD80819181F40102
:1016F000EE0FFF1FEE0FFF1FE80FF91FA081B18152
:101700008C9181110AC0FFEF8F1A9F0AAF0ABF0A9E
:101710008DA29EA2AFA2B8A68FC18330A1F3028092
:10172000F381E02D2FA938ADE20FF31F8081918165
:101730009AAB89AB892B39F34F5F5F4F6F4F7F4F68
:1017400049875A876B877C879E01235E3F4FAE0196
:10175000475D5F4F64E070E0C8010E94B1028111F3
:10176000D0C18D819E81AF81B8850496A11DB11D28
:101770008D839E83AF83B8874D8D5E8DBE016B5D7B
:101780007F4F8F8D98A10E9444248BA19CA100972C
:1017900061F06D8D7E8DA5E2B0E0AC0FBD1F6A0FCC
:1017A0007B1F49A15AA10E9444241CAA1BAA412CB8
:1017B000512C3201E9A9FAA980819181A281B381DA
:1017C000481659066A067B060CF09DCFE9A9FAA9CE
:1017D000848195812BA93CA9280F391F38AB2FA7ED
:1017E000D90112966D917C919E01235E3F4FAE010F
:1017F000475D5F4FC8010E94B102811182C1EFA510
:10180000F8A982819381092E000CAA0BBB0B4D8194
:101810005E816F817885840F951FA61FB71F8D830A
:101820009E83AF83B887608171814D8D5E8D8F8D72
:1018300098A10E9444248BA19CA1009761F0AFA5C0
:10184000B8A96D917C912D8D3E8D620F731F49A1BA
:101850005AA10E944424BFEF4B1A5B0A6B0A7B0A11
:10186000EBA9FCA93496FCABEBABA4CF312C212C1B
:10187000049709F0D1CD8EE0EDADFEAD8E9F8001D5
:101880008F9F100D112423962EAD3FAD2397020F8D
:10189000131FD80112964D915C9113974115510574
:1018A00009F4BACD16968D919C919AA789A780E1EB
:1018B000FE013196DF011D928A95E9F7C98ADA8A1D
:1018C000EB8AFC8A2114310409F458C084E48C9D0D
:1018D000F0018D9DF00D1124EF55FC4FDF01DE96D8
:1018E0008D909D90AD90BC9082AD93ADA4ADB5AD03
:1018F00088169906AA06BB0609F040C0F801848143
:1019000095810084F185E02D349624E0DE01559622
:1019100001900D922A95E1F72D893E89285F3F4F6E
:101920003E8B2D8BD80118966D917C911997260FBF
:10193000371F19963C932E93189718962D913C912A
:101940001997480F591F241B350B37FD06C0820F0E
:10195000931F19969C938E93189784E48C9DF001A5
:101960008D9DF00D1124E152FC4FB1E08B1A9108CE
:10197000A108B10880829182A282B3829E012B5E6F
:101980003F4FAE01475D5F4F64E170E0C8010E94C8
:10199000B1028111B6C08CE090E0A0E0B0E08D8390
:1019A0009E83AF83B8879E01235E3F4FAE01475DA4
:1019B0005F4F64E070E0C8010E94B1028111A1C0D4
:1019C00080E190E0A0E0B0E08D839E83AF83B88794
:1019D0004D8D5E8DBE01655D7F4F8F8D98A10E94FC
:1019E00044248BA19CA1009761F06D8D7E8DEBE26C
:1019F000F0E0EC0FFD1F6E0F7F1F49A15AA10E945E
:101A000044241DA21EA21FA218A62DAD3EAD220F7A
:101A1000331F38AF2FAB24E42C9DC0012D9D900DBA
:101A200011248F559C4FAC014C5F5F4F5AAF49AFAB
:101A3000DC011896BCAFABAF8DA09EA0AFA0B8A440
:101A400049855A856B857C85E9ADFAAD80819181A8
:101A5000A281B38188169906AA06BB060CF443CE70
:101A6000452B462B472B09F4D7CC8AE190E0A0E028
:101A7000B0E089839A83AB83BC832DAD3EADC901B1
:101A8000330FAA0BBB0B8D879E87AF87B88B4D8911
:101A90005E89BE016F5F7F4F8F89988D0E944424BD
:101AA0008B8D9C8D009761F06D897E8941E050E0BF
:101AB0004C0F5D1F640F751F498D5A8D0E94442481
:101AC00089A59AA5D80117969C938E93169711967F
:101AD0001C921E92232809F49FCC84E48C9DF00173
:101AE0008D9DF00D1124E152FC4F80819181A281E6
:101AF000B3810196A11DB11D80839183A283B3831D
:101B00008BCC232809F088CC84E48C9DF0018D9D3A
:101B1000F00D1124EF55FC4F81E090E095A784A7CC
:101B200085E090E0938B828B77CCCF92DF92EF921F
:101B3000FF920F931F9324E4269FF001279FF00D3F
:101B40001124EF55FC4F228933892115310509F401
:101B500052C06B017C0121303105B1F482A593A5FF
:101B60009C012F5F3F4F33A722A7092E000CAA0B21
:101B7000BB0B028D138D248D358D80179107A20725
:101B8000B307C9F5C7013CDB84E48C9DF0018D9D52
:101B9000F00D1124EF55FC4F82899389039759F575
:101BA00082A593A59C012F5F3F4F33A722A7092E43
:101BB000000CAA0BBB0B468D578D60A171A1841739
:101BC0009507A607B707BCF086AD97AD93A782A788
:101BD00084E090E0938B828B82AD93ADA4ADB5ADE4
:101BE000181619061A061B0634F4EE5BFF4F81E047
:101BF00090E0918380831F910F91FF90EF90DF9091
:101C0000CF90089524E4269FF001279FF00D112422
:101C1000EF55FC4F828993890497B1F482A593A56F
:101C2000019693A782A7092E000CAA0BBB0B46892D
:101C30005789608D718D84179507A607B70721F422
:101C400085E090E0938B828B08952F923F924F9284
:101C50005F926F927F928F929F92AF92BF92CF923C
:101C6000DF92EF92FF920F931F93CF93DF93CDB745
:101C7000DEB72E970FB6F894DEBF0FBECDBFDC01E6
:101C800049835A836B837C83290184E4849FF00118
:101C9000859FF00D1124EF55FC4F22883388C10138
:101CA0000497029708F0D5C011961C921E921396C5
:101CB0001C921E92129715861486912C812C90E00E
:101CC00080E08F019F01205F3F4F38872F833F01C6
:101CD0003CE0630E711CBF01625F7F4F7A876987AA
:101CE0003A96FC87EB87EF81F88520813181F301FB
:101CF00040815181E985FA85A080B18084159505E0
:101D00000CF445C011965C934E9313963C932E931E
:101D100012971596BC92AE921497452BF9F4F5E004
:101D20002F163104D9F410922904F801828D938D75
:101D3000A48DB58DAE014F5F5F4F64E070E08F3FC3
:101D40009F4FAF4FBF4F09F079C080E290E0F6D4CB
:101D500069817A818B819C81A201A7DA2E960FB6C8
:101D6000F894DEBF0FBECDBFDF91CF911F910F91D1
:101D7000FF90EF90DF90CF90BF90AF909F908F90AB
:101D80007F906F905F904F903F902F900895EB85DC
:101D9000FC8560817181FB01E80DF91DFE87ED87EF
:101DA00060817181672B89F5E084F18462817381A0
:101DB0007E836D83668177816A01E3E0CC0CDD1C54
:101DC000EA95E1F72C0D3D1D440F551F4A0D5B1D93
:101DD000FA0191838083F301408151814F5F5F4F0E
:101DE00051834083F901F382E282ED85FE8573879A
:101DF0006287E616F70670F46E197F09F9017183A0
:101E0000608315821482178216820196FEE08F0E7F
:101E1000911C69CFED85FE85C480D5804D815E81A2
:101E20004C0D5D1D4E195F09F901518340836C19FA
:101E30007D0975836483D782C682E7CF8FE190E006
:101E40007DD4F80113A612A681E090E0938B828BDB
:101E500085CF1586148611961C921E9213961C929D
:101E60001E9212977BCFEF92FF920F931F93CF9307
:101E7000DF937C018B01EA013DD581111BC080916C
:101E80007002909171020497F9F4DF91CF911F9144
:101E90000F91FF90EF90089528ED38EB45E050E06A
:101EA00060E070E0CB01DCD7AE01B801C701E6D736
:101EB000C801AFD780912A0490912B04892BF9F6A1
:101EC0008881882349F3DBCF83E090E0909371020F
:101ED00080937002DACFCF93DF932091700230911C
:101EE00071022430310531F0EB01C8D7CE01DF910A
:101EF000CF918FC7DF91CF9108950C943C1B0C9428
:101F0000311B0C941F1B95C70C94C31A089570E0E5
:101F100060E090E080E0C9C40895AF92BF92CF9294
:101F2000DF92EF92FF920F931F93CF93DF931F9255
:101F30001F92CDB7DEB75C018B0169017A0190E099
:101F400080E0C114D104E104F10469F40F900F9012
:101F5000DF91CF911F910F91FF90EF90DF90CF9085
:101F6000BF90AF9008959C2D8D2DC114D10421E018
:101F7000E206F10410F09FEF8FEF9E012F5F3F4FBD
:101F8000492F582FB801C5010E94C51B8F3F9807E4
:101F9000E9F229813A81C21AD30AE108F108020F55
:101FA000131FCFCF40E855E260E070E090E080E0A2
:101FB00000C08130910579F01CF4892B39F0089527
:101FC0008230910561F0039771F0089526E081E673
:101FD00094E00C94F61F26E08EEF94E0FACF26E012
:101FE0008BE995E0F6CF26E088E396E0F2CF1F92EA
:101FF0000F920FB60F9211240BB60F922F933F93AF
:102000004F935F936F937F938F939F93AF93BF9300
:10201000EF93FF938BEC93EF909325018093240132
:102020000E94FE1BFF91EF91BF91AF919F918F9105
:102030007F916F915F914F913F912F910F900BBEC8
:102040000F900FBE0F901F9018958BEC93EF90930D
:10205000250180932401A3E7B0E08C918E7F8C93BF
:10206000E0E2F1E080818C7F8083E1E2F1E0808139
:10207000877E808380818560808380818D7F80835F
:102080008C9181608C93089581E008958F929F9246
:10209000AF92BF92CF92DF92EF92FF920F931F9376
:1020A000CF93DF935C017B018A01C1E0D0E0CE15C4
:1020B000DF05CCF081E0F5018083B801C7010E9403
:1020C000661BF5019283818390E080E0DF91CF91E0
:1020D0001F910F91FF90EF90DF90CF90BF90AF9046
:1020E0009F908F9008956E018FEFC81AD80AFE0155
:1020F000EE0FFF1FE00FF11F80809180811491048B
:1021000069F065EF72E0C4010E945424892B41F408
:10211000CC0FDD1FC00FD11F19821882E601C7CF77
:1021200068EF72E0C4010E945424892BB9F7EC14C3
:10213000FD04A1F36E01E2E0CE0ED11CCC0FDD1F39
:10214000C00FD11F198218821B821A82E7CF8CE23E
:1021500094E0089580E008950F931F93CF93DF9349
:102160008B01BA01E901198218829801012E000C35
:10217000440B550BFC0181819281CFDE019641F029
:102180001983088380E0DF91CF911F910F9108950B
:1021900081E0F9CF0F931F93CF93DF931F921F928C
:1021A000CDB7DEB7FB018A01B9019E012F5F3F4F1A
:1021B000AF01FC01818192810E947A1B019669F036
:1021C00089819A81F8019183808380E00F900F903C
:1021D000DF91CF911F910F91089581E0F7CFFC011E
:1021E000808108950895089581E0FB01808380E057
:1021F00008950895109254040895FC0181819281FC
:102200000C945E1BCF93DF9300D000D000D01F92C0
:10221000CDB7DEB7B0E0A0E089839A83AB83BC83FF
:10222000CB01770FAA0BBB0B8D839E83AF83B8873F
:102230009E01275F3F4FAE014F5F5F4F68E070E048
:10224000809143049091440487DF811110C081E0A4
:1022500029853A852830310509F480E02A960FB6A1
:10226000F894DEBF0FBECDBFDF91CF91089581E01E
:10227000F5CF0F931F93CF93DF931F921F92CDB78C
:10228000DEB78B019E012F5F3F4FAC01809143046D
:102290009091440461DF81110EC081E029813A816F
:1022A0002017310709F480E00F900F90DF91CF9154
:1022B0001F910F91089581E0F7CFCF93DF93EC0149
:1022C0001092470410924604109253041092520444
:1022D000AC0160E070E0CB010E945509AE0161E005
:1022E00070E080E090E00E94550980914304909155
:1022F0004404DF91CF917DCF4F925F926F927F9296
:102300008F929F92AF92BF92CF92DF92EF92FF9205
:102310000F931F93CF93DF931F921F92CDB7DEB71A
:102320008C017C0197FF03C087E0E80EF11C23E0DD
:10233000F594E7942A95E1F7C80168E070E00E94FF
:10234000B4226C010E5F1F4F8091410490914204B2
:1023500080179107D4F480913F0490914004009736
:1023600031F00E94BB231092420410924104C80134
:102370000E941F239093400480933F04892B09F40B
:1023800082C0109342040093410410E000E047C172
:10239000412C512C3201B12CA12C9501285B3B4FD3
:1023A000AE014F5F5F4F61E070E080914304909118
:1023B0004404F0DE811149C0EFEF4E1A5E0A6E0A46
:1023C0007E0AF0E94F16FFE55F06F1E06F06710443
:1023D00044F060915204709153048DEE90E012DF4E
:1023E000D7CF89819A81A80EB91E8AE0A816B104B8
:1023F00009F043C049E050E070E060E088E494E018
:102400000E94F01B6091520470915304882391F153
:102410008091500490E08617970781F4BC018EEEFE
:1024200090E0F0DE80915204909153040196992738
:1024300090935304809352040F5F1F4F0E151F0596
:102440000CF4A6CFCD2809F07CC090E080E00F907E
:102450000F90DF91CF911F910F91FF90EF90DF9040
:10246000CF90BF90AF909F908F907F906F905F9034
:102470004F9008958FEE90E0B2CFEAE0AE16B1042F
:102480000CF48BCFDBCF10E000E0D8CF0A30110581
:1024900031F549E050E070E060E088E494E00E94AB
:1024A000F01B60915204709153048823A9F080912D
:1024B000500490E08617970741F6BC018EEE90E03D
:1024C000A1DE809152049091530401969927909334
:1024D000530480935204B9CF8FEE90E02BC00A30A2
:1024E00011050CF0B2CF9801285B3B4FAE014F5F56
:1024F0005F4F61E070E080914304909144044ADEB4
:102500008111A3CF89819A81080F191FFFEFCF1A7C
:10251000DF0AEF0AFF0A80E9C8168FE5D80681E0D6
:10252000E806F1040CF4B2CF6091520470915304A8
:102530008DEE90E067DE10E000E0C12CD12C76013A
:10254000D2CFC12CD12C760110E000E0CCCF412CB1
:10255000512C3201B12CA12C480193E0880C991C1C
:102560009A95E1F720913F0430914004C501880D10
:10257000991D280F391FAE014F5F5F4F61E070E07A
:10258000809143049091440405DE81115ECFEFEF0A
:102590004E1A5E0A6E0A7E0A6091520470915304CC
:1025A0008DEE90E0F0E94F16FFE55F06F1E06F0673
:1025B00071040CF043C089819A81A80EB91E8AE08B
:1025C000A816B10409F041C049E050E0B40180917F
:1025D0003F04909140040E94F01B6091520470915E
:1025E0005304882349F180913F0490914004880E60
:1025F000991EF401808590E08617970781F4BC014D
:102600008EEE90E0FFDD809152049091530401968C
:10261000992790935304809352040F5F1F4F0E1518
:102620001F050CF494CFC114D10409F081C080912E
:102630003F04909140040BCF8FEE90E0E3DD412CFE
:10264000512C3201B12CA12C8DCFFAE0AF16B10480
:102650000CF488CFE4CF8FEE90E0D4DDF12CE12CA8
:10266000812C912C54019701285B3B4FAE014F5FA9
:102670005F4F61E070E080914304909144048ADDF3
:102680008111E3CE8FEF881A980AA80AB80A6091E0
:102690005204709153048DEE90E0E0E98E16EFE560
:1026A0009E06E1E0AE06B104C4F689819A81E80E87
:1026B000F91EFAE0EF16F104A9F549E050E070E0E8
:1026C00060E088E494E00E94F01B609152047091F5
:1026D0005304882309F4BFCF8091500490E08617FB
:1026E000970709F0A4CFBC018EEE90E08BDD83E06C
:1026F000000F111F8A95E1F780913F0490914004EB
:10270000A60168E474E0800F911F0E944424809128
:102710005204909153040196992790935304809307
:10272000520485CF8AE0E816F1040CF49CCF7FCFE9
:10273000812C912C5401F12CE12C95CFCF92DF927A
:10274000EF92FF920F931F93CF93DF931F92CDB71A
:10275000DEB76C017B018A01452B39F0AB0170E0DB
:1027600060E0C8010E94EC1B8983B701C6014ADD05
:1027700081110DC00115110551F0B701C80179DDB6
:10278000811105C061E070E0CE01019672DD0F900D
:10279000DF91CF911F910F91FF90EF90DF90CF903D
:1027A0000895CF92DF92EF92FF92CF93DF9300D004
:1027B00000D01F921F92CDB7DEB76B01F12CE12C38
:1027C000C982DA82EB82FC822D833E834F83588755
:1027D000AE014F5F5F4F68E070E0B0DF28960FB644
:1027E000F894DEBF0FBECDBFDF91CF91FF90EF9089
:1027F000DF90CF9008958F929F92AF92BF92CF9229
:10280000DF92EF92FF920F931F93CF93DF937C01A0
:10281000EB01CA01690170DD0097B1F42FEF3FEFC2
:10282000A90161E070E0C701BCDFC1E08C2FDF913E
:10283000CF911F910F91FF90EF90DF90CF90BF90BD
:10284000AF909F908F900895FC0181909190A190FE
:10285000B190BF01FCE1EF16F10479F4A5019401F8
:10286000CE010E94BB07C82FA5019401882369F0FF
:1028700061E070E0C70195DFD9CF95018401AB011C
:10288000B601CE010E94BE05EECF70E060E0C70148
:10289000DF91CF911F910F91FF90EF90DF90CF903C
:1028A000BF90AF909F908F907CCF0F931F93CF934B
:1028B000DF93EC018B014BDC909344048093430441
:1028C0000097A9F0A801BE01E1DBEC01892B49F0DA
:1028D000809143049091440485DC1092440410924A
:1028E0004304CE01DF91CF911F910F910895C4E071
:1028F000D3E0EECF809143049091440470CC2F92AA
:102900003F924F925F926F927F928F929F92AF927F
:10291000BF92CF92DF92EF92FF920F931F93CF93CC
:10292000DF93CDB7DEB769970FB6F894DEBF0FBE61
:10293000CDBF209147042223F1F05B8B4A8B6E8739
:102940007F87888B998B9A01AB01BC01CE010196E0
:102950007C017BD910E048E0242E312CE88EF98EE2
:1029600089819A81181619060CF450C2112319F0A6
:102970008A899B89A2DC69960FB6F894DEBF0FBEE8
:10298000CDBFDF91CF911F910F91FF90EF90DF901E
:10299000CF90BF90AF909F908F907F906F905F90FF
:1029A0004F903F902F900895EB81FC818C859D8501
:1029B00033E0880F991F3A95E1F7E80FF91F8081FE
:1029C000918190933E0480933D042481358142811E
:1029D000538150933C0440933B044681578150936C
:1029E0003A0440933904820F931F9C01990F440BC2
:1029F000550B2C8B3D8B4E8B5F8B812C912C540176
:102A00008C899D89AE89BF8988169906AA06BB065E
:102A100038F18C859D85880F991FED81FE81E80F27
:102A2000F91F4E855F8568897989808191810E942F
:102A30008709AC85BD851196BD87AC8789819A8150
:102A4000EC85FD85E817F9070CF4AECF2A893B89A0
:102A50004E855F8568897989888D998DF6D880CF74
:102A60001F8260913D0470913E04CB01072E000C43
:102A7000AA0BBB0B84017501640134E0C30ED11CA9
:102A8000E11CF11CC816D906EA06FB0608F0B3C023
:102A900020913B0430913C04A4014C5F5F4F240F14
:102AA000351FF901C080D12CF12CE12C2401350116
:102AB000F5E04F0E511C611C711C481659066A0640
:102AC0007B0608F0A3C020913B0430913C04F80140
:102AD0003596E20FF31F2081D22A2401350126E02A
:102AE000420E511C611C711C481659066A067B0671
:102AF00008F097C020913B0430913C04F8013696D1
:102B0000E20FF31F2081E22A2401350137E0430E52
:102B1000511C611C711C481659066A067B0608F098
:102B20008BC020913B0430913C04F8013796E20FB2
:102B3000F31F208126013701722A7501640148E0E4
:102B4000C40ED11CE11CF11C8C159D05AE05BF0502
:102B500008F41DC188169906AA06BB0608F077C0BE
:102B600080913B0490913C04800F911F68E070E0DD
:102B700080DBE0913D04F0913E049F010F2E000C9C
:102B8000440B550BD301C2018C0D9D1DAE1DBF1D05
:102B9000281739074A075B0708F478C0C216D3061E
:102BA000E406F50608F05DC080913B0490913C047A
:102BB0009801285F3F4F820F931FB2015ADB80912B
:102BC0003D0490913E04AC01092E000C660B770B7E
:102BD000C416D506E606F70608F04DC0085F1F4F7D
:102BE00080913B0490913C04800F911FA20170E002
:102BF00060E0F2D5A7C044E050E0461B570B480DFB
:102C0000591D2091390430913A0449CFE5E0F0E0B4
:102C1000E61BF70BE00FF11F2091390430913A04C5
:102C200058CFE6E0F0E0E61BF70BE00FF11F209134
:102C3000390430913A0464CFE7E0F0E0E61BF70B8B
:102C4000E00FF11F2091390430913A0470CF9801C0
:102C5000261B370B8091390490913A04820F931F01
:102C600085CF91012E1B3F0B200F311F809139041E
:102C700090913A04A0CFD101A81BB90BCD01080F48
:102C8000191F8091390490913A04AECFBF0168506A
:102C90007109601B710BC216D306E406F50608F035
:102CA00062C080913B0490913C049801285F3F4FA3
:102CB000820F931FDEDA80913D0490913E04B101B2
:102CC000681B790B600F711F640D751D80913904AD
:102CD00090913A04CEDA80913D0490913E04AC018B
:102CE00048505109FA01E01BF10BAC01092E000C10
:102CF000660B770BC416D506E606F70608F03DC04E
:102D000080913B0490913C049801285F3F4F820FD3
:102D1000931FAF0170E060E05FD58F8320913D0489
:102D200030913E04F101E21BF30B9F01200F311F94
:102D3000240D351D50E040E0682F809139049091BA
:102D40003A0436D58F8361E070E0CE01079691DAC0
:102D5000182F38E0430E511C611C711C840C951C0B
:102D6000A61CB71C4DCE91012E1B3F0B200F311F0F
:102D70008091390490913A049BCF9101281B390B23
:102D8000200F311F8091390490913A04C0CF8816EA
:102D90009906AA06BB0668F5601B710B80913B047F
:102DA00090913C04800F911F64DA80913D049091D2
:102DB0003E04B101681B790B600F711F640D751D16
:102DC0008091390490913A0454DA80913D049091B5
:102DD0003E04AC01092E000C660B770BC416D50619
:102DE000E606F70608F4FACE9101281B390BC90153
:102DF00046CFC801861B970B2091390430913A04C5
:102E0000B201685F7F4F820F931FDECF1D861C8645
:102E100015CECF93DF93EC01AC0160E070E0CB0105
:102E20006EDDAE0161E070E080E090E0DF91CF9177
:102E300066CDCF9380914304909144048BD9C82FE1
:102E400081110BC060E070E0CB010E94800461E062
:102E500070E080E090E00E9480048C2FCF91089574
:102E60000F931F9389019A01AB01BC018091430428
:102E700090914404B8D91F910F9108954F925F9299
:102E80006F927F928F929F92AF92BF92CF92DF927A
:102E9000EF92FF920F931F93CF93DF93CDB7DEB7DF
:102EA00063970FB6F894DEBF0FBECDBF6C018B01E8
:102EB0005A0180914704882309F43DC0809147045A
:102EC000882309F442C0809146041A82198288231B
:102ED00009F4C0C0F0E94F2EFFE55F2E662463942D
:102EE000712CF12CE12C9701215D3B4FAE014F5F1E
:102EF0005F4F61E070E080914304909144044AD9AF
:102F0000982E811169C089819A81E80EF91EE11419
:102F1000F10409F461C081E0481A510861087108A0
:102F200059F560915204709153048DEE90E06AD986
:102F30001A82198251C067E474E080914304909131
:102F4000440452D9882309F4B9CF63960FB6F89494
:102F5000DEBF0FBECDBFDF91CF911F910F91FF90CC
:102F6000EF90DF90CF90BF90AF909F908F907F9029
:102F70006F905F904F900895AAE0EA16F10409F06F
:102F800063C049E050E070E060E08FE294E028D454
:102F90006091520470915304882309F452C08091C7
:102FA000370490E08617970719F6BC018EEE90E083
:102FB00029D988E0EFE2F4E0DE01199601900D9244
:102FC0008A95E1F7809152049091530401969927D4
:102FD000909353048093520481E029813A81121620
:102FE00013060CF080E09110CAC2882309F4ADCF1B
:102FF00080914604811104C019861A861B861C869E
:1030000089859A85AB85BC8580319105A105B1057F
:1030100008F09BCFFC018827EF5EF74E8F4F0C9492
:10302000E9229118501ABF1AA5179519C8198118C5
:1030300089186518A41A931AA01AA517A517A51719
:1030400050188FEE90E073CFBAE0EB16F1040CF459
:103050004ACFC2CFF12CE12CE8E06E2E712C29E092
:1030600030E02C0F3D1F2E0D3F1DAE014F5F5F4F17
:10307000B3016E197F0980914304909144048AD86A
:10308000982E29813A81811109C0E20EF31EE114C4
:10309000F10421F0E8E0EE16F1040CF381E09FCF9B
:1030A000D6011696ED91FC9180819181A281B38128
:1030B00089839A83AB83BC83AE014F5F5F4F64E02B
:1030C00070E085E190E03ADB40CF8D859E8514D994
:1030D0002FEF3FEFA90161E070E0009771F0FC0174
:1030E000C080D180E280F380A801C701B6010E94B0
:1030F0000009A701960170E060E08DE190E051DBEE
:1031000024CF4D855E859801B6018BE190E073DB9D
:103110001CCF4D855E852FEF3FEFB6018CE190E02F
:10312000F6CFD6011496ED91FC9100811181F80142
:1031300082809380A080B18070E1472E512C612C59
:10314000712C49825A826B827C8288E090E0A0E0F8
:10315000B0E08D839E83AF83B8879E012F5E3F4F83
:10316000AE014F5F5F4F68E070E080914304909143
:1031700044040E94AC108823D9F010E000E0C8019C
:1031800063960FB6F894DEBF0FBECDBFDF91CF912F
:103190001F910F91FF90EF90DF90CF90BF90AF9075
:1031A0009F908F907F906F905F904F900C94BB2377
:1031B00089899A89089709F7D801ED90FC90B8E0C1
:1031C000EB0EF11CEE0CFF1CEE0CFF1CC7010E9465
:1031D0001F238C01892B89F249825A826B827C825F
:1031E000C7010F2C000CAA0BBB0B8D839E83AF83F2
:1031F000B8879E012F5E3F4FAE014F5F5F4F68E083
:1032000070E080914304909144040E94AC108111BD
:10321000B6CF89899A89089709F0B1CFD60112965D
:10322000ED91FC914081518162817381D8014D9370
:103230005D936D937C93139744815581668177816B
:1032400014964D935D936D937C93179740855185AC
:103250006285738518964D935D936D937C931B9750
:1032600084859585A685B785F80184879587A68787
:10327000B787108A118A128A138A84E090E0A0E04E
:10328000B0E0848B958BA68BB78B80917002909168
:103290007102B0E0A0E0808F918FA28FB38FC50143
:1032A0000B2C000CAA0BBB0B848F958FA68FB78FAE
:1032B000F401D801909690E080E08A159B055CF1BE
:1032C0009E012F5E3F4FA801B7018091430490916A
:1032D00044040E94AC10811152CF89899A89E81662
:1032E000F90609F04CCFA70170E060E0C80174D284
:1032F0008B8B9E012F5E3F4FAE014D5E5F4F61E0B5
:1033000070E080914304909144040E94AC1081E0ED
:103310008093460434CF4191519170E060E04D9329
:103320005D936D937D930196C8CF8D859E85AF8506
:10333000B8890097A105B10521F481E08093450487
:1033400004CE0E947C11009781F481E090E0A0E01F
:10335000B0E089839A83AB83BC83AE014F5F5F4F3C
:1033600064E070E082E190E0AECEBC01C6010E9454
:10337000DA0319821A821B821C82AE014F5F5F4FF3
:1033800064E070E082E190E0D9D98823B1F2DDCD2C
:10339000D6011496ED91FC910190F081E02DE0842E
:1033A000F1848FEF8983E114F10409F472C0D7012D
:1033B0006D907C90C280D38070E060E090E080E00F
:1033C0008615970594F083E190E00E94021110E0C9
:1033D00000E08111BACD061517055CF161E070E0DF
:1033E000CE0101960E943911B0CD9C0143E0220F1D
:1033F000331F4A95E1F7F701A281B381A20FB31FF2
:103400001296ED91FC911397EE0FFF1FEC0DFD1D31
:103410000190F081E02D16964D915C91E49F900112
:10342000E59F300DF49F300D1124620F731F01963C
:10343000C7CFD7011296ED91FC91C80123E0880F08
:10344000991F2A95E1F7E80FF91FA080B180A281AA
:10345000B381AA0FBB1FAC0DBD1D2D913C91868180
:103460009781289F4001299F900C389F900C112430
:10347000B401C5010E943911582E940150E040E07A
:103480006981C50195D1898351105FCD0F5F1F4FB1
:10349000A2CF70E060E083E190E00E94021155CD80
:1034A00050E040E070E060E081E190E047D98111B8
:1034B0004CCD60E070E0CB010E94A505809129040D
:1034C000882329F0A80160E070E0CB0118DAA80198
:1034D00060E070E0CB010E94AC0461E070E080E04D
:1034E00090E00E94A50580912904882331F0A8016D
:1034F00061E070E080E090E002DAA80161E070E055
:1035000080E090E00E94AC041092470410924604C0
:1035100010925304109252048091430490914404F9
:103520000E94FA1012CD81E090E090932B048093DA
:103530002A0450E040E070E060E086E190E0C3CD16
:1035400081E0F501808301CD8D859E850E947C11EF
:103550002FEF3FEFA90161E070E0009769F0DC0117
:10356000CD90DD90ED90FC90C701B6010E946009FE
:10357000A701960170E060E08EE190E0C0CDC80147
:103580000E945D11E2CCCF92DF92EF92FF92CF9337
:10359000DF93EC01C12CD12C7601C701B6010E944A
:1035A000A505AE01C701B601AAD9AE01C701B60192
:1035B0000E94AC0480913F0490914004009731F048
:1035C0000E94BB231092400410923F04CA94CD285D
:1035D000CE28CF2879F580914604F12C882351F02C
:1035E00050E040E070E060E084E190E0A7D8F82E81
:1035F0001092460480914704882341F010924704BA
:1036000081E090E090937102809370028091430476
:10361000909144040E94FD108091430490914404D1
:103620000E94F2108F2DDF91CF91FF90EF90DF90ED
:10363000CF900895C12CD12C7601C394AECFCF93F7
:10364000DF93EC01AC0160E070E0CB010E94950DCE
:10365000AE0161E070E080E090E0DF91CF910C94EA
:10366000950D60E070E0CB010E94020E61E070E019
:1036700080E090E00C94020ECF92DF92EF92FF92E6
:103680000F931F93CF93DF93EC016A017B0100E05E
:1036900010E098010E94B00901E010E020E030E065
:1036A000B701A601CE010E94B009DF91CF911F9111
:1036B0000F91FF90EF90DF90CF90089568EE73E048
:1036C00080E090E031D390E080E0089526E040E093
:1036D00050E16EE070E081E694E088D481E694E009
:1036E000BBD3892B21F081E694E0D0D3F7CF90E0D3
:1036F00080E00895CF92DF92EF92FF920F931F9395
:10370000CF93DF936B017A01E9011982188281E678
:1037100094E0A2D3892B71F18601CC24C39485E671
:10372000D82E80915404811111C081E694E0AED36B
:1037300085369105B1F7C0925404F801D1928F01FA
:1037400088819981019699838883EBCF88819981BB
:103750008E159F0578F481E694E098D38F3F980703
:10376000A9F3F80181938F0188819981019699834A
:103770008883ECCF90E080E0DF91CF911F910F9193
:10378000FF90EF90DF90CF9008950F931F93CF930A
:10379000DF93EA01890181E694E0B8D6F801D1838C
:1037A000C08390E080E0DF91CF911F910F91089549
:1037B000DC01A40FB51F420F531F9D01281B390BBD
:1037C0002417350710F0862F0895ED91E627F0E0D5
:1037D000EC51FF4F6491F1CF9A01AB016FEFE8CF4D
:1037E000CF93FC01E60FF71FE40FF51FC081F4DF54
:1037F00091E0C81390E0892FCF91089580915504EE
:1038000091E0980F90935504882349F021E030E02F
:103810003093570420935604809355040895789468
:103820000E942801F894809155048150809355049A
:103830000C947F0FFF920F931F93CF93DF931F92F0
:10384000CDB7DEB71092EA061092E906A3D20E9425
:10385000D20F0091870210918802F8011182108224
:1038600070E060E090E080E00E94870F0E942402F8
:10387000F8947894C80186960E94860F81E090E0C3
:103880000E94830F1982AE014F5F5F4F61E070E0CD
:10389000F801828193810E94330F8981882319F076
:1038A00081E0F80182A70E948C0FF8940E942510F5
:1038B000F80180819181892B19F481E092A5911101
:1038C00080E08093E90678947894FF24F3948091C3
:1038D000E906811110C00E94B00281E090E00E94D0
:1038E000840FF89490E080E00F90DF91CF911F91CA
:1038F0000F91FF9008951982AE014F5F5F4F61E015
:1039000070E0F801828193810E946B0F8981882386
:1039100011F0F801F2A6F80180819181892B89F4D8
:1039200081E092A5911101C080E08093EA06909118
:10393000EA0681E0911180E08093E9060E9444103C
:10394000C6CF81E0F2CF5058BB27AA270ED0DCC0EB
:10395000CDD030F0D2D020F031F49F3F11F41EF4DE
:10396000C2C00EF4E095E7FBB8C0E92FDED080F3CB
:10397000BA17620773078407950718F071F49EF56C
:10398000F6C00EF4E0950B2EBA2FA02D0B01B90155
:1039900090010C01CA01A0011124FF27591B99F0C5
:1039A000593F50F4503E68F11A16F040A22F232FD1
:1039B000342F4427585FF3CF469537952795A79521
:1039C000F0405395C9F77EF41F16BA0B620B730BC8
:1039D000840BBAF09150A1F0FF0FBB1F661F771F39
:1039E000881FC2F70EC0BA0F621F731F841F48F4EE
:1039F000879577956795B795F7959E3F08F0B3CF74
:103A00009395880F08F09927EE0F9795879508955D
:103A100040D008F481E00895E89409C097FB3EF493
:103A200090958095709561957F4F8F4F9F4F99230B
:103A3000A9F0F92F96E9BB279395F6958795779589
:103A40006795B795F111F8CFFAF4BB0F11F460FF49
:103A50001BC06F5F7F4F8F4F9F4F16C0882311F0A1
:103A600096E911C0772321F09EE8872F762F05C0B5
:103A7000662371F096E8862F70E060E02AF09A9550
:103A8000660F771F881FDAF7880F9695879597F945
:103A90000895990F0008550FAA0BE0E8FEEF1616DF
:103AA0001706E807F907C0F012161306E407F50732
:103AB00098F0621B730B840B950B39F40A2661F0A6
:103AC000232B242B252B21F408950A2609F4A14049
:103AD000A6958FEF811D811D089597F99F6780E856
:103AE00070E060E008959FEF80EC089500240A9450
:103AF0001616170618060906089500240A941216C9
:103B00001306140605060895092E0394000C11F4FB
:103B1000882352F0BB0F40F4BF2B11F460FF04C0A8
:103B20006F5F7F4F8F4F9F4F089557FD9058440F01
:103B3000551F59F05F3F71F04795880F97FB991F0C
:103B400061F09F3F79F087950895121613061406C9
:103B5000551FF2CF4695F1DF08C016161706180656
:103B6000991FF1CF86957105610508940895E89431
:103B7000BB2766277727CB0197F908958ADF08F4DA
:103B80008FEF08950BD0C0CFB1DF28F0B6DF18F06B
:103B9000952309F0A2CFA7CF1124EACFC6DFA0F367
:103BA000959FD1F3950F50E0551F629FF001729FD2
:103BB000BB27F00DB11D639FAA27F00DB11DAA1FF1
:103BC000649F6627B00DA11D661F829F2227B00D3E
:103BD000A11D621F739FB00DA11D621F839FA00DC9
:103BE000611D221F749F3327A00D611D231F849F19
:103BF000600D211D822F762F6A2F11249F57504070
:103C00008AF0E1F088234AF0EE0FFF1FBB1F661F0A
:103C1000771F881F91505040A9F79E3F510570F0C3
:103C20005CCFA6CF5F3FECF3983EDCF386957795AB
:103C30006795B795F795E7959F5FC1F7FE2B880FBE
:103C4000911D9695879597F908951F920F920FB63B
:103C50000F9211242F933F938F939F93AF93BF9312
:103C60008091590490915A04A0915B04B0915C0436
:103C70003091580423E0230F2D3758F50196A11DEC
:103C8000B11D209358048093590490935A04A09333
:103C90005B04B0935C0480915D0490915E04A091FC
:103CA0005F04B09160040196A11DB11D80935D0475
:103CB00090935E04A0935F04B0936004BF91AF91B2
:103CC0009F918F913F912F910F900FBE0F901F905A
:103CD000189526E8230F0296A11DB11DD2CF3FB73C
:103CE000F89480915D0490915E04A0915F04B0917E
:103CF000600426B5A89B05C02F3F19F00196A11DB1
:103D0000B11D3FBFBA2FA92F982F8827BC01CD0125
:103D1000620F711D811D911D42E0660F771F881F84
:103D2000991F4A95D1F708958F929F92AF92BF92B3
:103D3000CF92DF92EF92FF926B017C01D0DF4B01BB
:103D40005C01C114D104E104F104D9F00CD4C7DF43
:103D5000681979098A099B09683E734081059105B4
:103D600080F321E0C21AD108E108F10888EE880E3C
:103D700083E0981EA11CB11CC114D104E104F1041C
:103D800031F7FF90EF90DF90CF90BF90AF909F9072
:103D90008F900895789484B5826084BD84B58160E5
:103DA00084BD85B5826085BD85B5816085BDEEE643
:103DB000F0E0808181608083E1E8F0E01082808122
:103DC00082608083808181608083E0E8F0E0808190
:103DD00081608083E1EBF0E0808184608083E0EBB0
:103DE000F0E0808181608083E1E9F0E080818260A1
:103DF0008083808181608083E0E9F0E08081816060
:103E00008083E1EAF0E0808182608083808181604C
:103E10008083E0EAF0E0808181608083E1E2F1E08C
:103E2000808182608083808181608083E0E2F1E034
:103E3000808181608083EAE7F0E080818460808314
:103E400080818260808380818160808380818068BE
:103E500080831092C1000895FC01918D228D892FDD
:103E600090E0805C9F4F821B91098F739927089582
:103E7000FC01918D828D981731F0828DE80FF11D34
:103E8000858D90E008958FEF9FEF0895FC01918D4F
:103E9000828D981761F0A28DAE0FBF2FB11D5D9678
:103EA0008C91928D9F5F9F73928F90E008958FEF1A
:103EB0009FEF0895FC01538D448D252F30E0842F12
:103EC00090E0821B930B541710F0CF960895019742
:103ED0000895FC01A48DA80FB92FB11DA35ABF4F9F
:103EE0002C91848D90E001968F739927848FA689F9
:103EF000B7892C93A089B1898C91837080648C934D
:103F0000938D848D981306C00288F389E02D8081FB
:103F10008F7D80830895CF93DF93EC01888D882374
:103F2000B1F0AA89BB89E889F9898C9185FD03C024
:103F3000808186FD0CC00FB607FCF7CF8C9185FF02
:103F4000F2CF808185FFEDCFCE01C3DFEACFDF91D5
:103F5000CF910895EF92FF920F931F93CF93DF932A
:103F6000EC0181E0888F9B8D8C8D98131AC0E889B5
:103F7000F989808185FF15C09FB7F894EE89FF8984
:103F80006083E889F98980818370806480839FBF22
:103F900081E090E0DF91CF911F910F91FF90EF9022
:103FA0000895F62E0B8D10E00F5F1F4F0F73112732
:103FB000E02E8C8D8E110BC00FB607FCFACFE8896E
:103FC000F989808185FFF5CFCE0183DFF2CFEB8DBC
:103FD000EC0FFD2FF11DE35AFF4FF0829FB7F894CD
:103FE0000B8FEA89FB8980818062D0CFCF92DF92EC
:103FF000EF92FF921F93CF93DF93EC016A017B0155
:10400000122FE889F98982E08083C11481EED806F5
:10401000E104F10499F060E079E08DE390E0A7011C
:104020009601B5D22150310941095109569547955C
:1040300037952795211580E1380790F0E889F989AF
:10404000108260E874E88EE190E0A70196019FD2AB
:1040500021503109410951095695479537952795C2
:10406000EC85FD853083EE85FF852083188EEC89F5
:10407000FD891083EA89FB89808180618083EA89D8
:10408000FB89808188608083EA89FB8980818068E0
:104090008083EA89FB8980818F7D8083DF91CF9146
:1040A0001F91FF90EF90DF90CF9008951F920F9295
:1040B0000FB60F9211240BB60F922F938F939F93ED
:1040C000EF93FF93E0917104F09172048081E0918D
:1040D0007704F091780482FD1DC0908180917A046C
:1040E0008F5F8F7320917B04821741F0E0917A04F7
:1040F000F0E0EF59FB4F958F80937A04FF91EF9199
:104100009F918F912F910F900BBE0F900FBE0F902C
:104110001F9018958081F2CF1F920F920FB60F92C9
:1041200011240BB60F922F933F934F935F936F938E
:104130007F938F939F93AF93BF93EF93FF9381E60A
:1041400094E0C7DEFF91EF91BF91AF919F918F9166
:104150007F916F915F914F913F912F910F900BBE87
:104160000F900FBE0F901F901895E1E6F4E01382B8
:10417000128288EE93E0A0E0B0E084839583A6836A
:10418000B78383E493E09183808385EC90E0958707
:10419000848784EC90E09787868780EC90E0918B11
:1041A000808B81EC90E0938B828B82EC90E0958BFE
:1041B000848B86EC90E0978B868B118E128E138EFB
:1041C000148E08951F920F920FB60F9211240BB602
:1041D0000F922F938F939F93EF93FF93E0910E0590
:1041E000F0910F058081E0911405F091150582FD95
:1041F0001DC09081809117058F5F8F7320911805E6
:10420000821741F0E0911705F0E0E250FB4F958FE7
:1042100080931705FF91EF919F918F912F910F90B0
:104220000BBE0F900FBE0F901F9018958081F2CF9C
:104230001F920F920FB60F9211240BB60F922F936D
:104240003F934F935F936F937F938F939F93AF931E
:10425000BF93EF93FF938EEF94E03BDEFF91EF91DE
:10426000BF91AF919F918F917F916F915F914F918E
:104270003F912F910F900BBE0F900FBE0F901F908C
:104280001895EEEFF4E01382128288EE93E0A0E03E
:10429000B0E084839583A683B78383E493E091831E
:1042A00080838DEC90E0958784878CEC90E09787F5
:1042B000868788EC90E0918B808B89EC90E0938BE3
:1042C000828B8AEC90E0958B848B8EEC90E0978BC0
:1042D000868B118E128E138E148E08951F920F925C
:1042E0000FB60F9211240BB60F922F938F939F93BB
:1042F000EF93FF93E091AB05F091AC058081E091E5
:10430000B105F091B20582FD1DC090818091B40588
:104310008F5F8F732091B505821741F0E091B4054E
:10432000F0E0E556FA4F958F8093B405FF91EF9139
:104330009F918F912F910F900BBE0F900FBE0F90FA
:104340001F9018958081F2CF1F920F920FB60F9297
:1043500011240BB60F922F933F934F935F936F935C
:104360007F938F939F93AF93BF93EF93FF938BE9CB
:1043700095E0AFDDFF91EF91BF91AF919F918F914C
:104380007F916F915F914F913F912F910F900BBE55
:104390000F900FBE0F901F901895EBE9F5E0138278
:1043A000128288EE93E0A0E0B0E084839583A68338
:1043B000B78383E493E09183808385ED90E09587D4
:1043C000848784ED90E09787868780ED90E0918BDD
:1043D000808B81ED90E0938B828B82ED90E0958BCA
:1043E000848B86ED90E0978B868B118E128E138EC8
:1043F000148E08951F920F920FB60F9211240BB6D0
:104400000F922F938F939F93EF93FF93E091480622
:10441000F09149068081E0914E06F0914F0682FDB1
:104420001DC09081809151068F5F8F73209152063D
:10443000821741F0E0915106F0E0E85CF94F958F6A
:1044400080935106FF91EF919F918F912F910F9043
:104450000BBE0F900FBE0F901F9018958081F2CF6A
:104460001F920F920FB60F9211240BB60F922F933B
:104470003F934F935F936F937F938F939F93AF93EC
:10448000BF93EF93FF9388E396E023DDFF91EF91D5
:10449000BF91AF919F918F917F916F915F914F915C
:1044A0003F912F910F900BBE0F900FBE0F901F905A
:1044B0001895E8E3F6E01382128288EE93E0A0E01C
:1044C000B0E084839583A683B78383E493E09183EC
:1044D000808385E391E09587848784E391E09787E3
:1044E000868780E391E0918B808B81E391E0938BD1
:1044F000828B82E391E0958B848B86E391E0978BAE
:10450000868B118E128E138E148E0895AF92BF92E9
:10451000CF92DF92EF92FF920F931F93CF93DF938F
:104520006C017B018B01040F151FEB015E01AE18BE
:10453000BF08C017D10759F06991D601ED91FC91E0
:104540000190F081E02DC6011995892B79F7C501FD
:10455000DF91CF911F910F91FF90EF90DF90CF905F
:10456000BF90AF900895089597FB072E16F400941E
:1045700006D077FD08D035D007FC05D03EF49095E5
:1045800081959F4F0895709561957F4F0895A1E2A1
:104590001A2EAA1BBB1BFD010DC0AA1FBB1FEE1FBD
:1045A000FF1FA217B307E407F50720F0A21BB30B08
:1045B000E40BF50B661F771F881F991F1A9469F784
:1045C00060957095809590959B01AC01BD01CF01E0
:1045D0000895EE0FFF1F881F8BBF0790F691E02D07
:1045E0001994AA1BBB1B51E107C0AA1FBB1FA6172A
:1045F000B70710F0A61BB70B881F991F5A95A9F78C
:1046000080959095BC01CD0108950F931F93CF9392
:10461000DF93869F8001879F100D969F100D1124B8
:10462000C8010DD0EC01009721F0A80170E060E016
:1046300034D1CE01DF91CF911F910F9108950F9347
:104640001F93CF93DF938230910510F482E090E0C6
:10465000E091ED06F091EE0630E020E0B0E0A0E061
:10466000309799F42115310509F44AC0281B390BFC
:1046700024303105D8F58A819B816115710589F156
:10468000FB0193838283FE0111C04081518102812D
:10469000138148175907E0F04817590799F4109704
:1046A00061F012960C93129713961C933296CF01D9
:1046B000DF91CF911F910F9108950093ED06109314
:1046C000EE06F4CF2115310551F04217530738F0AB
:1046D000A901DB019A01BD01DF01F801C1CFEF01A2
:1046E000F9CF9093EE068093ED06CDCFFE01E20F59
:1046F000F31F819391932250310939832883D7CFB7
:104700002091EB063091EC06232B41F4209102021C
:10471000309103023093EC062093EB0620910002C7
:10472000309101022115310541F42DB73EB740917A
:10473000040250910502241B350BE091EB06F09129
:10474000EC06E217F307A0F42E1B3F0B28173907DE
:1047500078F0AC014E5F5F4F2417350748F04E0FDD
:104760005F1F5093EC064093EB06819391939FCF8C
:10477000F0E0E0E09CCFCF93DF930097E9F0FC01FD
:10478000329713821282A091ED06B091EE06ED01F0
:1047900030E020E01097A1F420813181820F931F37
:1047A0002091EB063091EC062817390709F061C01B
:1047B000F093EC06E093EB06DF91CF910895EA01C8
:1047C000CE17DF07E8F54A815B819E01411551054F
:1047D000B1F7E901FB83EA8349915991C40FD51FD1
:1047E000EC17FD0761F4808191810296840F951F7B
:1047F000E90199838883828193819B838A83F0E096
:10480000E0E012968D919C9113970097B9F52D9148
:104810003C911197CD010296820F931F2091EB06D8
:104820003091EC062817390739F6309751F5109278
:10483000EE061092ED06B093EC06A093EB06BCCF0B
:10484000D383C28340815181840F951FC817D90734
:1048500061F44E5F5F4F88819981480F591F5183E2
:1048600040838A819B81938382832115310509F0DE
:10487000B0CFF093EE06E093ED069ECFFD01DC0194
:10488000C0CF13821282D7CFFB01DC0102C001909E
:104890000D9241505040D8F70895DC0101C06D934E
:1048A00041505040E0F70895FB01DC018D910190EB
:0E48B00080190110D9F3990B0895F894FFCFE9
:1048BE000000EF06800001000A0256020000000010
:1048CE00060001001602D506000000000500890250
:1048DE0090029A029902A202A102AB02AA02B302AC
:1048EE00BD02C802CE02D802E1020400040001009B
:1048FE000100020002000400040001000400020096
:10490E000200040008000000803F0000004000008C
:10491E004040000080400000A04000002041010106
:10492E00010053696D756C6174696F6E2066696EF6
:10493E006973686564000176037265616C5F54008B
:10494E007265616C33325F540075696E74385F54F2
:10495E000075696E7431365F540075696E7433324A
:10496E005F5400626F6F6C65616E5F540066636EBC
:10497E005F63616C6C5F5400696E745F5400706F9E
:10498E00696E7465725F5400616374696F6E5F5413
:10499E000074696D65725F75696E7433325F706134
:1049AE0069725F54002D77002D69676E6F72652DE9
:1049BE0061726700436F756C64206E6F7420637252
:1049CE00656174652065787465726E616C206D6FBB
:1049DE006465207573657220646174612E20204FAA
:1049EE007574206F66206D656D6F72792E0A0000EA
:1049FE00000000AA1F86225A1F8B1F2C1F461F382D
:024A0E001F0087
:00000001FF
