:10000000F5C0000024C1000022C1000020C1000092
:100010001EC100001CC100001AC1000018C1000070
:1000200016C1000014C1000012C1000010C1000080
:100030000EC100000CC100000AC1000008C1000090
:1000400006C1000004C1000002C1000000C10000A0
:10005000FEC00000FCC00000FAC000000C9450205C
:10006000F6C000000C9481220C94B722F0C000006E
:10007000EEC00000ECC00000EAC00000E8C00000D4
:10008000E6C00000E4C00000E2C00000E0C00000E4
:100090000C940D230C944323DAC00000D8C0000058
:1000A000D6C00000D4C00000D2C00000D0C0000004
:1000B000CEC00000CCC00000CAC00000C8C0000014
:1000C000C6C00000C4C000000C948B110C9499238E
:1000D0000C94CF23BCC000000C9425240C945B240A
:1000E000B6C00000001D3A2774694E53E8F5D2CF20
:1000F0009C81A6BBCDD0F7EAB9A4839E25381F0208
:10010000514C6B76879ABDA0F3EEC9D46F725548F7
:100110001B06213C4A57706D3E230419A2BF9885E7
:10012000D6CBECF1130E2934677A5D40FBE6C1DCD7
:100130008F92B5A8DEC3E4F9AAB7908D362B0C11C7
:10014000425F78659489AEB3E0FDDAC77C61465BB7
:100150000815322F5944637E2D30170AB1AC8B96A7
:10016000C5D8FFE2263B1C01524F6875CED3F4E997
:10017000BAA7809DEBF6D1CC9F82A5B8031E392487
:10018000776A4D50A1BC9B86D5C8EFF24954736E77
:100190003D20071A6C71564B1805223F8499BEA367
:1001A000F0EDCAD735280F12415C7B66DDC0E7FA57
:1001B000A9B4938EF8E5C2DF8C91B6AB100D2A3747
:1001C00064795E43B2AF8895C6DBFCE15A47607D37
:1001D0002E3314097F6245580B16312C978AADB027
:1001E000E3FED9C4E0226C23F823842411241FBE2B
:1001F000CFEFD1E2DEBFCDBF00E00CBF13E0A0E047
:10020000B2E0E4E1FDE400E00BBF02C007900D9214
:10021000A635B107D9F727E0A6E5B3E001C01D92E6
:10022000AE3DB207E1F710E0C6EFD0E000E006C057
:1002300021970109802FFE010E941425C23FD1079A
:1002400080E00807A9F70E94AE1D0C948826D8CE3E
:10025000CF92DF92EF92FF926B017C019F7720E0BB
:1002600030E040E859E50E94AF1E87FF2BC020E038
:1002700030E040E05FE3C701B6010E94E91F87FD5F
:100280000EC020E030E040E05FE3C701B6010E940D
:10029000381EFF90EF90DF90CF900C94211F20E04C
:1002A00030E040E05FEBC701B6010E94E91F18167D
:1002B00084F420E030E0A901C701B6010E94ED1FDF
:1002C0006B017C01C701B601FF90EF90DF90CF90EA
:1002D000089520E030E040E05FE3C701B6010E94EE
:1002E000371EFF90EF90DF90CF900C949C1E4F92A2
:1002F0005F926F927F928F929F92AF92BF92CF92B6
:10030000DF92EF92FF920F931F93CF93DF93CDB7BE
:10031000DEB768970FB6F894DEBF0FBECDBF609111
:100320005A0270915B0280915C0290915D0290DFB5
:100330006B017C0120E030E040E053E40E94AF1EFE
:1003400087FFB5C020E030E040E053ECC701B601C4
:100350000E94E91F87FDAEC0C701B6010E94B31E0F
:10036000F62E60915E0270915F0280916002909122
:1003700061026EDF4B015C0120E030E040E053E4BD
:100380000E94AF1E6FE787FF0FC020E030E040E023
:1003900053ECC501B4010E94E91F60E887FD04C069
:1003A000C501B4010E94B31E8E010F5F1F4FCE0125
:1003B0004996F80111928E179F07E1F71982198665
:1003C000198A1A821A8681E08A8BFE013396D80137
:1003D000189631E080E020E071E0982FF71209C014
:1003E00091E0211101C090E041E0811101C040E0A5
:1003F0009427832F613049F481E0211101C080E00E
:1004000041E0311101C040E0842791938783278721
:10041000322FAE17BF0709F050C060916A02709189
:100420006B0280916C0290916D0212DF6B017C0176
:1004300020E030E040E053E40E94AF1E87FF3FC061
:1004400020E030E040E053ECC701B6010E94E91F14
:1004500087FD38C0C701B6010E94B31EF62E609119
:100460006E0270916F028091700290917102F0DEC5
:100470004B015C0120E030E040E053E40E94AF1EFD
:1004800087FF66C120E030E040E053ECC501B401D5
:100490000E94E91F87FD65C1C501B4010E94B31E1A
:1004A000862F9FEFF91211C08093D70713C03FE743
:1004B000F32E57CF20E8F22E54CF292F8DCF9FE770
:1004C000F92ECDCF80E8F82ECACF6F3F09F045C195
:1004D000F092D70781E090E00E94151140919003BF
:1004E00050919103609192037091930390E080E0AA
:1004F0000E9411118090A0039090A103A090A203EC
:10050000B090A30320E030E040E85FEBC501B40108
:100510000E94AF1E882331F1C0909003D0909103C8
:10052000E0909203F0909303A7019601C501B401F6
:100530000E94371E4B015C0120E030E040E054E3B4
:10054000C701B6010E94ED1F9B01AC01C501B401BA
:100550000E94E91F181634F086E792E090937B031F
:1005600080937A038091A403882331F086E792E098
:1005700090937B0380937A03C0909403D09095036B
:10058000E0909603F0909703FFEFCF1ADF0AEF0A8F
:10059000FF0AC0929403D0929503E0929603F092E2
:1005A0009703C114D104E104F10499F480919803F4
:1005B00090919903A0919A03B0919B030196A11D7C
:1005C000B11D8093980390939903A0939A03B093DD
:1005D0009B0380909C0390909D03A0909E03B090FD
:1005E0009F03609198037091990380919A03909171
:1005F0009B030E94E41EA50194010E94ED1F20E0D0
:1006000030E040E85FE40E94ED1F2B013C01C70190
:10061000B6010E94E41EA50194010E94ED1F9B01FA
:10062000AC01C301B2010E94381E60939003709325
:100630009103809392039093930368960FB6F89476
:10064000DEBF0FBECDBFDF91CF911F910F91FF9005
:10065000EF90DF90CF90BF90AF909F908F907F9062
:100660006F905F904F9008951092D7078E370CF0DF
:100670006CC0082E000C990B0296FE01E80FF91FC2
:1006800030813093D906E8E0F0E0EC0FFD1FE80F71
:10069000F91F40814093DA06E0E1F0E0EC0FFD1F26
:1006A0008E0F9F1FFC0180818093DB06FDE76FE7C3
:1006B00070E0FF152CF06F2DFF0C770B6E5F7F4FF6
:1006C00021E0311101C020E02093580731E04111B1
:1006D00001C030E03093590741E0811101C040E092
:1006E00040935A07FE01E60FF71F81E090819111B8
:1006F00001C080E02827E8E0F0E0EC0FFD1FE60FE6
:10070000F71F81E09081911101C080E0382780E1DE
:1007100090E08C0F9D1F680F791F81E0FB01908195
:10072000911101C080E0482790E080E0F8017191CC
:100730008F0167815785721316C0631314C0541359
:1007400012C0009761F08150AFCE8FE790E095CF57
:100750008FE76FEFF61609F4A7CEF81285CF8FEF6B
:10076000A3CE80E8F6CF019688309105F9F6B2CE97
:10077000CF93DF93EAE7F3E08BE2DF011D928A95E6
:10078000E9F780E090E0A0E8BFEB86A397A3A0A7DD
:10079000B1A78DEC9CECACE4BEE382A393A3A4A32D
:1007A000B5A38DE693E8A7E9B4E984839583A6838E
:1007B000B78384E29BE9ABE7BBE380879187A2879D
:1007C000B3878BE79FE7A3E8BFE984879587A68770
:1007D000B78787E89FEFA0ECBDE2808B918BA28B5F
:1007E000B38BAEE6B3E0B383A283CAE6D3E011963F
:1007F000DC93CE938AE892E0998388839B838A83F3
:100800008EE893E015969C938E9314978EE793E071
:1008100013969C938E93129780E993E017969C937E
:100820008E931697A9EDB6E08FEFED0119928A9598
:10083000E9F7A0E6B3E08AE0ED0119928A95E9F7BD
:10084000A6E5B3E0B58BA48B8EE090E011969C9367
:100850008E938AE392E013969C938E9312978EE187
:1008600092E015969C938E93149782E192E01796EE
:100870009C938E93169786E092E019969C938E93A4
:100880001897DF91CF9108950895EF92FF920F93FB
:100890001F93CF93DF93EA01F901DC011496ED90E9
:1008A000FC90159712964D915C9113974E0D5F1D1C
:1008B0002881398118960D911C91199702171307F9
:1008C00030F00D911C911197012B09F441C08A0160
:1008D000021B130BDC0118968D919C918E199F09B8
:1008E000800F911F86179707DCF1C901860F971FAC
:1008F0008417950778F4718360833383228315828C
:1009000014821782168288819981680F791F7983F2
:10091000688316C01183008333832283601B710BAD
:100920007583648390E080E01616170614F49E2DFC
:100930008F2D96838783D701A60FB71FB983A8830E
:1009400080E0DF91CF911F910F91FF90EF9008957C
:1009500018968D919C91821B930B861797075CF6D6
:1009600081E0EFCFCF92DF92EF92FF92CF93DF93B0
:100970006B0184E4869FE001879FD00D1124CB5545
:10098000DC4F8AA99BA9009721F00E94E6251BAAAB
:100990001AAA84E48C9DF0018D9DF00D1124EB5575
:1009A000FC4F86A997A9009711F00E94E62584E4E0
:1009B0008C9DF0018D9DF00D1124EB55FC4F138A99
:1009C000128A168A178A108E118E128E138E148E2A
:1009D000158E168E178E10A211A281E090E093A3BF
:1009E00082A315A214A216A217A210A611A613A6DE
:1009F00012A615A614A616A617A610AA11AA13AA1F
:100A000012AA15AA14AA17AA16AA11AE10AE12AEEF
:100A100013AE14AE15AEDF01DE961D921D921D922F
:100A20001C921397EE5BFF4F11821082DF91CF91E2
:100A3000FF90EF90DF90CF900895CF93DF93FB016D
:100A4000DC016D917C91DB011696CD91DC9180816A
:100A5000918123E0880F991F2A95E1F7AA81BB8134
:100A6000A80FB91F8D919C91119724853585220F70
:100A7000331FEB016A817B81EB01C20FD31F099009
:100A8000D881C02D14962D913C9161E070E0232B0C
:100A900011F062E070E0C69F9001C79F300DD69FB5
:100AA000300D1124A085B1852A9FB0012B9F700DB8
:100AB0003A9F700D1124A481B5812A9FF0012B9FCC
:100AC000F00D3A9FF00D11248E0F9F1FFA019183B4
:100AD000808373836283DF91CF9108952F923F9239
:100AE0004F925F926F927F928F929F92AF92BF923E
:100AF000CF92DF92EF92FF920F931F93CF93DF93EA
:100B000000D000D0CDB7DEB7DC011496ED91FC919A
:100B10000190F081E02D808591859A838983A2815F
:100B2000B381BC83AB83FB0181909190A190B19084
:100B3000C12CD12C7601C814D904EA04FB04CCF0F2
:100B400026960FB6F894DEBF0FBECDBFDF91CF91D2
:100B50001F910F91FF90EF90DF90CF90BF90AF90DB
:100B60009F908F907F906F905F904F903F902F90CD
:100B700008954480558066807780408551856285E0
:100B80007385CF0140969E838D83A081B1819D01A5
:100B900083E0220F331F8A95E1F7A981BA8112966B
:100BA0008D919C91D901A80FB91F2D903C90119760
:100BB0000484F585E02DEE0FFF1F8B819C81E80FEB
:100BC000F91F0190F081E02D14968D919C91892B55
:100BD00041F581E090E0E89F9001E99F300DF89F9A
:100BE000300D1124249F8001259F100D349F100D7E
:100BF0001124249DC001259D900D349D900D11243C
:100C0000A8016D817E81820D931D0E946F26ED816A
:100C1000FE81E00FF11F9FEFC91AD90AE90AF90A0C
:100C20008ACF82E090E0D7CFCF93DF93DB01AE583D
:100C3000BD4F2C91222369F024E4269FF001279FC9
:100C4000F00D1124EB55FC4FEF0119922A95E9F7AD
:100C50001C9224E4269FF001279FF00D1124EB55F0
:100C6000FC4F148215821682178211861086138615
:100C70001286118A108A17861686DF91CF9172CE5E
:100C80002F923F924F925F926F927F928F929F929C
:100C9000AF92BF92CF92DF92EF92FF920F931F938A
:100CA000CF93DF9300D000D01F921F92CDB7DEB755
:100CB00024E4269FF001279FF00D1124EB55FC4FF3
:100CC0000481158126813781012B022B032B09F426
:100CD000B7C02A016B017C0110E000E0812C912C4F
:100CE00054013F019F01285F3F4F3C832B83CF017D
:100CF00004969E838D83AB81BC818D919C91ED8107
:100D0000FE81408151816281738184169506A60619
:100D1000B706E4F10E94E625D3011A968D919C91C5
:100D2000892B09F07EC084E48C9DD0018D9DB00D8F
:100D30001124AB55BC4FBC83AB8350968D919C91D5
:100D40000E94E625EB81FC81868597850E94E62539
:100D5000C701B60107DEC701B60128960FB6F894A1
:100D6000DEBF0FBECDBFDF91CF911F910F91FF90DE
:100D7000EF90DF90CF90BF90AF909F908F907F903B
:100D80006F905F904F903F902F904ECFFC01E00FFF
:100D9000F11F92819983A381AA839F83A887312C15
:100DA000212C2414350464F089819A810E94E6255F
:100DB000EFEF8E1A9E0AAE0ABE0A0C5F1F4F9BCF42
:100DC000AF81B885ED91FD91B887AF83309759F029
:100DD000848195810E94E625EF81F8853297808194
:100DE00091810E94E625BFEF2B1A3B0ADACF800FD4
:100DF000911FFC01848195810E94E6252B813C8115
:100E00002F5F3F4F3C832B83025F1F4FF501808193
:100E100091812B813C81241535054CF30E94E625F8
:100E200082CF10E000E01C821B8224E42C9DC001D4
:100E30002D9D900D1124DC01A155BC4F5D01E6CF25
:100E400028960FB6F894DEBF0FBECDBFDF91CF91CD
:100E50001F910F91FF90EF90DF90CF90BF90AF90D8
:100E60009F908F907F906F905F904F903F902F90CA
:100E7000089524E4269FF001279FF00D1124EB55DF
:100E8000FC4F828993890497029758F485E090E09B
:100E9000938B828B8FEF9FEFDC01828F938FA48FD8
:100EA000B58F08952F923F924F925F926F927F92EB
:100EB0008F929F92AF92BF92CF92DF92EF92FF926A
:100EC0000F931F93CF93DF93CDB7DEB7AA970FB6DB
:100ED000F894DEBF0FBECDBF9AA389A37E8B6D8B26
:100EE0001A01098B1A8B2B8B3C8B84E429893A8954
:100EF000829F6001839FD00C112486010B551C4FEB
:100F000089899A89AB89BC89F80180839183A283FE
:100F1000B383AB01BC01CD01B3DED601A755BC4FF5
:100F200084E0F10101900D928A95E1F7F4E02F0E33
:100F3000311C64E070E0D80114968D919C910E9460
:100F40003025F80191878087892B09F0F5C04D89FC
:100F50005E8969897A898B899C8992DE81E0AA966B
:100F60000FB6F894DEBF0FBECDBFDF91CF911F91BA
:100F70000F91FF90EF90DF90CF90BF90AF909F9038
:100F80008F907F906F905F904F903F902F9008953B
:100F9000A9A5BAA58D919C91E98DFA8DE80FF91F4D
:100FA000F88FEF8BD1018D919C91880F991FA9A18A
:100FB000BAA1ED91FC91E80FF91F80819181EF8931
:100FC000F88D91838083D10114962D913D914D919F
:100FD0005C9117972BA33CA34DA35EA362E070E046
:100FE0008D899E890E943025EF89F88D93838283B5
:100FF000892B09F4ACCFF8E02F0E311C412C512C79
:1010000032012BA13CA14DA15EA1421653066406FC
:1010100075069CF02B8D3C8D4D8D5E8D2F5F3F4F67
:101020004F4F5F4F2B8F3C8F4D8F5E8F498D5A8D69
:101030004C5F5F4F5A8F498F90C0610124E0C20E10
:10104000D11CD101ED90FC90EE0CFF1CEF89F88DC6
:1010500082819381E80EF91E68E070E081E090E003
:101060000E9430258C01D7018D939C93892B09F424
:101070006ECF84E0F601D80101900D928A95E1F7D8
:10108000B8E02B0E311CF80180819181A281B381DF
:10109000181619061A061B06DCF464E070E00E94BC
:1010A0003025D80115969C938E931497892B09F4BB
:1010B0004ECFD12CC12C812C912C5401F801808170
:1010C0009181A281B38188169906AA06BB0634F0E5
:1010D000FFEF4F1A5F0A6F0A7F0A93CFF801E4808F
:1010E000F580EC0CFD1C80E1F101DE011196019010
:1010F0000D928A95E1F7F0E12F0E311CA701BE0198
:101100006F5F7F4FA9A1BAA114968D919C9195DC38
:10111000F80186819781D70112962D913C91820F1B
:10112000931F97838683BFEF8B1A9B0AAB0ABB0A78
:10113000E4E0CE0ED11CC2CF1A8E198E1B8E1C8EEF
:101140001D8E1E8E18A30F8FA8014C5F5F4F58A7EE
:101150004FA3C80108969AA789A7EFA1F8A5808197
:101160009181A281B3812B8D3C8D4D8D5E8D281791
:1011700039074A075B070CF40BCF6EE070E08D89EE
:101180009E890E943025AF8DB8A11B969C938E93AB
:101190001A97B12CA12CD12CC12CF12CE12C24E4D8
:1011A000E989FA892E9FC0012F9F900D11249C017F
:1011B00021553C4F388F2F8B88248394912C4D8957
:1011C0005E89C416D50654F184E4A989BA898A9F38
:1011D00080018B9F100D11240B551C4FF8011586B3
:1011E0001486C70133E0880F991F3A95E1F70E94F2
:1011F0004A25D80151969C938E935097892B09F4D8
:10120000A6CEC701880F991F0E944A25F80197872B
:101210008687892B09F49BCE80E0A1CED1014D9029
:101220005D906D907D901D0177FC91CEEF89F88DDA
:10123000008111810A0D1B1DD80111969C928E927E
:10124000411451046104710429F1C2010E944A252C
:10125000F80195838483892B09F479CEF8015382B0
:1012600042828481958197838683918780871386C4
:10127000128681E090E045284628472811F490E046
:1012800080E0E80EF91EFFEFCF1ADF0A2EE0A20E73
:10129000B11C95CF15961C921E921497DFCF2F92FA
:1012A0003F924F925F926F927F928F929F92AF92F6
:1012B000BF92CF92DF92EF92FF920F931F93CF9343
:1012C000DF93CDB7DEB76A970FB6F894DEBF0FBED7
:1012D000CDBF9E8B8D8B49015A0184E4829F7001A2
:1012E000839FF00C112497012B553C4F6901FB01A2
:1012F00080819181F901958B848BD701A554BC4FD6
:10130000FB01349684E001900D928A95E1F7D701B4
:10131000A154BC4FFB01389684E001900D928A9550
:10132000E1F7D701AD53BC4FFB013C9684E001903F
:101330000D928A95E1F7D701AD52BC4FFB01709633
:1013400084E001900D928A95E1F78B010C5E1F4FAE
:10135000F90186A597A5A0A9B1A918161906DCF56B
:10136000880F991F880F991F0E944A25F60193AB99
:1013700082AB892B09F4D3C0312C212C412C512C68
:1013800032019601225D3F4F388F2F8BC601C296E6
:101390009A8F898FF496FC8BEB8BB301A2012FEF10
:1013A000421A520A620A720AEF89F88D808191818D
:1013B000A281B381481759076A077B070CF47BC0E9
:1013C000F60184A995A90E944A25F60197AB86AB40
:1013D000892B09F4A4C0F80180819181A281B38195
:1013E00024E4289DF001299DF00D1124EB55FC4FBC
:1013F000AC01BD014D7F21E030E0452B462B472B52
:1014000011F030E020E033A322A324E4289DF00172
:10141000299DF00D1124EB55FC4F0197A109B1094D
:1014200021E030E00297A105B10510F030E020E0A6
:1014300035A324A3D701A553BC4FF801349684E00B
:1014400001900D928A95E1F784E4889DF001899DD1
:10145000F00D1124EB55FC4F868D978DA0A1B1A105
:10146000B7FF58C0B095A095909581959F4FAF4F0D
:10147000BF4F82AF93AFA4AFB5AF168E178E10A239
:1014800011A280E06A960FB6F894DEBF0FBECDBF02
:10149000DF91CF911F910F91FF90EF90DF90CF9050
:1014A000BF90AF909F908F907F906F905F904F9084
:1014B0003F902F900895E98DFA8D808191819C0154
:1014C000220D331D3A8B298B80E1F801DE01119644
:1014D00001900D928A95E1F7005F1F4F49895A8963
:1014E000BE016F5F7F4FED89FE8984819581A5DA0A
:1014F000EB89FC8980819181E989FA892281338194
:10150000820F931FEB89FC8991838083F4E02F0E77
:10151000311C43CF12AE13AE14AE15AEB2CFC5011F
:10152000B40120DA81E0AECFCF92DF92EF92FF924A
:10153000CF93DF9310922D0424E4269FF001279F80
:10154000F00D1124EB55FC4F15A614A630E020E059
:10155000D12CC12CDF011A96C1E0D0E0C416D5060B
:10156000F4F024E4269FF001279FF00D1124EB55A1
:10157000FC4F13A612A611AE10AEDF01DE961D922F
:101580001D921D921C92139782E090E0938B828BA8
:10159000DF91CF91FF90EF90DF90CF900895ED9184
:1015A000FC911197E20FF31FE280F3801E141F04D9
:1015B00054F4E480F580F782E682F186E0861386B3
:1015C0001286D183C083EFEFCE1ADE0A225F3F4F2F
:1015D000C5CF24E4269FF001279FF00D1124EB5581
:1015E000FC4F138A128A4CCB24E4269FF001279FDC
:1015F000F00D1124EB55FC4F8289938981309105C0
:10160000C8F08530910518F0059769F008958FEFBF
:101610009FEFDC01828F938FA48FB58F85E090E0E0
:10162000938B828B08958FEF9FEFDC01828F938FD6
:10163000A48FB58F089524E4249FD001259FB00D79
:101640001124AB55BC4F2EE0AC01249FC001259F57
:10165000900D11241A96ED91FC91E80FF91F81E08D
:1016600080932D048285938591878087408551855D
:101670002681378181E090E04217530711F090E016
:1016800080E09183808308952F923F924F925F92E2
:101690006F927F928F929F92AF92BF92CF92DF9282
:1016A000EF92FF920F931F93CF93DF93CDB7DEB7E7
:1016B000C055D1090FB6F894DEBF0FBECDBF9EAFA7
:1016C0008DAF4BA75CA76DA77EA76801790184E465
:1016D000809FF001819FF00D1124EB55FC4F228576
:1016E000338523963FAF2EAF239782899389029744
:1016F00061F486A597A5A0A9B1A9892B8A2B8B2B6C
:10170000C9F584E090E0938B828B84E48C9DF0019A
:101710008D9DF00D1124EB55FC4F82899389823009
:10172000910509F037C282AD93ADA4ADB5AD2224C9
:101730002394312C181619061A061B060CF42FC216
:10174000C05BDF4F0FB6F894DEBF0FBECDBFDF9199
:10175000CF911F910F91FF90EF90DF90CF90BF90AE
:10176000AF909F908F907F906F905F904F903F9041
:101770002F900895848995894DAD5EAD84179507A6
:1017800021F606A917A918AE1FAA1BAA1CAA1DAAF2
:101790001EAA1F01CF018E9627969FAF8EAF279767
:1017A000DF01D2962996BFAFAEAF2997F8962B9658
:1017B000FFAFEEAF2B9791012A5D3F4F2D963FAFC4
:1017C0002EAF2D97A1014E5D5F4F2F965FAF4EAFAD
:1017D0002F970A9761969FAF8EAF61972796EEADD0
:1017E000FFAD279780819181A281B3812BA93CA96C
:1017F0004DA95EA9281739074A075B0744F081E025
:1018000090E0D101D9969C938E93D8977ECF29965C
:10181000AEADBFAD2997ED91FC912FA938ADE20F88
:10182000F31F428153815AAF49AF50815FAF81812D
:1018300021968FAF21972B96AEADBFAD2B978D9193
:101840009C91892B21F12D96EEADFFAD2D978080D7
:101850009180A280B3801AAB09AB5FA72196FFAD40
:101860002197F8AB29AD3AAD369527953695279552
:1018700025963FAF2EAF25971CAE1BAE2596AEAD7D
:10188000BFAD2597EBADFCADEA17FB070CF149ADF9
:101890005AAD6FAD21967FAD2197C8010E946F268A
:1018A00089AD9AAD8C7F080F191F2BA93CA94DA9B2
:1018B0005EA92F5F3F4F4F4F5F4F2BAB3CAB4DAB04
:1018C0005EAB4FA958AD4C5F5F4F58AF4FAB86CF63
:1018D0002F96AEADBFAD2F978D919C91892B71F155
:1018E000EFA5F8A94080518062807380A301920126
:1018F000C501B4010E94AF1E181664F0A9A9BAA9C7
:101900002D913D914D915C91C501B4010E94E91F5B
:101910001816BCF1A3019201C501B4010E94AF1ECB
:1019200087FF0CC0E9A9FAA9208131814281538146
:10193000C501B4010E94AF1E882319F16196AEADB6
:10194000BFAD61978D919C91892B09F445C0EFA59E
:10195000F8A94080518062807380A3019201C50183
:10196000B4010E94E91F18161CF5A9A9BAA92D9166
:101970003D914D915C91C501B4010E94AF1E1816B6
:101980005CF184E48C9DF0018D9DF00D1124EB55EC
:10199000FC4F868D978DA0A1B1A1892B8A2B8B2B13
:1019A00069F183E090E0938B828B81E090E02CC022
:1019B000A3019201C501B4010E94AF1E81110CC0A8
:1019C000E9A9FAA92081318142815381C501B4017D
:1019D0000E94AF1E87FDD5CF2BAD3CAD2F5F3F4F93
:1019E0003CAF2BAF49A95AA94C5F5F4F5AAB49ABEB
:1019F0008FA598A9049698AB8FA740CF84E090E07C
:101A0000938B828B86AD97AD93A782A77ECEEBADED
:101A1000FCAD80819181F401EE0FFF1FEE0FFF1FDF
:101A2000E80FF91FA081B1818C9181110AC0FFEFED
:101A30008F1A9F0AAF0ABF0A8DA29EA2AFA2B8A6B4
:101A40008FC18330A1F30280F381E02D2FA938AD3F
:101A5000E20FF31F808191819AAB89AB892B39F317
:101A60004F5F5F4F6F4F7F4F49875A876B877C87E8
:101A70009E01235E3F4FAE01475D5F4F64E070E023
:101A8000C8010E9445048111D0C18D819E81AF8122
:101A9000B8850496A11DB11D8D839E83AF83B88741
:101AA0004D8D5E8DBE016B5D7F4F8F8D98A10E9425
:101AB0006F268BA19CA1009761F06D8D7E8DA5E2B4
:101AC000B0E0AC0FBD1F6A0F7B1F49A15AA10E9455
:101AD0006F261CAA1BAA412C512C3201E9A9FAA994
:101AE00080819181A281B381481659066A067B06DE
:101AF0000CF09DCFE9A9FAA9848195812BA93CA975
:101B0000280F391F38AB2FA7D90112966D917C9100
:101B10009E01235E3F4FAE01475D5F4FC8010E94AB
:101B20004504811182C1EFA5F8A982819381092E14
:101B3000000CAA0BBB0B4D815E816F817885840FF1
:101B4000951FA61FB71F8D839E83AF83B8876081C3
:101B500071814D8D5E8D8F8D98A10E946F268BA116
:101B60009CA1009761F0AFA5B8A96D917C912D8DD6
:101B70003E8D620F731F49A15AA10E946F26BFEFCD
:101B80004B1A5B0A6B0A7B0AEBA9FCA93496FCABE7
:101B9000EBABA4CF312C212C049709F0D1CD8EE0F2
:101BA000EDADFEAD8E9F80018F9F100D1124239609
:101BB0002EAD3FAD2397020F131FD80112964D9102
:101BC0005C9113974115510509F4BACD16968D9184
:101BD0009C919AA789A780E1FE013196DF011D92B1
:101BE0008A95E9F7C98ADA8AEB8AFC8A21143104DA
:101BF00009F458C084E48C9DF0018D9DF00D1124F2
:101C0000EB55FC4FDF01DE968D909D90AD90BC9022
:101C100082AD93ADA4ADB5AD88169906AA06BB06F4
:101C200009F040C0F801848195810084F185E02DA0
:101C3000349624E0DE01559601900D922A95E1F745
:101C40002D893E89285F3F4F3E8B2D8BD8011896FA
:101C50006D917C911997260F371F19963C932E93FF
:101C6000189718962D913C911997480F591F241BCE
:101C7000350B37FD06C0820F931F19969C938E93E8
:101C8000189784E48C9DF0018D9DF00D1124ED5189
:101C9000FC4FB1E08B1A9108A108B10880829182B3
:101CA000A282B3829E012B5E3F4FAE01475D5F4F24
:101CB00064E170E0C8010E9445048111B6C08CE067
:101CC00090E0A0E0B0E08D839E83AF83B8879E0153
:101CD000235E3F4FAE01475D5F4F64E070E0C80197
:101CE0000E9445048111A1C080E190E0A0E0B0E035
:101CF0008D839E83AF83B8874D8D5E8DBE01655DFC
:101D00007F4F8F8D98A10E946F268BA19CA1009779
:101D100061F06D8D7E8DEBE2F0E0EC0FFD1F6E0F3C
:101D20007F1F49A15AA10E946F261DA21EA21FA2B9
:101D300018A62DAD3EAD220F331F38AF2FAB24E4D4
:101D40002C9DC0012D9D900D11248B559C4FAC01F5
:101D50004C5F5F4F5AAF49AFDC011896BCAFABAFD9
:101D60008DA09EA0AFA0B8A449855A856B857C85BF
:101D7000E9ADFAAD80819181A281B381881699067F
:101D8000AA06BB060CF443CE452B462B472B09F481
:101D9000D7CC8AE190E0A0E0B0E089839A83AB835E
:101DA000BC832DAD3EADC901330FAA0BBB0B8D8794
:101DB0009E87AF87B88B4D895E89BE016F5F7F4F6D
:101DC0008F89988D0E946F268B8D9C8D009761F076
:101DD0006D897E8941E050E04C0F5D1F640F751FD7
:101DE000498D5A8D0E946F2689A59AA5D80117960C
:101DF0009C938E93169711961C921E92232809F499
:101E00009FCC84E48C9DF0018D9DF00D1124ED514B
:101E1000FC4F80819181A281B3810196A11DB11DEA
:101E200080839183A283B3838BCC232809F088CC51
:101E300084E48C9DF0018D9DF00D1124EB55FC4F39
:101E400081E090E095A784A785E090E0938B828B5A
:101E500077CCCF92DF92EF92FF920F931F9324E4FF
:101E6000269FF001279FF00D1124EB55FC4F22898E
:101E700033892115310509F452C06B017C012130F1
:101E80003105B1F482A593A59C012F5F3F4F33A785
:101E900022A7092E000CAA0BBB0B028D138D248DDB
:101EA000358D80179107A207B307C9F5C7013CDB41
:101EB00084E48C9DF0018D9DF00D1124EB55FC4FB9
:101EC00082899389039759F582A593A59C012F5F79
:101ED0003F4F33A722A7092E000CAA0BBB0B468D40
:101EE000578D60A171A184179507A607B707BCF0AD
:101EF00086AD97AD93A782A784E090E0938B828B09
:101F000082AD93ADA4ADB5AD181619061A061B0621
:101F100034F4EE5BFF4F81E090E0918380831F916A
:101F20000F91FF90EF90DF90CF90089524E4269FCB
:101F3000F001279FF00D1124EB55FC4F8289938906
:101F40000497B1F482A593A5019693A782A7092EC1
:101F5000000CAA0BBB0B46895789608D718D8417C5
:101F60009507A607B70721F485E090E0938B828B55
:101F700008952F923F924F925F926F927F928F922D
:101F80009F92AF92BF92CF92DF92EF92FF920F9308
:101F90001F93CF93DF93CDB7DEB72E970FB6F8948C
:101FA000DEBF0FBECDBFDC0149835A836B837C83C8
:101FB000290184E4849FF001859FF00D1124EB55E5
:101FC000FC4F22883388C1010497029708F0D5C0DE
:101FD00011961C921E9213961C921E9212971586B1
:101FE0001486912C812C90E080E08F019F01205F6E
:101FF0003F4F38872F833F013CE0630E711CBF01C8
:10200000625F7F4F7A8769873A96FC87EB87EF811B
:10201000F88520813181F30140815181E985FA857C
:10202000A080B180841595050CF445C011965C9391
:102030004E9313963C932E9312971596BC92AE92A4
:102040001497452BF9F4F5E02F163104D9F41092CA
:102050002D04F801828D938DA48DB58DAE014F5F57
:102060005F4F64E070E08F3F9F4FAF4FBF4F09F06D
:1020700079C080E290E0F6D469817A818B819C817D
:10208000A201A7DA2E960FB6F894DEBF0FBECDBF21
:10209000DF91CF911F910F91FF90EF90DF90CF9044
:1020A000BF90AF909F908F907F906F905F904F9078
:1020B0003F902F900895EB85FC8560817181FB0135
:1020C000E80DF91DFE87ED8760817181672B89F529
:1020D000E084F184628173817E836D836681778180
:1020E0006A01E3E0CC0CDD1CEA95E1F72C0D3D1D07
:1020F000440F551F4A0D5B1DFA0191838083F30144
:10210000408151814F5F5F4F51834083F901F382DA
:10211000E282ED85FE8573876287E616F70670F426
:102120006E197F09F9017183608315821482178209
:1021300016820196FEE08F0E911C69CFED85FE851B
:10214000C480D5804D815E814C0D5D1D4E195F09A7
:10215000F901518340836C197D0975836483D782AB
:10216000C682E7CF8FE190E07DD4F80113A612A6D6
:1021700081E090E0938B828B85CF15861486119633
:102180001C921E9213961C921E9212977BCFEF9276
:10219000FF920F931F93CF93DF937C018B01EA0192
:1021A0003DD581111BC080917402909175020497F6
:1021B000F9F4DF91CF911F910F91FF90EF90089567
:1021C00028ED38EB45E050E060E070E0CB01DCD773
:1021D000AE01B801C701E6D7C801AFD780912E0480
:1021E00090912F04892BF9F68881882349F3DBCF5E
:1021F00083E090E09093750280937402DACFCF93DE
:10220000DF9320917402309175022430310531F052
:10221000EB01C8D7CE01DF91CF918FC7DF91CF916E
:1022200008950C94D01C0C94C51C0C94B31C95C739
:102230000C94571C089570E060E090E080E0C9C401
:102240000895AF92BF92CF92DF92EF92FF920F93D9
:102250001F93CF93DF931F921F92CDB7DEB75C0120
:102260008B0169017A0190E080E0C114D104E1049E
:10227000F10469F40F900F90DF91CF911F910F91AE
:10228000FF90EF90DF90CF90BF90AF9008959C2D7E
:102290008D2DC114D10421E0E206F10410F09FEF6E
:1022A0008FEF9E012F5F3F4F492F582FB801C50177
:1022B0000E94591D8F3F9807E9F229813A81C21A7D
:1022C000D30AE108F108020F131FCFCF40E855E20F
:1022D00060E070E090E080E000C08130910579F02E
:1022E0001CF4892B39F008958230910561F0039731
:1022F00071F0089526E085E694E00C94212226E012
:1023000082E095E0FACF26E08FE995E0F6CF26E06F
:102310008CE396E0F2CF1F920F920FB60F9211242A
:102320000BB60F922F933F934F935F936F937F93CF
:102330008F939F93AF93BF93EF93FF938BEC93EFA8
:1023400090932501809324010E94921DFF91EF91AB
:10235000BF91AF919F918F917F916F915F914F91BD
:102360003F912F910F900BBE0F900FBE0F901F90BB
:1023700018958BEC93EF9093250180932401A3E7AC
:10238000B0E08C918E7F8C93E0E2F1E080818C7FD5
:102390008083E1E2F1E08081877E808380818560B7
:1023A000808380818D7F80838C9181608C93089560
:1023B00081E008958F929F92AF92BF92CF92DF9269
:1023C000EF92FF920F931F93CF93DF935C017B01FA
:1023D0008A01C1E0D0E0CE15DF05CCF081E0F50147
:1023E0008083B801C7010E94FA1CF50192838183A2
:1023F00090E080E0DF91CF911F910F91FF90EF90DF
:10240000DF90CF90BF90AF909F908F9008956E0116
:102410008FEFC81AD80AFE01EE0FFF1FE00FF11F61
:10242000808091808114910469F069EF72E0C401A9
:102430000E947F26892B41F4CC0FDD1FC00FD11FD6
:1024400019821882E601C7CF6CEF72E0C4010E94C6
:102450007F26892BB9F7EC14FD04A1F36E01E2E0AD
:10246000CE0ED11CCC0FDD1FC00FD11F19821882D8
:102470001B821A82E7CF80E394E0089580E00895FC
:102480000F931F93CF93DF938B01BA01E901198258
:1024900018829801012E000C440B550BFC01818120
:1024A0009281CFDE019641F01983088380E0DF91AD
:1024B000CF911F910F91089581E0F9CF0F931F9352
:1024C000CF93DF931F921F92CDB7DEB7FB018A0136
:1024D000B9019E012F5F3F4FAF01FC0181819281C5
:1024E0000E940E1D019669F089819A81F8019183FD
:1024F000808380E00F900F90DF91CF911F910F911B
:10250000089581E0F7CFFC01808108950895089532
:1025100081E0FB01808380E00895089510925804C3
:102520000895FC01818192810C94F21CCF93DF937A
:1025300000D000D000D01F92CDB7DEB7B0E0A0E051
:1025400089839A83AB83BC83CB01770FAA0BBB0B28
:102550008D839E83AF83B8879E01275F3F4FAE0177
:102560004F5F5F4F68E070E08091470490914804AE
:1025700087DF811110C081E029853A852830310537
:1025800009F480E02A960FB6F894DEBF0FBECDBFE7
:10259000DF91CF91089581E0F5CF0F931F93CF93F3
:1025A000DF931F921F92CDB7DEB78B019E012F5F85
:1025B0003F4FAC01809147049091480461DF811145
:1025C0000EC081E029813A812017310709F480E0AB
:1025D0000F900F90DF91CF911F910F91089581E09F
:1025E000F7CFCF93DF93EC0110924B0410924A0483
:1025F0001092570410925604AC0160E070E0CB01D9
:102600000E94E90AAE0161E070E080E090E00E9483
:10261000E90A8091470490914804DF91CF917DCFE2
:102620004F925F926F927F928F929F92AF92BF92E2
:10263000CF92DF92EF92FF920F931F93CF93DF938E
:102640001F921F92CDB7DEB78C017C0197FF03C0AC
:1026500087E0E80EF11C23E0F594E7942A95E1F772
:10266000C80168E070E00E94DF246C010E5F1F4F1C
:10267000809145049091460480179107D4F480918D
:10268000430490914404009731F00E94E625109293
:10269000460410924504C8010E944A2590934404C0
:1026A00080934304892B09F482C01093460400935D
:1026B000450410E000E047C1412C512C3201B12CFF
:1026C000A12C9501245B3B4FAE014F5F5F4F61E052
:1026D00070E08091470490914804F0DE811149C078
:1026E000EFEF4E1A5E0A6E0A7E0AF0E94F16FFE51A
:1026F0005F06F1E06F06710444F06091560470913A
:1027000057048DEE90E012DFD7CF89819A81A80E11
:10271000B91E8AE0A816B10409F043C049E050E0B0
:1027200070E060E08CE494E00E94841D60915604A7
:1027300070915704882391F18091540490E086179A
:10274000970781F4BC018EEE90E0F0DE8091560494
:1027500090915704019699279093570480935604BB
:102760000F5F1F4F0E151F050CF4A6CFCD2809F0E3
:102770007CC090E080E00F900F90DF91CF911F918F
:102780000F91FF90EF90DF90CF90BF90AF909F9010
:102790008F907F906F905F904F9008958FEE90E0B4
:1027A000B2CFEAE0AE16B1040CF48BCFDBCF10E071
:1027B00000E0D8CF0A30110531F549E050E070E073
:1027C00060E08CE494E00E94841D60915604709156
:1027D00057048823A9F08091540490E08617970746
:1027E00041F6BC018EEE90E0A1DE809156049091FE
:1027F0005704019699279093570480935604B9CFB4
:102800008FEE90E02BC00A3011050CF0B2CF98018A
:10281000245B3B4FAE014F5F5F4F61E070E0809102
:102820004704909148044ADE8111A3CF89819A819F
:10283000080F191FFFEFCF1ADF0AEF0AFF0A80E91E
:10284000C8168FE5D80681E0E806F1040CF4B2CF93
:1028500060915604709157048DEE90E067DE10E0B1
:1028600000E0C12CD12C7601D2CFC12CD12C760125
:1028700010E000E0CCCF412C512C3201B12CA12C26
:10288000480193E0880C991C9A95E1F72091430444
:1028900030914404C501880D991D280F391FAE01E0
:1028A0004F5F5F4F61E070E0809147049091480472
:1028B00005DE81115ECFEFEF4E1A5E0A6E0A7E0AC8
:1028C00060915604709157048DEE90E0F0E94F1638
:1028D000FFE55F06F1E06F0671040CF043C08981EB
:1028E0009A81A80EB91E8AE0A816B10409F041C069
:1028F00049E050E0B40180914304909144040E9467
:10290000841D6091560470915704882349F1809189
:10291000430490914404880E991EF401808590E050
:102920008617970781F4BC018EEE90E0FFDD809161
:1029300056049091570401969927909357048093D9
:1029400056040F5F1F4F0E151F050CF494CFC114D2
:10295000D10409F081C080914304909144040BCFCD
:102960008FEE90E0E3DD412C512C3201B12CA12CF3
:102970008DCFFAE0AF16B1040CF488CFE4CF8FEE20
:1029800090E0D4DDF12CE12C812C912C54019701A5
:10299000245B3B4FAE014F5F5F4F61E070E0809181
:1029A0004704909148048ADD8111E3CE8FEF881AA5
:1029B000980AA80AB80A60915604709157048DEEDF
:1029C00090E0E0E98E16EFE59E06E1E0AE06B10488
:1029D000C4F689819A81E80EF91EFAE0EF16F10437
:1029E000A9F549E050E070E060E08CE494E00E94DA
:1029F000841D6091560470915704882309F4BFCF59
:102A00008091540490E08617970709F0A4CFBC0189
:102A10008EEE90E08BDD83E0000F111F8A95E1F7C9
:102A20008091430490914404A6016CE474E0800F0B
:102A3000911F0E946F268091560490915704019631
:102A40009927909357048093560485CF8AE0E8161F
:102A5000F1040CF49CCF7FCF812C912C5401F12CEC
:102A6000E12C95CFCF92DF92EF92FF920F931F93BD
:102A7000CF93DF931F92CDB7DEB76C017B018A0144
:102A8000452B39F0AB0170E060E0C8010E94801D69
:102A90008983B701C6014ADD81110DC001151105F9
:102AA00051F0B701C80179DD811105C061E070E026
:102AB000CE01019672DD0F90DF91CF911F910F91A2
:102AC000FF90EF90DF90CF900895CF92DF92EF923A
:102AD000FF92CF93DF9300D000D01F921F92CDB70B
:102AE000DEB76B01F12CE12CC982DA82EB82FC8229
:102AF0002D833E834F835887AE014F5F5F4F68E061
:102B000070E0B0DF28960FB6F894DEBF0FBECDBFE1
:102B1000DF91CF91FF90EF90DF90CF9008958F924B
:102B20009F92AF92BF92CF92DF92EF92FF920F935C
:102B30001F93CF93DF937C01EB01CA01690170DD24
:102B40000097B1F42FEF3FEFA90161E070E0C701FA
:102B5000BCDFC1E08C2FDF91CF911F910F91FF90CF
:102B6000EF90DF90CF90BF90AF909F908F9008959F
:102B7000FC0181909190A190B190BF01FCE1EF1612
:102B8000F10479F4A5019401CE010E944F09C82FE8
:102B9000A5019401882369F061E070E0C70195DF29
:102BA000D9CF95018401AB01B601CE010E94520735
:102BB000EECF70E060E0C701DF91CF911F910F91E0
:102BC000FF90EF90DF90CF90BF90AF909F908F904D
:102BD0007CCF0F931F93CF93DF93EC018B014BDCE2
:102BE00090934804809347040097A9F0A801BE0180
:102BF000E1DBEC01892B49F0809147049091480476
:102C000085DC1092480410924704CE01DF91CF91E9
:102C10001F910F910895C8E0D3E0EECF8091470453
:102C20009091480470CC2F923F924F925F926F9296
:102C30007F928F929F92AF92BF92CF92DF92EF924C
:102C4000FF920F931F93CF93DF93CDB7DEB76997B2
:102C50000FB6F894DEBF0FBECDBF20914B042223E8
:102C6000F1F05B8B4A8B6E877F87888B998B9A01FB
:102C7000AB01BC01CE0101967C017BD910E048E09C
:102C8000242E312CE88EF98E89819A811816190626
:102C90000CF450C2112319F08A899B89A2DC699631
:102CA0000FB6F894DEBF0FBECDBFDF91CF911F915D
:102CB0000F91FF90EF90DF90CF90BF90AF909F90DB
:102CC0008F907F906F905F904F903F902F900895DE
:102CD000EB81FC818C859D8533E0880F991F3A95A7
:102CE000E1F7E80FF91F808191819093420480936E
:102CF00041042481358142815381509340044093A3
:102D00003F044681578150933E0440933D04820F17
:102D1000931F9C01990F440B550B2C8B3D8B4E8BB5
:102D20005F8B812C912C54018C899D89AE89BF8940
:102D300088169906AA06BB0638F18C859D85880FF2
:102D4000991FED81FE81E80FF91F4E855F85688927
:102D50007989808191810E941B0BAC85BD8511967C
:102D6000BD87AC8789819A81EC85FD85E817F907D5
:102D70000CF4AECF2A893B894E855F8568897989B5
:102D8000888D998DF6D880CF1F8260914104709113
:102D90004204CB01072E000CAA0BBB0B840175016A
:102DA000640134E0C30ED11CE11CF11CC816D90625
:102DB000EA06FB0608F0B3C020913F0430914004BE
:102DC000A4014C5F5F4F240F351FF901C080D12C47
:102DD000F12CE12C24013501F5E04F0E511C611C52
:102DE000711C481659066A067B0608F0A3C020919C
:102DF0003F0430914004F8013596E20FF31F208123
:102E0000D22A2401350126E0420E511C611C711C9E
:102E1000481659066A067B0608F097C020913F04C1
:102E200030914004F8013696E20FF31F2081E22A28
:102E30002401350137E0430E511C611C711C4816FA
:102E400059066A067B0608F08BC020913F0430913A
:102E50004004F8013796E20FF31F20812601370165
:102E6000722A7501640148E0C40ED11CE11CF11CFA
:102E70008C159D05AE05BF0508F41DC18816990681
:102E8000AA06BB0608F077C080913F0490914004E9
:102E9000800F911F68E070E080DBE0914104F091C9
:102EA00042049F010F2E000C440B550BD301C201AD
:102EB0008C0D9D1DAE1DBF1D281739074A075B07E6
:102EC00008F478C0C216D306E406F50608F05DC023
:102ED00080913F04909140049801285F3F4F820FFA
:102EE000931FB2015ADB8091410490914204AC01DE
:102EF000092E000C660B770BC416D506E606F706FE
:102F000008F04DC0085F1F4F80913F04909140042E
:102F1000800F911FA20170E060E0F2D5A7C044E0ED
:102F200050E0461B570B480D591D20913D04309130
:102F30003E0449CFE5E0F0E0E61BF70BE00FF11FA0
:102F400020913D0430913E0458CFE6E0F0E0E61BCE
:102F5000F70BE00FF11F20913D0430913E0464CF48
:102F6000E7E0F0E0E61BF70BE00FF11F20913D04D6
:102F700030913E0470CF9801261B370B80913D04A1
:102F800090913E04820F931F85CF91012E1B3F0B22
:102F9000200F311F80913D0490913E04A0CFD101BC
:102FA000A81BB90BCD01080F191F80913D0490910A
:102FB0003E04AECFBF0168507109601B710BC21691
:102FC000D306E406F50608F062C080913F049091B4
:102FD00040049801285F3F4F820F931FDEDA8091F3
:102FE000410490914204B101681B790B600F711F7D
:102FF000640D751D80913D0490913E04CEDA809160
:10300000410490914204AC0148505109FA01E01B7F
:10301000F10BAC01092E000C660B770BC416D5061C
:10302000E606F70608F03DC080913F049091400409
:103030009801285F3F4F820F931FAF0170E060E05F
:103040005FD58F832091410430914204F101E21B4E
:10305000F30B9F01200F311F240D351D50E040E080
:10306000682F80913D0490913E0436D58F8361E0B6
:1030700070E0CE01079691DA182F38E0430E511C0C
:10308000611C711C840C951CA61CB71C4DCE9101B3
:103090002E1B3F0B200F311F80913D0490913E0469
:1030A0009BCF9101281B390B200F311F80913D04CC
:1030B00090913E04C0CF88169906AA06BB0668F513
:1030C000601B710B80913F0490914004800F911F11
:1030D00064DA8091410490914204B101681B790B3C
:1030E000600F711F640D751D80913D0490913E0429
:1030F00054DA8091410490914204AC01092E000CF5
:10310000660B770BC416D506E606F70608F4FACE6A
:103110009101281B390BC90146CFC801861B970BAB
:1031200020913D0430913E04B201685F7F4F820FD1
:10313000931FDECF1D861C8615CECF93DF93EC0147
:10314000AC0160E070E0CB016EDDAE0161E070E0EB
:1031500080E090E0DF91CF9166CDCF9380914704DE
:10316000909148048BD9C82F81110BC060E070E0AA
:10317000CB010E94140661E070E080E090E00E94C4
:1031800014068C2FCF9108950F931F9389019A01F4
:10319000AB01BC018091470490914804B8D91F91BC
:1031A0000F9108954F925F926F927F928F929F92AC
:1031B000AF92BF92CF92DF92EF92FF920F931F9345
:1031C000CF93DF93CDB7DEB763970FB6F894DEBF2A
:1031D0000FBECDBF6C018B015A0180914B04882337
:1031E00009F43DC080914B04882309F442C08091CA
:1031F0004A041A821982882309F4C0C0F0E94F2ECC
:10320000FFE55F2E66246394712CF12CE12C97016D
:103210002D5C3B4FAE014F5F5F4F61E070E08091EE
:103220004704909148044AD9982E811169C0898138
:103230009A81E80EF91EE114F10409F461C081E0FD
:10324000481A51086108710859F560915604709147
:1032500057048DEE90E06AD91A82198251C06BE44E
:1032600074E0809147049091480452D9882309F46E
:10327000B9CF63960FB6F894DEBF0FBECDBFDF9116
:10328000CF911F910F91FF90EF90DF90CF90BF9063
:10329000AF909F908F907F906F905F904F90089528
:1032A000AAE0EA16F10409F063C049E050E070E0DA
:1032B00060E083E394E028D4609156047091570451
:1032C000882309F452C080913B0490E08617970749
:1032D00019F6BC018EEE90E029D988E0E3E3F4E032
:1032E000DE01199601900D928A95E1F780915604BE
:1032F0009091570401969927909357048093560410
:1033000081E029813A81121613060CF080E09110B9
:10331000CAC2882309F4ADCF80914A04811104C048
:1033200019861A861B861C8689859A85AB85BC857D
:1033300080319105A105B10508F09BCFFC018827DC
:10334000EB55F64E8F4F0C941425251AE41B531C95
:103350003919291B5C1B151A1D1AF919381C271C51
:10336000341C391939193919E4198FEE90E073CFEB
:10337000BAE0EB16F1040CF44ACFC2CFF12CE12CE9
:10338000E8E06E2E712C29E030E02C0F3D1F2E0D51
:103390003F1DAE014F5F5F4FB3016E197F098091F2
:1033A0004704909148048AD8982E29813A81811146
:1033B00009C0E20EF31EE114F10421F0E8E0EE167C
:1033C000F1040CF381E09FCFD6011696ED91FC91AC
:1033D00080819181A281B38189839A83AB83BC83ED
:1033E000AE014F5F5F4F64E070E085E190E03ADB53
:1033F00040CF8D859E8514D92FEF3FEFA90161E065
:1034000070E0009771F0FC01C080D180E280F38011
:10341000A801C701B6010E94940AA701960170E0B5
:1034200060E08DE190E051DB24CF4D855E85980111
:10343000B6018BE190E073DB1CCF4D855E852FEFED
:103440003FEFB6018CE190E0F6CFD6011496ED91F6
:10345000FC9100811181F80182809380A080B1806D
:1034600070E1472E512C612C712C49825A826B825B
:103470007C8288E090E0A0E0B0E08D839E83AF8303
:10348000B8879E012F5E3F4FAE014F5F5F4F68E0F0
:1034900070E080914704909148040E944012882374
:1034A000D9F010E000E0C80163960FB6F894DEBFD3
:1034B0000FBECDBFDF91CF911F910F91FF90EF9085
:1034C000DF90CF90BF90AF909F908F907F906F9044
:1034D0005F904F900C94E62589899A89089709F79F
:1034E000D801ED90FC90B8E0EB0EF11CEE0CFF1C47
:1034F000EE0CFF1CC7010E944A258C01892B89F222
:1035000049825A826B827C82C7010F2C000CAA0B65
:10351000BB0B8D839E83AF83B8879E012F5E3F4F89
:10352000AE014F5F5F4F68E070E08091470490917B
:1035300048040E9440128111B6CF89899A89089760
:1035400009F0B1CFD6011296ED91FC9140815181E5
:1035500062817381D8014D935D936D937C93139732
:10356000448155816681778114964D935D936D9367
:103570007C931797408551856285738518964D9386
:103580005D936D937C931B9784859585A685B78500
:10359000F80184879587A687B787108A118A128ACF
:1035A000138A84E090E0A0E0B0E0848B958BA68B3A
:1035B000B78B8091740290917502B0E0A0E0808F8B
:1035C000918FA28FB38FC5010B2C000CAA0BBB0BE4
:1035D000848F958FA68FB78FF401D801909690E0D5
:1035E00080E08A159B055CF19E012F5E3F4FA8018C
:1035F000B70180914704909148040E9440128111C4
:1036000052CF89899A89E816F90609F04CCFA701AB
:1036100070E060E0C80174D28B8B9E012F5E3F4F3B
:10362000AE014D5E5F4F61E070E080914704909184
:1036300048040E94401281E080934A0434CF4191B3
:10364000519170E060E04D935D936D937D93019691
:10365000C8CF8D859E85AF85B8890097A105B10536
:1036600021F481E08093490404CE0E941013009756
:1036700081F481E090E0A0E0B0E089839A83AB839D
:10368000BC83AE014F5F5F4F64E070E082E190E089
:10369000AECEBC01C6010E946E0519821A821B8241
:1036A0001C82AE014F5F5F4F64E070E082E190E00A
:1036B000D9D98823B1F2DDCDD6011496ED91FC91D4
:1036C0000190F081E02DE084F1848FEF8983E11493
:1036D000F10409F472C0D7016D907C90C280D38050
:1036E00070E060E090E080E08615970594F083E15B
:1036F00090E00E94961210E000E08111BACD06150C
:1037000017055CF161E070E0CE0101960E94CD12D8
:10371000B0CD9C0143E0220F331F4A95E1F7F7013A
:10372000A281B381A20FB31F1296ED91FC91139762
:10373000EE0FFF1FEC0DFD1D0190F081E02D1696A0
:103740004D915C91E49F9001E59F300DF49F300D09
:103750001124620F731F0196C7CFD7011296ED9106
:10376000FC91C80123E0880F991F2A95E1F7E80F23
:10377000F91FA080B180A281B381AA0FBB1FAC0D3D
:10378000BD1D2D913C9186819781289F4001299FE5
:10379000900C389F900C1124B401C5010E94CD12E9
:1037A000582E940150E040E06981C50195D189838C
:1037B00051105FCD0F5F1F4FA2CF70E060E083E13B
:1037C00090E00E94961255CD50E040E070E060E03D
:1037D00081E190E047D981114CCD60E070E0CB01F0
:1037E0000E94390780912D04882329F0A80160E008
:1037F00070E0CB0118DAA80160E070E0CB010E9414
:10380000400661E070E080E090E00E94390780911E
:103810002D04882331F0A80161E070E080E090E0A1
:1038200002DAA80161E070E080E090E00E944006CA
:1038300010924B0410924A041092570410925604AE
:1038400080914704909148040E948E1212CD81E02D
:1038500090E090932F0480932E0450E040E070E0BD
:1038600060E086E190E0C3CD81E0F501808301CD89
:103870008D859E850E9410132FEF3FEFA90161E017
:1038800070E0009769F0DC01CD90DD90ED90FC9048
:10389000C701B6010E94F40AA701960170E060E03A
:1038A0008EE190E0C0CDC8010E94F112E2CCCF922F
:1038B000DF92EF92FF92CF93DF93EC01C12CD12CDA
:1038C0007601C701B6010E943907AE01C701B601F2
:1038D000AAD9AE01C701B6010E94400680914304F7
:1038E00090914404009731F00E94E6251092440420
:1038F00010924304CA94CD28CE28CF2879F5809120
:103900004A04F12C882351F050E040E070E060E080
:1039100084E190E0A7D8F82E10924A0480914B04DD
:10392000882341F010924B0481E090E0909375025F
:103930008093740280914704909148040E949112F0
:1039400080914704909148040E9486128F2DDF9148
:10395000CF91FF90EF90DF90CF900895C12CD12CA4
:103960007601C394AECFCF93DF93EC01AC0160E05E
:1039700070E0CB010E94290FAE0161E070E080E0B1
:1039800090E0DF91CF910C94290F60E070E0CB01C3
:103990000E94960F61E070E080E090E00C94960F3A
:1039A000CF92DF92EF92FF920F931F93CF93DF930B
:1039B000EC016A017B0100E010E098010E94440BD9
:1039C00001E010E020E030E0B701A601CE010E9446
:1039D000440BDF91CF911F910F91FF90EF90DF90FB
:1039E000CF90089568EE73E080E090E0C8D390E057
:1039F00080E0089526E040E050E16EE070E085E66A
:103A000094E01FD585E694E052D4892B21F085E619
:103A100094E067D4F7CF90E080E00895CF92DF92F2
:103A2000EF92FF920F931F93CF93DF936B017A0175
:103A3000E9011982188285E694E039D4892B71F165
:103A40008601CC24C39485E6D82E80915804811138
:103A500011C085E694E045D485369105B1F7C09252
:103A60005804F801D1928F01888199810196998338
:103A70008883EBCF888199818E159F0578F485E640
:103A800094E02FD48F3F9807A9F3F80181938F0119
:103A900088819981019699838883ECCF90E080E0BA
:103AA000DF91CF911F910F91FF90EF90DF90CF901A
:103AB00008950F931F93CF93DF93EA01890185E661
:103AC00094E04FD7F801D183C08390E080E0DF918C
:103AD000CF911F910F910895DC01A40FB51F420FE4
:103AE000531F9D01281B390B2417350710F0862F13
:103AF0000895ED91E627F0E0EC51FF4F6491F1CF8E
:103B00009A01AB016FEFE8CFCF93FC01E60FF71FEF
:103B1000E40FF51FC081F4DF91E0C81390E0892F16
:103B2000CF9108958091590491E0980F9093590492
:103B3000882349F021E030E030935B0420935A045D
:103B400080935904089578940E947701F8948091A5
:103B500059048150809359040C941311FF920F93D0
:103B60001F93CF93DF931F92CDB7DEB71092D90783
:103B70001092D8073AD30E94661100918B021091DF
:103B80008C02F8011182108270E060E090E080E029
:103B90000E941B110E94B803F8947894C80186967D
:103BA0000E941A1181E090E00E9417111982AE0163
:103BB0004F5F5F4F61E070E0F801828193810E9466
:103BC000C7108981882319F081E0F80182A70E943B
:103BD0002011F8940E94B911F80180819181892BFC
:103BE00019F481E092A5911180E08093D807789430
:103BF0007894FF24F3948091D807811110C00E941B
:103C0000440481E090E00E941811F89490E080E074
:103C10000F90DF91CF911F910F91FF90089519821E
:103C2000AE014F5F5F4F61E070E0F80182819381E8
:103C30000E94FF108981882311F0F801F2A6F80193
:103C400080819181892B89F481E092A5911101C035
:103C500080E08093D9079091D90781E0911180E0AD
:103C60008093D8070E94D811C6CF81E0F2CF505878
:103C7000BB27AA270ED05CC14DD130F052D120F025
:103C800031F49F3F11F41EF442C10EF4E095E7FBBE
:103C90000FC1E92F5ED180F3BA176207730784075B
:103CA000950718F071F49EF58DC10EF4E0950B2E7A
:103CB000BA2FA02D0B01B90190010C01CA01A0017E
:103CC0001124FF27591B99F0593F50F4503E68F1D9
:103CD0001A16F040A22F232F342F4427585FF3CF1A
:103CE000469537952795A795F0405395C9F77EF4EB
:103CF0001F16BA0B620B730B840BBAF09150A1F034
:103D0000FF0FBB1F661F771F881FC2F70EC0BA0FB9
:103D1000621F731F841F48F4879577956795B79541
:103D2000F7959E3F08F0B3CF9395880F08F0992739
:103D3000EE0F9795879508952ED180F09F3740F428
:103D400091110EF440C160E070E080E89FE30895B7
:103D500026F01B16611D711D811DB0C0CAC084D024
:103D600008F481E0089504D06894B1112CC108953D
:103D7000F8D088F09F5790F0B92F9927B751A0F04D
:103D8000D1F0660F771F881F991F1AF0BA95C9F7EF
:103D900012C0B13081F016D1B1E0089513C1672F80
:103DA000782F8827B85F39F0B93FCCF3869577959F
:103DB0006795B395D9F73EF4909580957095619588
:103DC0007F4F8F4F9F4F0895E89409C097FB3EF4B3
:103DD00090958095709561957F4F8F4F9F4F992358
:103DE000A9F0F92F96E9BB279395F69587957795D6
:103DF0006795B795F111F8CFFAF4BB0F11F460FF96
:103E00001BC06F5F7F4F8F4F9F4F16C0882311F0ED
:103E100096E911C0772321F09EE8872F762F05C001
:103E2000662371F096E8862F70E060E02AF09A959C
:103E3000660F771F881FDAF7880F9695879597F991
:103E40000895A9D080F09F3740F491110EF0BBC0C7
:103E500060E070E080E89FEB089526F41B16611D7A
:103E6000711D811D2BC045C0990F0008550FAA0B6D
:103E7000E0E8FEEF16161706E807F907C0F012167D
:103E80001306E407F50798F0621B730B840B950B80
:103E900039F40A2661F0232B242B252B21F40895D5
:103EA0000A2609F4A140A6958FEF811D811D089572
:103EB00097F99F6780E870E060E00895882371F4C7
:103EC000772321F09850872B762F07C0662311F4B3
:103ED00099270DC09051862B70E060E02AF09A95EA
:103EE000660F771F881FDAF7880F9695879597F9E1
:103EF00008959F3F31F0915020F48795779567950D
:103F0000B795880F911D9695879597F908959FEF1E
:103F100080EC089500240A94161617061806090660
:103F2000089500240A94121613061406050608952F
:103F3000092E0394000C11F4882352F0BB0F40F4B7
:103F4000BF2B11F460FF04C06F5F7F4F8F4F9F4FF7
:103F5000089557FD9058440F551F59F05F3F71F079
:103F60004795880F97FB991F61F09F3F79F08795E0
:103F70000895121613061406551FF2CF4695F1DF69
:103F800008C0161617061806991FF1CF86957105F9
:103F9000610508940895E5DFA0F0BEE7B91788F43D
:103FA000BB279F3860F41616B11D672F782F88271E
:103FB000985FF7CF869577956795B11D939596395C
:103FC000C8F30895E894BB2766277727CB0197F9B4
:103FD00008954ADF08F48FEF08950BD0A9CF9ADF38
:103FE00028F09FDF18F0952309F062CF90CF1124BD
:103FF000EACFAFDFA0F3959FD1F3950F50E0551FA7
:10400000629FF001729FBB27F00DB11D639FAA272D
:10401000F00DB11DAA1F649F6627B00DA11D661F7C
:10402000829F2227B00DA11D621F739FB00DA11D9D
:10403000621F839FA00D611D221F749F3327A00D57
:10404000611D231F849F600D211D822F762F6A2FF3
:1040500011249F5750408AF0E1F088234AF0EE0F78
:10406000FF1FBB1F661F771F881F91505040A9F785
:104070009E3F510570F01CCFA6CF5F3FECF3983EFA
:10408000DCF3869577956795B795F795E7959F5FEC
:10409000C1F7FE2B880F911D9695879597F9089586
:1040A0001F920F920FB60F9211242F933F938F936D
:1040B0009F93AF93BF9380915D0490915E04A09114
:1040C0005F04B091600430915C0423E0230F2D372E
:1040D00058F50196A11DB11D20935C0480935D04E9
:1040E00090935E04A0935F04B09360048091610498
:1040F00090916204A0916304B09164040196A11DA3
:10410000B11D8093610490936204A0936304B09303
:104110006404BF91AF919F918F913F912F910F9028
:104120000FBE0F901F90189526E8230F0296A11D31
:10413000B11DD2CF3FB7F894809161049091620491
:10414000A0916304B091640426B5A89B05C02F3FDD
:1041500019F00196A11DB11D3FBFBA2FA92F982FAD
:104160008827BC01CD01620F711D811D911D42E0A8
:10417000660F771F881F991F4A95D1F708958F9270
:104180009F92AF92BF92CF92DF92EF92FF926B011C
:104190007C01D0DF4B015C01C114D104E104F104C6
:1041A000D9F00CD4C7DF681979098A099B09683EE0
:1041B00073408105910580F321E0C21AD108E1081E
:1041C000F10888EE880E83E0981EA11CB11CC11472
:1041D000D104E104F10431F7FF90EF90DF90CF902C
:1041E000BF90AF909F908F900895789484B582602F
:1041F00084BD84B5816084BD85B5826085BD85B58B
:10420000816085BDEEE6F0E0808181608083E1E839
:10421000F0E0108280818260808380818160808371
:10422000E0E8F0E0808181608083E1EBF0E0808174
:1042300084608083E0EBF0E0808181608083E1E94D
:10424000F0E0808182608083808181608083E0E90A
:10425000F0E0808181608083E1EAF0E0808182602B
:104260008083808181608083E0EAF0E080818160EA
:104270008083E1E2F1E080818260808380818160DF
:104280008083E0E2F1E0808181608083EAE7F0E012
:10429000808184608083808182608083808181606E
:1042A00080838081806880831092C1000895FC0122
:1042B000918D228D892F90E0805C9F4F821B910908
:1042C0008F7399270895FC01918D828D981731F095
:1042D000828DE80FF11D858D90E008958FEF9FEF9F
:1042E0000895FC01918D828D981761F0A28DAE0F1B
:1042F000BF2FB11D5D968C91928D9F5F9F73928FA2
:1043000090E008958FEF9FEF0895FC01538D448D49
:10431000252F30E0842F90E0821B930B541710F070
:10432000CF96089501970895FC01A48DA80FB92F89
:10433000B11DA35ABF4F2C91848D90E001968F73CD
:104340009927848FA689B7892C93A089B1898C91EC
:10435000837080648C93938D848D981306C002883B
:10436000F389E02D80818F7D80830895CF93DF9343
:10437000EC01888D8823B1F0AA89BB89E889F98985
:104380008C9185FD03C0808186FD0CC00FB607FCB3
:10439000F7CF8C9185FFF2CF808185FFEDCFCE01E5
:1043A000C3DFEACFDF91CF910895EF92FF920F9391
:1043B0001F93CF93DF93EC0181E0888F9B8D8C8DD1
:1043C00098131AC0E889F989808185FF15C09FB7C5
:1043D000F894EE89FF896083E889F9898081837088
:1043E000806480839FBF81E090E0DF91CF911F9137
:1043F0000F91FF90EF900895F62E0B8D10E00F5F58
:104400001F4F0F731127E02E8C8D8E110BC00FB62E
:1044100007FCFACFE889F989808185FFF5CFCE01C5
:1044200083DFF2CFEB8DEC0FFD2FF11DE35AFF4F31
:10443000F0829FB7F8940B8FEA89FB8980818062B4
:10444000D0CFCF92DF92EF92FF921F93CF93DF9363
:10445000EC016A017B01122FE889F98982E08083EF
:10446000C11481EED806E104F10499F060E079E02E
:104470008DE390E0A7019601B5D2215031094109A1
:1044800051095695479537952795211580E13807AD
:1044900090F0E889F989108260E874E88EE190E094
:1044A000A70196019FD22150310941095109569522
:1044B000479537952795EC85FD853083EE85FF85FB
:1044C0002083188EEC89FD891083EA89FB8980811D
:1044D00080618083EA89FB89808188608083EA89A2
:1044E000FB89808180688083EA89FB8980818F7D58
:1044F0008083DF91CF911F91FF90EF90DF90CF905D
:1045000008951F920F920FB60F9211240BB60F92BF
:104510002F938F939F93EF93FF93E0917504F09106
:1045200076048081E0917B04F0917C0482FD1DC0C3
:10453000908180917E048F5F8F7320917F0482171A
:1045400041F0E0917E04F0E0EB59FB4F958F8093B2
:104550007E04FF91EF919F918F912F910F900BBE51
:104560000F900FBE0F901F9018958081F2CF1F9271
:104570000F920FB60F9211240BB60F922F933F9309
:104580004F935F936F937F938F939F93AF93BF935B
:10459000EF93FF9385E694E0C7DEFF91EF91BF9123
:1045A000AF919F918F917F916F915F914F913F91CB
:1045B0002F910F900BBE0F900FBE0F901F9018956C
:1045C000E5E6F4E01382128288EE93E0A0E0B0E02A
:1045D00084839583A683B78387E493E09183808364
:1045E00085EC90E09587848784EC90E097878687B8
:1045F00080EC90E0918B808B81EC90E0938B828BB0
:1046000082EC90E0958B848B86EC90E0978B868B88
:10461000118E128E138E148E08951F920F920FB664
:104620000F9211240BB60F922F938F939F93EF93BA
:10463000FF93E0911205F09113058081E091180538
:10464000F091190582FD1DC0908180911B058F5F3F
:104650008F7320911C05821741F0E0911B05F0E05B
:10466000EE5FFA4F958F80931B05FF91EF919F911D
:104670008F912F910F900BBE0F900FBE0F901F9038
:1046800018958081F2CF1F920F920FB60F921124CE
:104690000BB60F922F933F934F935F936F937F933C
:1046A0008F939F93AF93BF93EF93FF9382E095E037
:1046B0003BDEFF91EF91BF91AF919F918F917F91E1
:1046C0006F915F914F913F912F910F900BBE0F9083
:1046D0000FBE0F901F901895E2E0F5E01382128252
:1046E00088EE93E0A0E0B0E084839583A683B7834F
:1046F00087E493E0918380838DEC90E095878487B5
:104700008CEC90E09787868788EC90E0918B808B8B
:1047100089EC90E0938B828B8AEC90E0958B848B74
:104720008EEC90E0978B868B118E128E138E148EEA
:1047300008951F920F920FB60F9211240BB60F928D
:104740002F938F939F93EF93FF93E091AF05F09199
:10475000B0058081E091B505F091B60582FD1DC0E0
:1047600090818091B8058F5F8F732091B905821772
:1047700041F0E091B805F0E0E156FA4F958F809353
:10478000B805FF91EF919F918F912F910F900BBEE4
:104790000F900FBE0F901F9018958081F2CF1F923F
:1047A0000F920FB60F9211240BB60F922F933F93D7
:1047B0004F935F936F937F938F939F93AF93BF9329
:1047C000EF93FF938FE995E0AFDDFF91EF91BF91FC
:1047D000AF919F918F917F916F915F914F913F9199
:1047E0002F910F900BBE0F900FBE0F901F9018953A
:1047F000EFE9F5E01382128288EE93E0A0E0B0E0EA
:1048000084839583A683B78387E493E09183808331
:1048100085ED90E09587848784ED90E09787868783
:1048200080ED90E0918B808B81ED90E0938B828B7B
:1048300082ED90E0958B848B86ED90E0978B868B54
:10484000118E128E138E148E08951F920F920FB632
:104850000F9211240BB60F922F938F939F93EF9388
:10486000FF93E0914C06F0914D068081E091520655
:10487000F091530682FD1DC09081809155068F5F97
:104880008F7320915606821741F0E0915506F0E0B3
:10489000E45CF94F958F80935506FF91EF919F91BE
:1048A0008F912F910F900BBE0F900FBE0F901F9006
:1048B00018958081F2CF1F920F920FB60F9211249C
:1048C0000BB60F922F933F934F935F936F937F930A
:1048D0008F939F93AF93BF93EF93FF938CE396E0F7
:1048E00023DDFF91EF91BF91AF919F918F917F91C8
:1048F0006F915F914F913F912F910F900BBE0F9051
:104900000FBE0F901F901895ECE3F6E01382128211
:1049100088EE93E0A0E0B0E084839583A683B7831C
:1049200087E493E09183808385E391E09587848792
:1049300084E391E09787868780E391E0918B808B79
:1049400081E391E0938B828B82E391E0958B848B62
:1049500086E391E0978B868B118E128E138E148EC8
:104960000895AF92BF92CF92DF92EF92FF920F9392
:104970001F93CF93DF936C017B018B01040F151FF5
:10498000EB015E01AE18BF08C017D10759F069915D
:10499000D601ED91FC910190F081E02DC6011995B1
:1049A000892B79F7C501DF91CF911F910F91FF906E
:1049B000EF90DF90CF90BF90AF900895089597FB50
:1049C000072E16F4009406D077FD08D035D007FCEA
:1049D00005D03EF4909581959F4F0895709561950F
:1049E0007F4F0895A1E21A2EAA1BBB1BFD010DC02B
:1049F000AA1FBB1FEE1FFF1FA217B307E407F5078F
:104A000020F0A21BB30BE40BF50B661F771F881F6A
:104A1000991F1A9469F760957095809590959B0100
:104A2000AC01BD01CF010895EE0FFF1F881F8BBFA2
:104A30000790F691E02D1994AA1BBB1B51E107C00A
:104A4000AA1FBB1FA617B70710F0A61BB70B881F1E
:104A5000991F5A95A9F780959095BC01CD010895AD
:104A60000F931F93CF93DF93869F8001879F100D35
:104A7000969F100D1124C8010DD0EC01009721F074
:104A8000A80170E060E034D1CE01DF91CF911F9199
:104A90000F9108950F931F93CF93DF938230910569
:104AA00010F482E090E0E091DC07F091DD0730E067
:104AB00020E0B0E0A0E0309799F42115310509F429
:104AC0004AC0281B390B24303105D8F58A819B81D7
:104AD0006115710589F1FB0193838283FE0111C089
:104AE000408151810281138148175907E0F048172E
:104AF000590799F4109761F012960C931297139638
:104B00001C933296CF01DF91CF911F910F910895A1
:104B10000093DC071093DD07F4CF2115310551F028
:104B20004217530738F0A901DB019A01BD01DF01EB
:104B3000F801C1CFEF01F9CF9093DD078093DC0737
:104B4000CDCFFE01E20FF31F8193919322503109E3
:104B500039832883D7CF2091DA073091DB07232BC5
:104B600041F420910202309103023093DB0720933D
:104B7000DA0720910002309101022115310541F43C
:104B80002DB73EB74091040250910502241B350B0E
:104B9000E091DA07F091DB07E217F307A0F42E1B90
:104BA0003F0B2817390778F0AC014E5F5F4F241791
:104BB000350748F04E0F5F1F5093DB074093DA072D
:104BC000819391939FCFF0E0E0E09CCFCF93DF9370
:104BD0000097E9F0FC01329713821282A091DC0762
:104BE000B091DD07ED0130E020E01097A1F42081C5
:104BF0003181820F931F2091DA073091DB0728174C
:104C0000390709F061C0F093DB07E093DA07DF9121
:104C1000CF910895EA01CE17DF07E8F54A815B815D
:104C20009E0141155105B1F7E901FB83EA834991E2
:104C30005991C40FD51FEC17FD0761F48081918154
:104C40000296840F951FE90199838883828193815D
:104C50009B838A83F0E0E0E012968D919C911397FC
:104C60000097B9F52D913C911197CD010296820FD5
:104C7000931F2091DA073091DB072817390739F69F
:104C8000309751F51092DD071092DC07B093DB07E7
:104C9000A093DA07BCCFD383C28340815181840FB4
:104CA000951FC817D90761F44E5F5F4F88819981BE
:104CB000480F591F518340838A819B81938382834C
:104CC0002115310509F0B0CFF093DD07E093DC0743
:104CD0009ECFFD01DC01C0CF13821282D7CFFB0132
:104CE000DC0102C001900D9241505040D8F7089568
:104CF000DC0101C06D9341505040E0F70895FB0185
:104D0000DC018D91019080190110D9F3990B089560
:044D1000F894FFCF45
:104D14000000DE07800001000A02560200000000C5
:104D2400070001001602D7070200000001008D02EF
:104D340094029E029D02A602A502AF02AE02B70231
:104D4400C102CC02D202DC02E5020400040001002C
:104D5400010002000200040004000100040002003B
:104D64000200040008000000803F00000000000072
:104D7400803F0000803F000040400000803F000072
:104D840000000101010053696D756C6174696F6EF7
:104D94002066696E697368656400017A03726561EF
:104DA4006C5F54007265616C33325F540075696ED8
:104DB40074385F540075696E7431365F54007569D8
:104DC4006E7433325F5400626F6F6C65616E5F5452
:104DD4000066636E5F63616C6C5F5400696E745F40
:104DE4005400706F696E7465725F54006163746916
:104DF4006F6E5F540074696D65725F75696E7433AC
:104E0400325F706169725F54002D77002D69676E9F
:104E14006F72652D61726700436F756C64206E6FED
:104E240074206372656174652065787465726E615F
:104E34006C206D6F646520757365722064617461A4
:104E44002E20204F7574206F66206D656D6F72790A
:104E54002E0A0000000000D521B1248521B6215777
:064E640021712163210011
:00000001FF
